:0200000407FCF7
:100000006065FC078D0DFC074D02FC072D02FC0707
:100010002902FC072902FC072902FC072902FC0728
:100020000000000000000000000000002902FC07A2
:1000300000000000000000002902FC072902FC0764
:10004000FD21FC07FD22FC07A526F007510CFC074B
:10005000850AFC072902FC075508FC072902FC0752
:100060002902FC072902FC070524FC070F24FC07D2
:100070001924FC072324FC072D24FC072902FC0774
:10008000791EFC07B50AFC072902FC072902FC07B8
:100090002902FC072902FC072902FC072902FC07A8
:1000A0000000000090070E000000000000000000AB
:1000B0000000000000000000000000000000000040
:1000C0000000000000000000000000000000000030
:1000D0000000000000000000000000000000000020
:1000E0000000000000000000000000000000000010
:1000F0000000000000000000000000000000000000
:1001000000000000000000000000000000000000EF
:100110000448054B10B5834203D0044B002B00D09C
:10012000984710BD344DFC07344DFC07000000001B
:1001300006480749091A8B10C90FC91810B549108C
:1001400003D0044B002B00D0984710BD344DFC0762
:10015000344DFC070000000010B5074C2378002B3D
:1001600009D1FFF7D5FF054B002B02D0044800E072
:1001700000BF0123237010BDEC5DFC0700000000F0
:10018000FC4CFC07054B10B5002B03D00449054877
:1001900000E000BFFFF7CCFF10BDC046000000002C
:1001A000F05DFC07FC4CFC07402292029A1A924632
:1001B0007047C046174B002B00D1134B9D46FFF7ED
:1001C000F3FF00218B460F461348144A121A04F01D
:1001D000DBF90E4B002B00D098470D4B002B00D0C5
:1001E00098470020002104000D000D48002802D08F
:1001F0000C4800E000BF04F0CFF92000290003F014
:10020000A3FA04F0ADF9C0460000080000000000A9
:10021000000000006065FC07EC5DFC07605EFC0709
:100220000000000000000000FEE70000042071460E
:10023000084203D0EFF3098003490847EFF3088031
:100240000149084770470000E134FC07042071466B
:10025000084203D0EFF3098003490847EFF3088011
:100260000149084770470000F935FC07F8B5002040
:100270000C250126154B164C1A78290051430F5DA9
:10028000FF2F0FD1002800D01A700C255A78114882
:10029000290051430C5CFF2C0FD1002201201A7061
:1002A0005A7009E06118496801323000D2B2002961
:1002B000E3D01A7088470020F8BD41184968013220
:1002C000D2B20029E4D05A70F4E7C04628CBFC072C
:1002D000E84CFC076C49FC07002070470020704781
:1002E00000207047014B9B8C0380704728CBFC0794
:1002F00008230380DB184380002383807D33C38081
:10030000704701230B7000234B808B8070470000E7
:10031000094B10B5C21893B20120042B0BD800244E
:10032000064B92009818836AA34201D084629847D2
:100330000020029B1C7010BDF2FBFFFF28CBFC07C6
:10034000704770470020704700207047094B01221A
:100350001B88DB0918001040134208D0064B002010
:100360001B681B0403D4054B1B889A431000012310
:1003700018407047080000503000004018FAFC0791
:1003800000207047180A7A234343034A0020D218FA
:100390000B78B4321370704728CBFC0700207047ED
:1003A000084B10B5DA6B80231B02984207D3002359
:1003B00019005CF7ADFF8905800A084310BD504362
:1003C000800AFBE7A8CBFC07044B10B59B6B0449E4
:1003D0005843044BC0185CF771FF10BDA8CBFC0755
:1003E00040420F0020A1070010B5FFF7D9FF10BD54
:1003F0007047704770470000064B984200D000BE1F
:100400000321054A13888B43802109020B43138083
:100410007047C0461111111112000050F0B51E288E
:1004200005D10E4B4908D218CBB2002B00D1F0BD3C
:100430000B4800210600146855680832076BBC425F
:1004400006D10631C90071184D60013BDBB2ECE703
:10045000013108300629F1D1F7E7C046D42EF8075C
:10046000C8CDFC07044B8900D2188918034B0A68D1
:100470007C331A807047C046D02EF807C8CDFC07E1
:100480000B4B10B5D2181068116880B2090C0B1A0A
:10049000084A9BB29C080133E31814007E34238081
:1004A000092343435B1A1BB2DB108032138010BD5B
:1004B000D42EF807C8CDFC0700207047704770475E
:1004C00010B5031CE6280CD9084B1B78EC20FA2148
:1004D000DBB2FF30584389005CF706FF7E38C0B2BC
:1004E00010BDC2B2282AF1D22823EFE73846FC0714
:1004F000704770474B1E012B00D900BE431EDBB274
:10050000FD2B04D800BE0C20022902D17047FF2821
:10051000F9D1024B48331878F8E7C046A8CBFC075E
:100520007149724B0A6870B51A40B0231B0113431E
:100530000B606F496F4B0A68FF2492B213436E4AF7
:100540000B6013686D496E4D0B40C02113606D4AFE
:10055000890013686C4E0B43136010236B4A10889C
:100560000343138001236A4802881A430280694AC0
:1005700069481060694A10880343694813800288FB
:10058000684B1A40BC239B00134303806648674AAC
:1005900003685B0D5B05134303606548654B0268A8
:1005A0001A4090235B01134303606348634B026866
:1005B0001A40634B134303606248634B02681A405E
:1005C000624B134303606248624B02681A40624BFD
:1005D000134303606148624B02681A40614B134346
:1005E0000360614B614848331A78C12312065B01EE
:1005F00013435F4A1360A0225E4B52011A805E4B88
:100600005E4A1A8034230288A24313430380552391
:100610005B480288A24313438D220380594B92000A
:100620001A80594B594A5A481A805A4B5A4A6C24D4
:100630001A805A4B5A4AFF341A805A4B5A4A1A8027
:100640005A4B5B4A1A8002685A4B1A405A4B134362
:100650000360B020594B80001C802A88584B1A40F8
:1006600002432A809022358892001D402A4332801E
:10067000A822544E920035881D402A43524D3280A4
:100680002A881A4010432880C620504A4000108013
:100690004F4802881340194301801F2017234D49FA
:1006A0000A88824313430B8019234B490A888243EB
:1006B00013430B80494B4A491C800A88494B1A4016
:1006C00080239B0113430B80072347490A689A4301
:1006D000043B13430B604549454B0A681A40454BA0
:1006E00013430B6070BDC04634300040FF80FFFFF5
:1006F000203000400000666638300040FF00FEFFFA
:100700003812004050300040441200405C3000403D
:10071000243000408000004059055C074010004034
:10072000202000400FFCFFFF1820004009581A004D
:100730001C200040FEE1FFFF04200040E0E000003C
:10074000080929490820004000000303696A686C11
:100750000C200040031FFFFF7060000010200040CD
:10076000E0E0E0E00B0A0A08A8CBFC0740130040D9
:1007700000100040281300402C1300400514000016
:10078000481300405013004054130040340A000046
:100790003C200040581300404E0800005C1300400D
:1007A000260A000060130040580800002C2000407A
:1007B0000A1400002304E0FE181A0601001200408B
:1007C0001FFCFFFF481200404C1200400412004082
:1007D00088120040981200409C120040A81200406D
:1007E0003C100040FF9FFFFF80100040641000405D
:1007F00000FE00FE500150010F4B10B51868FFF7C6
:10080000CFFD00220D4B0E49DC6CDA640419200088
:100810005CF754FD0B4B0A49186020005CF74EFD55
:10082000002901D0064B591A074B084A19600821C4
:1008300013680B43136010BD38000040A8CBFC07C1
:1008400071020000440000404000004030000040C1
:1008500000BE70470122044B10B51A80034B1B6D7C
:10086000002B00D0984710BD0E150050A8CBFC07F8
:10087000FA22030010B50020D200934209D3054AA2
:100880006430934205D8044A0A2198185CF72CFD7D
:10089000C0B210BDB80B000030F8FFFF00210B4BB9
:1008A0000200181D70B5C167094810250186C020D7
:1008B000084C40002550DC6D59658C4204D019006D
:1008C0005431C988186EA04770BDC046A8CBFC073C
:1008D0000013005000E100E0F7B5430605D5002005
:1008E000FFF7DCFF244B1B88F7BD244980250B0054
:1008F00002005433AD009C882A40DB88284215D181
:100900004D6E02264F6D29003140481E814149023B
:10091000019198B2A0421CD21949098831420DD1E7
:10092000002AE1D0154B5433D880DDE7E31A5A4250
:100930005341D8B2FFF7B2FF124BD4E7FA5C013350
:1009400000209C4200D1019802430F4802820122FC
:10095000DFE7002A02D0094B5433D880A042C3D12C
:100960000120054205D01021074A138E8B431386C0
:10097000BAE7FFF793FFB7E754130050A8CBFC0783
:1009800070130050601300500013005000210B4BF7
:100990000200181D70B5C167094810250186C020E6
:1009A000084C400025505C6F99668C4204D01900B9
:1009B0005431498B986FA04770BDC046A8CBFC0747
:1009C0000013005000E100E0F8B5400625D4284BA4
:1009D00002241A005432108BDA6F224051424A41ED
:1009E0005242520A1D005435A98B81421ED3012563
:1009F0001A000024AC465432528B996E89189042EA
:100A00002BD93F271B4D2E88551CADB23E421DD120
:100A1000002C07D054335A8304E00020FFF7B6FFC0
:100A2000154B1B88F8BD802149000CE0134E368819
:100A30002642DCD0013189B2A9838142F3D1C0259D
:100A40005102AD0049190E4D2982CBE70C4A64468C
:100A5000128A0A702A000131D1E7002C01D05433E8
:100A60005A839042DED10120FFF790FFDAE7C046BB
:100A7000A8CBFC077813005054130050701300509B
:100A80000013005010B5084B988D084B80B204330A
:100A9000DB6F002B01D0984710BDC0231021044A02
:100AA0005B00D150F8E7C04600130050A8CBFC070C
:100AB00000E100E0134B10B51C68230509D50123A4
:100AC000114A11680B431360104B5B68002B00D078
:100AD0009847E30409D502230B4A11680B431360BE
:100AE0000A4B9B68002B00D09847A40409D5042327
:100AF000054A11680B431360044BDB68002B00D0E0
:100B0000984710BD084000501440005028CCFC0706
:100B10000369022900D900BE00225B185A7770478A
:100B20000369022900D900BE00225B185A7770477A
:100B300000487047F847FC07002203695B18DA7425
:100B400070470000004870474449FC0710B503890E
:100B5000032914D94289012410002040224200D1E7
:100B600010BD05290BD90224100020402242F7D0E5
:100B7000082904D90424100020402242F0D05B1838
:100B800098B2EDE710B502890400FF208A4206D82A
:100B9000131D9BB2994203D2081DC01AC0B210BDEA
:100BA0006489E00706D5063293B2994202D2063133
:100BB000C81AF3E7A20705D503339BB2994201D2C5
:100BC0000931F5E7FF206207E9D59A1C92B29142FC
:100BD00002D20B31881AE1E7200704D50B2091429D
:100BE000DDD003339AB2FF20E406D8D58A42D6D1AD
:100BF000F338D4E7F7B500240126134B1349D88FF7
:100C00009A6B9F8F121887420BD8002C00D0D88780
:100C100001248A88A2438A809B6C002B0CD09847C1
:100C20000AE08D8AAC46451CADB201956546354259
:100C300003D1002C00D0D887F7BD0888340010708D
:100C400001980132DFE7C04628CCFC0700110050B4
:100C5000F7B52F4C0F232089184001380B28F9D8FD
:100C600003F0CAFC5413F841F8444EF8F8F8F806BB
:100C7000FFF7C0FF0122A3889343264AA380936C09
:100C8000002BE6D0D08F9847E3E7224B988EDA8E80
:100C900082421CD21A6B20260192022294461E4FD9
:100CA000D98E8842D5D93F252289AA43D2B2C02AFB
:100CB00009D165463A882A42CBD04A1CDA86019A85
:100CC000525C2280ECE7A28A3242F6D1C1E70221CF
:100CD000A2888A43A280A2887E318A43A2805B6C6C
:100CE000002BD0D1B5E7FFF785FFB2E7094B1B6CAE
:100CF000002BAED09E22A18A114005489847A8E754
:100D0000044B1B6C002BA4D00121F6E7F7BDC046B5
:100D10000011005028CCFC077C1100501E22084B0B
:100D20001A80084B1B3A19880A431A800422198832
:100D30000A431A800122044B50331A707047C04690
:100D4000021600500016005028CCFC0710B501F028
:100D500007FBFFF78DFD10BDEFF31082012383F336
:100D6000108808490988090603D4074908880343FD
:100D70000B80002A02D182F310887047012383F38D
:100D80001088FAE7080000500833005070B5144B83
:100D900083F3098813485DF79FFE134B1348834282
:100DA00011D30020124B13498B4217D3FFF702FADD
:100DB0001C68910065585C680132655099688A42E8
:100DC000F6D30C33EBE70022F8E71C6895002851B6
:100DD00001325C68A242F8D30833E5E70022F8E765
:100DE0006065FC07A000FC07044DFC07104DFC07E4
:100DF000104DFC07204DFC0710B561F749FF054B6E
:100E000000211A00513211705A6D8A4201D0596581
:100E1000904710BD28CCFC0770B5194EB56D002D5C
:100E200028D12C2304220921164859F765FF164BB7
:100E30000400038010222900B06545800A3003F0C9
:100E4000A3FB80239B016383F72323840F4BA5839C
:100E50001A00E5837E32658411880A1CFB2900D9BB
:100E6000FB22E28480331988094A0B1C914200D985
:100E7000131C2385B06D59F75AFF0023B36570BD6D
:100E800028CCFC07040D0000030A000074FBFC07DB
:100E90004808000070B50A4C85006619F36D002BF8
:100EA0000BD10A21000201431E330422054859F7E1
:100EB00023FF0823FF330380F0656419E06D70BDE4
:100EC00028CCFC07140E0000F8B50F4C85006619FD
:100ED000336E002B11D10A21000201431E3304227C
:100EE0000A4859F709FF072207003066084902300F
:100EF00003F076FB0223FF333B806419206E59F721
:100F000016FF00232366F8BD28CCFC07140E000052
:100F1000F44CFC0710B5FFF7D7FF10BD10B5042245
:100F200009211C230E4859F7E7FE1B230400037018
:100F3000242061F7E9FE04220A4B2282626001212B
:100F40000222A3810023A174FF3223316070E38168
:100F5000200061802281A37259F7E9FE10BDC046CE
:100F60001B0D0000AD27000070B5042209211023DD
:100F70000A4859F7C1FE1B2504000570280061F7D7
:100F8000C3FE04236360064B6070A360054B65805D
:100F90002000E36059F7CBFE70BDC0461B0D00007A
:100FA0001D0201003C00050070B50400242041F73B
:100FB0000AFC0423010090201A00800159F79CFECE
:100FC00004700F4C00252600643633784570C570D8
:100FD000837059F7ACFE230065331D702300663320
:100FE0001D702300092267331A70064B042106483E
:100FF000683401323570238061F758FE70BDC046F9
:1010000028CCFC07701700001304000070B5160010
:10101000FFF79CFE1A4C0500230064331B788342C3
:101020000DD0242041F7CFFB0223010004221548F4
:1010300059F762FE00234570037059F778FE2300CC
:1010400064331D70230065331B78002B0FD0042DF3
:101050000DD82300673318785EF796FC2300012231
:101060006A331A7004210848C73261F71FFE6834DA
:1010700031002288054861F719FE002070BDC04686
:1010800028CCFC0702240000140400001304000014
:1010900070B50F4C1500230065331B78002B0FD063
:1010A00023006A34673318782378002B0AD05EF760
:1010B00063FC0023142223702900064861F7F6FD23
:1010C000002070BD5EF760FC012305222370F3E76A
:1010D00028CCFC07140400001FB514001A000523D7
:1010E0000293044B0193069B0093230062F7B8F828
:1010F00004B010BDF846FC0713B500240094FFF7B8
:10110000EBFF13BD1FB514001A0004230293044B18
:101110000193069B0093230062F7A2F804B010BD70
:101120002047FC071FB514001A0005230293044B47
:101130000193069B0093230062F792F804B010BD60
:101140005C47FC0702690B005218002110B5D174EE
:10115000808A1B0218435AF700F810BD10B50449E5
:101160008A7803310270013003F03AFA10BDC046AC
:1011700028CBFC0770B5047803000D00002C04D0C8
:10118000012C0AD048242C7070BD82780548191DA6
:101190008270033003F024FAF5E7024A4388002402
:1011A0009384F0E728CBFC070A4B70B51C000D00B8
:1011B000110088342078AA00C000C018064BC91856
:1011C00003F00EFA21784919C9B221700C2900D90F
:1011D00000BE70BDC8CDFC07D42EF8070B4B70B510
:1011E0001D000C00110089352878A2000630C000CF
:1011F000C018074BC91803F0F3F92B781B19DBB2A1
:101200002B700C2B00D900BE70BDC046C8CDFC07AA
:10121000D42EF807F8B50E4C0500402220000D49E9
:1012200003F0DEF90C490D4B0A00C1CBC1C243CB20
:1012300043C243CB43C243CB43C2094B0948ADB27F
:101240005B1B401B9BB280B223816081F8BDC0460E
:1012500070E0FC077C37F207B0E0FC07C437F20708
:10126000B8E0FFFFCCE0FFFFF7B5144C8700E519AD
:10127000EB6E16000191002B0AD10A2100020143F6
:101280001E3304220E4859F737FD04230370E86625
:10129000E419E56E1022AF1C3800002103F074F948
:1012A00032003800019903F09BF9012328006B708C
:1012B00059F73DFD0023E366F7BDC04628CCFC0787
:1012C000140E00001FB54B780400002B0AD1102229
:1012D00068460B4903F084F9102269462000FFF7A5
:1012E000C3FF1FBD012B03D1064B04220093F4E77B
:1012F000022BF9D0032BF4D110220231EEE7C046C5
:101300004846FC0740E201003F2210B54379040043
:10131000934311D141F7F3FA030A20706370030C71
:10132000000EA370E07041F7EAFA4023207180B20A
:10133000000A5B420343637110BD70B50D000C00E1
:10134000203541F7DCFA20700134AC42F9D100209D
:1013500070BD0000F0B57A25234B454385B04E782B
:101360000393224B214A5B1902931E772B001433FF
:10137000D3180822040011001800019361F7AFFF91
:101380001A4BAF1CDF1931001022380061F7A7FF9C
:1013900041F7B5FA039B5E194E36144B3080EA5C78
:1013A00001231343114A2000AB54FFF773FD0500DE
:1013B000029B01991B7F08220377338843821430F4
:1013C00003F00EF910223900A81C03F009F92000DF
:1013D000FFF760FD59F7ABFC0022054BA4001B1979
:1013E000DA6505B0F0BDC04628CBFC0764CBFC072E
:1013F00028CCFC0708781B0A10B5DCB207281FD8D8
:1014000003F004F9041E1E1E1614141A0C2159436D
:101410000C4A2000703252180121D17279314B43AD
:101420000021094A3C329954FFF74EFD002010BDBF
:101430002000FFF747FFF9E72000FFF78BFFF5E7F4
:1014400000BEF3E728CCFC0728CBFC0770B50400EE
:101450000D00FEF77BFF002806D00A4B2A0004216E
:10146000E01859F788FF70BDFFF776FC04220823C7
:101470001100054859F740FC4560047059F757FCC6
:10148000F1E7C046030400000104000070B5002825
:1014900001D100BE02E00C4B9842FAD80B4A00235F
:1014A00015007C359C0066590133002E08D11219B5
:1014B000DCB2D16701002000FFF7C8FF200070BD3B
:1014C0000A2BEFD10024F9E7FCFF3F0028CCFC07F2
:1014D000002370B50C4C23700C4B1B78002B0FD1E4
:1014E000012216000A4D09202B785E409A4208D04E
:1014F0005EF74AFA642007492E70FFF7C7FF207095
:1015000070BD5EF739FAF5E7115EFC07385EFC073F
:10151000125EFC07D114FC0710B5002810D0094B4F
:101520001B78FF2B0CD0084B1B78002B08D0074CE6
:101530002378002B04D109200549FFF7A7FF20706D
:1015400010BDC046204DFC07105EFC07085EFC077E
:10155000312FFC0710B5002814D00B4B1B78FF2B44
:1015600010D00A4B1B78002B0CD00120084B094CE3
:101570001980094B18702378002B03D10749FFF716
:1015800085FF207010BDC046204DFC07105EFC0793
:10159000205EFC07345EFC071F5EFC07F91BFC079E
:1015A000394A70B503000D00049C904216D0374AAA
:1015B000904239D0364A90424AD14B68002B00D134
:1015C00000BE344B6A689A4200D900BE28782F4B7F
:1015D00004216A68C01859F7CEFE10E00B78013B71
:1015E000DAB2092A1ED82C4A9B00D218D16F2B4898
:1015F000814207D10021D167294AD31859620020BE
:10160000207070BD274B9942F9D1042208231100A4
:101610001E4859F771FB2B7803706B68436059F7CC
:1016200086FBECE700BEEAE70878411ECBB2092B47
:10163000F8D8194B89005B181A4ADE6F9642DED142
:10164000174A5218526A6968DA67FFF7FFFED6E751
:10165000154A01209A18092AD3D8033BD8B2411E53
:101660000D4B89005B18DA6F002AC8D00D4DAA42D5
:10167000C5D00A4DAA42C2D00025DD67084B5B18D1
:101680005D629047BBE7C04602040000030400000F
:1016900001040000FCFF3F0028CCFC074103FC07CD
:1016A000A8CCFC074303FC07FCFBFFFF431EDAB298
:1016B00070B50500092A18D80D4C9B00E418E36F9B
:1016C000002B12D00B4EB3420FD00B4B0421C0188D
:1016D00059F79BFE0422082311000848E66759F7D2
:1016E0000BFB057059F723FB70BD00BEFCE7C0463D
:1016F00028CCFC074103FC0703040000020400009F
:1017000070B5234C230051331878002801D0FFF71F
:10171000CDFF20492048FFF7B9FE204D5134EB6C36
:101720002070002B2AD10422092152331C4859F77A
:10173000E3FA0D2303801B4B04008380C38008233E
:10174000FF3303818023DB00438104221649E864D0
:101750000C3002F045FF23000C22200013492B33EC
:101760001A70103126002C3002F03AFF22000B369E
:10177000082130000E4B103261F706FAE86C59F779
:10178000D6FA002302210420EB6459F7E6FC70BD71
:1017900028CCFC07F90DFC0770170000A8CCFC074B
:1017A0000D0D00004C0400003946FC074846FC07BC
:1017B0003E46FC0710B561F7BDF9002801D0FFF7E0
:1017C0009FFF10BD10B5074C2078002803D0FFF70D
:1017D0006DFF0023237009205EF7CEF80022024B34
:1017E0001A7010BD115EFC07125EFC0710B5FFF702
:1017F000E9FF09205EF7C8F80122044B6420044980
:101800001A70FFF743FE034B187010BD125EFC0701
:10181000D114FC07115EFC0710B5FFF771FFFFF74D
:10182000A3FBFFF793FA054B64331870FFF776FBC1
:101830000022034B1A70FFF7D9FF10BD28CCFC071C
:10184000385EFC0710B5064C2078002801D0FFF761
:101850002DFF044B04491868FFF718FE207010BDD7
:10186000375EFC07284DFC07CD2FFC0710B50E4C4A
:101870002078002803D0FFF719FF002323700B4CBA
:101880002078002803D0FFF711FF00232370084CB5
:101890002078002803D0FFF709FF002323700022DF
:1018A000044B1A7010BDC046375EFC07085EFC078B
:1018B000345EFC071F5EFC0710B54A78064B11002A
:1018C000481E81411970002A03D0FFF7BBFF00209A
:1018D00010BDFFF7CBFFFAE7105EFC0710B5002440
:1018E000FFF7C4FFFF22084B09201C70074B1A703A
:1018F0005EF742F8064B1C70064B1C70FFF776FF34
:10190000FFF7FEFE10BDC046105EFC07204DFC0731
:10191000125EFC07385EFC0710B504001B2060F760
:10192000EDF8210060F700F90100D820042202231D
:10193000400159F7E1F9044B047050331B785B0008
:10194000437059F7F4F910BDA8CCFC070C2270B510
:10195000214E4243330070339B189B780500FF2BC8
:1019600037D0330051331878002801D0FFF79EFE9E
:101970000024330074650C2651331C70320062431E
:10198000164BD15CFF291BD10124154B1D70154B43
:101990001C70FFF717FF09205DF7F6FF124B2800B8
:1019A0001C70FFF7B9FF2800FFF7FEFA0F4B513309
:1019B0001B78002B03D10E4B1C700E4BDC7070BDDE
:1019C0009B189B680134E4B2002BD7D028009847BD
:1019D000D4E7FFF795FED7E728CCFC076C49FC0756
:1019E000204DFC07385EFC07125EFC07A8CCFC0704
:1019F00078FAFC0718FAFC0770B505001B200C00EC
:101A000060F77CF8290060F78FF8022301000422B8
:101A1000034859F771F9447059F789F970BDC04608
:101A2000071B000010B54A880C78531E80213B2B01
:101A30000ED86423534309490B60094B1B78002BD4
:101A400005D0084B1B78FF2B01D0FFF7FBFE0021D0
:101A50002000FFF7D1FF002010BDC046284DFC0735
:101A6000105EFC07204DFC07F8B50C0000211600A5
:101A7000050060F759F808210200C120240209235B
:101A80002143000159F738F9122304000370242080
:101A900060F734F8002800D100BE831CDB7F0022F1
:101AA000B34207D90121078B0130D3B2B3420BD324
:101AB0000237BAB20123AD19E380AB7E2000A280C9
:101AC000237259F734F9F8BDC37F13410B40043337
:101AD000FF18BFB20132E8E7F8B51B200D00170070
:101AE0001E0060F70BF8002800D100BE2988FFF720
:101AF00049F8062304003A0031000F4859F7FCF872
:101B00002A8803000280E01E082812D802F07EFD19
:101B10000D111111110D11050D0000225A80180030
:101B20001A7159F704F90020F8BD02225A800022E8
:101B3000F5E70622F3E7C046180C0000F0B51B20BD
:101B400085B01F00009101925FF7D8FF041E00D1FD
:101B500000BE009B20001988FFF714F803383D0AE7
:101B600003AE092843D802F051FD28423D424231DC
:101B70004205390AA38900243380022505E0E38960
:101B800004253380238A002473803900019AAB1D19
:101B9000184859F7B1F80700ABB22A00310043806A
:101BA000053002F01DFD009B38001B883C713B8016
:101BB00059F7BDF8002005B0F0BD6419E37C5B0067
:101BC000022500242B4033707470DEE76419E37C37
:101BD00000249B07DB0F33707470CEE76519EB7C34
:101BE0005B10EDE7A37C012500243370CDE70624CC
:101BF0000025CAE7140C00001FB500221A4B1A700A
:101C00001A4B1978914207D019490978914203D0AB
:101C100018490C78FF2C02D100221A701FBD1A70CF
:101C2000154B1B2000229B5EFE221B0212061B0A84
:101C30001343009380236A469B0093815FF75EFF06
:101C400021005FF771FF1423010004220B4859F7AC
:101C500053F80123040010226946037402F0C0FC0B
:101C6000200059F764F8D9E7345EFC071F5EFC07D3
:101C7000105EFC07204DFC07205EFC07021B0000E5
:101C8000F0B5040085B02420019115005FF736FF00
:101C9000011E00D100BE8B1C0A8B02934B1C0393C8
:101CA000012300269C46019B1E70029BDF7FB742EA
:101CB00001D9944201D2802005E0931C9C4204DCAF
:101CC000A21A2A70002005B0F0BD0399C87F6146B2
:101CD0003041084206D0033293B29C4203D1032321
:101CE0002B70EFE79BB2012F05D001339BB29C42D2
:101CF00001D10423F4E7013301369AB2F6B2D2E7F8
:101D0000F7B51E006B460D001700D91D6A4600236B
:101D10000632288813700B70FFF7B2FF0623040009
:101D20003A0031000A4858F7E7FF2B880380002C5F
:101D300005D16B469B79032B06D1013B438004718F
:101D400058F7F5FF0020FEBD44800324F7E7C046A6
:101D5000180C0000F7B5050008781C0A02380528A1
:101D600000D971E002F052FC0328703948587A23F8
:101D7000634337488A783C30C518290078310A70A7
:101D800034490191D2070ED50C270E0067437133F9
:101D90007036791DC01871180622F61902F020FC61
:101DA000337977352B700C226243019B70339B187B
:101DB0000022DA720020FEBD0C226243254B002176
:101DC00070339B187A226243D972214BE0B29B1880
:101DD000B433197060F73EFFECE77A2565431C4B7E
:101DE00017221C0058197630023102F0F9FB042347
:101DF0003C342A5D13430DE07A25154B65431026CC
:101E00001C00581932009D3002313C3402F0E8FBCE
:101E10002B5D33432B55CDE77A235C434A8A0C4D27
:101E200002312819002A07D11C323E303C3502F01D
:101E3000D7FB0123625DDDE71C225A303C3502F0FE
:101E4000CFFB0223625DD5E72800FFF755F9B1E724
:101E500028CBFC0728CCFC0710B5054B1B78012BC1
:101E600005D1044B1878FF2801D060F7F3FE10BDB0
:101E7000385EFC07204DFC0770B55DF792FC264AE2
:101E800013881B051CD50520244B1988014081426D
:101E900016D1042219880A4301211A801A888A431C
:101EA0001A801F4B5B6D002B09D01E4A10881E4AFA
:101EB00000B211881D4A09B2128812B2984770BD4B
:101EC0001388DB0613D501241948038823420ED05A
:101ED0008021184B1D880D4209D004801A888A433E
:101EE0001A800F4B9B6D002BE9D09847E7E71388CA
:101EF000DB06E4D502210E4A13880B42DFD00D4BDE
:101F00001888C005DBD511801A880B490A401A8051
:101F1000034BDB6DE7E7C0460400005000020050B1
:101F2000A8CCFC0702020050040200500A02005034
:101F30000401005000010050FFFEFFFF10B5034BED
:101F40000348196860305DF763F910BD244DFC0744
:101F5000A8CCFC071FB500BA009068465DF7E4F90D
:101F600005B000BD0C4B10B51A0050321278002A93
:101F700011D00A4A00280BD0042110880842FCD155
:101F800000220748503338301A705DF703F902E039
:101F900012885207F4D510BD28CCFC07001600505B
:101FA000A8CBFC07F8B5164B164F84331E88164B8A
:101FB00016499C6B20007043C0195BF77FF9144BE6
:101FC00005006233188030003C3060430F49C0196F
:101FD0005BF774F90F4B043018600F4B4019C21DAA
:101FE0001A600E4A1278022A01D118301860186857
:101FF000FEF7D6F90A4BC01880B259F7EBFBF8BDD3
:10200000C8CDFC0720A10700A8CBFC0740420F0069
:10201000A8CCFC07505EFC07545EFC0778FAFC076E
:10202000E20400000022054B10B51A60FFF7BAFF6A
:10203000034A13685B005B08136010BD9CF9FC0742
:102040003000004010B55DF787F910BD10B5074CA2
:1020500000224834237806490133DBB20548237057
:102060005DF722FB2378013B237010BDA8CBFC0752
:10207000585EFC07C8CDFC0710B5084C0849483429
:10208000237800220133DBB20648096823705DF72C
:102090003FFB2378013B237010BDC046A8CBFC0753
:1020A000585EFC07C8CDFC07264B00B54362264BA3
:1020B00000228362254B8BB04361030030331A70DA
:1020C000234BC362234B0360234B0362234B4360C8
:1020D000234BC3612348244B0168194080239B0292
:1020E0000B43224903600B68214803400B606B4699
:1020F000D2540132282AFAD11E4B69461868403062
:1021000002F06EFA08221C4B48331A701B4A6432E4
:102110001278002A01D001221A705FF75BFAFFF7EC
:1021200095FFFFF7A9FFFEF7FBF95FF791FA5FF75D
:10213000A3FA5FF715FA12485FF7DCFA5FF760FA67
:102140000BB000BDB904FC07BD04FC07F504FC0797
:102150003516F207BF04FC07F104FC07F304FC0783
:10216000C104FC0774000040FFFFE0FF00020040D4
:10217000FFFFF7FF4CF9FC07A8CBFC07A8CCFC0736
:1021800070E0FC071749184B0A6810B51A40802305
:102190009B02134380220B600721D20513688B43F7
:1021A00013600823114A11880B431380104B6433CA
:1021B0001B78002B03D001220E4B48331A705FF7B7
:1021C00009FAFFF743FFFFF757FFFEF7A9F95FF79B
:1021D0003FFA5FF751FA08485FF77CFA5FF710FAA9
:1021E00010BDC04674000040FFFFE0FF0800005033
:1021F000A8CCFC07A8CBFC0770E0FC0710B5184C76
:102200002300623319882300663318885EF786FF3F
:102210005DF7C7FA0321134B1A880A4202D01A88C5
:102220008A431A808023104A11880B4304211380AB
:102230000E4A13888B43138002230D490A881A42E1
:10224000FCD040F76EF8A26E0A4B1A600A4B1A686F
:10225000520700D500BE042219681142FCD010BDFF
:10226000A8CCFC070A0000500800005010000050E5
:102270001400005008020040100000400121084AEC
:1022800010B513888B43138059F77AFA40F7D8F9C1
:10229000FEF744FD0022034B6C331A7010BDC0469C
:1022A00008330050A8CCFC0710B549F7FAFEFEF73A
:1022B00035FD10BD10B559F77FFA49F7F2FE01223E
:1022C000014B6C331A7010BDA8CCFC0710B547F752
:1022D00003F910BD10B5002047F7B2F80422034BF4
:1022E0006C331A705FF78CF910BDC046A8CCFC07A0
:1022F00010B5012047F7A4F810BD00000A4B10B537
:102300001A68D20703D5022219680A431A6080228C
:102310001968D203114202D019680A431A600348AF
:102320005EF726FF10BDC046000200400848FC07CB
:102330007FB501AB1900074A203270CA70C1064A46
:1023400011007C3109880909197104495EF79CFD67
:102350007FBDC0464846FC07C8CDFC070A5EFC07A7
:1023600030B5174C87B021000822343101A802F0A3
:1023700037F903AB22001900203231CA31C1114CA8
:10238000114922007C321288012012091A712200A0
:102390005EF7D4FD01A8FFF7CBFF5EF7C1FD062273
:1023A00021005EF739FE04005EF7AAFDE12000017E
:1023B000604306495AF798FF80B207B030BDC04667
:1023C0004846FC07C8CDFC070A5EFC07FF07000073
:1023D00010B504005DF7ECFB2200084B0A3A9200AE
:1023E0009B181B6F002B01D0984710BD0123C02202
:1023F000A340034952008B50F7E7C046A8CCFC0726
:1024000000E100E010B50A20FFF7E2FF10BD10B5B3
:102410000B20FFF7DDFF10BD10B50C20FFF7D8FF34
:1024200010BD10B50D20FFF7D3FF10BD10B50E2065
:10243000FFF7CEFF10BD70B505690400686900287C
:1024400001D058F7C6FB00232800236158F7C1FBD1
:1024500070BD0000F8B524205FF750FB041E00D1CA
:1024600000BE9021636989011A898A423BD1012209
:1024700094461D7CE61C6719F27F012A1DD9902124
:10248000636989011A898A4249D15A8999892A48F6
:10249000022358F731FC00230570437058F747FCBE
:1024A0000025606958F795FB2900200065615FF7FA
:1024B0003BFB290058F751FE11E0797F604611413E
:1024C00001420DD09818A118807C897E884207D0DF
:1024D00029002000FFF7C8FAF37F0133F377F8BD36
:1024E0000132F277C8E715498A4216D10126E51C68
:1024F000E97F022901D9FF25C1E760181A7C407FD6
:102500001041304206D02000FFF7AEFAEB7F0133D6
:10251000EB77E4E70131E977EAE700BEEBE707494B
:102520008A42BDD15A8999890548012358F7E4FBAD
:1025300000230370B2E7C04601240000022400001B
:10254000032400000B7810B5122B01D1FFF782FF96
:10255000002010BD70B5056904006868002801D02E
:1025600058F737FB00232800236158F732FB70BD72
:1025700070B51B205FF7C2FA041E00D100BE63686D
:102580005D78022D2AD9002120009D885FF7CCFAC2
:10259000854216D0636800211D782000043D6A4200
:1025A0005541274A6D009E88AD185FF7BDFA01239B
:1025B00002003100280058F79FFB0023037058F7F2
:1025C000B6FB0025606858F704FB29002000656011
:1025D0005FF7AAFA290058F7C0FD2DE06219D27CF6
:1025E0001978114229D0DA79AA4226D00021200098
:1025F0005FF79AFA08210200C12063682D029B79D7
:1026000029430833000158F777FB616805000B7810
:10261000023B5A1E9341123303708A79C2804B8861
:1026200008318380083001F0DBFF280058F77FFB7A
:10263000626853780133537070BD01355D709FE758
:10264000031B000010B5FFF793FF002010BD000032
:10265000F0B58BB00693109B06001B788125013BDB
:1026600004910792012B00D993E00121242058F70F
:1026700035FA002704003D002422002101F084FFE8
:10268000109AA31C1278DA77109B1B78BB4266D98C
:10269000002D03D0200058F79CFA7AE0132504ABF4
:1026A000ED1807232B70109BDB195B7805930599B8
:1026B000631CB940DA7F0A43DA77109BF90060188F
:1026C000591808220430043101F08AFF059B012BC0
:1026D00001D10E332B70A31CDB7F012B03D91023F8
:1026E0002A7813432B7014227B000593049B04A9C2
:1026F0001B88891878000B5209AB18181E230699FD
:102700006C320B4013430393234B13210293B38A80
:1027100004AA0193002389180A0000931F49053376
:102720004DF700F9051E17D1142204AB9B18790050
:10273000585A109BDB195978431D9C464A1E531E5C
:102740009A4163469B1A049A1380012904D10230EE
:10275000134980B24CF7A5FF0137FFB294E7002D73
:1027600098D109AB1B88049A346113802383069B9C
:10277000079ADB031A4324232280B08A2900608051
:10278000F382233BF381074B1C34B460736058F72A
:10279000E4FC28000BB0F0BD8447FC070F180000D4
:1027A00001020000C047FC07F0B589B004930E9BFE
:1027B00005921A7805000F000F23D10700D530339A
:1027C000910702D5E02149000B4351070AD51107B3
:1027D00000D569E0C021C9000B43D20602D5802292
:1027E00052011343162202A9521813801E23049982
:1027F00038000B4080210B4303932D4B2D4902934E
:10280000AB8A0193002300930D334DF78BF8061E1E
:1028100047D10121182058F761F90400182231002E
:1028200001F0B2FE3B882C612381049B059ADB03F7
:102830001A432280AB8A012763801B23EB8223008B
:1028400020001633AB601C4BEF816B600E9B0322A4
:102850001B78310063810E9B1330DB88A3810E9BB4
:102860005B88E3810E9B9B8823820E9B5B7866606E
:10287000A37401F089FE0E9B1B785A070DD51A0729
:1028800000D54037DB0601D50C4B1F430A21200041
:10289000FEF75CF939004CF704FF0021A88A58F7CD
:1028A0005CFC300009B0F0BDE021090194E7C046AE
:1028B0006048FC0709180000FC48FC0708000200FB
:1028C000F8B510001F000D00160058F75BFC02233E
:1028D00000281BD124305FF711F9041E00D100BE7F
:1028E000A21C2B78D27F9A4212D96A78642A0FD818
:1028F000E3189A760121300058F72FFC0023103D91
:1029000065610334E377FFF7A5FD01231800F8BDE7
:10291000012332003900044858F7EEF9812303708F
:1029200058F705FA0023F1E703240000F7B510007B
:1029300015001F00019158F725FC0226002818D128
:102940001B305FF7DBF8041E00D100BE0426042212
:10295000019B1B88A38163891E4013420BD1012375
:102960002A0039001B4858F7C7F98C23037058F721
:10297000DEF93000FEBD08221E001640134207D1CA
:1029800001232A003900134858F7B6F90670EEE71C
:1029900001210A2058F7A2F80A220021606001F004
:1029A000F3FD0A212000FEF7D1F804236668012117
:1029B0003380033BFF3BF380019B70801B88280022
:1029C00033721B0A7372B78058F7C7FB0026FFF7F4
:1029D000CFFDCEE7051B0000F8B51B200E0015004B
:1029E0005FF78CF8041E00D100BE280058F7CAFB20
:1029F000012827D1082163682A00DF7912483B02A9
:102A00001943042358F778F90A2105002000FEF73E
:102A10009DF8327880232880BA4200D1737828004C
:102A2000AB7058F784F9A978002909D16268537A04
:102A3000107A1B020343A38163891B0700D55170E1
:102A4000FFF796FD0020F8BD160C0000F8B5100049
:102A50001F000C00160058F795FB0223002818D120
:102A600024305FF74BF8051E00D100BE2078032804
:102A700011D9022332003900124858F73DF9227863
:102A800040230270032A00D84933437058F74FF9A6
:102A900000231800F8BD51F787FA0B4B9842E8D095
:102AA0000121300058F759FB23786278EB185A77E8
:102AB0000023103C6C610335EB77FFF7CBFC01235F
:102AC000E7E7C04601240000FFFF0000F8B50878E2
:102AD0001D000C00160051F767FA0E4B892798422B
:102AE0000AD01B205FF70AF8002800D100BE00279B
:102AF0002378C0186378C374320029000223064883
:102B000058F7FAF823784770037058F710F9002047
:102B1000F8BDC046FFFF0000011B0000F0B587B004
:102B2000029304AB0D00D91D0023170004AA937172
:102B3000288806320B70FFF7A3F8041E35D1242035
:102B40005EF7DCFF002800D100BE04AB9B79032BAD
:102B500039D1EB79AA791B0213430193012B32D8A7
:102B60000121029B1E0A83195A7F039304ABDB7970
:102B7000994013008B439C46019B012B02D10A43D1
:102B8000D3B29C466246039BF6B25A7731005EF799
:102B9000D3FF022301003A000C4858F7ADF8039B1D
:102BA00006705B7F437058F7C2F83A00029904231D
:102BB000074858F7A1F82B888470038058F7B7F8B6
:102BC000002007B0F0BD8024EFE7C04604240000D9
:102BD000160C0000F7B505001B200E001F00019227
:102BE0005EF78CFF041E00D100BE019B9F4203D004
:102BF0008020002F1BD0FEBD6219D37C3343D374D9
:102C0000290020005EF798FF2900060020005EF7EB
:102C10008BFF022302003100074858F76DF8641952
:102C20000570E37C437058F782F80020E3E76219EF
:102C3000D37CB343E3E7C046081B0000F0B51B207C
:102C400085B00C001F0002925EF758FF061E00D1EF
:102C500000BE30002188FDF795FFA3888D25022B4B
:102C60005CD103383D0A082800D971E001F0CEFCA0
:102C70004C707070706270056900E379A2791B0274
:102C800013430193F389019A934202D8338A934202
:102C900002D2019B002B5DD1029858F773FA0227EC
:102CA000039000282DD1290030005EF745FF029ADD
:102CB00001000423284858F71FF8019B0570438042
:102CC00058F735F801210A2057F708FF0A2203991F
:102CD000706001F059FC0A213000FDF737FF74687D
:102CE000029B6080A380FC235B422380019B012127
:102CF00023721B0A0298E571A771637258F72DFAC7
:102D00000027380005B0F0BDE379A2791B02134318
:102D1000012102222800FFF75DFF0500042339008E
:102D2000029A0E4857F7E8FF23888570038057F70B
:102D3000FEFFE5E7E379A2791B021343022101229A
:102D4000E8E7E379A2791B02134304210222E1E7B9
:102D50000625E3E78025E1E7061B0000160C0000CE
:102D6000F0B587B0029304AB0191D91D0023039203
:102D700004AA93710B70019B06321888FEF780FF3E
:102D80000600050024205EF7B9FE071E00D100BE34
:102D90000024A64208D104AB9B79022B23D0032B3D
:102DA00023D0042B23D08025A31D039A02991E480B
:102DB00057F7A2FF019B06001B8805710380448022
:102DC000002D0AD104AB06331B78022B11D104ABC2
:102DD00007331B78FB189B7E4371300057F7A7FF22
:102DE000002007B0F0BD0124DEE70224DCE7072461
:102DF000DAE7032B0CD1029B04AA1B0AFB1807324B
:102E00005B7F127885711341012213404371E4E71F
:102E1000042BE2D104AB07331B780530DB00191D0E
:102E200079185EF703FFD8E7140C0000F0B5100026
:102E300087B00F001600019358F7A4F90224002868
:102E400018D11B305EF75AFE051E00D100BE3B7C38
:102E5000002B12D16A89023314001C401A420CD193
:102E6000013B32000199314857F746FF8C2303702C
:102E700057F75DFF200007B0F0BD0121152057F77F
:102E80002DFE15220021686001F07EFB00236C6896
:102E90006370019BA380FF23E3713B7C002B3DD03B
:102EA000012323702889023080B2230002AD083349
:102EB00001932A003B00608083CB83C21B680527F7
:102EC0001360029ADBB2110A6272A172110C120E27
:102ED0002372E17222739B0706D5200003A90D30EF
:102EE0005EF7B3FEC019C7B22B7B5B0704D56B7BC3
:102EF000019AD3550137FFB20C2F06D80D22019B42
:102F00000021D21BD81901F03FFB01213000A7712D
:102F100058F723F90024FFF72BFBABE70223072127
:102F200028002370FDF712FEBFE7C046031B000018
:102F30001FB50024164B1C70164B1B78FF2B25D099
:102F4000154B1B78A34221D0144B154A68461A60D2
:102F5000144B0093144B0193144B0293144B0393A3
:102F60005DF760FC134B144A9C679A660722DA6689
:102F70001A0054329483114ADC675A67104A0433AA
:102F80001288104ADA6754220F4B1A861FBDC046BA
:102F9000085EFC07204DFC07105EFC07245EFC0762
:102FA0005515FC0748004F000800170001000100FC
:102FB00038000101A8CBFC07285EFC078130FC0724
:102FC00054130050C909FC070013005030B5002508
:102FD0001A4B1B4C1B7885B02570FF2B2BD0194B3F
:102FE0001B78AB4227D0184B184A68461A60184B1A
:102FF0000093184B0193184B0293184B03935DF702
:1030000011FC174B174A9D679A660122DA661A006F
:1030100054329583144ADD675A67144A0433128880
:10302000134A1449DA675422134B1A86134B186853
:10303000FEF72CFA207005B030BDC046204DFC07CD
:10304000375EFC07105EFC07305EFC071915FC07B5
:1030500048004F000800170001000100380001017E
:10306000A8CBFC072F5EFC074131FC07541300502E
:10307000C909FC07CD2FFC0700130050284DFC07A1
:10308000F8B50C0015005DF733FC284B1B68002DCC
:1030900001D0072C06D0002B03D000221100100015
:1030A0009847F8BD224C22787F2AF4D80021FF22CD
:1030B0000827605C4240380055B2AC466646550071
:1030C000EAB2002E02DA31225540EAB20138C0B22B
:1030D0000028F1D101310629EBD1A179914204D028
:1030E000002BDED002000100DAE7002BD9D0E17816
:1030F000A0780A0900011043627809041203104302
:103100000C4A25794243F020000308406179120DF2
:103110000902294349BA89B208430749414307488C
:10312000C90B091809B20120BAE7C046245EFC07A2
:10313000285EFC07102700007102000078ECFFFFFA
:10314000F8B5002A01D0012908D05DF7D1FB1B4B4F
:103150001B68002B01D000209847F8BD184B0821B0
:103160001B78184A9C461F006046174B174E184D97
:10317000184C0F40084213D1BE2051701070977048
:103180005A65032214499A65D9651F665A66043345
:1031900032882A88DC679423104A9B001386DCE778
:1031A000AC2111707939517000215A659170032258
:1031B0000B4F9A65DF651966E8E7C046305EFC078D
:1031C0002F5EFC071C5EFC07A8CBFC0754130050C5
:1031D00060130050D908FC07E531FC0700130050CC
:1031E000FD31FC0710B55DF783FB034B1B68002B1B
:1031F00001D00020984710BD305EFC0770B50C0070
:1032000015005DF775FB064B1B68002B06D00020F0
:10321000854202D0033C60426041984770BDC04681
:10322000305EFC07174970B58B88002B1DD1164AFC
:103230001400283498000559002D11D11218134894
:103240009062134A9B189BB28B808021114B124ACB
:1032500009019A650800282301225CF743FD70BD2F
:103260000133052BE6D10D4BEEE70D4A9B18042BDD
:1032700001D900BEE9E7044A9B00D218034B9362D0
:10328000E3E7C04628CDFC0728CBFC07591EFC0706
:103290000E040000A8CCFC079534FC07FFFF0000DB
:1032A000F2FBFFFF70B5442800D074E0FEF78AFA05
:1032B000FFF7B8FF08223E4B1A8072B60421802423
:1032C0003C4803880B4303803B4B1A88A2431A8077
:1032D00040221C8822431A80384B394A19801388AF
:1032E00038490B4013800121C023374A5B00494213
:1032F000D150713B3549FF3B0A881A42FCD1344A10
:103300003449138804250B401380012232490C26CE
:103310000B88324C93430B8031490B692B430B6173
:10332000032123888B43134323802388B3431D4306
:1033300025800388134303802A480388934313435B
:103340000380F020284B80011C88204318808020B7
:103350001C88C00120431880244804882448240A7B
:10336000144219D004885F329443403A22430280C9
:103370004022188802431A801A880A431A800822B9
:1033800019880A4304211A801A888A431A80C04681
:10339000C046C04630BF70BD164C25882A432280E7
:1033A00060240288A24302801A8811431980E6E74C
:1033B0000033005010000050080000500002005080
:1033C00004000050FFF7FFFF00E100E01400005090
:1033D000120000507FFEFFFF100300501800005045
:1033E00000ED00E00C030050200300502A000050C4
:1033F00052000050560000500122204B10B51A8098
:103400001F4B20499A791B2000245CF75FFA80212A
:103410001D4B22000B201C60490023005CF7BCFA06
:10342000C02123002200092089005CF7B5FA23009F
:103430000922210007205CF7AFFA23000A222100AD
:1034400006205CF7A9FAFFF7EDFE104B1A00653273
:103450001278A24208D01A006A331B7867321078BB
:10346000012B08D15CF790FA012309490A889A4395
:1034700013430B8010BD5CF77FFAF5E700030050A3
:1034800028CDFC07355EFC070000084028CCFC076F
:103490000C03005010B5FFF7AFFF0D4CE379002B84
:1034A0000DD00C4B51331B78002B04D101220A4B59
:1034B0001A700A4BDA70FDF74FFC0023E371A08805
:1034C000002803D00022042157F747FC10BDC04656
:1034D00028CDFC07A8CCFC0778FAFC0718FAFC07F3
:1034E0002A4B10B51B880400DB0507D51B205CF7B1
:1034F00095F90123264A11880B431380A023DB058D
:103500001B88244924480A881B079B0F0240DB01C3
:1035100013430B802268214B1A606268204B1A60AB
:10352000A268204B1A60E2681F4B1A6022691F4B89
:103530001A6062691E4B1A60A2691E4B1A60E2692A
:103540001D4B1A601D4B1C601D4B1A681D4B1A60E9
:103550001D4B1A681D4B1A601D4B1A681D4B1A60D3
:103560001D4B1A681D4B1A601D4B1A681D4B1A60C3
:103570001D4B1A681D4B1A6008221D4B1A801D4BEB
:103580001B88DB0601D500BE10BDFEE72A000050F7
:1035900080000050120000507FFEFFFF00F8FC0783
:1035A00004F8FC0708F8FC070CF8FC0710F8FC0707
:1035B00014F8FC0718F8FC071CF8FC0720F8FC07B7
:1035C00028ED00E024F8FC072CED00E028F8FC07CB
:1035D00030ED00E02CF8FC073CED00E030F8FC0793
:1035E00034ED00E034F8FC0738ED00E038F8FC0773
:1035F00000330050140000500423344A70B5118881
:1036000001250B4313804023314A040011880B43EA
:103610001380C0232F4A5B00D55008222E4B1A80FE
:103620002E4B1B88DB0506D51B205CF7F7F82C4BCF
:103630001A8815431D80A023DB051B88294A2A48C8
:1036400011881B079B0F0140DB010B43138021688E
:10365000264B19606168264B1960A168254B1960DB
:10366000E168254B19602169244B19606169244B7D
:103670001960A169234B1960E169234B1960234B41
:103680001C60234B1968234B1960234B1968234B8B
:103690001960234B1968234B1960234B1968234B7E
:1036A0001960234B1968234B1960234B1968234B6E
:1036B0001960234B1B88DB0607D500BE1388214900
:1036C0000B4004310B43138070BDFEE71000005027
:1036D0000800005000E100E0003300502A000050D4
:1036E00080000050120000507FFEFFFF50F8FC07E2
:1036F00054F8FC0758F8FC075CF8FC0760F8FC0776
:1037000064F8FC0768F8FC076CF8FC0770F8FC0725
:1037100028ED00E074F8FC072CED00E078F8FC07D9
:1037200030ED00E07CF8FC073CED00E080F8FC07A1
:1037300034ED00E084F8FC0738ED00E088F8FC0781
:1037400014000050FC7F0000C823E64AF0B5138047
:103750000023E54A0C2013800822E4499BB00A802C
:10376000E3490793079B002B01DC00F016FDE04CBA
:103770000125636B002B01D000F024FDA06BE16BF1
:10378000EE176B0DF6021E436563ED0205430E4313
:103790002A003300A263E363E36A0125002B01D012
:1037A00000F013FDA06BE16BEE17EB0D76021E43EC
:1037B000E5626D0205430E432A003300A263E36312
:1037C000636A0125002B01D000F002FDA06BE16BC4
:1037D000EE176B0EF6011E436562ED0105430E43C5
:1037E0002A003300A263E363236A0125002B01D082
:1037F00000F0F1FCA06BE16BEE17AB0EB6011E43BF
:103800002562AD0105430E432A003300A263E36342
:1038100000230022A263E36300230793079B002B8E
:1038200001DC00F0DBFCB34E06AA3388951C9BB28A
:103830005380508880B200E000BF04222B8893435D
:1038400001D000F00FFD0121AB4A13888B43138098
:1038500008259620A94A40001388A94F2B431380BE
:103860005BF784FF8023A74A11880B43F021138064
:10387000A54B89011888014319800621388888439F
:10388000388080201E88C001304318809B489F4E9E
:1038900000883040994E30800E261088B043014396
:1038A00011809B490988C90501D400F0DFFC3988E3
:1038B000984A11408022D2000A4380213A803A88F7
:1038C00009021205120D0A4304213A801A882A437C
:1038D0001A801A888A431A803A8803398A433A80C0
:1038E000402219880A431A8003261A880127324386
:1038F0001A806023022581490A889A43403B13437A
:103900000B80854B854A009360331F701388844970
:103910002B4313800422834B1A80834A13880B4065
:1039200013808021C023814A5B004902D150804B23
:1039300003936F4B0399981D02935DF7F7F82800E6
:103940005DF7BCF87B4B1A683300D2B2AA2A00D0CC
:103950003B00A0220C21D20516889B008E431E43FB
:10396000168000E000BF200006227349403000F0BE
:1039700037FE012000E000BF0023704C0AAD260096
:1039800029009C46883633806D4B04933C3385CBAD
:1039900085C185CB85C185CB85C12B0062462000C2
:1039A00068495BF763FD3378DB0700D500BE220072
:1039B000883213785B081370230089331B78DB0788
:1039C00000D500BE2200893213785B0813702300F3
:1039D00084331A88002A02D1FA2292001A80220027
:1039E00086321388002B0CD1FF21524B09021B6831
:1039F0000B40D42189018B4201D000F060FC902360
:103A00001380009B86342088663318805BF718FC8F
:103A10007F22029B0399981D46331A704A4B4B4FE5
:103A20001A684B4B1A605DF72DF94A4B1A68002350
:103A3000BA4209D0484C494A4949581800681919EE
:103A4000043308609342F7D1464E00213000464AC5
:103A500000F09AFDE0220021D200444800F094FDDD
:103A600000F072FD424B434A43491A6043483022FA
:103A700000F0B6FD00243F22414B04991A705C709F
:103A80009C70DC701C715C719C71DC712800603171
:103A9000013200F0A5FD290040223A4800F0A0FDC7
:103AA000FF22394B01211A705A709A70DA701A711C
:103AB000FC3A5A719C71DC71344B354A1C70354BA1
:103AC0001A60354B354A1A60354B364A1A600A225D
:103AD000354B1A70354B053A1C70354B1A60354B17
:103AE000196069E00031005002310050023300508B
:103AF00028CDFC0704030050100300505200005072
:103B0000800000505400005020030050FFBFFFFF12
:103B10002A000050FFF0FFFFA8CCFC07380000503F
:103B2000FFF7FFFF000200500400005000E100E03A
:103B3000355EFC07D02FF807D42FF807C8CDFC0757
:103B40004846FC07A000FC07E82FF80765873412F9
:103B5000145EFC07E85DFC0754CEFC07040A000075
:103B600000F0FC0700E0FC07AC14000000F9FC07C3
:103B700024FAFC075449FC075CDEF107C8F9FC078E
:103B8000A4F9FC073CFCFC07ACF9FC07C5F9FC07F1
:103B9000E036F20750F9FC0754F9FC07D04AFC075D
:103BA00058F9FC07C849FC07A1F9FC07A2F9FC0772
:103BB0005CF9FC0760F9FC07E14B1A60E14B521815
:103BC0001A60E14B52181A60E04B52181A60E04B31
:103BD000FE321A60DF4DE04B2E601A60FFF70CFCDE
:103BE0005BF75CFA5BF7A0FADC49DD4B0A881A4008
:103BF000E0231B0113430B805BF7B2FAD94E336805
:103C0000BB4236D02A68D84BD8491A60D84B1B68BB
:103C10001A0A0B704A701A0C1B0ECB70D54B8A70A7
:103C20005A000392C022FF3294461A7803980292F7
:103C30006246D21A125C0298013442400320049278
:103C4000029A0240885C049A42401A70E0220133D2
:103C500052009442E9D1C84CA53A2000C549FF3A28
:103C60005CF722F9002800D000BE20005BF75CFB67
:103C7000376028683EF7EEFA00238022BF4CD20559
:103C800023711168E3700133FF330B431360FDF7B9
:103C900045F80120FEF766F9009B51331B78002B95
:103CA00002D1B74AE3701370B64F0C223E00703653
:103CB0000021300000F068FC08220025B248B3491A
:103CC0008270033000F08CFCB14BB24904205D845B
:103CD00057F711FAFF232900B370042057F73DFA74
:103CE000FDF734F83B00643318705FF739F8009B38
:103CF00051331B78AB4203D10122A14BE2701A7001
:103D0000FF22A54BFA211A700023A44A4900137020
:103D1000A34A1370A34A1370A34A1370A34A1370E3
:103D2000A34A1370A34A1160A34A1370A34A1380D5
:103D3000FEF778F9C823A24A1380A24AC03B138039
:103D4000A14BA24A9B189B08013B0593FCF7FEFA86
:103D5000002800D19FE057F7ACFC0020FEF702F9E5
:103D60009B4B6C331C78042C00D094E00120FEF7B0
:103D7000F9F80023210009A8099348F7E9FA002877
:103D800000D188E00122934B1A601A68002AFCD106
:103D9000914B924C1B68A16C8B4200D2A264C8214B
:103DA000A26C09019A1A8A4200D274E00025A36429
:103DB0008B4B0AA81B888B4F9BB200938A4B8B4E70
:103DC0001B889BB202938A4B1B889BB20393894B3F
:103DD0001B880B959BB20493874B0A93FEF7A8FAB6
:103DE00022003B884C329B059B0D13808022338838
:103DF0004E349B059B0D23803B8892009B0A9B02BF
:103E000013433B8033889B0A9B021A4332805DF741
:103E10002FF97A4B02001988FA23401A9B0043437A
:103E2000AB4200DC55E2764A9818764959F75CFABD
:103E30006A4B84114C33198880231934E2B2DB00B9
:103E400064B2994200D300BE3B88644D9B0A9B023A
:103E500019432B0039804E3319888023DB009942A7
:103E600000D300BE33889B0A9B0219430023318094
:103E70005A494631CB567F2B00D030E20C70029A63
:103E8000594B1A80039A5A4B1A80049A594B1A803C
:103E9000534B009A1A8072B600235B4D09AF2A6813
:103EA0003B70926A0A924D4A0092D2799A4203D1AB
:103EB000324A1279022A00D10A93544C3900200068
:103EC000534A5DF76DF9002800D004E1009BDB79CF
:103ED000002B06D14F4B9B6A002B02D02B689B6AAC
:103EE0000A93FEF75FF820000AA95DF78FF9002812
:103EF00000D0F0E001305BF75FFC0A9B002B07D09D
:103F0000454A1268393AFF3ADA2A01D8013B0A9346
:103F1000424B2F4D18682B0062331B884049414AA1
:103F20001B180B601368404C9B0A9B0203431360F1
:103F3000106823683D4E9B023040034378E0C04642
:103F400064F9FC0768F9FC076CF9FC0770F9FC07D9
:103F500048F9FC074CF9FC0744F9FC07260000501F
:103F6000FFF0FFFFE85DFC07080200400C5EFC0765
:103F7000145EFC0754CEFC073C5EFC0718FAFC07F5
:103F800078FAFC0728CCFC0728CBFC073E46FC0748
:103F90002ACBFC07E846FC07204DFC07105EFC0717
:103FA000375EFC07085EFC07345EFC07115EFC0709
:103FB000385EFC07284DFC071F5EFC07205EFC07EF
:103FC0000031005002330050344DFC07030004F868
:103FD000A8CCFC07FC0000401C00004028CDFC07DA
:103FE0000015005008150050021500500A15005029
:103FF0000415005006150050010400000A5EFC077D
:104000007E040000FC08000058F9FC07185EFC075D
:104010003D1FFC0700FEFC0720000040505EFC072F
:104020004C5EFC073C000040545EFC07FF03E0FFD1
:10403000136010680B68C1025B05C90A0B4313606B
:1040400004230A983B70D14B984200D900BED04E51
:104050000021326C736C59F75BF90903000D009B6A
:1040600008430138586523685A1C904201D1009AD0
:104070005365C84B19794B1E9941009BC9B2586DC5
:1040800045F79AFBC44BDB6A98478023C3491B0260
:104090000A681A42FCD08023C14C5B0022681A4295
:1040A000FCD0802223689343BE4A236011888BB2E0
:1040B000452903D84621CB1AF36411803EF705F950
:1040C0008021B94B1B68AB6623680B42FCD0B74A12
:1040D00013888B4313803B78042B05D1B44B1B789A
:1040E000013B5A1E934102339A1E012A00D948E12E
:1040F00004220127AF48B04E0188102511430180EA
:104100003169AE48114331610188AD4CB94301803A
:10411000022B00D002E12388AB4323800022A94B6D
:104120001A80A94B1B88DB0509D40123A74A1188F3
:104130000B4313806022A6490B8893430B80012414
:10414000A44A0D201388A34313805BF70FFB0321C0
:10415000A14A13888B431C43A04B14801A88D206B3
:1041600002D59F4A0531118030BF1B88DB0602D57E
:1041700008239C4A1380602395490A889A43403B50
:1041800013430B80FFF738F90422336993433361FB
:1041900062B6C823944A1380D8E500220892089B8F
:1041A0000B2B04DD079B01330793FFF7DBFA079B1B
:1041B000089C43431B199B00CB189A60089B013352
:1041C0000893ECE76D42FFF7D9FA6D42FFF7EAFA80
:1041D0006D42FFF7FBFA6D42FFF70CFB0023834DA6
:1041E0000893089B0B2B03DD079B0133FFF715FB9F
:1041F000089B079A01229A401305F5D00C21079BD2
:10420000089A4B439B189B00EB189B68013300D125
:1042100000BE0C20079B089A43439B189B00EB1899
:104220009B68002B1AD0079B089943435B189B009F
:10423000EB189868089A079EC117029659F7FCF880
:10424000AE6BEF6B029B1A0159F7F6F83043394316
:1042500000900191009A019BAA63EB63089B0133D4
:104260000893BEE700233380FFF7F2FA604E6149FE
:1042700030880840C021C9000143F02031803188D6
:104280000002014331801988A9431980042118884C
:10429000594D884318801088284010801588574849
:1042A0000540C0204001284310800122308802438D
:1042B0003280454A12880A42FBD0FFF715FB50496D
:1042C0005B1850490B4201D0FFF79BFB9423FFF78B
:1042D00097FB28008A4200D1A7E54B4AA4E5DBB250
:1042E000D11A48B2090601D59B1A58B2072800DC3A
:1042F000C5E52B6D01332B655DF76CF94635FDF790
:10430000BBFEFCF70DF95DF7A3F95DF729F93F480E
:104310005DF7D0F95DF774F92C70B0E523883C495E
:104320002B432380238813432380009B981D5CF735
:10433000FDFB2388059A1D43364B25801A60EFF359
:10434000108287F31088A0218020C9050B88834341
:104350000B80002A12D182F310881B4B1B88DB05CF
:1043600000D4DBE60023009A0B2093715BF756FA2A
:1043700001231F490A8813430B80CFE687F3108877
:10438000EBE7012B00D003E730BF01E73F420F000E
:10439000A8CBFC0718FAFC07E4FEFC07300000403D
:1043A000000200400A33005008020040080000509C
:1043B00078FAFC071000005000ED00E00C030050FC
:1043C00012000050180000502A0000505600005003
:1043D00052000050240000500A0000501400005009
:1043E00000330050023300500031005028CDFC074C
:1043F00080000050FFF0FFFFFFF9FFFFFFC7FFFF46
:1044000000CDFFFFFFFEFFFF82FBFFFF70E0FC0718
:10441000355EFC072000F407F0B50546007985B04D
:1044200007073F0F28463EF718FB02902879400601
:10443000C00F039028463EF710FB4448806A8079FD
:10444000012825D00126414840300079800775D5E4
:10445000002E73D000222B2311463D4856F74CFC0A
:104460000227077001263B4946700446C969A879AE
:1044700088472A210855287900210007000FA070DD
:10448000030058F7E9FF0737393B423F423D4200FE
:10449000029801902D4814300090002604680BE02B
:1044A000611D01983EF7EFFB002804D02079B84247
:1044B00001D101261BE02468002CF1D100983EF7C1
:1044C000D8FB25490978884202D1244806780EE0B5
:1044D00000210C2056F702FB04460622401D0199DC
:1044E00058F766FF2771214600983EF7F3FA01203E
:1044F0004640A8E7A1700AE0A67021E0032002E090
:10450000A77004E00420A07001E0012818D0A8885A
:10451000000A801FA07228463EF79FFA811D2046A0
:10452000A27A0B3058F744FF0622201D029958F753
:104530003FFF0398E070204649F760FC05B0F0BDEE
:10454000A172F1E7704770477047000074FBFC07E9
:1045500004080000E4FEFC07A1F9FC07A2F9FC072F
:10456000074B10B50400002B02D0002100E000BF73
:10457000044B1B68002B00D09847200000F03AF84D
:10458000000000005C5EFC0703008218934200D12B
:10459000704719700133F9E770B500260C4C0D4DCA
:1045A000641BA410A64209D1002600F039F80A4C79
:1045B0000A4D641BA410A64205D170BDB300EB5890
:1045C00098470136EEE7B300EB5898470136F2E71B
:1045D0002C4DFC072C4DFC07304DFC072C4DFC07E7
:1045E000002310B59A4200D110BDCC5CC4540133F5
:1045F000F8E70000FEE7C04602B4714649084900EA
:10460000095649008E4402BC7047C04602B4714648
:1046100049084900095C49008E4402BC7047C04605
:10462000F8B5C046F8BC08BC9E467047F8B5C04611
:10463000F8BC08BC9E467047E60303091800444CCA
:10464000475F5448524D000000010203040506076D
:1046500008090A0B0C0D0E0F0BFF00D2444C472D1E
:104660005448524D000000005BB0050200000000FD
:1046700032000000010602000000000101050200F6
:10468000000300016504FC07A911FC07DD11FC070C
:10469000000000008104FC071D04FC07000000006E
:1046A000D02EF807C02FF8072000800000C00000BF
:1046B00000000400000028220000000000000400A8
:1046C00000F7FFFF7F00000030F007080000000047
:1046D00000040000000000000000000000000000D6
:1046E000000000000000000000000000983BF207FE
:1046F000C4CDFC070400010001240000D902FC071E
:1047000003240000DD02FC0704240000E102FC0792
:10471000130400000D10FC07140400009110FC07A6
:10472000011B00004503FC07031B00004903FC07B5
:10473000061B0000251AFC07081B0000B918FC071F
:10474000FD31F207A115FC071103FC072511FC0739
:10475000D910FC070511FC07F8000000130E00003B
:10476000F513FC07150E0000551DFC07170E000081
:104770008103FC07190E00008503FC07150D0000DE
:104780009D03FC070028000001000000000000005D
:10479000032800000100000000000000192A0000AA
:1047A00001000000008000000229000009800200D2
:1047B000000000000429000001000000008000004B
:1047C000C847FC0706000000002400004D2AFC0733
:1047D00002240000C128FC07170C0000011DFC0783
:1047E000150C00001D2BFC07130C0000612DFC07AD
:1047F000000C00004525FC075126FC073724FC0768
:10480000110BFC07210BFC0780000000A922FC070C
:1048100002000000CD22FC0708000000D522FC07A2
:1048200000010000F122FC070002000075C1F00742
:10483000400000003794F00710000000C97BF0072B
:10484000040000007D22FC0701000000B522FC07E7
:10485000200000005108FC070000000000000000DC
:1048600000280000010000000000000003280000F4
:1048700001000000000000001C2A000040000000B1
:104880000080000002290000090002000000000072
:104890000328000001000000000000001D2A0000A5
:1048A000010000000080000003280000010000005B
:1048B000000000001E2A000000020000008000002E
:1048C0000229000009000200000000000328000087
:1048D0000100000000000000212A0000010000008B
:1048E0000280000002290000090002000000000010
:1048F0000629000001000000008000000449FC07B8
:1049000008000000001B0000CD2AFC07170C000067
:10491000D91AFC07150C00003D2CFC07130C0000F5
:104920003D1BFC07000C00004526FC07021B000095
:104930002D2EFC07041B00002D29FC07071B00007F
:10494000D929FC07A927FC075525FC07390BFC07CB
:104950004511FC070000000000000000F4011000F9
:10496000F4352348F40108C4140A000024000000B0
:104970001D0FFC07A90FFC071B000000690FFC07B7
:104980001919FC07FF0000000000000000000000F3
:104990001B000000450BFC0724000000310BFC0746
:1049A000FF00000000000000190EFC076D02FC076C
:1049B000644CFC07F910FC074047FC0798CCFC0747
:1049C00064CBFC0780CDFC07050000006054FC07A9
:1049D00000040000A451FC07B0020000984DFC0741
:1049E000000400006C58FC07700500002003000064
:1049F00000A60E0004000000D200000032000000FB
:104A00003C00000001000000010000000200000066
:104A10000200000004000000030000000600000087
:104A20000000000002000000020000000000000082
:104A3000000000000300000003000000050000006B
:104A400005000000060000000A0000000A00000047
:104A5000C8000000B80B000002000000B80B000006
:104A6000B80B000010000000D4010000CC010000D1
:104A7000700200006A000000040000000100000055
:104A8000200000000C00000001000000E204000013
:104A90008A020000DC050000AF000000504CFC075B
:104AA000C04AFC0700000000584CFC07A849FC075E
:104AB0000000000000000000000000005E01000097
:104AC000404DFC07384DFC07504DFC07904DFC074E
:104AD000A920FC078521FC07A7C6F00703C7F0073C
:104AE0000BC7F0075FC7F00777C7F0078DC7F00760
:104AF000AFC7F00731CBF007D5CDF00715CCF007E5
:104B000035CCF00755CCF00793CCF007A3CCF007D9
:104B10000DE2F007C9DFF007E7DFF00703E0F00779
:104B20001DE0F00731E0F007AFE0F007C7E0F00765
:104B3000E3B0F1076BB3F10707A9F007B5EFF10791
:104B400099F0F10795F0F10791F0F1078D21F00749
:104B5000F903FC07F907FC072520FC07C903FC073C
:104B6000E903FC07057DF007D37BF007737CF007B2
:104B7000AD82F1074134F1075D19F207DD19F20743
:104B8000811AF207BD1AF2074D1BF207851BF207C7
:104B900000000000F303FC07F503FC077DB3F007FA
:104BA000D976F107617DF107B181F1079780F107AF
:104BB000C549F1079759F107F10AF107A1ECF00790
:104BC000F103FC071944FC07DDBAF00725AAF0073A
:104BD00099AAF00749ABF007E72DF007A32EF007DD
:104BE000657FF0072F7EF0070136F0070000000018
:104BF0004520FC07551FFC073B13FC0701A7F107E5
:104C000083A7F10707A8F1071512FC07B5B7F0074E
:104C10000000000000000000000000000000000094
:104C20000000000000000000000000000000000084
:104C30000000000000000000000000000000000074
:104C40000000000000000000000000000000000064
:104C50005C49FC0768CDFC079049FC0794CDFC0734
:104C6000020000004D19FC07DD18FC0700000000E1
:104C700000000000B517FC0700000000A532FC078B
:104C8000000000001918FC070000000000000000F0
:104C9000000000005D11FC07E502FC07F102FC07C3
:104CA0007511FC07000000000303FC070913FC0753
:104CB000000000000000000000000000150FFC07CD
:104CC000C512FC0700000000000000005513FC079F
:104CD00000000000000000000000000000000000D4
:104CE0000000000000000000FF00000000000000C5
:0B4CF0000000000003000010000100A5
:084CFC00ACB4FF7F01000000D1
:0C4D0400204DFC07204DFC0714000000AF
:104D1000EC5DFC077400000028CBFC072C030000AE
:104D2000FF000000E0010000F40100008501FC0725
:044D30005901FC0722
:104D3800000000000000000000000000000000006B
:104D4800000000000000000000000000000000005B
:104D5800000000000000000000000000000000004B
:104D6800000000000000000000000000000000003B
:045DE80000000000B7
:0400000507FC0D8D5A
:00000001FF
