:0200000407FCF7
:100000005C6DFC07110EFC074D02FC072D02FC077E
:100010002902FC072902FC072902FC072902FC0728
:100020000000000000000000000000002902FC07A2
:1000300000000000000000002902FC072902FC0764
:100040002124FC072125FC07A526F0078D0CFC07C1
:10005000890AFC072902FC075908FC072902FC074A
:100060002902FC072902FC072926FC073326FC0786
:100070003D26FC074726FC075126FC072902FC0702
:10008000351FFC07B90AFC072902FC072902FC07F7
:100090002902FC072902FC072902FC072902FC07A8
:1000A0000000000090070E000000000000000000AB
:1000B0000000000000000000000000000000000040
:1000C0000000000000000000000000000000000030
:1000D0000000000000000000000000000000000020
:1000E0000000000000000000000000000000000010
:1000F0000000000000000000000000000000000000
:1001000000000000000000000000000000000000EF
:100110000448054B10B5834203D0044B002B00D09C
:10012000984710BD2855FC072855FC070000000023
:1001300006480749091A8B10C90FC91810B549108C
:1001400003D0044B002B00D0984710BD2855FC0766
:100150002855FC070000000010B5074C2378002B41
:1001600009D1FFF7D5FF054B002B02D0044800E072
:1001700000BF0123237010BDDC65FC0700000000F8
:10018000F054FC07054B10B5002B03D0044905487B
:1001900000E000BFFFF7CCFF10BDC046000000002C
:1001A000E065FC07F054FC07402292029A1A92463E
:1001B0007047C046174B002B00D1134B9D46FFF7ED
:1001C000F3FF00218B460F461348144A121A04F01D
:1001D000FFFC0E4B002B00D098470D4B002B00D09E
:1001E00098470020002104000D000D48002802D08F
:1001F0000C4800E000BF04F0F3FC2000290003F0ED
:10020000B7FD04F0D1FCC04600000800000000006B
:10021000000000005C6DFC07DC65FC075C66FC0709
:100220000000000000000000FEE70000042071460E
:10023000084203D0EFF3098003490847EFF3088031
:100240000149084770470000093BFC07042071463C
:10025000084203D0EFF3098003490847EFF3088011
:100260000149084770470000213CFC07F8B5002011
:100270000C250126154B164C1A78290051430F5DA9
:10028000FF2F0FD1002800D01A700C255A78114882
:10029000290051430C5CFF2C0FD1002201201A7061
:1002A0005A7009E06118496801323000D2B2002961
:1002B000E3D01A7088470020F8BD41184968013220
:1002C000D2B20029E4D05A70F4E7C04628CBFC072C
:1002D000DC54FC074C51FC0700207047002070479D
:1002E0000020704770470000014B9B8C03807047D3
:1002F00028CBFC0708230380DB184380002383807E
:100300007D33C380704701230B7000234B808B80AB
:1003100070470000094B10B5C21893B20120042B9E
:100320000BD80024064B92009818836AA34201D090
:10033000846298470020029B1C7010BDF2FBFFFFF7
:1003400028CBFC0770470020704700207047000052
:10035000094B01221B88DB0918001040134208D00A
:10036000064B00201B681B0403D4054B1B889A43D3
:100370001000012318407047080000503000004072
:1003800018FAFC0700207047180A7A234343034AEF
:100390000020D2180B78B4321370704728CBFC07BA
:1003A00000207047084B10B5DA6B80231B0298427F
:1003B00007D3002319005CF7ABFF8905800A0843C7
:1003C00010BD5043800AFBE7A8CBFC07044B10B5D7
:1003D0009B6B04495843044BC0185CF76FFF10BD7A
:1003E000A8CBFC0740420F0020A1070010B5FFF783
:1003F000D9FF10BD7047704770470000064B984208
:1004000000D000BE0321054A13888B4380210902D6
:100410000B4313807047C046111111111200005098
:10042000F0B51E2805D10E4B4908D218CBB2002BCF
:1004300000D1F0BD0B480021060014685568083251
:10044000076BBC4206D10631C90071184D60013BF3
:10045000DBB2ECE7013108300629F1D1F7E7C046FD
:10046000D42EF807E0CDFC07044B8900D218891878
:10047000034B0A687C331A807047C046D02EF807B9
:10048000E0CDFC070B4B10B5D2181068116880B294
:10049000090C0B1A084A9BB29C080133E31814009C
:1004A0007E342380092343435B1A1BB2DB10803266
:1004B000138010BDD42EF807E0CDFC070020704754
:1004C0007047704710B5031CE6280CD9084B1B7801
:1004D000EC20FA21DBB2FF30584389005CF704FFBF
:1004E0007E38C0B210BDC2B2282AF1D22823EFE76D
:1004F000804CFC07704770474B1E012B00D900BE93
:10050000431EDBB2FD2B04D800BE0C20022902D111
:100510007047FF28F9D1024B48331878F8E7C046F6
:10052000A8CBFC077149724B0A6870B51A40B0231A
:100530001B0113430B606F496F4B0A68FF2492B293
:1005400013436E4A0B6013686D496E4D0B40C0211A
:1005500013606D4A890013686C4E0B4313601023BF
:100560006B4A10880343138001236A4802881A43A8
:100570000280694A69481060694A108803436948E3
:1005800013800288684B1A40BC239B0013430380EE
:100590006648674A03685B0D5B0513430360654863
:1005A000654B02681A4090235B0113430360634864
:1005B000634B02681A40634B134303606248634B0A
:1005C00002681A40624B134303606248624B026840
:1005D0001A40624B134303606148624B02681A4041
:1005E000614B13430360614B614848331A78C12360
:1005F00012065B0113435F4A1360A0225E4B520157
:100600001A805E4B5E4A1A8034230288A243134349
:10061000038055235B480288A24313438D22038045
:10062000594B92001A80594B594A5A481A805A4BD2
:100630005A4A6C241A805A4B5A4AFF341A805A4B31
:100640005A4A1A805A4B5B4A1A8002685A4B1A401F
:100650005A4B13430360B020594B80001C802A88FA
:10066000584B1A4002432A809022358892001D4040
:100670002A433280A822544E920035881D402A43D6
:10068000524D32802A881A4010432880C620504A92
:10069000400010804F4802881340194301801F20FA
:1006A00017234D490A88824313430B8019234B4972
:1006B0000A88824313430B80494B4A491C800A88AD
:1006C000494B1A4080239B0113430B800723474962
:1006D0000A689A43043B13430B604549454B0A683B
:1006E0001A40454B13430B6070BDC0463430004088
:1006F000FF80FFFF20300040000066663830004079
:10070000FF00FEFF3812004050300040441200400D
:100710005C300040243000408000004059055C07F8
:1007200040100040202000400FFCFFFF1820004038
:1007300009581A001C200040FEE1FFFF0420004081
:10074000E0E00000080929490820004000000303F8
:10075000696A686C0C200040031FFFFF7060000096
:1007600010200040E0E0E0E00B0A0A08A8CBFC07FC
:100770004013004000100040281300402C1300409C
:10078000051400004813004050130040541300406B
:10079000340A00003C200040581300404E0800007E
:1007A0005C130040260A0000601300405808000057
:1007B0002C2000400A1400002304E0FE181A060151
:1007C000001200401FFCFFFF481200404C12004086
:1007D0000412004088120040981200409C12004011
:1007E000A81200403C100040FF9FFFFF8010004017
:1007F0006410004000FE00FE500150010F4B10B588
:100800001868FFF7CFFD00220D4B0E49DC6CDA644F
:10081000041920005CF752FD0B4B0A4918602000B8
:100820005CF74CFD002901D0064B591A074B084ACA
:100830001960082113680B43136010BD3800004095
:10084000A8CBFC07710200004400004040000040BB
:100850003000004000BE70470122044B10B51A80E2
:10086000034B1B6D002B00D0984710BD0E15005098
:10087000A8CBFC07FA22030010B50020D200934257
:1008800009D3054A6430934205D8044A0A219818CE
:100890005CF72AFDC0B210BDB80B000030F8FFFFB6
:1008A00000210B4B0200181D70B5C16709481025C7
:1008B0000186C020084C40002550DC6D59658C42F3
:1008C00004D019005431C988186EA04770BDC046C5
:1008D000A8CBFC070013005000E100E0F7B5430689
:1008E00005D50020FFF7DCFF244B1B88F7BD24490A
:1008F00080250B0002005433AD009C882A40DB8821
:10090000284215D14D6E02264F6D29003140481EF8
:1009100081414902019198B2A0421CD2194909882B
:1009200031420DD1002AE1D0154B5433D880DDE798
:10093000E31A5A425341D8B2FFF7B2FF124BD4E741
:10094000FA5C013300209C4200D1019802430F4819
:1009500002820122DFE7002A02D0094B5433D880FB
:10096000A042C3D10120054205D01021074A138EB1
:100970008B431386BAE7FFF793FFB7E75413005092
:10098000A8CBFC07701300506013005000130050F8
:1009900000210B4B0200181D70B5C16709481025D6
:1009A0000186C020084C400025505C6F99668C423F
:1009B00004D019005431498B986FA04770BDC046D0
:1009C000A8CBFC070013005000E100E0F8B540069A
:1009D00025D4284B02241A005432108BDA6F22409F
:1009E00051424A415242520A1D005435A98B81425C
:1009F0001ED301251A000024AC465432528B996E46
:100A0000891890422BD93F271B4D2E88551CADB21B
:100A10003E421DD1002C07D054335A8304E00020FD
:100A2000FFF7B6FF154B1B88F8BD802149000CE08D
:100A3000134E36882642DCD0013189B2A983814227
:100A4000F3D1C0255102AD0049190E4D2982CBE7E3
:100A50000C4A6446128A0A702A000131D1E7002C40
:100A600001D054335A839042DED10120FFF790FF2A
:100A7000DAE7C046A8CBFC077813005054130050A7
:100A8000701300500013005010B5084B988D084BA0
:100A900080B20433DB6F002B01D0984710BDC02318
:100AA0001021044A5B00D150F8E7C0460013005003
:100AB000A8CBFC0700E100E0134B10B51C68230530
:100AC00009D50123114A11680B431360104B5B6871
:100AD000002B00D09847E30409D502230B4A116884
:100AE0000B4313600A4B9B68002B00D09847A4046B
:100AF00009D50423054A11680B431360044BDB68D6
:100B0000002B00D0984710BD084000501440005002
:100B100028CCFC070369022900D900BE00225B181B
:100B20005A7770470369022900D900BE00225B187A
:100B30005A77704700487047C44EFC0770477047AB
:100B4000004870473050FC0730B500220124038B69
:100B5000408B01339BB205001541254206D08A42E5
:100B600002D1013398B230BD02339BB20132092A5F
:100B7000F1D10020F7E7002203695B18DA747047AF
:100B8000004870472451FC0710B50389032914D984
:100B90004289012410002040224200D110BD0529C5
:100BA0000BD90224100020402242F7D0082904D992
:100BB0000424100020402242F0D05B1898B2EDE7E8
:100BC00010B502890400FF208A4206D8131D9BB28B
:100BD000994203D2081DC01AC0B210BD6489E00753
:100BE00006D5063293B2994202D20631C81AF3E70B
:100BF000A20705D503339BB2994201D20931F5E72B
:100C0000FF206207E9D59A1C92B2914202D20B31C1
:100C1000881AE1E7200704D50B209142DDD0033389
:100C20009AB2FF20E406D8D58A42D6D1F338D4E769
:100C3000F7B500240126134B1349D88F9A6B9F8F69
:100C4000121887420BD8002C00D0D88701248A883C
:100C5000A2438A809B6C002B0CD098470AE08D8AB7
:100C6000AC46451CADB201956546354203D1002C1A
:100C700000D0D887F7BD0888340010700198013281
:100C8000DFE7C04628CCFC0700110050F7B52F4C19
:100C90000F232089184001380B28F9D803F0D0FF22
:100CA0005413F841F8444EF8F8F8F806FFF7C0FF7F
:100CB0000122A3889343264AA380936C002BE6D09D
:100CC000D08F9847E3E7224B988EDA8E82421CD26F
:100CD0001A6B20260192022294461E4FD98E88421A
:100CE000D5D93F252289AA43D2B2C02A09D1654667
:100CF0003A882A42CBD04A1CDA86019A525C22807A
:100D0000ECE7A28A3242F6D1C1E70221A2888A43E7
:100D1000A280A2887E318A43A2805B6C002BD0D156
:100D2000B5E7FFF785FFB2E7094B1B6C002BAED090
:100D30009E22A18A114005489847A8E7044B1B6CE6
:100D4000002BA4D00121F6E7F7BDC04600110050EA
:100D500028CCFC077C1100500D4B0E4A10B51C002E
:100D60005A65002254341A66E28003325A660A4AEF
:100D7000D9651100A08054310988110060310988BB
:100D800006490433D96794239B00138610BDC046DF
:100D9000A8CBFC070C66FC0700130050DD08FC071D
:100DA0001E22084B1A80084B1B3A19880A431A80E6
:100DB000042219880A431A800122044B50331A7006
:100DC0007047C046021600500016005028CCFC07A1
:100DD00010B501F0D7FBFFF74DFD10BDEFF310820A
:100DE000012383F3108808490988090603D40749B9
:100DF000088803430B80002A02D182F310887047D1
:100E0000012383F31088FAE70800005008330050EC
:100E100070B5144B83F3098813485DF75DFE134BDF
:100E20001348834211D30020124B13498B4217D32E
:100E3000FFF7C0F91C68910065585C680132655085
:100E400099688A42F6D30C33EBE70022F8E71C6876
:100E50009500285101325C68A242F8D30833E5E7D7
:100E60000022F8E75C6DFC07A000FC07F854FC07C3
:100E70000455FC070455FC071455FC0710B561F731
:100E800007FF054B00211A00513211705A6D8A423A
:100E900001D05965904710BD28CCFC0770B5194E9C
:100EA000B56D002D28D12C2304220921164859F7AD
:100EB00023FF164B0400038010222900B0654580F3
:100EC0000A3003F085FE80239B016383F72323848C
:100ED0000F4BA5831A00E5837E32658411880A1CB6
:100EE000FB2900D9FB22E28480331988094A0B1CB4
:100EF000914200D9131C2385B06D59F718FF0023C8
:100F0000B36570BD28CCFC07040D0000030A000087
:100F100074FBFC074808000070B50A4C8500661990
:100F2000F36D002B0BD10A21000201431E33042272
:100F3000054859F7E1FE0823FF330380F065641983
:100F4000E06D70BD28CCFC07140E0000F8B50F4C06
:100F500085006619336E002B11D10A21000201436E
:100F60001E3304220A4859F7C7FE072207003066DD
:100F70000849023003F058FE0223FF333B80641916
:100F8000206E59F7D4FE00232366F8BD28CCFC0759
:100F9000140E0000E854FC0710B5FFF7D7FF10BD92
:100FA00010B5042209211C230E4859F7A5FE1B2366
:100FB00004000370242061F7A7FE04220A4B22825A
:100FC000626001210222A3810023A174FF32233138
:100FD0006070E381200061802281A37259F7A7FE2F
:100FE00010BDC0461B0D0000AD27000010B5042247
:100FF00009210A230A4859F77FFE1B2304000370C6
:10100000142061F781FE14236380103B6360742316
:10101000FF3360702381200059F789FE10BDC04660
:101020001B0D000070B50422092110230A4859F74E
:1010300063FE1B2504000570280061F765FE04238C
:101040006360064B6070A360054B65802000E36021
:1010500059F76DFE70BDC0461B0D00001D0201005A
:101060002C01050070B50400242041F7ACFB0423DB
:10107000010090201A00800159F73EFE04700F4CC9
:1010800000252600643633784570C570837059F7A3
:101090004EFE230065331D70230066331D70230050
:1010A000092267331A70064B04210648683401325E
:1010B0003570238061F7FAFD70BDC04628CCFC076F
:1010C000701700001304000070B51600FFF780FED3
:1010D0001A4C0500230064331B7883420DD0242072
:1010E00041F771FB022301000422154859F704FE61
:1010F00000234570037059F71AFE230064331D70F6
:10110000230065331B78002B0FD0042D0DD823004E
:10111000673318785EF738FC230001226A331A70AF
:1011200004210848C73261F7C1FD683431002288C4
:10113000054861F7BBFD002070BDC04628CCFC0708
:1011400002240000140400001304000070B50F4CCA
:101150001500230065331B78002B0FD023006A3461
:10116000673318782378002B0AD05EF705FC00233C
:10117000142223702900064861F798FD002070BDF5
:101180005EF702FC012305222370F3E728CCFC075D
:10119000140400001FB514001A0005230293044B29
:1011A0000193069B0093230062F75AF804B010BD28
:1011B000B84DFC0713B500240094FFF7EBFF13BDF7
:1011C0001FB514001A0001230293044B0193069BE0
:1011D0000093230062F744F804B010BDE04DFC0713
:1011E0001FB514001A0004230293044B0193069BBD
:1011F0000093230062F734F804B010BDE84DFC07FB
:101200001FB514001A0005230293044B0193069B9B
:101210000093230062F724F804B010BD284EFC07A9
:10122000F8B50E0030781900082818D80E4B1D5C50
:101230000E4B8000C758AB1C0D4859F75DFD337845
:10124000040003704570002D04D02A0039000230DC
:1012500003F0EAFC200059F76AFD0020F8BD00BE4B
:1012600000273D00E7E7C046784DFC07844DFC07AA
:101270000314000010B504498A780331027001306C
:1012800003F0D2FC10BDC04628CBFC0770B5047833
:1012900003000D00002C04D0012C0AD048242C702F
:1012A00070BD82780548191D8270033003F0BCFCC4
:1012B000F5E7024A438800249384F0E728CBFC0733
:1012C0000A4B70B51C000D00110088342078AA006C
:1012D000C000C018064BC91803F0A6FC21784919B4
:1012E000C9B221700C2900D900BE70BDE0CDFC0749
:1012F000D42EF8070B4B70B51D000C00110089357A
:101300002878A2000630C000C018074BC91803F0A7
:101310008BFC2B781B19DBB22B700C2B00D900BE79
:1013200070BDC046E0CDFC07D42EF807F8B50E4CD2
:101330000500402220000D4903F076FC0C490D4BBE
:101340000A00C1CBC1C243CB43C243CB43C243CB50
:1013500043C2094B0948ADB25B1B401B9BB280B234
:1013600023816081F8BDC04670E0FC077C37F2073E
:10137000B0E0FC07C437F207B8E0FFFFCCE0FFFFA6
:10138000F7B5144C8700E519EB6E16000191002BA0
:101390000AD10A21000201431E3304220E4859F7E4
:1013A000ABFC04230370E866E419E56E1022AF1C61
:1013B0003800002103F00CFC32003800019903F0E2
:1013C00033FC012328006B7059F7B1FC0023E3665E
:1013D000F7BDC04628CCFC07140E00001FB54B78A3
:1013E0000400002B0AD1102268460B4903F01CFCB4
:1013F000102269462000FFF7C3FF1FBD012B03D158
:10140000064B04220093F4E7022BF9D0032BF4D10E
:1014100010220231EEE7C046D04CFC0740E201004A
:1014200002690B005218002110B5D174808A1B028A
:10143000184359F792FE10BD3F2210B543790400BE
:10144000934311D141F75BFA030A20706370030CD8
:10145000000EA370E07041F752FA4023207180B271
:10146000000A5B420343637110BD70B50D000C00B0
:10147000203541F744FA20700134AC42F9D1002004
:1014800070BD0000F0B57A25234B454385B04E78FA
:101490000393224B214A5B1902931E772B001433CE
:1014A000D3180822040011001800019361F717FFF8
:1014B0001A4BAF1CDF1931001022380061F70FFF03
:1014C00041F71DFA039B5E194E36144B3080EA5CDF
:1014D00001231343114A2000AB54FFF71DFD050003
:1014E000029B01991B7F08220377338843821430C3
:1014F00003F09AFB10223900A81C03F095FB200092
:10150000FFF70AFD59F713FC0022054BA4001B1935
:10151000DA6505B0F0BDC04628CBFC0764CBFC07FC
:1015200028CCFC0708781B0A10B5DCB207281FD8A6
:1015300003F090FB041E1E1E1614141A0C215943AE
:101540000C4A2000703252180121D17279314B437C
:101550000021094A3C329954FFF7F8FC002010BDE5
:101560002000FFF73BFFF9E72000FFF78BFFF5E7CF
:1015700000BEF3E728CCFC0728CBFC0770B50400BD
:101580000D00FEF7E5FE002806D00A4B2A000421D4
:10159000E01859F7F0FE70BDFFF720FC0422082385
:1015A0001100054859F7A8FB4560047059F7BFFBC7
:1015B000F1E7C046030400000104000070B50028F4
:1015C00001D100BE02E00C4B9842FAD80B4A00232E
:1015D00015007C359C0066590133002E08D1121984
:1015E000DCB2D16701002000FFF7C8FF200070BD0A
:1015F0000A2BEFD10024F9E7FCFF3F0028CCFC07C1
:10160000002370B50E4C23700E4B1B78002B12D1AB
:10161000012215000C4E092033785D409A420BD010
:101620005EF7B2F905203570002D00D1BE300749B4
:10163000FFF7C4FF207070BD5EF79EF9F2E7C04669
:101640000166FC073566FC070266FC070116FC070D
:1016500010B52C4A13780133DBB21370002808D080
:1016600029480278022A04D8541C047027485200E2
:101670001152022B09D8264C2378002B0FD10A20B7
:101680002449FFF79BFF207009E01F4B224A19787D
:10169000002905D11378FF2B01D00133137010BD41
:1016A00000231370194A0020135E02291FD902205B
:1016B000115E0420105E0A1C994200DD1A1C12B251
:1016C00090421DDB0A1C994200DA1A1C131C12B24C
:1016D000824200DD031C1BB20120104A104C138013
:1016E000104B18702378002BD9D10F49C9E7022974
:1016F000F2D10221525ED218D30F9B185B10EAE799
:101700001300E9E71F66FC072066FC072266FC075A
:101710003066FC077535FC070F66FC071266FC0790
:101720003166FC071066FC07B51CFC0710B50C4BB6
:101730001B78FF2B08D00B4B1B78002B04D0002804
:1017400003D10100FFF784FF10BD074C2378002B65
:10175000FAD109200549FFF731FF2070F4E7C046B0
:101760001455FC070066FC07F865FC075D34FC07B0
:1017700010B5054B1B78FF2B05D0044B1B78002BB5
:1017800001D0FFF765FF10BD1455FC070066FC078C
:10179000394A70B503000D00049C904216D0374AB8
:1017A000904239D0364A90424AD14B68002B00D142
:1017B00000BE344B6A689A4200D900BE28782F4B8D
:1017C00004216A68C01859F7D6FD10E00B78013B78
:1017D000DAB2092A1ED82C4A9B00D218D16F2B48A6
:1017E000814207D10021D167294AD31859620020CC
:1017F000207070BD274B9942F9D1042208231100B3
:101800001E4859F779FA2B7803706B68436059F7D3
:101810008EFAECE700BEEAE70878411ECBB2092B4E
:10182000F8D8194B89005B181A4ADE6F9642DED150
:10183000174A5218526A6968DA67FFF79FFED6E7BF
:10184000154A01209A18092AD3D8033BD8B2411E61
:101850000D4B89005B18DA6F002AC8D00D4DAA42E3
:10186000C5D00A4DAA42C2D00025DD67084B5B18DF
:101870005D629047BBE7C04602040000030400001D
:1018800001040000FCFF3F0028CCFC07E502FC0738
:10189000A8CCFC074503FC07FCFBFFFF431EDAB2A4
:1018A00070B50500092A18D80D4C9B00E418E36FA9
:1018B000002B12D00B4EB3420FD00B4B0421C0189B
:1018C00059F7A3FD0422082311000848E66759F7D9
:1018D00013FA057059F72BFA70BD00BEFCE7C0463D
:1018E00028CCFC07E502FC0703040000020400000A
:1018F00070B5234C230051331878002801D0FFF72E
:10190000CDFF20492048FFF759FE204D5134EB6CA4
:101910002070002B2AD10422092152331C4859F788
:10192000EBF90D2303801B4B04008380C380082345
:10193000FF3303818023DB00438104221649E864DE
:101940000C3003F071F923000C22200013492B33D3
:101950001A70103126002C3003F066F922000B3685
:10196000082130000E4B103261F70EF9E86C59F780
:10197000DEF9002302210420EB6459F7EEFB70BD71
:1019800028CCFC077D0EFC0770170000A8CCFC07D4
:101990000D0D00004C040000814CFC07D04CFC07EE
:1019A000864CFC0710B561F7C5F8002801D0FFF799
:1019B0009FFF10BD10B5064C2078002801D0FFF71E
:1019C0006DFF044B04491868FFF7F8FD207010BD47
:1019D0003466FC071C55FC070537FC0710B5154C91
:1019E0002078002803D0FFF759FF00232370124C02
:1019F0002078002803D0FFF751FF002323700F4CFD
:101A00002078002803D0FFF749FF002323700C4CF7
:101A10002078002803D0FFF741FF00232370002324
:101A2000084A1370084A1370084A1370084A137062
:101A300010BDC0463466FC07F865FC073166FC073C
:101A40003066FC071066FC072066FC071F66FC0773
:101A50000F66FC0710B54A78064B1100481E8141FD
:101A60001970002A03D0FFF7A5FF002010BDFFF773
:101A7000B5FFFAE70066FC0710B504001B2060F70D
:101A80003DF8210060F750F80100D820042202231D
:101A9000400159F731F9044B047050331B785B0057
:101AA000437059F744F910BDA8CCFC0770B5050088
:101AB0001B200C0060F722F8290060F735F802239C
:101AC00001000422034859F717F9447059F72FF918
:101AD00070BDC046071B000010B50C784A889621DF
:101AE000531E9BB249008B4213D2642353430A49CD
:101AF0000B600A4B1B78002B05D0094B1B78FF2B82
:101B000001D0FFF757FF00212000FFF7CFFF002093
:101B100010BD8021F8E7C0461C55FC070066FC0795
:101B20001455FC07F8B50C000021160005005FF7FE
:101B3000FBFF08210200C1202402092321430001E8
:101B400059F7DAF812230400037024205FF7D6FF58
:101B5000002800D100BE831CDB7F0022B34207D9DE
:101B60000121078B0130D3B2B3420BD30237BAB293
:101B70000123AD19E380AB7E2000A280237259F7C8
:101B8000D6F8F8BDC37F13410B400433FF18BFB232
:101B90000132E8E7F8B51B200D0017001E005FF7C3
:101BA000ADFF002800D100BE2988FFF709F8062301
:101BB00004003A0031000F4859F79EF82A880300C4
:101BC0000280E01E082812D803F044F80D1111110C
:101BD000110D11050D0000225A8018001A7159F7D5
:101BE000A6F80020F8BD02225A800022F5E706225E
:101BF000F3E7C046180C0000F0B51B2085B01F00AD
:101C0000009101925FF77AFF041E00D100BE009B95
:101C100020001988FEF7D4FF03383D0A03AE0928D7
:101C200043D803F017F828423D4242314205390AB1
:101C3000A38900243380022505E0E389042533804D
:101C4000238A002473803900019AAB1D184859F784
:101C500053F80700ABB22A0031004380053002F090
:101C6000E3FF009B38001B883C713B8059F75FF80D
:101C7000002005B0F0BD6419E37C5B000225002460
:101C80002B4033707470DEE76419E37C00249B07FB
:101C9000DB0F33707470CEE76519EB7C5B10EDE7FA
:101CA000A37C012500243370CDE706240025CAE774
:101CB000140C00001FB500221A4B1A701A4B197829
:101CC000914207D019490978914203D018490C78FC
:101CD000FF2C02D100221A701FBD1A70154B1B2059
:101CE00000229B5EFE221B0212061B0A1343009376
:101CF00080236A469B0093815FF700FF21005FF716
:101D000013FF1423010004220B4858F7F5FF0123A9
:101D1000040010226946037402F086FF200059F780
:101D200006F8D9E73166FC071066FC070066FC0779
:101D30001455FC071266FC07021B0000F0B50400F6
:101D400085B02420019115005FF7D8FE011E00D157
:101D500000BE8B1C0A8B02934B1C039301230026AD
:101D60009C46019B1E70029BDF7FB74201D99442C3
:101D700001D2802005E0931C9C4204DCA21A2A7048
:101D8000002005B0F0BD0399C87F6146304108428C
:101D900006D0033293B29C4203D103232B70EFE7AA
:101DA0009BB2012F05D001339BB29C4201D1042389
:101DB000F4E7013301369AB2F6B2D2E7F7B51E0066
:101DC0006B460D001700D91D6A460023063228888D
:101DD00013700B70FFF7B2FF062304003A003100C6
:101DE0000A4858F789FF2B880380002C05D16B46E1
:101DF0009B79032B06D1013B4380047158F797FF71
:101E00000020FEBD44800324F7E7C046180C000004
:101E1000F7B5050008781C0A0238052800D971E0DA
:101E200002F018FF0328703948587A236343374873
:101E30008A783C30C518290078310A7034490191FC
:101E4000D2070ED50C270E00674371337036791D0B
:101E5000C01871180622F61902F0E6FE33797735BC
:101E60002B700C226243019B70339B180022DA72A4
:101E70000020FEBD0C226243254B002170339B18CD
:101E80007A226243D972214BE0B29B18B4331970A5
:101E900060F7E0FEECE77A2565431C4B17221C0037
:101EA00058197630023102F0BFFE04233C342A5D1B
:101EB00013430DE07A25154B654310261C00581975
:101EC00032009D3002313C3402F0AEFE2B5D3343D4
:101ED0002B55CDE77A235C434A8A0C4D02312819F1
:101EE000002A07D11C323E303C3502F09DFE012312
:101EF000625DDDE71C225A303C3502F095FE02237C
:101F0000625DD5E72800FFF755F9B1E728CBFC075C
:101F100028CCFC0710B5054B1B78012B05D1044BD1
:101F20001878FF2801D060F795FE10BD3566FC07D4
:101F30001455FC0770B55DF734FC264A13881B0561
:101F40001CD50520244B19880140814216D104225A
:101F500019880A4301211A801A888A431A801F4B64
:101F60005B6D002B09D01E4A10881E4A00B21188F2
:101F70001D4A09B2128812B2984770BD1388DB0659
:101F800013D501241948038823420ED08021184B11
:101F90001D880D4209D004801A888A431A800F4B8D
:101FA0009B6D002BE9D09847E7E71388DB06E4D563
:101FB00002210E4A13880B42DFD00D4B1888C00552
:101FC000DBD511801A880B490A401A80034BDB6D60
:101FD000E7E7C0460400005000020050A8CCFC0710
:101FE00002020050040200500A0200500401005096
:101FF00000010050FFFEFFFF10B5034B03481968B6
:1020000060305DF705F910BD1855FC07A8CCFC073A
:1020100010B5074C2078002803D0FFF73FFC0023C1
:10202000237009205DF7A8FC0022024B1A7010BD36
:102030000166FC070266FC0710B5FFF7E9FF0920FF
:102040005DF7A2FC0122044B052004491A70FFF73A
:10205000B5FA034B187010BD0266FC070116FC07A9
:102060000166FC0710B5FFF743FCFEF7DBFFFEF748
:10207000AFFE054B64331870FEF792FF0022034B4E
:102080001A70FFF7D9FF10BD28CCFC073566FC0796
:102090000C2270B5214E4243330070339B189B785D
:1020A0000500FF2B37D0330051331878002801D0BA
:1020B000FFF7F4FB0024330074650C2651331C70C9
:1020C00032006243164BD15CFF291BD10124154B12
:1020D0001D70154B1C70FFF79BFF09205DF754FC2A
:1020E000124B28001C70FFF7C7FC2800FEF7BAFF50
:1020F0000F4B61331B78002B03D10E4B1C700E4B22
:10210000DC7070BD9B189B680134E4B2002BD7D003
:1021100028009847D4E7FFF7EBFBD7E728CCFC076C
:102120004C51FC071455FC073566FC070266FC079A
:10213000A8CCFC0778FAFC0718FAFC0710B50024B5
:10214000FFF74CFCFF22084B09201C70074B1A704C
:102150005DF712FC064B1C70064B1C70FFF76CFF02
:10216000FFF7C6FB10BDC0460066FC071455FC0710
:102170000266FC073566FC071FB500BA009068468A
:102180005DF7D2F805B000BD0C4B10B51A00503207
:102190001278002A11D00A4A00280BD00421108896
:1021A0000842FCD100220748503338301A705CF7DF
:1021B000F1FF02E012885207F4D510BD28CCFC07CD
:1021C00000160050A8CBFC07F8B5164B164F843309
:1021D0001E88164B16499C6B20007043C0195BF794
:1021E0006DF8144B05006233188030003C306043BA
:1021F0000F49C0195BF762F80F4B043018600F4BA2
:102200004019C21D1A600E4A1278022A01D11830F4
:1022100018601868FEF7C6F80A4BC01880B259F764
:10222000D9FAF8BDE0CDFC0720A10700A8CBFC0738
:1022300040420F00A8CCFC074C66FC075066FC0728
:1022400078FAFC07E20400000022054B10B51A6082
:10225000FFF7BAFF034A13685B005B08136010BD09
:102260009CF9FC073000004010B55DF775F810BD13
:1022700010B5074C00224834237806490133DBB2FD
:10228000054823705DF710FA2378013B237010BDD9
:10229000A8CBFC075466FC07E0CDFC0710B5084C42
:1022A00008494834237800220133DBB20648096824
:1022B00023705DF72DFA2378013B237010BDC046D3
:1022C000A8CBFC075466FC07E0CDFC07264B00B505
:1022D0004362264B00228362254B8BB0436103008F
:1022E00030331A70234BC362234B0360234B0362CA
:1022F000234B4360234BC3612348244B016819409F
:1023000080239B020B43224903600B682148034052
:102310000B606B46D2540132282AFAD11E4B694613
:102320001868403002F080FC08221C4B48331A70B9
:102330001B4A64321278002A01D001221A705FF71A
:1023400049F9FFF795FFFFF7A9FFFEF7EBF85FF7F5
:102350007FF95FF791F95FF703F912485FF7CAF960
:102360005FF74EF90BB000BDBD04FC07C104FC07CC
:10237000F904FC073516F207C304FC07F504FC0753
:10238000F704FC07C504FC0774000040FFFFE0FFF2
:1023900000020040FFFFF7FF4CF9FC07A8CBFC0749
:1023A000A8CCFC0770E0FC071749184B0A6810B569
:1023B0001A4080239B02134380220B600721D20521
:1023C00013688B4313600823114A11880B43138051
:1023D000104B64331B78002B03D001220E4B483383
:1023E0001A705FF7F7F8FFF743FFFFF757FFFEF7A5
:1023F00099F85FF72DF95FF73FF908485FF76AF939
:102400005FF7FEF810BDC04674000040FFFFE0FF1C
:1024100008000050A8CCFC07A8CBFC0770E0FC0724
:1024200010B5184C230062331988230066331888CE
:102430005EF774FE5DF7B5F90321134B1A880A4263
:1024400002D01A888A431A808023104A11880B43CD
:10245000042113800E4A13888B43138002230D49F5
:102460000A881A42FCD03FF75CFFA26E0A4B1A6042
:102470000A4B1A68520700D500BE0422196811429F
:10248000FCD010BDA8CCFC070A000050080000508A
:1024900010000050140000500802004010000040DE
:1024A0000121084A10B513888B43138059F768F946
:1024B00040F7C6F8FEF774FC0022034B6C331A7029
:1024C00010BDC04608330050A8CCFC0710B549F732
:1024D000E8FDFEF765FC10BD10B559F76DF949F739
:1024E000E0FD0122014B6C331A7010BDA8CCFC0733
:1024F00010B546F7F1FF10BD10B5002046F7A0FF5C
:102500000422034B6C331A705FF77AF810BDC04693
:10251000A8CCFC0710B5012046F792FF10BD0000C3
:102520000A4B10B51A68D20703D5022219680A436C
:102530001A6080221968D203114202D019680A4336
:102540001A6003485EF714FE10BDC046000200404A
:10255000D44EFC077FB501AB1900074A203270CA80
:1025600070C1064A11007C310988090919710449B2
:102570005EF78AFC7FBDC046D04CFC07E0CDFC076F
:10258000FA65FC0730B5174C87B0210008223431BA
:1025900001A802F049FB03AB22001900203231CA26
:1025A00031C1114C114922007C32128801201209DC
:1025B0001A7122005EF7C2FC01A8FFF7CBFF5EF79D
:1025C000AFFC062221005EF727FD04005EF798FCB1
:1025D000E1200001604306495AF786FE80B207B049
:1025E00030BDC046D04CFC07E0CDFC07FA65FC07C7
:1025F000FF07000010B504005DF7DAFA2200084B6F
:102600000A3A92009B181B6F002B01D0984710BD0F
:102610000123C022A340034952008B50F7E7C04674
:10262000A8CCFC0700E100E010B50A20FFF7E2FFAC
:1026300010BD10B50B20FFF7DDFF10BD10B50C204D
:10264000FFF7D8FF10BD10B50D20FFF7D3FF10BD69
:1026500010B50E20FFF7CEFF10BD70B50569040060
:102660006869002801D058F7B4FA002328002361D4
:1026700058F7AFFA70BD0000F8B524205FF73EFAB6
:10268000041E00D100BE9021636989011A898A4223
:102690003BD1012294461D7CE61C6719F27F012A7A
:1026A0001DD99021636989011A898A4249D15A89C1
:1026B00099892A48022358F71FFB002305704370AD
:1026C00058F735FB0025606958F783FA2900200088
:1026D00065615FF729FA290058F73FFD11E0797F1E
:1026E0006046114101420DD09818A118807C897E66
:1026F000884207D029002000FFF714FAF37F013346
:10270000F377F8BD0132F277C8E715498A4216D14E
:102710000126E51CE97F022901D9FF25C1E76018E0
:102720001A7C407F1041304206D02000FFF7FAF9B2
:10273000EB7F0133EB77E4E70131E977EAE700BEAD
:10274000EBE707498A42BDD15A8999890548012397
:1027500058F7D2FA00230370B2E7C0460124000004
:1027600002240000032400000B7810B5122B01D1C5
:10277000FFF782FF002010BD70B50569040068688E
:10278000002801D058F725FA00232800236158F7C4
:1027900020FA70BD70B51B205FF7B0F9041E00D1A0
:1027A00000BE63685D78022D2AD9002120009D8833
:1027B0005FF7BAF9854216D0636800211D782000C2
:1027C000043D6A425541274A6D009E88AD185FF767
:1027D000ABF9012302003100280058F78DFA0023DD
:1027E000037058F7A4FA0025606858F7F2F9290039
:1027F000200065605FF798F9290058F7AEFC2DE0DE
:102800006219D27C1978114229D0DA79AA4226D0ED
:10281000002120005FF788F908210200C1206368C9
:102820002D029B7929430833000158F765FA616846
:1028300005000B78023B5A1E9341123303708A79CC
:10284000C2804B8808318380083002F0EDF92800FF
:1028500058F76DFA626853780133537070BD0135D3
:102860005D709FE7031B000010B5FFF793FF00208A
:1028700010BD0000F0B58BB00693109B06001B78CE
:102880008125013B04910792012B00D993E001219E
:10289000242058F723F9002704003D0024220021BA
:1028A00002F096F9109AA31C1278DA77109B1B7825
:1028B000BB4266D9002D03D0200058F78AF97AE090
:1028C000132504ABED1807232B70109BDB195B78E5
:1028D00005930599631CB940DA7F0A43DA77109BA8
:1028E000F9006018591808220430043102F09CF9EC
:1028F000059B012B01D10E332B70A31CDB7F012B19
:1029000003D910232A7813432B7014227B000593DC
:10291000049B04A91B88891878000B5209AB18186E
:102920001E2306996C320B4013430393234B132150
:102930000293B38A04AA0193002389180A00009322
:102940001F4905334CF7EEFF051E17D1142204ABC7
:102950009B187900585A109BDB195978431D9C46E7
:102960004A1E531E9A4163469B1A049A13800129FA
:1029700004D10230134980B24CF793FE0137FFB205
:1029800094E7002D98D109AB1B88049A3461138019
:102990002383069B079ADB031A4324232280B08AF1
:1029A00029006080F382233BF381074B1C34B46021
:1029B000736058F7D2FB28000BB0F0BD504EFC07F7
:1029C0000F180000010200008C4EFC07F0B589B022
:1029D00004930E9B05921A7805000F000F23D10770
:1029E00000D53033910702D5E02149000B43510750
:1029F0000AD5110700D569E0C021C9000B43D206F2
:102A000002D5802252011343162202A952181380C4
:102A10001E23049938000B4080210B4303932D4B58
:102A20002D490293AB8A0193002300930D334CF799
:102A300079FF061E47D10121182058F74FF80400EE
:102A40001822310002F0C4F83B882C612381049BDA
:102A5000059ADB031A432280AB8A012763801B237C
:102A6000EB82230020001633AB601C4BEF816B60C0
:102A70000E9B03221B78310063810E9B1330DB8891
:102A8000A3810E9B5B88E3810E9B9B8823820E9B18
:102A90005B786660A37402F09BF80E9B1B785A0764
:102AA0000DD51A0700D54037DB0601D50C4B1F4367
:102AB0000A212000FEF768F839004CF7F2FD0021EA
:102AC000A88A58F74AFB300009B0F0BDE02109019F
:102AD00094E7C0464050FC0709180000DC50FC0792
:102AE00008000200F8B510001F000D00160058F78E
:102AF00049FB022300281BD124305EF7FFFF041E90
:102B000000D100BEA21C2B78D27F9A4212D96A78DB
:102B1000642A0FD8E3189A760121300058F71DFB7C
:102B20000023103D65610334E377FFF7A5FD012322
:102B30001800F8BD012332003900044858F7DCF8CA
:102B40008123037058F7F3F80023F1E70324000012
:102B5000F7B510000C00150058F714FB01282AD116
:102B600013305EF7CBFF061E00D100BE377F30006A
:102B70003900FDF7E9FF23780190727FBB421CD139
:102B8000082163781202114306332A00114858F7CE
:102B9000B3F8019B06000380002303716278A11C37
:102BA0004280053002F040F8300058F7C0F80021AC
:102BB000280058F7D2FA0020FEBD0821130219435D
:102BC0002A000623034858F797F8019B03808023C7
:102BD0000371EAE7140C0000F7B5100015001F00A0
:102BE000019158F7CFFA0226002818D11B305EF762
:102BF00085FF041E00D100BE04260422019B1B8811
:102C0000A38163891E4013420BD101232A0039009E
:102C10001B4858F771F88C23037058F788F8300078
:102C2000FEBD08221E001640134207D101232A00D0
:102C30003900134858F760F80670EEE701210A20C2
:102C400057F74CFF0A220021606001F0C1FF0A2102
:102C50002000FDF799FF0423666801213380033BC0
:102C6000FF3BF380019B70801B88280033721B0A96
:102C70007372B78058F771FA0026FFF78BFDCEE725
:102C8000051B0000F8B51B200E0015005EF736FF8F
:102C9000041E00D100BE280058F774FA012827D17D
:102CA000082163682A00DF7912483B021943042394
:102CB00058F722F80A2105002000FDF765FF327859
:102CC00080232880BA4200D173782800AB7058F76F
:102CD0002EF8A978002909D16268537A107A1B026C
:102CE0000343A38163891B0700D55170FFF752FD91
:102CF0000020F8BD160C0000F8B510001F000C00F5
:102D0000160058F73FFA0223002818D124305EF746
:102D1000F5FE051E00D100BE2078032811D902233C
:102D200032003900124857F7E7FF2278402302703B
:102D3000032A00D84933437057F7F9FF00231800DE
:102D4000F8BD51F731F90B4B9842E8D00121300022
:102D500058F703FA23786278EB185A770023103C6F
:102D60006C610335EB77FFF787FC0123E7E7C0468B
:102D700001240000FFFF0000F8B508781D000C00DA
:102D8000160051F711F90E4B892798420AD01B20E3
:102D90005EF7B4FE002800D100BE00272378C018DB
:102DA0006378C374320029000223064857F7A4FF52
:102DB00023784770037057F7BAFF0020F8BDC0466C
:102DC000FFFF0000011B0000F0B587B0029304ABC9
:102DD0000D00D91D0023170004AA9371288806321C
:102DE0000B70FEF7ABFF041E35D124205EF786FE84
:102DF000002800D100BE04AB9B79032B39D1EB79BD
:102E0000AA791B0213430193012B32D80121029BA3
:102E10001E0A83195A7F039304ABDB799940130090
:102E20008B439C46019B012B02D10A43D3B29C46A3
:102E30006246039BF6B25A7731005EF77DFE0223AD
:102E400001003A000C4857F757FF039B06705B7F61
:102E5000437057F76CFF3A0002990423074857F76D
:102E60004BFF2B888470038057F761FF002007B069
:102E7000F0BD8024EFE7C04604240000160C0000DB
:102E8000F7B510000F0016001D0058F77BF9002859
:102E900045D114305EF732FE002800D100BE3B88D9
:102EA0000193428B038B9446002201339BB2D4B230
:102EB00000946446012114410C4205D05C1801992C
:102EC0008C4247D002339BB20132092AEFD106234C
:102ED00032002900204857F70FFF3B8803808023EA
:102EE000037134E02379009A93421DD02468002CAA
:102EF000F8D1009B290A037741775EF71DFE012375
:102F000001003200154857F7F7FE009B037057F792
:102F10000EFF0121300058F720F9002003E00138AE
:102F2000434258414000FEBD637932002900063318
:102F3000094857F7E1FE002605003B88067103802B
:102F40006279A11D4280053001F06EFE280057F71E
:102F5000EEFEE2E74468CAE7140C00000214000029
:102F6000F7B505001B200E001F0001925EF7C6FD9D
:102F7000041E00D100BE019B9F4203D08020002F81
:102F80001BD0FEBD6219D37C3343D37429002000CB
:102F90005EF7D2FD2900060020005EF7C5FD022382
:102FA00002003100074857F7A7FE64190570E37C5B
:102FB000437057F7BCFE0020E3E76219D37CB343AC
:102FC000E3E7C046081B0000F0B51B2085B00C00ED
:102FD0001F0002925EF792FD061E00D100BE300077
:102FE0002188FDF7EDFDA3888D25022B5CD10338E8
:102FF0003D0A082800D971E001F02CFE4C70707079
:10300000706270056900E379A2791B021343019392
:10301000F389019A934202D8338A934202D2019BE8
:10302000002B5DD1029858F7ADF8022703900028D5
:103030002DD1290030005EF77FFD029A01000423A4
:10304000284857F759FE019B0570438057F76FFEDC
:1030500001210A2057F742FD0A220399706001F00E
:10306000B7FD0A213000FDF78FFD7468029B608078
:10307000A380FC235B422380019B012123721B0A56
:103080000298E571A771637258F767F80027380056
:1030900005B0F0BDE379A2791B021343012102229E
:1030A0002800FFF75DFF050004233900029A0E484F
:1030B00057F722FE23888570038057F738FEE5E72F
:1030C000E379A2791B02134302210122E8E7E379A5
:1030D000A2791B02134304210222E1E70625E3E75C
:1030E0008025E1E7061B0000160C0000F0B587B054
:1030F000029304AB0191D91D0023039204AA93719A
:103100000B70019B06321888FEF718FE06000500BA
:1031100024205EF7F3FC071E00D100BE0024A64267
:1031200008D104AB9B79022B23D0032B23D0042B93
:1031300023D08025A31D039A02991E4857F7DCFD72
:10314000019B06001B88057103804480002D0AD175
:1031500004AB06331B78022B11D104AB07331B7869
:10316000FB189B7E4371300057F7E1FD002007B04C
:10317000F0BD0124DEE70224DCE70724DAE7032BB5
:103180000CD1029B04AA1B0AFB1807325B7F127842
:1031900085711341012213404371E4E7042BE2D10E
:1031A00004AB07331B780530DB00191D79185EF777
:1031B0003DFDD8E7140C0000F0B589B0059201225E
:1031C00004930E9B05001E880F00002394460324E1
:1031D000310060461941014204D0200059000131FC
:1031E000884002430133092BF2D10792049A153328
:1031F00013408022134303931B4B38000293AB8A86
:103200001A490193002307AA009313334CF78AFB52
:10321000061E25D10121202057F760FC0400310053
:10322000202201F0D5FC3B882C6123830E9B059A5C
:103230001B88201D6383049BDB031A432280AB8A17
:1032400063801423EB82133BEB8123001E33AB60BE
:10325000074B6B603FF71AFC3100A88A57F77DFFD8
:10326000300009B0F0BDC0462C4FFC070A18000022
:103270001050FC0770B5040005696B68002B04D181
:103280002800236157F7A5FC70BD281D3FF706FCF9
:1032900057F79FFCF1E70000F7B514200C000092EF
:1032A00001935EF72BFC051E00D100BE2778812616
:1032B000082F3CD839002800FDF746FC01360028CD
:1032C00035D063780B36802B31D8072F2CD0082FC0
:1032D0003AD0062F01D1082B29D16E68002E0AD0D2
:1032E0003379BB4234D100223100281D3FF746FC20
:1032F000300057F76EFC60780121083057F7EEFB7D
:10330000060062780021083201F062FC2378B01DCB
:1033100033716278A11C727101F086FC3100281DA6
:103320003FF7D8FB002602E08D26052BD5D8009A62
:1033300001990223074857F7DFFC23784670037092
:1033400057F7F5FC0020FEBD8D26072BEFD1C4E713
:103350003668C3E701140000F0B5100087B00F0015
:103360001600019357F70EFF0224002818D11B30D6
:103370005EF7C4FB051E00D100BE3B7C002B12D1C2
:103380006A89023314001C401A420CD1013B3200FE
:103390000199314857F7B0FC8C23037057F7C7FCED
:1033A000200007B0F0BD0121152057F797FB15222B
:1033B0000021686001F00CFC00236C686370019BC5
:1033C000A380FF23E3713B7C002B3DD001232370BE
:1033D0002889023080B2230002AD083301932A000D
:1033E0003B00608083CB83C21B6805271360029A71
:1033F000DBB2110A6272A172110C120E2372E17219
:1034000022739B0706D5200003A90D305EF71DFC33
:10341000C019C7B22B7B5B0704D56B7B019AD355D0
:103420000137FFB20C2F06D80D22019B0021D21BC1
:10343000D81901F0CDFB01213000A77157F78DFE9F
:103440000024FFF7A7F9ABE7022307212800237028
:10345000FDF79AFBBFE7C046031B00001FB5002421
:10346000164B1C70164B1B78FF2B25D0154B1B7869
:10347000A34221D0144B154A68461A60144B00939E
:10348000144B0193144B0293144B03935DF7CAF949
:10349000134B144A9C679A660722DA661A00543264
:1034A0009483114ADC675A67104A04331288104A21
:1034B000DA6754220F4B1A861FBDC046F865FC0719
:1034C0001455FC070066FC071466FC077117FC071F
:1034D00048004F00080017000100010038000101FA
:1034E000A8CBFC071866FC07A135FC075413005055
:1034F000CD09FC07001300501FB5134B134A684653
:103500001A60134B0093134B0193134B0293134B0D
:1035100003935DF787F9124B124A19009A6601224C
:10352000DA66002254319A67DA678A830E490F4AB5
:1035300059671100543109880D490433D967542360
:10354000138605B000BDC0462C66FC072D17FC078E
:1035500048004F0008001700010001003800010179
:10356000A8CBFC072866FC076136FC070013005057
:10357000CD09FC07002210B5064B1A70064B1B78CC
:10358000FF2B05D0054B1B78934201D0FFF7B4FF0A
:1035900010BDC0463066FC071455FC070066FC07EA
:1035A000F8B515000C005DF7A3F9002D22D0072C0B
:1035B00020D1244803787F2B1CD80021FF22082625
:1035C0003125435C5A40330057B25400E2B2002F19
:1035D00001DA6C40E2B2013BDBB2002BF4D10131E5
:1035E0000629EED1184B81791B68914202D1002B3C
:1035F00009D1F8BD144B1B68002BFAD00022110032
:1036000010009847F5E7C17884780A09240114432B
:1036100042780904120314430C4A05796243F024EA
:1036200024030C4041790A480902294349BA89B266
:103630000C430849120D6143C90B091809B2012056
:10364000DFE7C0461866FC071466FC071027000079
:1036500078ECFFFF7102000010B55DF749F910BD6D
:1036600010B5002A01D0012908D05DF741F9104BAF
:103670001B68002B01D00020984710BD0D4B08227D
:1036800019780D4B08001040114208D1BE21197065
:103690000A495A7098700320FDF75EFBEDE7AC22F3
:1036A0001A70793A5A70002205499A70F3E7C046B9
:1036B0002C66FC072866FC070C66FC07C536FC0771
:1036C000DD36FC0710B55DF713F9034B1B68002BC3
:1036D00001D00020984710BD2C66FC0770B50C0087
:1036E00015005DF705F9064B1B68002B06D000207E
:1036F000854202D0033C60426041984770BDC0469D
:103700002C66FC07002330B53F4C85B023703F4B3F
:103710001B78FF2B6ED03E4B1B78002B6AD03D4BA5
:103720003D491868FDF74AFF3C4D20702878042871
:1037300062D933235B424343DBB2332B5CD80A218B
:1037400059F7BCFDCCB2002C3DD1C0212200012391
:10375000072089005CF720F92300220021000620C1
:103760005CF71AF9093406205CF734F900280ED109
:1037700007305CF701F905205BF7F8FF07205CF7DD
:1037800003F9013C05205BF7F1FF002CEBD100238E
:10379000C0211A00890006205CF7FEF805205BF7BF
:1037A000E5FF06205CF7F0F805205BF7DFFF00235C
:1037B0000922190007205CF7EFF800230A221900FC
:1037C00006205CF7E9F8164B68460093154B019309
:1037D000154B0293154B03935DF724F8BA22144B53
:1037E00001201A701349FDF7B7FA2B78FF2B01D08F
:1037F00001332B7005B030BD00220F4B1A700F4BF8
:103800001A70FFF779FEF5E73466FC071455FC07DC
:103810000066FC071C55FC070537FC070F66FC0714
:1038200048004F00080017000100010038000101A6
:103830000C66FC075936FC072066FC071F66FC0770
:10384000174970B58B88002B1DD1164A14002834F7
:1038500098000559002D11D1121813489062134A8F
:103860009B189BB28B808021114B124A09019A65EB
:103870000800282301225CF735FA70BD0133052BBF
:10388000E6D10D4BEEE70D4A9B18042B01D900BE83
:10389000E9E7044A9B00D218034B9362E3E7C04672
:1038A00028CDFC0728CBFC07151FFC070E040000E1
:1038B000A8CCFC07BD3AFC07FFFF0000F2FBFFFFAE
:1038C00070B5442800D074E0FEF7A2FBFFF7B8FF04
:1038D00008223E4B1A8072B6042180243C4803889B
:1038E0000B4303803B4B1A88A2431A8040221C885A
:1038F00022431A80384B394A1980138838490B40C3
:1039000013800121C023374A5B004942D150713BEB
:103910003549FF3B0A881A42FCD1344A344913889E
:1039200004250B401380012232490C260B88324CAF
:1039300093430B8031490B692B430B61032123888F
:103940008B43134323802388B3431D43258003887F
:10395000134303802A480388934313430380F020D2
:10396000284B80011C882043188080201C88C001BF
:1039700020431880244804882448240A144219D07B
:1039800004885F329443403A2243028040221888E0
:1039900002431A801A880A431A80082219880A43A7
:1039A00004211A801A888A431A80C046C046C0463D
:1039B00030BF70BD164C25882A43228060240288BF
:1039C000A24302801A8811431980E6E700330050B1
:1039D0001000005008000050000200500400005089
:1039E000FFF7FFFF00E100E014000050120000505C
:1039F0007FFEFFFF100300501800005000ED00E0B4
:103A00000C030050200300502A00005052000050C8
:103A1000560000500122224B10B51A80214B22493A
:103A20009A791B2000245BF751FF80211F4B220055
:103A30000B201C60490023005BF7AEFFC021230070
:103A40002200092089005BF7A7FF2300092221003B
:103A500007205BF7A1FF23000A22210006205BF765
:103A60009BFFFFF7EDFE124B1A0065321278A2425F
:103A700008D01A006A331B7867321078012B0CD1FA
:103A80005BF782FF08220B4B0B4948331A70012366
:103A90000A889A4313430B8010BD5BF76DFFF1E773
:103AA0000003005028CDFC073266FC0700000840E8
:103AB00028CCFC07A8CBFC070C03005010B5FFF77F
:103AC000A9FF0D4CE379002B0DD00C4B61331B7813
:103AD000002B04D101220A4B1A700A4BDA70FDF751
:103AE0007DF90023E371A088002803D0002204217F
:103AF00057F733F910BDC04628CDFC07A8CCFC070A
:103B000078FAFC0718FAFC072A4B10B51B8804004A
:103B1000DB0507D51B205BF781FE0123264A1188B0
:103B20000B431380A023DB051B88244924480A8803
:103B30001B079B0F0240DB0113430B802268214BC4
:103B40001A606268204B1A60A268204B1A60E26813
:103B50001F4B1A6022691F4B1A6062691E4B1A6064
:103B6000A2691E4B1A60E2691D4B1A601D4B1C6056
:103B70001D4B1A681D4B1A601D4B1A681D4B1A60AD
:103B80001D4B1A681D4B1A601D4B1A681D4B1A609D
:103B90001D4B1A681D4B1A601D4B1A681D4B1A608D
:103BA00008221D4B1A801D4B1B88DB0601D500BE69
:103BB00010BDFEE72A0000508000005012000050A7
:103BC0007FFEFFFF00F8FC0704F8FC0708F8FC077D
:103BD0000CF8FC0710F8FC0714F8FC0718F8FC07B1
:103BE0001CF8FC0720F8FC0728ED00E024F8FC078F
:103BF0002CED00E028F8FC0730ED00E02CF8FC0785
:103C00003CED00E030F8FC0734ED00E034F8FC0750
:103C100038ED00E038F8FC07003300501400005085
:103C20000423344A70B5118801250B4313804023C7
:103C3000314A040011880B431380C0232F4A5B00D4
:103C4000D55008222E4B1A802E4B1B88DB0506D53B
:103C50001B205BF7E3FD2C4B1A8815431D80A02326
:103C6000DB051B88294A2A4811881B079B0F014046
:103C7000DB010B4313802168264B19606168264BDA
:103C80001960A168254B1960E168254B196021690D
:103C9000244B19606169244B1960A169234B196099
:103CA000E169234B1960234B1C60234B1968234B9C
:103CB0001960234B1968234B1960234B1968234B58
:103CC0001960234B1968234B1960234B1968234B48
:103CD0001960234B1968234B1960234B1B88DB06A3
:103CE00007D500BE138821490B4004310B431380D4
:103CF00070BDFEE7100000500800005000E100E039
:103D0000003300502A000050800000501200005084
:103D10007FFEFFFF50F8FC0754F8FC0758F8FC073B
:103D20005CF8FC0760F8FC0764F8FC0768F8FC071F
:103D30006CF8FC0770F8FC0728ED00E074F8FC074D
:103D40002CED00E078F8FC0730ED00E07CF8FC0793
:103D50003CED00E080F8FC0734ED00E084F8FC075F
:103D600038ED00E088F8FC0714000050FC7F0000EC
:103D7000C823E64AF0B513800023E54A0C201380DF
:103D80000822E4499BB00A80E3490793079B002B74
:103D900001DC00F024FDE04C0125636B002B01D019
:103DA00000F032FDA06BE16BEE176B0DF6021E43C7
:103DB0006563ED0205430E432A003300A263E3630B
:103DC000E36A0125002B01D000F021FDA06BE16B1F
:103DD000EE17EB0D76021E43E5626D0205430E43BE
:103DE0002A003300A263E363636A0125002B01D03C
:103DF00000F010FDA06BE16BEE176B0EF6011E4399
:103E00006562ED0105430E432A003300A263E363BC
:103E1000236A0125002B01D000F0FFFCA06BE16BB1
:103E2000EE17AB0EB6011E432562AD0105430E43EE
:103E30002A003300A263E36300230022A263E3634A
:103E400000230793079B002B01DC00F0E9FCB34E35
:103E500006AA3388951C9BB25380508880B200E03C
:103E600000BF04222B88934301D000F01DFD0121E7
:103E7000AB4A13888B43138008259620A94A40003B
:103E80001388A94F2B4313805BF770FC8023A74A4C
:103E900011880B43F0211380A54B89011888014339
:103EA0001980062138888843388080201E88C00108
:103EB000304318809B489F4E00883040994E308098
:103EC0000E261088B043014311809B490988C9051B
:103ED00001D400F0EDFC3988984A11408022D200CC
:103EE0000A4380213A803A8809021205120D0A43DA
:103EF00004213A801A882A431A801A888A431A8031
:103F00003A8803398A433A80402219880A431A8042
:103F100003261A88012732431A806023022581492B
:103F20000A889A43403B13430B80854B854A009394
:103F300060331F70138884492B4313800422834B02
:103F40001A80834A13880B4013808021C023814A42
:103F50005B004902D150804B03936F4B0399981D2E
:103F600002935CF7E3FD28005CF7A8FD7B4B1A6821
:103F70003300D2B2AA2A00D03B00A0220C21D205E5
:103F800016889B008E431E43168000E000BF200071
:103F900006227349403000F047FE012000E000BFD8
:103FA0000023704C0AAD260029009C4688363380D9
:103FB0006D4B04933C3385CB85C185CB85C185CBC7
:103FC00085C12B006246200068495BF74FFA3378C1
:103FD000DB0700D500BE2200883213785B0813701F
:103FE000230089331B78DB0700D500BE220089320D
:103FF00013785B081370230084331A88002A02D1D7
:10400000FA2292001A80220086321388002B0CD1EB
:10401000FF21524B09021B680B40D42189018B42BE
:1040200001D000F06EFC90231380009B8634208822
:10403000663318805BF704F97F22029B0399981D71
:1040400046331A704A4B4B4F1A684B4B1A605CF759
:1040500019FE4A4B1A680023BA4209D0484C494A13
:104060004949581800681919043308609342F7D178
:10407000464E00213000464A00F0AAFDE022002111
:10408000D200444800F0A4FD00F082FD424B434AB8
:1040900043491A604348302200F0C6FD00243F2205
:1040A000414B04991A705C709C70DC701C715C71DF
:1040B0009C71DC7128006031013200F0B5FD2900EF
:1040C00040223A4800F0B0FDFF22394B01211A701E
:1040D0005A709A70DA701A71FC3A5A719C71DC71DC
:1040E000344B354A1C70354B1A60354B354A1A60D3
:1040F000354B364A1A600A22354B1A70354B053A51
:104100001C70354B1A60354B196069E00031005066
:10411000023100500233005028CDFC070403005048
:104120001003005052000050800000505400005016
:1041300020030050FFBFFFFF2A000050FFF0FFFFE9
:10414000A8CCFC0738000050FFF7FFFF000200502A
:104150000400005000E100E03266FC07D02FF807B1
:10416000D42FF807E0CDFC07D04CFC07A000FC07DB
:10417000E82FF807658734120466FC07D865FC074A
:104180006CCEFC07040A000000F0FC0700E0FC070E
:10419000AC14000000F9FC0724FAFC073451FC07BA
:1041A0005CDEF107C8F9FC07A4F9FC073CFCFC073E
:1041B000ACF9FC07C5F9FC07E036F20750F9FC073B
:1041C00054F9FC07C452FC0758F9FC07BC51FC0722
:1041D000A1F9FC07A2F9FC075CF9FC0760F9FC07F0
:1041E000E14B1A60E14B52181A60E14B52181A6009
:1041F000E04B52181A60E04BFE321A60DF4DE04B84
:104200002E601A60FFF706FC5AF748FF5AF78CFF3A
:10421000DC49DD4B0A881A40E0231B0113430B8065
:104220005AF79EFFD94E3368BB4236D02A68D84B26
:10423000D8491A60D84B1B681A0A0B704A701A0CBE
:104240001B0ECB70D54B8A705A000392C022FF32EE
:1042500094461A78039802926246D21A125C029827
:104260000134424003200492029A0240885C049A7E
:1042700042401A70E022013352009442E9D1C84C06
:10428000A53A2000C549FF3A5BF70EFE002800D092
:1042900000BE20005BF748F8376028683DF7DAFF7A
:1042A00000238022BF4CD20523711168E3700133D3
:1042B000FF330B431360FCF773FD0120FDF764FF30
:1042C000009B61331B78002B02D1B74AE370137057
:1042D000B64F0C223E0070360021300000F078FC12
:1042E00008220025B248B3498270033000F09CFCDC
:1042F000B14BB24904205D8456F7FDFEFF2329002F
:10430000B370042056F729FFFCF762FD3B006433CD
:1043100018705EF725FD009B61331B78AB4203D11B
:104320000122A14BE2701A70FF22A54BFA211A70EC
:104330000023A44A49001370A34A1370A34A1370C0
:10434000A34A1370A34A1370A34A1370A34A1370AD
:10435000A34A1160A34A1370A34A1380A34A13709F
:10436000A34A1370A34A1370FDF76EFFC823A24A35
:104370001380A24AC03B1380A14BA24A9B189B0802
:10438000013B0593FBF7E4FF002800D19FE057F7BE
:1043900090F90020FDF7F8FE9B4B6C331C78042C41
:1043A00000D094E00120FDF7EFFE0023210009A8D2
:1043B000099347F7CDFF002800D188E00122934BF5
:1043C0001A601A68002AFCD1914B924C1B68A16CB0
:1043D0008B4200D2A264C821A26C09019A1A8A42B7
:1043E00000D274E00025A3648B4B0AA81B888B4F76
:1043F0009BB200938A4B8B4E1B889BB202938A4BD5
:104400001B889BB20393894B1B880B959BB204932B
:10441000874B0A93FEF79EF822003B884C329B059F
:104420009B0D1380802233884E349B059B0D238087
:104430003B8892009B0A9B0213433B8033889B0A74
:104440009B021A4332805CF713FE7A4B02001988F4
:10445000FA23401A9B004343AB4200DC5BE2764AFE
:104460009818764958F740FF6A4B84114C331988E5
:1044700080231934E2B2DB0064B2994200D300BE5B
:104480003B88644D9B0A9B0219432B0039804E33B5
:1044900019888023DB00994200D300BE33889B0A31
:1044A0009B021943002331805A494631CB567F2B5A
:1044B00000D036E20C70029A594B1A80039A5A4B7C
:1044C0001A80049A594B1A80534B009A1A8072B67C
:1044D00000235B4D09AF2A683B70926A0A924D4AED
:1044E0000092D2799A4203D12E4A1279022A00D13F
:1044F0000A93544C39002000534A5CF751FE0028BF
:1045000000D00AE1009BDB79002B06D14F4B9B6A60
:10451000002B02D02B689B6A0A93FDF755FE200002
:104520000AA95CF773FE002800D0F6E001305BF7C3
:1045300043F90A9B002B07D0454A1268393AFF3AE3
:10454000DA2A01D8013B0A93424B2F4D18682B0001
:1045500062331B884049414A1B180B601368404C6A
:104560009B0A9B027EE0C04664F9FC0768F9FC07E1
:104570006CF9FC0770F9FC0748F9FC074CF9FC07DB
:1045800044F9FC0726000050FFF0FFFFD865FC0748
:1045900008020040FC65FC070466FC076CCEFC07C3
:1045A0003866FC0718FAFC0778FAFC0728CCFC07E9
:1045B00028CBFC07864CFC072ACBFC07A84DFC0740
:1045C0001455FC070066FC073466FC07F865FC0719
:1045D0003166FC070166FC073066FC073566FC07A0
:1045E0001C55FC071066FC071266FC072066FC07DA
:1045F0001F66FC070F66FC070031005002330050B5
:104600002855FC07030004F8A8CCFC07FC00004078
:104610001C00004028CDFC07001500500815005074
:10462000021500500A1500500415005006150050E0
:1046300001040000FA65FC077E040000FC0800008D
:1046400058F9FC070866FC07F91FFC0700FEFC0789
:10465000200000404C66FC074866FC073C00004018
:104660005066FC070343136010682368D44E9B0216
:1046700030400343136010680B68C1025B05C90A30
:104680000B43136004230A983B70CE4B984200D929
:1046900000BECD4E0021326C736C58F739FE090311
:1046A000000D009B08430138586523685A1C90424E
:1046B00001D1009A5365C54B19794B1E9941009B56
:1046C000C9B2586D45F778F8C14BDB6A984780232B
:1046D000C0491B020A681A42FCD08023BE4C5B0012
:1046E00022681A42FCD0802223689343BB4A23608D
:1046F00011888BB2452903D84621CB1AF364118067
:104700003DF7E3FD8021B64B1B68AB6623680B4287
:10471000FCD0B44A13888B4313803B78042B05D11B
:10472000B14B1B78013B5A1E934102339A1E012A5A
:1047300000D990E104220127AC48AD4E0188102534
:10474000114301803169AB48114331610188AA4CA2
:10475000B9430180022B00D002E12388AB432380C0
:104760000022A64B1A80A64B1B88DB0509D4012327
:10477000A44A11880B4313806022A3490B889343FA
:104780000B800124A14A0D201388A34313805AF7FC
:10479000EDFF03219E4A13888B431C439D4B1480DD
:1047A0001A88D20602D59C4A0531118030BF1B8879
:1047B000DB0602D50823994A1380602392490A88B0
:1047C0009A43403B13430B80FFF724F904223369DB
:1047D0009343336162B6C823914A1380D2E5002225
:1047E0000892089B0B2B04DD079B01330793FFF70F
:1047F000CDFA079B089C43431B199B00CB189A607A
:10480000089B01330893ECE76D42FFF7CBFA6D424A
:10481000FFF7DCFA6D42FFF7EDFA6D42FFF7FEFAA3
:104820000023804D0893089B0B2B03DD079B01336E
:10483000FFF707FB089B079A01229A401305F5D062
:104840000C21079B089A4B439B189B00EB189B6815
:10485000013300D100BE0C20079B089A43439B18EC
:104860009B00EB189B68002B1AD0079B08994343C9
:104870005B189B00EB189868089A079EC117029670
:1048800058F7DAFDAE6BEF6B029B1A0158F7D4FDB7
:104890003043394300900191009A019BAA63EB6376
:1048A000089B01330893BEE700233380FFF7E4FA47
:1048B0005D4E5E4930880840C021C9000143F020A8
:1048C000318031880002014331801988A943198061
:1048D00004211888564D884318801088284010807D
:1048E000158854480540C02040012843108001220B
:1048F000308802433280424A12880A42FBD0FFF7D6
:1049000007FB4D495B184D490B4201D0FFF78DFB6A
:104910009423FFF789FB28008A4200D1A1E5484A89
:104920009EE5DBB2D11A48B2090601D59B1A58B2EE
:10493000072800DCBFE52B6D01332B655CF74AFED1
:104940004635FDF7ABFCFBF7EDFD5CF781FE5CF750
:1049500007FE3C485CF7AEFE5CF752FE2C70AAE501
:10496000238839492B432380238813432380009BCA
:10497000981D5CF7DBF82388059A1D43334B25808F
:104980001A60EFF3108287F31088A0218020C905F8
:104990000B8883430B80002A5AD182F31088184B6E
:1049A0001B88DB0500D4DBE60023009A0B20937103
:1049B0005AF734FF01231C490A8813430B80CFE6C2
:1049C000FF03E0FF3F420F00A8CBFC0718FAFC07EB
:1049D000E4FEFC0730000040000200400A330050B3
:1049E000080200400800005078FAFC071000005050
:1049F00000ED00E00C0300501200005018000050C1
:104A00002A00005056000050520000502400005070
:104A10000A000050140000500033005002330050D0
:104A20000031005028CDFC0780000050FFF0FFFF50
:104A3000FFF9FFFFFFC7FFFF00CDFFFFFFFEFFFFF6
:104A400082FBFFFF70E0FC073266FC072000F407E2
:104A500087F31088A3E7012B00D0BBE630BFB9E68F
:104A6000F0B50546007985B007073F0F28463DF7AA
:104A7000F4FF029028794006C00F039028463DF7C6
:104A8000ECFF4448806A8079012825D001264148FE
:104A900040300079800775D5002E73D000222B237B
:104AA00011463D4856F728F90227077001263B4971
:104AB00046700446C969A87988472A21085528798B
:104AC00000210007000FA070030058F7C5FC07374E
:104AD000393B423F423D4200029801902D4814303C
:104AE0000090002604680BE0611D01983EF7CBF8AA
:104AF000002804D02079B84201D101261BE02468A7
:104B0000002CF1D100983EF7B4F825490978884285
:104B100002D1244806780EE000210C2055F7DEFF74
:104B200004460622401D019958F742FC2771214690
:104B300000983DF7CFFF01204640A8E7A1700AE0AA
:104B4000A67021E0032002E0A77004E00420A0701A
:104B500001E0012818D0A888000A801FA07228460A
:104B60003DF77BFF811D2046A27A0B3058F720FCD1
:104B70000622201D029958F71BFC0398E07020467E
:104B800049F73CF905B0F0BDA172F1E770477047F5
:104B90007047000074FBFC0704080000E4FEFC07FB
:104BA000A1F9FC07A2F9FC07074B10B50400002B84
:104BB00002D0002100E000BF044B1B68002B00D096
:104BC0009847200000F03AF8000000005866FC0703
:104BD00003008218934200D1704719700133F9E73E
:104BE00070B500260C4C0D4D641BA410A64209D1D3
:104BF000002600F039F80A4C0A4D641BA410A642A6
:104C000005D170BDB300EB5898470136EEE7B3000D
:104C1000EB5898470136F2E72055FC072055FC0772
:104C20002455FC072055FC07002310B59A4200D1FB
:104C300010BDCC5CC4540133F8E70000FEE7C04669
:104C400002B4714649084900095649008E4402BC25
:104C50007047C04602B4714649084900095C4900E2
:104C60008E4402BC7047C046F8B5C046F8BC08BCCC
:104C70009E467047F8B5C046F8BC08BC9E467047D3
:104C8000E60303091800444C475F5448524D005254
:104C9000656E6573617300444131343533350031DD
:104CA0002E302E302E302D4C4500765F362E302E95
:104CB00032342E3134363400312E312E300012345D
:104CC00056FFFE9ABCDE00FFEEDDCCBBAA00000062
:104CD000000102030405060708090A0B0C0D0E0F5C
:104CE0000BFF00D2444C472D5448524D00000000A9
:104CF0005BB0050200000000320000000106020067
:104D00000000000101050200000300016904FC0726
:104D1000C112FC07F512FC07000000008504FC0727
:104D20002104FC0700000000D02EF807C02FF80770
:104D30002000800000C000000000040000002822C5
:104D4000000000000000040000F7FFFF7F000000EB
:104D500030F0070800000000000400000000000020
:104D60000000000000000000000000000000000043
:104D700001D200800500010007070A070D0508069B
:104D8000070000008F4CFC07974CFC079F4CFC076A
:104D9000974CFC07AA4CFC07B84CFC07BE4CFC0720
:104DA000C74CFC07704DFC0700000000983BF20761
:104DB000DCCDFC070400010001240000D902FC073F
:104DC00003240000DD02FC0704240000E102FC07CC
:104DD00013040000C910FC07140400004D11FC0767
:104DE000021400002112FC07011B00004703FC070E
:104DF000031B00004B03FC07061B0000D91AFC072D
:104E0000081B0000551AFC07FD31F2079117FC073B
:104E10001503FC070112FC07C111FC079511FC07E3
:104E2000E111FC07F8000000130E00002515FC0737
:104E3000150E0000111EFC07170E00008503FC076D
:104E4000190E00008903FC07150D0000A103FC07E3
:104E500000280000010000000000000003280000FE
:104E60000100000000000000192A000001000000FD
:104E700000800000022900000980020000000000FC
:104E8000042900000100000000800000944EFC078F
:104E90000600000000240000F92CFC07022400009A
:104EA000E52AFC07170C0000BD1DFC07150C0000CF
:104EB000C92DFC07130C0000ED30FC07000C0000AE
:104EC0006927FC077528FC075B26FC07150BFC0708
:104ED000250BFC0780000000CD24FC070200000029
:104EE000F124FC0708000000F924FC070001000081
:104EF0001525FC070002000075C1F0074000000006
:104F00003794F00710000000C97BF0070400000090
:104F1000A124FC0701000000D924FC0720000000A8
:104F20005508FC07000000000000000000280000F9
:104F30000100000000000000032800000100000044
:104F400002000000292A000001000000808000000B
:104F5000032800000100000004000000242A0000D3
:104F60000100000080800000032800000100000014
:104F700006000000252A00000100000080800000DB
:104F8000032800000100000008000000272A00009C
:104F900001000000808000000328000001000000E4
:104FA0000A000000262A00000100000080800000A6
:104FB00003280000010000000C000000282A000067
:104FC00001000000808000000328000001000000B4
:104FD0000E000000232A00000100000008800000ED
:104FE0000328000001000000100000002A2A000031
:104FF00001000000088000000328000001000000FC
:1050000012000000502A000001000000078000008C
:105010001850FC0703000000001400009932FC0740
:10502000130C0000812EFC0703140000512BFC0719
:10503000B931FC077532FC073D0BFC073F0BFC0741
:10504000002800000100000000000000032800000C
:1050500001000000000000001C2A000040000000C9
:10506000008000000229000009000200000000008A
:105070000328000001000000000000001D2A0000BD
:105080000100000000800000032800000100000073
:10509000000000001E2A0000000200000080000046
:1050A000022900000900020000000000032800009F
:1050B0000100000000000000212A000001000000A3
:1050C0000280000002290000090002000000000028
:1050D000062900000100000000800000E450FC07E9
:1050E00008000000001B0000792DFC07170C0000D1
:1050F000951BFC07150C0000C92FFC07130C0000C2
:10510000F91BFC07000C00006928FC07021B0000CB
:105110005933FC07041B0000D92BFC07071B0000B8
:10512000852CFC07CD29FC077927FC07770BFC07AA
:105130002114FC070000000000000000F401100032
:10514000F4352348F40108C4140A000024000000C8
:10515000A10FFC076510FC0714000000ED0FFC0711
:10516000000000001B0000002510FC07791AFC0756
:10517000FF00000000000000000000001B00000015
:10518000810BFC0714000000410BFC072400000009
:10519000350BFC07FF000000000000009D0EFC071F
:1051A0006D02FC075854FC07B511FC07084EFC07BC
:1051B00098CCFC0764CBFC0780CDFC070500000001
:1051C000505CFC07000400009459FC07B00200008A
:1051D0008855FC07000400005C60FC0770050000B7
:1051E0002003000000A60E0004000000D200000012
:1051F000320000003C00000001000000010000003F
:105200000200000002000000040000000300000093
:105210000600000000000000020000000200000084
:105220000000000000000000030000000300000078
:105230000500000005000000060000000A00000054
:105240000A000000C8000000B80B000002000000C7
:10525000B80B0000B80B000010000000D4010000E3
:10526000CC010000700200006A0000000400000091
:1052700001000000200000000C0000000100000000
:10528000E20400008A020000DC050000AF0000001C
:105290004454FC07B452FC07000000004C54FC07C7
:1052A0009C51FC070000000000000000000000000E
:1052B0005E0100003055FC072855FC074055FC07EF
:1052C0008055FC07CD22FC07A923FC07A7C6F007E1
:1052D00003C7F0070BC7F0075FC7F00777C7F007F2
:1052E0008DC7F007AFC7F00731CBF007D5CDF0077A
:1052F00015CCF00735CCF00755CCF00793CCF00770
:10530000A3CCF0070DE2F007C9DFF007E7DFF007F5
:1053100003E0F0071DE0F00731E0F007AFE0F00731
:10532000C7E0F007E3B0F1076BB3F10707A9F00797
:10533000B5EFF10799F0F10795F0F10791F0F1075A
:105340008D21F007FD03FC07FD07FC074922FC0740
:10535000CD03FC07ED03FC07057DF007D37BF007C9
:10536000737CF007AD82F1074134F1075D19F20754
:10537000DD19F207811AF207BD1AF2074D1BF20779
:10538000851BF20700000000F703FC07F903FC0788
:105390007DB3F007D976F107617DF107B181F1079F
:1053A0009780F107C549F1079759F107F10AF1070D
:1053B000A1ECF007F503FC07614AFC07DDBAF00732
:1053C00025AAF00799AAF00749ABF007E72DF007E7
:1053D000A32EF007657FF0072F7EF0070136F00758
:1053E000000000006922FC077921FC076B14FC0710
:1053F00001A7F10783A7F10707A8F1072D13FC0701
:10540000B5B7F00700000000000000000000000039
:10541000000000000000000000000000000000008C
:10542000000000000000000000000000000000007C
:10543000000000000000000000000000000000006C
:10544000000000003C51FC0768CDFC077C51FC07C4
:1054500094CDFC07030000009120FC073D21FC07D0
:105460000000000000000000A519FC07000000007B
:10547000C138FC07000000006520FC0700000000A8
:1054800000000000000000007512FC07E902FC07A4
:10549000F502FC078D12FC07000000000703FC0763
:1054A0003914FC07000000000000000000000000AC
:1054B000990FFC07DD13FC0700000000000000004E
:1054C0008514FC0700000000000000000000000040
:1054D000000000000000000000000000FF000000CD
:0F54E000000000000000000003000010000100A9
:0854F000B8ACFF7F01000000D1
:0C54F8001455FC071455FC0714000000BC
:10550400DC65FC078000000028CBFC074403000096
:10551400FF000000E0010000F40100008501FC0729
:045524005901FC0726
:105528000000000000000000000000000000000073
:105538000000000000000000000000000000000063
:105548000000000000000000000000000000000053
:105558000000000000000000000000000000000043
:0465D80000000000BF
:0400000507FC0E11D5
:00000001FF
