:0200000407FCF7
:10000000C063FC070D0EFC074D02FC072D02FC0728
:100010002902FC072902FC072902FC072902FC0728
:100020000000000000000000000000002902FC07A2
:1000300000000000000000002902FC072902FC0764
:100040004922FC074923FC07A526F007510CFC07B1
:10005000850AFC072902FC075508FC072902FC0752
:100060002902FC072902FC075124FC075B24FC073A
:100070006524FC076F24FC077924FC072902FC0790
:10008000511DFC07B50AFC072902FC072902FC07E1
:100090002902FC072902FC072902FC072902FC07A8
:1000A0000000000090070E000000000000000000AB
:1000B0000000000000000000000000000000000040
:1000C0000000000000000000000000000000000030
:1000D0000000000000000000000000000000000020
:1000E0000000000000000000000000000000000010
:1000F0000000000000000000000000000000000000
:1001000000000000000000000000000000000000EF
:100110000448054B10B5834203D0044B002B00D09C
:10012000984710BD944BFC07944BFC07000000005F
:1001300006480749091A8B10C90FC91810B549108C
:1001400003D0044B002B00D0984710BD944BFC0704
:10015000944BFC070000000010B5074C2378002BDF
:1001600009D1FFF7D5FF054B002B02D0044800E072
:1001700000BF0123237010BD4C5CFC070000000091
:100180005C4BFC07054B10B5002B03D00449054818
:1001900000E000BFFFF7CCFF10BDC046000000002C
:1001A000505CFC075C4BFC07402292029A1A924674
:1001B0007047C046174B002B00D1134B9D46FFF7ED
:1001C000F3FF00218B460F461348144A121A04F01D
:1001D0000BF90E4B002B00D098470D4B002B00D095
:1001E00098470020002104000D000D48002802D08F
:1001F0000C4800E000BF04F0FFF82000290003F0E5
:10020000D1F904F0DDF8C04600000800000000004D
:1002100000000000C063FC074C5CFC07C05CFC07EE
:100220000000000000000000FEE70000042071460E
:10023000084203D0EFF3098003490847EFF3088031
:1002400001490847704700003D33FC070420714610
:10025000084203D0EFF3098003490847EFF3088011
:1002600001490847704700005534FC07F8B50020E5
:100270000C250126154B164C1A78290051430F5DA9
:10028000FF2F0FD1002800D01A700C255A78114882
:10029000290051430C5CFF2C0FD1002201201A7061
:1002A0005A7009E06118496801323000D2B2002961
:1002B000E3D01A7088470020F8BD41184968013220
:1002C000D2B20029E4D05A70F4E7C04628CBFC072C
:1002D000484BFC07CC47FC070020704700207047C4
:1002E00000207047014B9B8C0380704728CBFC0794
:1002F00008230380DB184380002383807D33C38081
:10030000704701230B7000234B808B8070470000E7
:10031000094B10B5C21893B20120042B0BD800244E
:10032000064B92009818836AA34201D084629847D2
:100330000020029B1C7010BDF2FBFFFF28CBFC07C6
:10034000704770470020704700207047094B01221A
:100350001B88DB0918001040134208D0064B002010
:100360001B681B0403D4054B1B889A431000012310
:1003700018407047080000503000004018FAFC0791
:1003800000207047180A7A234343034A0020D218FA
:100390000B78B4321370704728CBFC0700207047ED
:1003A000084B10B5DA6B80231B02984207D3002359
:1003B00019005CF7ADFF8905800A084310BD504362
:1003C000800AFBE7A8CBFC07044B10B59B6B0449E4
:1003D0005843044BC0185CF771FF10BDA8CBFC0755
:1003E00040420F0020A1070010B5FFF7D9FF10BD54
:1003F0007047704770470000064B984200D000BE1F
:100400000321054A13888B43802109020B43138083
:100410007047C0461111111112000050F0B51E288E
:1004200005D10E4B4908D218CBB2002B00D1F0BD3C
:100430000B4800210600146855680832076BBC425F
:1004400006D10631C90071184D60013BDBB2ECE703
:10045000013108300629F1D1F7E7C046D42EF8075C
:10046000D0CDFC07044B8900D2188918034B0A68C9
:100470007C331A807047C046D02EF807D0CDFC07D9
:100480000B4B10B5D2181068116880B2090C0B1A0A
:10049000084A9BB29C080133E31814007E34238081
:1004A000092343435B1A1BB2DB108032138010BD5B
:1004B000D42EF807D0CDFC07002070477047704756
:1004C00010B5031CE6280CD9084B1B78EC20FA2148
:1004D000DBB2FF30584389005CF706FF7E38C0B2BC
:1004E00010BDC2B2282AF1D22823EFE79844FC07B6
:1004F000704770474B1E012B00D900BE431EDBB274
:10050000FD2B04D800BE0C20022902D17047FF2821
:10051000F9D1024B48331878F8E7C046A8CBFC075E
:100520007149724B0A6870B51A40B0231B0113431E
:100530000B606F496F4B0A68FF2492B213436E4AF7
:100540000B6013686D496E4D0B40C02113606D4AFE
:10055000890013686C4E0B43136010236B4A10889C
:100560000343138001236A4802881A430280694AC0
:1005700069481060694A10880343694813800288FB
:10058000684B1A40BC239B00134303806648674AAC
:1005900003685B0D5B05134303606548654B0268A8
:1005A0001A4090235B01134303606348634B026866
:1005B0001A40634B134303606248634B02681A405E
:1005C000624B134303606248624B02681A40624BFD
:1005D000134303606148624B02681A40614B134346
:1005E0000360614B614848331A78C12312065B01EE
:1005F00013435F4A1360A0225E4B52011A805E4B88
:100600005E4A1A8034230288A24313430380552391
:100610005B480288A24313438D220380594B92000A
:100620001A80594B594A5A481A805A4B5A4A6C24D4
:100630001A805A4B5A4AFF341A805A4B5A4A1A8027
:100640005A4B5B4A1A8002685A4B1A405A4B134362
:100650000360B020594B80001C802A88584B1A40F8
:1006600002432A809022358892001D402A4332801E
:10067000A822544E920035881D402A43524D3280A4
:100680002A881A4010432880C620504A4000108013
:100690004F4802881340194301801F2017234D49FA
:1006A0000A88824313430B8019234B490A888243EB
:1006B00013430B80494B4A491C800A88494B1A4016
:1006C00080239B0113430B80072347490A689A4301
:1006D000043B13430B604549454B0A681A40454BA0
:1006E00013430B6070BDC04634300040FF80FFFFF5
:1006F000203000400000666638300040FF00FEFFFA
:100700003812004050300040441200405C3000403D
:10071000243000408000004059055C074010004034
:10072000202000400FFCFFFF1820004009581A004D
:100730001C200040FEE1FFFF04200040E0E000003C
:10074000080929490820004000000303696A686C11
:100750000C200040031FFFFF7060000010200040CD
:10076000E0E0E0E00B0A0A08A8CBFC0740130040D9
:1007700000100040281300402C1300400514000016
:10078000481300405013004054130040340A000046
:100790003C200040581300404E0800005C1300400D
:1007A000260A000060130040580800002C2000407A
:1007B0000A1400002304E0FE181A0601001200408B
:1007C0001FFCFFFF481200404C1200400412004082
:1007D00088120040981200409C120040A81200406D
:1007E0003C100040FF9FFFFF80100040641000405D
:1007F00000FE00FE500150010F4B10B51868FFF7C6
:10080000CFFD00220D4B0E49DC6CDA640419200088
:100810005CF754FD0B4B0A49186020005CF74EFD55
:10082000002901D0064B591A074B084A19600821C4
:1008300013680B43136010BD38000040A8CBFC07C1
:1008400071020000440000404000004030000040C1
:1008500000BE70470122044B10B51A80034B1B6D7C
:10086000002B00D0984710BD0E150050A8CBFC07F8
:10087000FA22030010B50020D200934209D3054AA2
:100880006430934205D8044A0A2198185CF72CFD7D
:10089000C0B210BDB80B000030F8FFFF00210B4BB9
:1008A0000200181D70B5C167094810250186C020D7
:1008B000084C40002550DC6D59658C4204D019006D
:1008C0005431C988186EA04770BDC046A8CBFC073C
:1008D0000013005000E100E0F7B5430605D5002005
:1008E000FFF7DCFF244B1B88F7BD244980250B0054
:1008F00002005433AD009C882A40DB88284215D181
:100900004D6E02264F6D29003140481E814149023B
:10091000019198B2A0421CD21949098831420DD1E7
:10092000002AE1D0154B5433D880DDE7E31A5A4250
:100930005341D8B2FFF7B2FF124BD4E7FA5C013350
:1009400000209C4200D1019802430F4802820122FC
:10095000DFE7002A02D0094B5433D880A042C3D12C
:100960000120054205D01021074A138E8B431386C0
:10097000BAE7FFF793FFB7E754130050A8CBFC0783
:1009800070130050601300500013005000210B4BF7
:100990000200181D70B5C167094810250186C020E6
:1009A000084C400025505C6F99668C4204D01900B9
:1009B0005431498B986FA04770BDC046A8CBFC0747
:1009C0000013005000E100E0F8B5400625D4284BA4
:1009D00002241A005432108BDA6F224051424A41ED
:1009E0005242520A1D005435A98B81421ED3012563
:1009F0001A000024AC465432528B996E89189042EA
:100A00002BD93F271B4D2E88551CADB23E421DD120
:100A1000002C07D054335A8304E00020FFF7B6FFC0
:100A2000154B1B88F8BD802149000CE0134E368819
:100A30002642DCD0013189B2A9838142F3D1C0259D
:100A40005102AD0049190E4D2982CBE70C4A64468C
:100A5000128A0A702A000131D1E7002C01D05433E8
:100A60005A839042DED10120FFF790FFDAE7C046BB
:100A7000A8CBFC077813005054130050701300509B
:100A80000013005010B5084B988D084B80B204330A
:100A9000DB6F002B01D0984710BDC0231021044A02
:100AA0005B00D150F8E7C04600130050A8CBFC070C
:100AB00000E100E0134B10B51C68230509D50123A4
:100AC000114A11680B431360104B5B68002B00D078
:100AD0009847E30409D502230B4A11680B431360BE
:100AE0000A4B9B68002B00D09847A40409D5042327
:100AF000054A11680B431360044BDB68002B00D0E0
:100B0000984710BD084000501440005028CCFC0706
:100B10000369022900D900BE00225B185A7770478A
:100B20000369022900D900BE00225B185A7770477A
:100B3000004870475846FC07002203695B18DA74C6
:100B40007047000000487047A447FC0710B50389B0
:100B5000032914D94289012410002040224200D1E7
:100B600010BD05290BD90224100020402242F7D0E5
:100B7000082904D90424100020402242F0D05B1838
:100B800098B2EDE710B502890400FF208A4206D82A
:100B9000131D9BB2994203D2081DC01AC0B210BDEA
:100BA0006489E00706D5063293B2994202D2063133
:100BB000C81AF3E7A20705D503339BB2994201D2C5
:100BC0000931F5E7FF206207E9D59A1C92B29142FC
:100BD00002D20B31881AE1E7200704D50B2091429D
:100BE000DDD003339AB2FF20E406D8D58A42D6D1AD
:100BF000F338D4E7F7B500240126134B1349D88FF7
:100C00009A6B9F8F121887420BD8002C00D0D88780
:100C100001248A88A2438A809B6C002B0CD09847C1
:100C20000AE08D8AAC46451CADB201956546354259
:100C300003D1002C00D0D887F7BD0888340010708D
:100C400001980132DFE7C04628CCFC0700110050B4
:100C5000F7B52F4C0F232089184001380B28F9D8FD
:100C600003F0FAFB5413F841F8444EF8F8F8F8068C
:100C7000FFF7C0FF0122A3889343264AA380936C09
:100C8000002BE6D0D08F9847E3E7224B988EDA8E80
:100C900082421CD21A6B20260192022294461E4FD9
:100CA000D98E8842D5D93F252289AA43D2B2C02AFB
:100CB00009D165463A882A42CBD04A1CDA86019A85
:100CC000525C2280ECE7A28A3242F6D1C1E70221CF
:100CD000A2888A43A280A2887E318A43A2805B6C6C
:100CE000002BD0D1B5E7FFF785FFB2E7094B1B6CAE
:100CF000002BAED09E22A18A114005489847A8E754
:100D0000044B1B6C002BA4D00121F6E7F7BDC046B5
:100D10000011005028CCFC077C1100501E22084B0B
:100D20001A80084B1B3A19880A431A800422198832
:100D30000A431A800122044B50331A707047C04690
:100D4000021600500016005028CCFC07134A30B59C
:100D5000130052331B88002B14D111490C00283486
:100D600098000559002D08D109180E4888620E49CF
:100D70005B189BB25232138030BD0133052BEFD18B
:100D80000A4BF7E70A4A9B18042B01D900BEF3E788
:100D9000034A9B00D218034B9362EDE728CCFC0773
:100DA00028CBFC07CD32FC070E040000FFFF00003B
:100DB000F2FBFFFF10B5442805D10122024B54334A
:100DC0001A70FFF7C3FF10BD28CCFC0710B501F067
:100DD000EDFAFFF74DFD10BDEFF31082012383F311
:100DE000108808490988090603D40749088803437D
:100DF0000B80002A02D182F310887047012383F30D
:100E00001088FAE7080000500833005070B5144B02
:100E100083F3098813485DF75FFE134B1348834241
:100E200011D30020124B13498B4217D3FFF7C2F99D
:100E30001C68910065585C680132655099688A4267
:100E4000F6D30C33EBE70022F8E71C689500285135
:100E500001325C68A242F8D30833E5E70022F8E7E4
:100E6000C063FC07A000FC07644BFC07704BFC0749
:100E7000704BFC07804BFC0710B561F709FF054B71
:100E800000211A00553211709A6D8A4201D099657D
:100E9000904710BD28CCFC0770B5194EF56D002D9C
:100EA00028D12C2304220921164859F725FF164B77
:100EB0000400038010222900F06545800A3003F009
:100EC00093FA80239B016383F72323840F4BA5832D
:100ED0001A00E5837E32658411880A1CFB2900D93B
:100EE000FB22E28480331988094A0B1C914200D905
:100EF000131C2385F06D59F71AFF0023F36570BDAD
:100F000028CCFC07040D0000030A000074FBFC075A
:100F10004808000070B50A4C85006619336E002B36
:100F20000BD10A21000201431E330422054859F760
:100F3000E3FE0823FF33038030666419206E70BD22
:100F400028CCFC07140E0000F8B50F4C850066197C
:100F5000736E002B11D10A21000201431E330422BB
:100F60000A4859F7C9FE072207007066084902308F
:100F700003F066FA0223FF333B806419606E59F771
:100F8000D6FE00236366F8BD28CCFC07140E0000D3
:100F9000544BFC0710B5FFF7D7FF10BD10B5042266
:100FA00009211C230E4859F7A7FE1B2304000370D8
:100FB000242061F7A9FE04220A4B228262600121EB
:100FC0000222A3810023A174FF3223316070E381E8
:100FD000200061802281A37259F7A9FE10BDC0468E
:100FE0001B0D0000AD27000070B50422092110235D
:100FF0000A4859F781FE1B2504000570280061F797
:1010000083FE04236360064B6070A360054B65801C
:101010002000E36059F78BFE70BDC0461B0D000039
:101020001D0201003C00050070B50400242041F7BA
:10103000CAFB0423010090201A00800159F75CFECE
:1010400004700F4C00252600683633784570C57053
:10105000837059F76CFE230069331D7023006A33D7
:101060001D70230009226B331A70064B04210648B9
:101070006C3401323570238061F718FE70BDC046B4
:1010800028CCFC07701700001304000070B5160090
:10109000FFF79CFE1A4C0500230068331B7883423F
:1010A0000DD0242041F78FFB0223010004221548B4
:1010B00059F722FE00234570037059F738FE2300CC
:1010C00068331D70230069331B78002B0FD0042D6B
:1010D0000DD823006B3318785EF756FC23000122ED
:1010E0006E331A7004210848C73261F7DFFD6C3493
:1010F00031002288054861F7D9FD002070BDC04647
:1011000028CCFC0702240000140400001304000093
:1011100070B50F4C1500230069331B78002B0FD0DE
:1011200023006E346B3318782378002B0AD05EF7D7
:1011300023FC0023142223702900064861F7B6FD22
:10114000002070BD5EF720FC012305222370F3E729
:1011500028CCFC07140400001FB514001A00052356
:101160000293044B0193069B0093230062F778F8E7
:1011700004B010BD5845FC0713B500240094FFF7D8
:10118000EBFF13BD1FB514001A0004230293044B98
:101190000193069B0093230062F762F804B010BD30
:1011A0008045FC071FB514001A0005230293044B69
:1011B0000193069B0093230062F752F804B010BD20
:1011C000BC45FC0702690B005218002110B5D17410
:1011D000808A1B02184359F7C0FF10BD10B504499F
:1011E0008A7803310270013003F02AF910BDC0463D
:1011F00028CBFC0770B5047803000D00002C04D048
:10120000012C0AD048242C7070BD82780548191D25
:101210008270033003F014F9F5E7024A4388002492
:101220009384F0E728CBFC070A4B70B51C000D0037
:10123000110088342078AA00C000C018064BC918D5
:1012400003F0FEF821784919C9B221700C2900D9A0
:1012500000BE70BDD0CDFC07D42EF8070B4B70B587
:101260001D000C00110089352878A2000630C0004E
:10127000C018074BC91803F0E3F82B781B19DBB231
:101280002B700C2B00D900BE70BDC046D0CDFC0722
:10129000D42EF807F8B50E4C0500402220000D4969
:1012A00003F0CEF80C490D4B0A00C1CBC1C243CBB1
:1012B00043C243CB43C243CB43C2094B0948ADB2FF
:1012C0005B1B401B9BB280B223816081F8BDC0468E
:1012D00070E0FC077C37F207B0E0FC07C437F20788
:1012E000B8E0FFFFCCE0FFFFF7B5144C8700E5192D
:1012F0002B6F16000191002B0AD10A210002014335
:101300001E3304220E4859F7F7FC042303702867A4
:10131000E419256F1022AF1C3800002103F064F897
:1013200032003800019903F08BF8012328006B701C
:1013300059F7FDFC00232367F7BDC04628CCFC0706
:10134000140E00001FB54B780400002B0AD11022A8
:1013500068460B4903F074F8102269462000FFF735
:10136000C3FF1FBD012B03D1064B04220093F4E7FA
:10137000022BF9D0032BF4D110220231EEE7C04644
:10138000A844FC0740E201003F2210B54379040065
:10139000934311D141F7B3FA030A20706370030C31
:1013A000000EA370E07041F7AAFA4023207180B2CA
:1013B000000A5B420343637110BD70B50D000C0061
:1013C000203541F79CFA20700134AC42F9D100205D
:1013D00070BD0000F0B57A25234B454385B04E78AB
:1013E0000393224B214A5B1902931E772B0014337F
:1013F000D3180822040011001800019361F76FFF51
:101400001A4BAF1CDF1931001022380061F767FF5B
:1014100041F775FA039B5E194E36144B3080EA5C37
:1014200001231343114A2000AB54FFF773FD05005D
:10143000029B01991B7F0822037733884382143073
:1014400002F0FEFF10223900A81C02F0F9FF200074
:10145000FFF760FD59F76BFC0022054BA4001B1938
:101460001A6605B0F0BDC04628CBFC0764CBFC076C
:1014700028CCFC0708781B0A10B5DCB207281FD857
:1014800002F0F4FF041E1E1E1614141A0C215943F8
:101490000C4A2000743252180121D17279314B4329
:1014A0000021094A3C329954FFF74EFD002010BD3F
:1014B0002000FFF747FFF9E72000FFF78BFFF5E774
:1014C00000BEF3E728CCFC0728CBFC0770B504006E
:1014D0000D00FEF73BFF002806D00A4B2A0004212E
:1014E000E01859F748FF70BDFFF776FC0422082387
:1014F0001100054859F700FC4560047059F717FCC6
:10150000F1E7C046030400000104000070B50028A4
:1015100001D100BE02E00B4B9842FAD800230A4AE0
:101520009C00A5580133002D07D1A150DCB2010069
:101530002000FFF7CBFF200070BD0A2BF0D1002464
:10154000F9E7C046FCFF3F00A8CCFC07002370B5BC
:101550000C4C23700C4B1B78002B0FD10122160072
:101560000A4D09202B785E409A4208D05EF70CFAAB
:10157000642007492E70FFF7C9FF207070BD5EF729
:10158000FBF9F5E7715CFC07985CFC07725CFC07F3
:101590004D15FC0710B500280DD0074B1B78FF2B0D
:1015A00009D0064B1B78002B05D009200449FFF712
:1015B000ADFF044B187010BD804BFC07705CFC073E
:1015C0007D2FFC07685CFC0710B5002814D00B4B7E
:1015D0001B78FF2B10D00A4B1B78002B0CD001205E
:1015E000084B094C1980094B18702378002B03D144
:1015F0000749FFF78BFF207010BDC046804BFC07EA
:10160000705CFC07805CFC07945CFC077F5CFC075B
:10161000F11AFC07364A70B503000D00049C904295
:1016200016D0344A904237D0334A904246D14B6864
:10163000002B00D100BE314B6A689A4200D900BE2F
:1016400028782C4B04216A68C01859F794FE0EE0E4
:101650000B78013BDAB2092A1CD8294A9B00995819
:101660002848814206D100219950D2189162002069
:10167000207070BD244B9942F9D104220823110037
:101680001C4859F739FB2B7803706B68436059F796
:101690004EFBECE700BEEAE70878431EDAB2092AFF
:1016A000F8D817499B00184A5E589642DFD1CA18ED
:1016B000926A5A506968FFF709FFD8E7134A012078
:1016C0009A18092AD5D8033BD8B2421E0C4B920077
:1016D000D558002DCBD00C498D42C8D009498D4238
:1016E000C5D00021D1509B189962A847BFE7C046DA
:1016F000020400000304000001040000FCFF3F009E
:10170000A8CCFC074103FC074303FC07FCFBFFFFDD
:10171000F8B5451EEBB20400092B17D80C4EAD00EE
:10172000AB59002B12D00B4FBB420FD00A4B0421F8
:10173000C01859F76AFE0422082311000748AF5168
:1017400059F7DAFA047059F7F2FAF8BD00BEFCE76F
:10175000A8CCFC074103FC070304000002040000BE
:1017600070B5234C230055331878002801D0FFF7BB
:10177000CFFF20492048FFF7C9FE204D55342B6D7F
:101780002070002B2AD10422092152331C4859F71A
:10179000B3FA0D2303801B4B04008380C38008230E
:1017A000FF3303818023DB0043810422164928652F
:1017B0000C3002F045FE23000C22200013492B338D
:1017C0001A70103126002C3002F03AFE22000B363F
:1017D000082130000E4B103261F7D6F9286D59F709
:1017E000A6FA0023022104202B6559F7B6FC70BD30
:1017F00028CCFC07790EFC0750460000A8CCFC075B
:101800000D0D00004C0400009944FC07A844FC079F
:101810009E44FC0710B561F78DF9002801D0FFF751
:101820009FFF10BD10B5064C2078002801D0FFF7AF
:101830006FFF044B04491868FFF768FE207010BD65
:10184000975CFC07884BFC071930FC0710B50E4C61
:101850002078002803D0FFF75BFF002323700B4C98
:101860002078002803D0FFF753FF00232370084C93
:101870002078002803D0FFF74BFF002323700022BD
:10188000044B1A7010BDC046975CFC07685CFC07EF
:10189000945CFC077F5CFC0710B54A78064B11008E
:1018A000481E81411970002A03D0FFF7BBFF0020BA
:1018B00010BDFFF7CBFFFAE7705CFC0710B5040022
:1018C0001B2060F71BF9210060F72EF90100D820DA
:1018D00004220223400159F70FFA044B04705433D9
:1018E0001B785B00437059F722FA10BDA8CCFC07A7
:1018F00070B505001B200C0060F700F9290060F7A7
:1019000013F9022301000422034859F7F5F9447042
:1019100059F70DFA70BDC046071B000010B54A8884
:101920000C78531E80213B2B0ED864235343094966
:101930000B60094B1B78002B05D0084B1B78FF2B45
:1019400001D0FFF76FFF00212000FFF7D1FF00203B
:1019500010BDC046884BFC07705CFC07804BFC0741
:10196000F8B50C0000211600050060F7DDF808212D
:101970000200C120240209232143000159F7BCF9C8
:10198000122304000370242060F7B8F8002800D167
:1019900000BE831CDB7F0022B34207D90121078BE5
:1019A0000130D3B2B3420BD30237BAB20123AD191F
:1019B000E380AB7E2000A280237259F7B8F9F8BD0E
:1019C000C37F13410B400433FF18BFB20132E8E775
:1019D000F8B51B200D0017001E0060F78FF80028D7
:1019E00000D100BE2988FFF7CDF8062304003A0095
:1019F00031000F4859F780F92A8803000280E01E61
:101A0000082812D802F032FD0D111111110D110527
:101A10000D0000225A8018001A7159F788F9002029
:101A2000F8BD02225A800022F5E70622F3E7C046FD
:101A3000180C0000F0B51B2085B01F00009101922A
:101A400060F75CF8041E00D100BE009B20001988DE
:101A5000FFF798F803383D0A03AE092843D802F08F
:101A600005FD28423D4242314205390AA38900243E
:101A70003380022505E0E38904253380238A00248E
:101A800073803900019AAB1D184859F735F90700E2
:101A9000ABB22A0031004380053002F0D1FC009B3C
:101AA00038001B883C713B8059F741F9002005B094
:101AB000F0BD6419E37C5B00022500242B403370E9
:101AC0007470DEE76419E37C00249B07DB0F33703E
:101AD0007470CEE76519EB7C5B10EDE7A37C012504
:101AE00000243370CDE706240025CAE7140C00005B
:101AF0001FB500221A4B1A701A4B1978914207D061
:101B000019490978914203D018490C78FF2C02D169
:101B100000221A701FBD1A70154B1B2000229B5EFD
:101B2000FE221B0212061B0A1343009380236A46FF
:101B30009B0093815FF7E2FF21005FF7F5FF14231D
:101B4000010004220B4859F7D7F8012304001022A2
:101B50006946037402F074FC200059F7E8F8D9E7ED
:101B6000945CFC077F5CFC07705CFC07804BFC0707
:101B7000805CFC07021B0000F0B5040085B0242047
:101B8000019115005FF7BAFF011E00D100BE8B1C4A
:101B90000A8B02934B1C0393012300269C46019B56
:101BA0001E70029BDF7FB74201D9944201D2802090
:101BB00005E0931C9C4204DCA21A2A70002005B0A8
:101BC000F0BD0399C87F61463041084206D0033218
:101BD00093B29C4203D103232B70EFE79BB2012FFA
:101BE00005D001339BB29C4201D10423F4E70133B9
:101BF00001369AB2F6B2D2E7F7B51E006B460D0079
:101C00001700D91D6A4600230632288813700B700E
:101C1000FFF7B2FF062304003A0031000A4859F7E3
:101C20006BF82B880380002C05D16B469B79032B26
:101C300006D1013B4380047159F779F80020FEBDBD
:101C400044800324F7E7C046180C0000F7B50500F0
:101C500008781C0A0238052800D971E002F006FC59
:101C60000328703948587A23634337488A783C30D0
:101C7000C518290078310A7034490191D2070ED570
:101C80000C270E00674371337436791DC018711824
:101C90000622F61902F0D4FB337977352B700C222B
:101CA0006243019B74339B180022DA720020FEBD50
:101CB0000C226243254B002174339B187A22624325
:101CC000D972214BE0B29B18B433197060F7C2FF90
:101CD000ECE77A2565431C4B17221C005819763017
:101CE000023102F0ADFB04233C342A5D13430DE0C6
:101CF0007A25154B654310261C00581932009D307B
:101D000002313C3402F09CFB2B5D33432B55CDE775
:101D10007A235C434A8A0C4D02312819002A07D1E4
:101D20001C323E303C3502F08BFB0123625DDDE767
:101D30001C225A303C3502F083FB0223625DD5E75A
:101D40002800FFF719FAB1E728CBFC0728CCFC07DD
:101D500070B55DF726FD264A13881B051CD50520A6
:101D6000244B19880140814216D1042219880A4364
:101D700001211A801A888A431A801F4B9B6D002B01
:101D800009D01E4A10881E4A00B211881D4A09B2A5
:101D9000128812B2984770BD1388DB0613D5012450
:101DA0001948038823420ED08021184B1D880D420C
:101DB00009D004801A888A431A800F4BDB6D002BF0
:101DC000E9D09847E7E71388DB06E4D502210E4AFD
:101DD00013880B42DFD00D4B1888C005DBD511806E
:101DE0001A880B490A401A80034B1B6EE7E7C0466E
:101DF0000400005000020050A8CCFC070202005072
:101E0000040200500A02005004010050000100507A
:101E1000FFFEFFFF10B5034B0348196864305DF700
:101E2000F7F910BD844BFC07A8CCFC0710B5074C94
:101E30002078002803D0FFF76BFC002323700920D3
:101E40005DF79AFD0022024B1A7010BD715CFC0711
:101E5000725CFC0710B5FFF7E9FF09205DF794FD00
:101E60000122044B642004491A70FFF74FFB034B17
:101E7000187010BD725CFC074D15FC07715CFC0707
:101E800010B5FFF76DFC0122084B54331A70FFF7B1
:101E9000ABF8FEF79BFF064B68331870FFF77EF830
:101EA0000022044B1A70FFF7D5FF10BDA8CCFC0729
:101EB00028CCFC07985CFC070C2270B5214E4243ED
:101EC000330074339B189B780500FF2B37D0330009
:101ED00055331878002801D0FFF71AFC002433008E
:101EE000B4650C2655331C7032006243164BD15C2E
:101EF000FF291BD10124154B1D70154B1C70FFF7DA
:101F000095FF09205DF740FD124B28001C70FFF77C
:101F1000D5FC2800FFF788F80F4B65331B78002BA2
:101F200003D10E4B1C700E4BDC7070BD9B189B6870
:101F30000134E4B2002BD7D028009847D4E7FFF74C
:101F40000FFCD7E728CCFC07CC47FC07804BFC07ED
:101F5000985CFC07725CFC07A8CCFC0778FAFC07CD
:101F600018FAFC0710B50024FFF770FCFF22084B9D
:101F700009201C70074B1A705DF7FEFC064B1C70A5
:101F8000064B1C70FFF766FFFFF7EAFB10BDC0466B
:101F9000705CFC07804BFC07725CFC07985CFC07DC
:101FA0001FB500BA009068465DF7BEF905B000BDE8
:101FB0000C4B10B51A0050321278002A11D00A4A80
:101FC00000280BD0042110880842FCD100220748C9
:101FD000503338301A705DF7DDF802E0128852078E
:101FE000F4D510BD28CCFC0700160050A8CBFC0788
:101FF000F8B5164B164F84331E88164B16499C6B4A
:1020000020007043C0195BF759F9144B0500663383
:10201000188030003C3060430F49C0195BF74EF91F
:102020000F4B043018600F4B4019C21D1A600E4A46
:102030001278022A01D1183018601868FEF7B0F93A
:102040000A4BC01880B259F7C5FBF8BDD0CDFC07CC
:1020500020A10700A8CBFC0740420F00A8CCFC073A
:10206000B05CFC07B45CFC0778FAFC07E2040000F3
:102070000022054B10B51A60FFF7BAFF034A136838
:102080005B005B08136010BD9CF9FC07300000404A
:1020900010B55DF761F910BD10B5074C002248344A
:1020A000237806490133DBB2054823705DF7FCFA5B
:1020B0002378013B237010BDA8CBFC07B85CFC075C
:1020C000D0CDFC0710B5084C0849483423780022CD
:1020D0000133DBB20648096823705DF719FB2378EA
:1020E000013B237010BDC046A8CBFC07B85CFC07C1
:1020F000D0CDFC07264B00B54362264B00228362FD
:10210000254B8BB04361030030331A70234BC362FD
:10211000234B0360234B0362234B4360234BC36178
:102120002348244B0168194080239B020B4322491A
:1021300003600B68214803400B606B46D2540132A8
:10214000282AFAD11E4B69461868403002F078F907
:1021500008221C4B48331A701B4A68321278002A36
:1021600001D001221A705FF735FAFFF795FFFFF7EC
:10217000A9FFFEF7D5F95FF76BFA5FF77DFA5FF716
:10218000EFF912485FF7B6FA5FF73AFA0BB000BD05
:10219000B904FC07BD04FC07F504FC073516F2077B
:1021A000BF04FC07F104FC07F304FC07C104FC07AF
:1021B00074000040FFFFE0FF00020040FFFFF7FF58
:1021C0004CF9FC07A8CBFC07A8CCFC0770E0FC0787
:1021D0001749184B0A6810B51A4080239B02134315
:1021E00080220B600721D20513688B4313600823FC
:1021F000114A11880B431380104B68331B78002B56
:1022000003D001220E4B48331A705FF7E3F9FFF752
:1022100043FFFFF757FFFEF783F95FF719FA5FF700
:102220002BFA08485FF756FA5FF7EAF910BDC04687
:1022300074000040FFFFE0FF08000050A8CCFC073E
:10224000A8CBFC0770E0FC0710B5184C23006633E0
:10225000198823006A3318885EF760FF5DF7A1FADA
:102260000321134B1A880A4202D01A888A431A8023
:102270008023104A11880B43042113800E4A1388CF
:102280008B43138002230D490A881A42FCD040F781
:1022900048F8E26E0A4B1A600A4B1A68520700D5DA
:1022A00000BE042219681142FCD010BDA8CCFC0766
:1022B0000A000050080000501000005014000050A8
:1022C00008020040100000400121084A10B51388A0
:1022D0008B43138059F754FA40F7B2F9FEF71EFD0D
:1022E0000022034B70331A7010BDC04608330050F3
:1022F000A8CCFC0710B549F7D4FEFEF70FFD10BDC2
:1023000010B559F759FA49F7CCFE0122014B703349
:102310001A7010BDA8CCFC0710B547F7DDF810BD4A
:1023200010B5002047F78CF80422034B70331A7065
:102330005FF766F910BDC046A8CCFC0710B50120B8
:1023400047F77EF810BD00000A4B10B51A68D20797
:1023500003D5022219680A431A6080221968D20341
:10236000114202D019680A431A6003485EF700FF61
:1023700010BDC046000200406846FC077FB501ABB7
:102380001900074A203270CA70C1064A11007C3118
:1023900009880909197104495EF776FD7FBDC046B9
:1023A000A844FC07D0CDFC076A5CFC0730B5174C8D
:1023B00087B021000822343101A802F041F803ABB4
:1023C00022001900203231CA31C1114C11492200BA
:1023D0007C321288012012091A7122005EF7AEFDCC
:1023E00001A8FFF7CBFF5EF79BFD062221005EF7F9
:1023F00013FE04005EF784FDE120000160430649FE
:102400005AF772FF80B207B030BDC046A844FC073F
:10241000D0CDFC076A5CFC07FF07000010B5040084
:102420005DF7C6FB2200084B0A3A92009B185B6FCF
:10243000002B01D0984710BD0123C022A3400349BF
:1024400052008B50F7E7C046A8CCFC0700E100E043
:1024500010B50A20FFF7E2FF10BD10B50B20FFF703
:10246000DDFF10BD10B50C20FFF7D8FF10BD10B573
:102470000D20FFF7D3FF10BD10B50E20FFF7CEFFE4
:1024800010BD70B5056904006869002801D058F7CF
:10249000A0FB00232800236158F79BFB70BD0000C0
:1024A000F8B524205FF72AFB041E00D100BE90215E
:1024B000636989011A898A423BD1012294461D7CB5
:1024C000E61C6719F27F012A1DD9902163698901F1
:1024D0001A898A4249D15A8999892A48022358F788
:1024E0000BFC00230570437058F721FC0025606940
:1024F00058F76FFB2900200065615FF715FB290085
:1025000058F72BFE11E0797F6046114101420DD052
:102510009818A118807C897E884207D02900200065
:10252000FFF71EFAF37F0133F377F8BD0132F2773C
:10253000C8E715498A4216D10126E51CE97F022920
:1025400001D9FF25C1E760181A7C407F1041304255
:1025500006D02000FFF704FAEB7F0133EB77E4E7C6
:102560000131E977EAE700BEEBE707498A42BDD1CE
:102570005A8999890548012358F7BEFB0023037047
:10258000B2E7C0460124000002240000032400003A
:102590000B7810B5122B01D1FFF782FF002010BD80
:1025A00070B5056904006868002801D058F711FB70
:1025B00000232800236158F70CFB70BD70B51B2069
:1025C0005FF79CFA041E00D100BE63685D78022D9F
:1025D0002AD9002120009D885FF7A6FA854216D0EF
:1025E000636800211D782000043D6A425541274A56
:1025F0006D009E88AD185FF797FA01230200310045
:10260000280058F779FB0023037058F790FB00254A
:10261000606858F7DEFA2900200065605FF784FAE9
:10262000290058F79AFD2DE06219D27C19781142E1
:1026300029D0DA79AA4226D0002120005FF774FA67
:1026400008210200C12063682D029B7929430833C9
:10265000000158F751FB616805000B78023B5A1ED8
:102660009341123303708A79C2804B88083183808A
:10267000083001F0E5FE280058F759FB62685378EE
:102680000133537070BD01355D709FE7031B00007F
:1026900010B5FFF793FF002010BD0000F0B58BB020
:1026A0000693109B06001B788125013B049107923D
:1026B000012B00D993E00121242058F70FFA0027BD
:1026C00004003D002422002101F08EFE109AA31C7C
:1026D0001278DA77109B1B78BB4266D9002D03D0A5
:1026E000200058F776FA7AE0132504ABED1807239B
:1026F0002B70109BDB195B7805930599631CB9401F
:10270000DA7F0A43DA77109BF9006018591808221B
:102710000430043101F094FE059B012B01D10E33EE
:102720002B70A31CDB7F012B03D910232A781343C2
:102730002B7014227B000593049B04A91B88891825
:1027400078000B5209AB18181E2306996C320B4007
:1027500013430393234B13210293B38A04AA0193D7
:10276000002389180A0000931F4905334DF7DAF852
:10277000051E17D1142204AB9B187900585A109BE0
:10278000DB195978431D9C464A1E531E9A416346E5
:102790009B1A049A1380012904D10230134980B294
:1027A0004CF77FFF0137FFB294E7002D98D109ABBA
:1027B0001B88049A346113802383069B079ADB03EA
:1027C0001A4324232280B08A29006080F382233BAD
:1027D000F381074B1C34B460736058F7BEFC2800CB
:1027E0000BB0F0BDE445FC070F180000010200002B
:1027F0002046FC07F0B589B004930E9B05921A7829
:1028000005000F000F23D10700D53033910702D503
:10281000E02149000B4351070AD5110700D569E0B3
:10282000C021C9000B43D20602D5802252011343B6
:10283000162202A9521813801E23049938000B4057
:1028400080210B4303932D4B2D490293AB8A0193B7
:10285000002300930D334DF765F8061E47D1012183
:10286000182058F73BF904001822310001F0BCFD94
:102870003B882C612381049B059ADB031A43228049
:10288000AB8A012763801B23EB82230020001633D1
:10289000AB601C4BEF816B600E9B03221B783100F9
:1028A00063810E9B1330DB88A3810E9B5B88E381E1
:1028B0000E9B9B8823820E9B5B786660A37401F05D
:1028C00093FD0E9B1B785A070DD51A0700D540378C
:1028D000DB0601D50C4B1F430A212000FEF736F919
:1028E00039004CF7DEFE0021A88A58F736FC30008C
:1028F00009B0F0BDE021090194E7C046C046FC07DD
:10290000091800005C47FC0708000200F8B5100039
:102910001F000D00160058F735FC022300281BD1BC
:1029200024305FF7EBF8041E00D100BEA21C2B7808
:10293000D27F9A4212D96A78642A0FD8E3189A761D
:102940000121300058F709FC0023103D6561033474
:10295000E377FFF7A5FD01231800F8BD012332003E
:102960003900044858F7C8F98123037058F7DFF994
:102970000023F1E703240000F7B5100015001F0045
:10298000019158F7FFFB0226002818D11B305FF792
:10299000B5F8041E00D100BE04260422019B1B884A
:1029A000A38163891E4013420BD101232A00390001
:1029B0001B4858F7A1F98C23037058F7B8F9300079
:1029C000FEBD08221E001640134207D101232A0033
:1029D0003900134858F790F90670EEE701210A20F4
:1029E00058F77CF80A220021606001F0FDFC0A2102
:1029F0002000FEF7ABF80423666801213380033B17
:102A0000FF3BF380019B70801B88280033721B0AF8
:102A10007372B78058F7A1FB0026FFF7CFFDCEE712
:102A2000051B0000F8B51B200E0015005FF766F8C7
:102A3000041E00D100BE280058F7A4FB012827D1AE
:102A4000082163682A00DF7912483B0219430423F6
:102A500058F752F90A2105002000FEF777F832787E
:102A600080232880BA4200D173782800AB7058F7D1
:102A70005EF9A978002909D16268537A107A1B029D
:102A80000343A38163891B0700D55170FFF796FDAF
:102A90000020F8BD160C0000F8B510001F000C0057
:102AA000160058F76FFB0223002818D124305FF777
:102AB00025F8051E00D100BE2078032811D9022375
:102AC00032003900124858F717F922784023027073
:102AD000032A00D84933437058F729F90023180016
:102AE000F8BD51F761FA0B4B9842E8D00121300054
:102AF00058F733FB23786278EB185A770023103CA1
:102B00006C610335EB77FFF7CBFC0123E7E7C046A9
:102B100001240000FFFF0000F8B508781D000C003C
:102B2000160051F741FA0E4B892798420AD01B2014
:102B30005EF7E4FF002800D100BE00272378C0180C
:102B40006378C374320029000223064858F7D4F88A
:102B500023784770037058F7EAF80020F8BDC046A4
:102B6000FFFF0000011B0000F0B587B0029304AB2B
:102B70000D00D91D0023170004AA9371288806327E
:102B80000B70FEF7F9FF041E35D124205EF7B6FF67
:102B9000002800D100BE04AB9B79032B39D1EB791F
:102BA000AA791B0213430193012B32D80121029B06
:102BB0001E0A83195A7F039304ABDB7999401300F3
:102BC0008B439C46019B012B02D10A43D3B29C4606
:102BD0006246039BF6B25A7731005EF7ADFF0223DF
:102BE00001003A000C4858F787F8039B06705B7F9A
:102BF000437058F79CF83A0002990423074858F7A5
:102C00007BF82B888470038058F791F8002007B078
:102C1000F0BD8024EFE7C04604240000160C00003D
:102C2000F7B505001B200E001F0001925EF766FF3E
:102C3000041E00D100BE019B9F4203D08020002FC4
:102C40001BD0FEBD6219D37C3343D374290020000E
:102C50005EF772FF2900060020005EF765FF022381
:102C600002003100074858F747F864190570E37C03
:102C7000437058F75CF80020E3E76219D37CB34354
:102C8000E3E7C046081B0000F0B51B2085B00C0030
:102C90001F0002925EF732FF061E00D100BE300018
:102CA0002188FDF76FFFA3888D25022B5CD10338A7
:102CB0003D0A082800D971E001F0D8FB4C70707013
:102CC000706270056900E379A2791B0213430193D6
:102CD000F389019A934202D8338A934202D2019B2C
:102CE000002B5DD1029858F74DFA02270390002877
:102CF0002DD1290030005EF71FFF029A0100042346
:102D0000284857F7F9FF019B0570438058F70FF8E3
:102D100001210A2057F7E2FE0A220399706001F0B0
:102D200063FB0A213000FDF711FF7468029B60808D
:102D3000A380FC235B422380019B012123721B0A99
:102D40000298E571A771637258F707FA00273800F7
:102D500005B0F0BDE379A2791B02134301210222E1
:102D60002800FFF75DFF050004233900029A0E4892
:102D700057F7C2FF23888570038057F7D8FFE5E730
:102D8000E379A2791B02134302210122E8E7E379E8
:102D9000A2791B02134304210222E1E70625E3E79F
:102DA0008025E1E7061B0000160C0000F0B587B097
:102DB000029304AB0191D91D0023039204AA9371DD
:102DC0000B70019B06321888FEF7D6FE0600050040
:102DD00024205EF793FE071E00D100BE0024A64209
:102DE00008D104AB9B79022B23D0032B23D0042BD7
:102DF00023D08025A31D039A02991E4857F77CFF14
:102E0000019B06001B88057103804480002D0AD1B8
:102E100004AB06331B78022B11D104AB07331B78AC
:102E2000FB189B7E4371300057F781FF002007B0ED
:102E3000F0BD0124DEE70224DCE70724DAE7032BF8
:102E40000CD1029B04AA1B0AFB1807325B7F127885
:102E500085711341012213404371E4E7042BE2D151
:102E600004AB07331B780530DB00191D79185EF7BA
:102E7000DDFED8E7140C0000F0B5100087B00F009D
:102E80001600019358F77EF90224002818D11B3050
:102E90005EF734FE051E00D100BE3B7C002B12D134
:102EA0006A89023314001C401A420CD1013B3200E3
:102EB0000199314857F720FF8C23037057F737FFEC
:102EC000200007B0F0BD0121152057F707FE15229D
:102ED0000021686001F088FA00236C686370019B30
:102EE000A380FF23E3713B7C002B3DD001232370A3
:102EF0002889023080B2230002AD083301932A00F2
:102F00003B00608083CB83C21B6805271360029A55
:102F1000DBB2110A6272A172110C120E2372E172FD
:102F200022739B0706D5200003A90D305EF78DFEA6
:102F3000C019C7B22B7B5B0704D56B7B019AD355B5
:102F40000137FFB20C2F06D80D22019B0021D21BA6
:102F5000D81901F049FA01213000A77158F7FDF89E
:102F60000024FFF72BFBABE7022307212800237087
:102F7000FDF7ECFDBFE7C046031B00001FB50024B2
:102F8000164B1C70164B1B78FF2B25D0154B1B784E
:102F9000A34221D0144B154A68461A60144B009383
:102FA000144B0193144B0293144B03935DF73AFCBB
:102FB000134B144A9C679A660622DA661A0054324A
:102FC0009483114ADC675A67104A04331288104A06
:102FD000DA6754220F4B1A861FBDC046685CFC0797
:102FE000804BFC07705CFC07845CFC07C915FC0780
:102FF00048004F00080017000100010038000101DF
:10300000A8CBFC07885CFC07CD30FC0754130050AC
:10301000C909FC070013005030B500251A4B1B4CA2
:103020001B7885B02570FF2B2BD0194B1B78AB423A
:1030300027D0184B184A68461A60184B0093184B53
:103040000193184B0293184B03935DF7EBFB174B5F
:10305000174A9D679A660122DA661A0054329583F0
:10306000144ADD675A67144A04331288134A144914
:10307000DA675422134B1A86134B1868FEF746FA88
:10308000207005B030BDC046804BFC07975CFC0744
:10309000705CFC07905CFC079515FC0748004F002E
:1030A000080017000100010038000101A8CBFC074F
:1030B0008E5CFC074D31FC0754130050C909FC0716
:1030C0001930FC0700130050884BFC0770B50C004A
:1030D00015005DF70DFC184B1B68002D01D0062C68
:1030E00006D0002B03D0002211001000984770BDBD
:1030F000124C22787F2AF4D8002BF8D0E178A078FF
:103100000A090001104362780904120310430C4AB3
:1031100025794243F020000308406179120D09022D
:10312000294349BA89B20843064941430648C90BB5
:10313000091809B20120D9E7845CFC07885CFC0708
:10314000102700007102000078ECFFFFF8B5002A9C
:1031500001D0012908D05DF7CBFB1B4B1B68002B6E
:1031600001D000209847F8BD184B08211B78184A59
:103170009C461F006046174B174E184D184C0F40C9
:10318000084213D1BE205170107097705A65032207
:1031900014499A65D9651F665A66043332882A88AD
:1031A000DC679423104A9B001386DCE7AC21117086
:1031B0007939517000215A65917003220B4F9A653D
:1031C000DF651966E8E7C046905CFC078E5CFC078B
:1031D0007C5CFC07A8CBFC07541300506013005024
:1031E000D908FC07F131FC07001300500932FC0735
:1031F00010B55DF77DFB034B1B68002B01D0002051
:10320000984710BD905CFC0770B50C0015005DF789
:103210006FFB064B1B68002B06D00020854202D0B6
:10322000033C60426041984770BDC046905CFC071B
:103230000122204B10B51A801F4B20491A7A1B20FF
:1032400000245CF743FB80211D4B22000B201C60F7
:10325000490023005CF7A0FBC021230022000920C5
:1032600089005CF799FB23000922210007205CF705
:1032700093FB23000A22210006205CF78DFBFDF75B
:1032800065FD104B1A0069321278A24208D01A006C
:103290006E331B786B321078012B08D15CF774FB0E
:1032A000012309490A889A4313430B8010BD5CF738
:1032B00063FBF5E70003005028CDFC07955CFC0795
:1032C0000000084028CCFC070C03005010B5FFF7A5
:1032D000AFFF144C230054331B78002B16D0124B35
:1032E00065331B78002B04D10122104B1A70104B50
:1032F000DA70FDF771FD2300002252342088543328
:103300001A70904202D0042157F727FD094B1B7811
:10331000012B05D1084B1878FF2801D05FF79AFCE4
:1033200010BDC04628CCFC07A8CCFC0778FAFC07E7
:1033300018FAFC07985CFC07804BFC072A4B10B579
:103340001B880400DB0507D51B205CF767FA012307
:10335000264A11880B431380A023DB051B882449D0
:1033600024480A881B079B0F0240DB0113430B8094
:103370002268214B1A606268204B1A60A268204BB9
:103380001A60E2681F4B1A6022691F4B1A6062695B
:103390001E4B1A60A2691E4B1A60E2691D4B1A602F
:1033A0001D4B1C601D4B1A681D4B1A601D4B1A6883
:1033B0001D4B1A601D4B1A681D4B1A601D4B1A6875
:1033C0001D4B1A601D4B1A681D4B1A601D4B1A6865
:1033D0001D4B1A6008221D4B1A801D4B1B88DB06F3
:1033E00001D500BE10BDFEE72A000050800000504D
:1033F000120000507FFEFFFF00F8FC0704F8FC07F6
:1034000008F8FC070CF8FC0710F8FC0714F8FC0798
:1034100018F8FC071CF8FC0720F8FC0728ED00E072
:1034200024F8FC072CED00E028F8FC0730ED00E064
:103430002CF8FC073CED00E030F8FC0734ED00E030
:1034400034F8FC0738ED00E038F8FC070033005092
:10345000140000500423344A70B5118801250B4331
:1034600013804023314A040011880B431380C0238A
:103470002F4A5B00D55008222E4B1A802E4B1B88FA
:10348000DB0506D51B205CF7C9F92C4B1A881543C0
:103490001D80A023DB051B88294A2A4811881B07A9
:1034A0009B0F0140DB010B4313802168264B196001
:1034B0006168264B1960A168254B1960E168254BAE
:1034C00019602169244B19606169244B1960A16955
:1034D000234B1960E169234B1960234B1C60234B7C
:1034E0001968234B1960234B1968234B1960234B30
:1034F0001968234B1960234B1968234B1960234B20
:103500001968234B1960234B1968234B1960234B0F
:103510001B88DB0607D500BE138821490B40043108
:103520000B43138070BDFEE71000005008000050F0
:1035300000E100E0003300502A00005080000050FD
:10354000120000507FFEFFFF50F8FC0754F8FC0704
:1035500058F8FC075CF8FC0760F8FC0764F8FC0707
:1035600068F8FC076CF8FC0770F8FC0728ED00E031
:1035700074F8FC072CED00E078F8FC0730ED00E073
:103580007CF8FC073CED00E080F8FC0734ED00E03F
:1035900084F8FC0738ED00E088F8FC0714000050C0
:1035A000FC7F0000C823E64AF0B513800023E54AFB
:1035B0000C2013800822E4499BB00A80E34907935A
:1035C000079B002B01DC00F014FDE04C0125A36BF0
:1035D000002B01D000F022FD206C616CEE176B0D0A
:1035E000F6021E43A563ED0205430E432A00330095
:1035F00022646364236B0125002B01D000F011FDD0
:10360000206C616CEE17EB0D76021E4325636D0294
:1036100005430E432A00330022646364A36A012534
:10362000002B01D000F000FD206C616CEE176B0EDA
:10363000F6011E43A562ED0105430E432A00330047
:1036400022646364636A0125002B01D000F0EFFC63
:10365000206C616CEE17AB0EB6011E436562AD01C6
:1036600005430E432A0033002264636400230022D2
:103670002264636400230793079B002B01DC00F0A6
:10368000D9FCB34E06AA3388951C9BB25380508850
:1036900080B200E000BF04222B88934301D000F0E9
:1036A0000DFD0121AB4A13888B431380082596201A
:1036B000A94A40001388A94F2B4313805CF756F8A2
:1036C0008023A74A11880B43F0211380A54B890161
:1036D0001888014319800621388888433880802063
:1036E0001E88C001304318809B489F4E00883040A0
:1036F000994E30800E261088B043014311809B49BB
:103700000988C90501D400F0DDFC3988984A1140C8
:103710008022D2000A4380213A803A8809021205A9
:10372000120D0A4304213A801A882A431A801A8803
:103730008A431A803A8803398A433A80402219889A
:103740000A431A8003261A88012732431A8060230D
:10375000022581490A889A43403B13430B80854BDD
:10376000854A009364331F70138884492B43138068
:103770000422834B1A80834A13880B4013808021D4
:10378000C023814A5B004902D150804B03936F4BA9
:1037900003991800083002935DF7C8F928005DF717
:1037A0008DF97B4B1A683300D2B2AA2A00D03B00B5
:1037B000A0220C21D20516889B008E431E43168042
:1037C00000E000BF200006227249483000F038FEB9
:1037D000012000E000BF00236F4C0AAD2600290045
:1037E0009C46883633806D4B04933C3385CB85C132
:1037F00085CB85C185CB85C12B00624620006849F9
:103800005BF734FE3378DB0700D500BE2200883238
:1038100013785B081370230089331B78DB0700D50E
:1038200000BE2200893213785B08137023008433B2
:103830001A88002A02D1FA2292001A8022008632C7
:103840001388002B0CD1FF21514B09021B680B4040
:10385000D42189018B4201D000F05DFC90231380BC
:10386000009B863420886A3318805BF7E9FC7F224E
:10387000029B02984E331A704A4B03991A684A4BBE
:1038800008301A605DF7FEF9484B494F1A6800236B
:10389000BA4209D0474C484A484958180068191993
:1038A000043308609342F7D1454E00213000454A69
:1038B00000F09AFDE0220021D200434800F094FD80
:1038C00000F072FD414B424A42491A6042483022A0
:1038D00000F0B6FD00243F22404B04991A705C7042
:1038E0009C70DC701C715C719C71DC712800603113
:1038F000013200F0A5FD29004022394800F0A0FD6A
:10390000FF22384B01211A705A709A70DA701A71BE
:10391000FC3A5A719C71DC71334B344A1C70344B45
:103920001A60344B344A1A60344B354A1A600A2202
:10393000344B1A70344B053A1C70344B1A6067E0F4
:1039400000310050023100500233005028CDFC07F6
:10395000040300501003005052000050800000503B
:103960005400005020030050FFBFFFFF2A0000500A
:10397000FFF0FFFFA8CCFC0738000050FFF7FFFF67
:10398000000200500400005000E100E0955CFC07DC
:10399000D02FF807D42FF807D0CDFC07A844FC0798
:1039A000A000FC07E82FF807745CFC07485CFC07E4
:1039B000658734125CCEFC07040A000000F0FC07A7
:1039C00000E0FC07AC14000000F9FC0724FAFC0737
:1039D000B447FC075CDEF107C8F9FC07A4F9FC0753
:1039E0003CFCFC07ACF9FC07C5F9FC07E036F20724
:1039F00050F9FC0754F9FC073049FC0758F9FC075B
:103A00002848FC07A1F9FC07A2F9FC075CF9FC07B0
:103A1000E04B1960E04B1A60E04B52181A60E04B23
:103A200052181A60DF4B52181A60DF4BFE321A60D0
:103A3000DE4DDF4B2E601A60FFF7FAFB5BF72EFBC3
:103A40005BF772FBDB49DC4B0A881A40E0231B0161
:103A500013430B805BF784FBD84E3368BB4236D0F0
:103A60002A68D74BD7491A60D74B1B681A0A0B70C4
:103A70004A701A0C1B0ECB70D44B8A705A000392FA
:103A8000C022FF3294461A78039802926246D21AF4
:103A9000125C02980134424003200492029A0240D0
:103AA000885C049A42401A70E0220133520094422A
:103AB000E9D1C74CA53A2000C449FF3A5CF7F4F9B4
:103AC000002800D000BE20005BF72EFC376028687D
:103AD0003EF7C0FB00238022BE4CD2052371116843
:103AE000E3700133FF330B431360FDF717F9012037
:103AF000FEF75EFA009B65331B78002B02D1B64AB5
:103B0000E3701370B54F0C223E0074360021300074
:103B100000F06AFC08220025B148B24982700330E7
:103B200000F08EFCB04BB14904205D8457F7E3FAF6
:103B3000FF232900B370042057F70FFBFDF746F968
:103B40003B00683318705FF70BF9009B65331B78F7
:103B5000AB4203D10122A04BE2701A70FF22A44BAA
:103B6000FA211A700023A34A49001370A24A137065
:103B7000A24A1370A24A1370A24A1370A24A137089
:103B8000A24A1160A24A1370A24A1380FEF770FA8B
:103B9000C823A14A1380A14AC03B1380A04BA14A6D
:103BA0009B189B08013B0593FCF7D0FB002800D134
:103BB0009FE057F77EFD0020FEF7FAF99A4B70332D
:103BC0001C78042C00D094E00120FEF7F1F90023CA
:103BD000210009A8099348F7BBFB002800D188E021
:103BE0000122924B1A601A68002AFCD1904B914C2A
:103BF0001B68216D8B4200D22265C821226D09010C
:103C00009A1A8A4200D274E0002523658A4B0AA8DA
:103C10001B888A4F9BB20093894B8A4E1B889BB2AC
:103C20000293894B1B889BB20393884B1B880B958F
:103C30009BB20493864B0A93FEF7A0FB22003B88BD
:103C400054329B059B0D13808022338856349B058C
:103C50009B0D23803B8892009B0A9B0213433B8071
:103C600033889B0A9B021A4332805DF701FA794B35
:103C700002001988FA23401A9B004343AB4200DC40
:103C800053E2754A9818754959F72EFB694B841110
:103C90005433198880231934E2B2DB0064B29942AC
:103CA00000D300BE3B88634D9B0A9B0219432B0047
:103CB0003980563319888023DB00994200D300BE37
:103CC00033889B0A9B0219430023318059494E31A6
:103CD000CB567F2B00D02EE20C70029A584B1A80E4
:103CE000039A594B1A80049A584B1A80524B009AE7
:103CF0001A8072B600235A4F09AC3A682370926A50
:103D0000364D0A922A00543212789A4203D1314A2F
:103D10001279022A00D10A93524E21003000524AF1
:103D20005DF73EFA002800D001E154352B78002BD6
:103D300006D14E4B9B6A002B02D03B689B6A0A93CC
:103D4000FEF756F930000AA95DF760FA002800D0A6
:103D5000EDE001305BF730FD0A9B002B07D0444AB1
:103D60001268393AFF3ADA2A01D8013B0A93414BEB
:103D70002D4E1868330066331B883F493F4A1B1895
:103D80000B6013683E4D9B0A9B020343136010684F
:103D90002B6877E060F9FC0764F9FC0768F9FC0719
:103DA0006CF9FC0770F9FC0748F9FC074CF9FC07B3
:103DB00044F9FC0726000050FFF0FFFF485CFC07B9
:103DC000080200406C5CFC07745CFC075CCEFC07DE
:103DD0009C5CFC0718FAFC0778FAFC0728CCFC0767
:103DE00028CBFC079E44FC072ACBFC074845FC0770
:103DF000804BFC07705CFC07975CFC07685CFC0769
:103E0000945CFC07715CFC07985CFC07884BFC0722
:103E10007F5CFC07805CFC070031005002330050DF
:103E2000944BFC07030004F8A8CCFC07FC000040FE
:103E30001C00004028CDFC0700150050081500505C
:103E4000021500500A1500500415005006150050C8
:103E5000010400006A5CFC077E040000FC0800000E
:103E600058F9FC07785CFC07151EFC0700FEFC07F0
:103E700020000040B05CFC07AC5CFC073C0000404C
:103E8000B45CFC07D44F9B023840034313601068B6
:103E90000B68C1025B05C90A0B43136004230A982F
:103EA0002370CE4B984200D900BECD4F00213A6C12
:103EB0007B6C59F72DFA2A680903000D0843C94B9A
:103EC0000138511CD865884200D1DA65C64AD86DE0
:103ED00011794A1E9141C9B245F76EFCC34BDB6AAA
:103EE00098478023C2491B020A681A42FCD08023EB
:103EF000C04D5B002A681A42FCD080222B68934395
:103F0000BD4A2B6011888BB2452903D84621CB1AB4
:103F1000FB6411803EF7D9F98021B84B1B68F3662A
:103F20002B680B42FCD0B64A13888B43138023784E
:103F3000042B05D1B34B1B78013B5A1E934102332E
:103F40009A1E012A00D992E104220127AE48AF4E01
:103F500001881025114301803169AD481143316159
:103F60000188AC4CB9430180022B00D002E12388C8
:103F7000AB4323800022A84B1A80A84B1B88DB058B
:103F800009D40123A64A11880B4313806022A54956
:103F90000B8893430B800124A34A0D201388A3436D
:103FA00013805BF7E3FB0321A04A13888B431C4378
:103FB0009F4B14801A88D20602D59E4A0531118083
:103FC00030BF1B88DB0602D508239B4A1380602381
:103FD00094490A889A43403B13430B80FFF728F922
:103FE000042233699343336162B6C823934A138032
:103FF000DAE500220892089B0B2B04DD079B0133B6
:104000000793FFF7DDFA079B089C43431B199B00AE
:10401000CB18DA60089B01330893ECE76D42FFF799
:10402000DBFA6D42FFF7ECFA6D42FFF7FDFA6D42E5
:10403000FFF70EFB00236B4D0893089B0B2B03DD52
:10404000079B0133FFF717FB089B079A01229A4051
:104050001305F5D00C21079B089A4B439B189B0036
:10406000EB18DB68013300D100BE0C20079B089AD7
:1040700043439B189B00EB18DB68002B1AD0079B6F
:10408000089943435B189B00EB18D868089A079E71
:10409000C117029659F7D0F92E6C6F6C029B1A016A
:1040A00059F7CAF93043394300900191009A019BB6
:1040B0002A646B64089B01330893BEE700233380B6
:1040C000FFF7F4FA5E4E5F4930880840C021C9000E
:1040D0000143F0203180318800020143318019888A
:1040E000A943198004211888574D884318801088E7
:1040F00028401080158855480540C02040012843BD
:1041000010800122308802433280444A12880A42D9
:10411000FBD0FFF717FB4E495B184E490B4201D00D
:10412000FFF79EFB9423FFF79AFB28008A4200D1F9
:10413000A9E5494AA6E5DBB2D11A48B2090601D57C
:104140009B1A58B2072800DCC7E5AB6D0133AB659D
:104150005DF740FA4E35FDF7B5FFFCF7E1F95DF785
:1041600077FA5DF7FDF93D485DF7A4FA5DF748FA87
:104170002C70B2E523883A492B43238023881343CC
:104180002380184B1800083000935CF7CFFC23887D
:10419000059A1D43334B25801A60EFF3108287F395
:1041A0001088A0218020C9050B8883430B80002A3A
:1041B0005AD182F31088194B1B88DB0500D4D9E64D
:1041C0000023009A0B2013725BF728FB01231C4984
:1041D0000A8813430B80CDE6FF03E0FF3F420F0048
:1041E000A8CBFC0728CDFC0718FAFC07E4FEFC0767
:1041F00030000040000200400A3300500802004036
:104200000800005078FAFC071000005000ED00E0B4
:104210000C03005012000050180000502A000050FB
:104220005600005052000050240000500A00005078
:104230001400005000330050023300500031005091
:1042400080000050FFF0FFFFFFF9FFFFFFC7FFFFF7
:1042500000CDFFFFFFFEFFFF82FBFFFF70E0FC07CA
:10426000955CFC072000F40787F31088A3E7012B77
:1042700000D0B9E630BFB7E6F0B50546007985B0A5
:1042800007073F0F28463EF7E8FB029028794006D3
:10429000C00F039028463EF7E0FB4448806A8079CF
:1042A000012825D00126414840300079800775D586
:1042B000002E73D000222B2311463D4856F71CFDDB
:1042C0000227077001263B4946700446C969A87950
:1042D00088472A210855287900210007000FA0707F
:1042E000030059F7B9F80737393B423F423D4200D6
:1042F000029801902D4814300090002604680BE0CD
:10430000611D01983EF7BFFC002804D02079B84217
:1043100001D101261BE02468002CF1D100983EF762
:10432000A8FC25490978884202D1244806780EE085
:1043300000210C2056F7D2FB04460622401D0199AD
:1043400059F736F82771214600983EF7C3FB012044
:104350004640A8E7A1700AE0A67021E0032002E031
:10436000A77004E00420A07001E0012818D0A888FC
:10437000000A801FA07228463EF76FFB811D204671
:10438000A27A0B3059F714F80622201D029959F72A
:104390000FF80398E070204649F730FD05B0F0BDF6
:1043A000A172F1E7704770477047000074FBFC078B
:1043B00004080000E4FEFC07A1F9FC07A2F9FC07D1
:1043C000074B10B50400002B02D0002100E000BF15
:1043D000044B1B68002B00D09847200000F03AF8EF
:1043E00000000000BC5CFC0703008218934200D16F
:1043F000704719700133F9E770B500260C4C0D4D6C
:10440000641BA410A64209D1002600F039F80A4C1A
:104410000A4D641BA410A64205D170BDB300EB5831
:1044200098470136EEE7B300EB5898470136F2E7BC
:104430008C4BFC078C4BFC07904BFC078C4BFC0710
:10444000002310B59A4200D110BDCC5CC454013396
:10445000F8E70000FEE7C04602B47146490849008B
:10446000095649008E4402BC7047C04602B47146EA
:1044700049084900095C49008E4402BC7047C046A7
:10448000F8B5C046F8BC08BC9E467047F8B5C046B3
:10449000F8BC08BC9E467047E60303091800444C6C
:1044A000475F5448524D000000010203040506070F
:1044B00008090A0B0C0D0E0F0BFF00D2444C472DC0
:1044C0005448524D000000005BB00502000000009F
:1044D0003200000001060200000000010105020098
:1044E000000300016504FC072912FC075D12FC07AC
:1044F000000000008104FC071D04FC070000000010
:10450000D02EF807C02FF8072000800000C0000060
:104510000000040000002822000000000000040049
:1045200000F7FFFF7F00000030F0070800000000E8
:104530000004000000000000000000000000000077
:10454000000000000000000000000000983BF2079F
:10455000CCCDFC070400010001240000D902FC07B7
:1045600003240000DD02FC0704240000E102FC0734
:10457000130400008D10FC07140400001111FC0747
:10458000011B00004503FC07031B00004903FC0757
:10459000061B00001D19FC07081B00009918FC07EA
:1045A000FD31F2071516FC071103FC07A511FC07E6
:1045B0005911FC078511FC07F8000000130E0000DC
:1045C0007514FC07150E00004D1CFC07170E0000AB
:1045D0008103FC07190E00008503FC07150D000080
:1045E0009D03FC07002800000100000000000000FF
:1045F000032800000100000000000000192A00004C
:104600000100000000800000022900000980020073
:1046100000000000042900000100000000800000EC
:104620002846FC070600000000240000992AFC0729
:10463000022400000D29FC07170C0000F91BFC07E1
:10464000150C0000692BFC07130C0000AD2DFC07B6
:10465000000C00009125FC079D26FC078324FC0725
:10466000110BFC07210BFC0780000000F522FC0762
:10467000020000001923FC07080000002123FC07AA
:10468000000100003D23FC070002000075C1F00797
:10469000400000003794F00710000000C97BF007CD
:1046A00004000000C922FC07010000000123FC07F0
:1046B000200000005108FC0700000000000000007E
:1046C0000028000001000000000000000328000096
:1046D00001000000000000001C2A00004000000053
:1046E0000080000002290000090002000000000014
:1046F0000328000001000000000000001D2A000047
:1047000001000000008000000328000001000000FC
:10471000000000001E2A00000002000000800000CF
:104720000229000009000200000000000328000028
:104730000100000000000000212A0000010000002C
:1047400002800000022900000900020000000000B1
:104750000629000001000000008000006447FC07FB
:1047600008000000001B0000192BFC07170C0000BC
:10477000D119FC07150C0000892CFC07130C000054
:10478000351AFC07000C00009126FC07021B0000F4
:10479000792EFC07041B00007929FC07071B000089
:1047A000252AFC07F527FC07A125FC07390BFC0788
:1047B000C511FC070000000000000000F40110001B
:1047C000F4352348F40108C4140A00002400000052
:1047D0009D0FFC072910FC071B000000E90FFC07D8
:1047E000BD18FC07FF0000000000000000000000F2
:1047F0001B000000450BFC0724000000310BFC07E8
:10480000FF00000000000000990EFC076D02FC078D
:10481000C44AFC077911FC07A045FC079CCCFC07A7
:1048200064CBFC0788CDFC0705000000C052FC07E4
:10483000000400000450FC07B0020000F84BFC0725
:1048400000040000CC56FC077005000020030000A7
:1048500000A60E0004000000D2000000320000009C
:104860003C00000001000000010000000200000008
:104870000200000004000000030000000600000029
:104880000000000002000000020000000000000024
:10489000000000000300000003000000050000000D
:1048A00005000000060000000A0000000A000000E9
:1048B000C8000000B80B000002000000B80B0000A8
:1048C000B80B000010000000D4010000CC01000073
:1048D000700200006A0000000400000001000000F7
:1048E000200000000C00000001000000E2040000B5
:1048F0008A020000DC050000AF000000B04AFC079F
:104900002049FC0700000000B84AFC070848FC07E3
:104910000000000000000000000000005E01000038
:10492000A04BFC07984BFC07B04BFC07F04BFC0777
:10493000F520FC07D121FC07A7C6F00703C7F00745
:104940000BC7F0075FC7F00777C7F0078DC7F00701
:10495000AFC7F00731CBF007D5CDF00715CCF00786
:1049600035CCF00755CCF00793CCF007A3CCF0077B
:104970000DE2F007C9DFF007E7DFF00703E0F0071B
:104980001DE0F00731E0F007AFE0F007C7E0F00707
:10499000E3B0F1076BB3F10707A9F007B5EFF10733
:1049A00099F0F10795F0F10791F0F1078D21F007EB
:1049B000F903FC07F907FC077120FC07C903FC0792
:1049C000E903FC07057DF007D37BF007737CF00754
:1049D000AD82F1074134F1075D19F207DD19F207E5
:1049E000811AF207BD1AF2074D1BF207851BF20769
:1049F00000000000F303FC07F503FC077DB3F0079C
:104A0000D976F107617DF107B181F1079780F10750
:104A1000C549F1079759F107F10AF107A1ECF00731
:104A2000F103FC077942FC07DDBAF00725AAF0077D
:104A300099AAF00749ABF007E72DF007A32EF0077E
:104A4000657FF0072F7EF0070136F00700000000B9
:104A50009120FC07A11FFC07BB13FC0701A7F1076E
:104A600083A7F10707A8F1079512FC07B5B7F00770
:104A70000000000000000000000000000000000036
:104A80000000000000000000000000000000000026
:104A90000000000000000000000000000000000016
:104AA0000000000000000000000000000000000006
:104AB000BC47FC0770CDFC07F047FC079CCDFC070A
:104AC00002000000B91EFC07651FFC070000000083
:104AD000000000001518FC0700000000B50DFC07E1
:104AE00000000000811EFC07000000000000000024
:104AF00000000000DD11FC07E502FC07F102FC07E5
:104B0000F511FC07000000000303FC078913FC07F4
:104B1000000000000000000000000000950FFC07EE
:104B20004513FC070000000000000000D513FC073F
:104B30000000000000000000000000000000000075
:104B40000000000000000000FF0000000000000066
:0B4B5000000000000300001000010046
:084B5C004CB6FF7F01000000D0
:0C4B6400804BFC07804BFC071400000095
:104B70004C5CFC077400000028CBFC0734030000E9
:104B8000FF000000E0010000F40100008501FC07C7
:044B90005901FC07C4
:104B9800000000000000000000000000000000000D
:104BA80000000000000000000000000000000000FD
:104BB80000000000000000000000000000000000ED
:104BC80000000000000000000000000000000000DD
:045C48000000000058
:0400000507FC0E0DD9
:00000001FF
