:0200000407FCF7
:10000000906EFC072D0EFC074D02FC072D02FC072D
:100010002902FC072902FC072902FC072902FC0728
:100020000000000000000000000000002902FC07A2
:1000300000000000000000002902FC072902FC0764
:10004000AD24FC07AD25FC07A526F007A90CFC078D
:10005000A50AFC072902FC077508FC072902FC0712
:100060002902FC072902FC07B526FC07BF26FC076E
:10007000C926FC07D326FC07DD26FC072902FC075E
:10008000B51FFC07D50AFC072902FC072902FC075B
:100090002902FC072902FC072902FC072902FC07A8
:1000A0000000000090070E000000000000000000AB
:1000B0000000000000000000000000000000000040
:1000C0000000000000000000000000000000000030
:1000D0000000000000000000000000000000000020
:1000E0000000000000000000000000000000000010
:1000F0000000000000000000000000000000000000
:1001000000000000000000000000000000000000EF
:100110000448054B10B5834203D0044B002B00D09C
:10012000984710BD5856FC075856FC0700000000C1
:1001300006480749091A8B10C90FC91810B549108C
:1001400003D0044B002B00D0984710BD5856FC0735
:100150005856FC070000000010B5074C2378002B10
:1001600009D1FFF7D5FF054B002B02D0044800E072
:1001700000BF0123237010BD0C67FC0700000000C6
:100180002056FC07054B10B5002B03D00449054849
:1001900000E000BFFFF7CCFF10BDC046000000002C
:1001A0001067FC072056FC07402292029A1A9246DA
:1001B0007047C046174B002B00D1134B9D46FFF7ED
:1001C000F3FF00218B460F461348144A121A04F01D
:1001D00097FD0E4B002B00D098470D4B002B00D005
:1001E00098470020002104000D000D48002802D08F
:1001F0000C4800E000BF04F08BFD2000290003F054
:1002000045FE04F069FDC046000008000000000043
:1002100000000000906EFC070C67FC079067FC076D
:100220000000000000000000FEE70000042071460E
:10023000084203D0EFF3098003490847EFF3088031
:100240000149084770470000253CFC07042071461F
:10025000084203D0EFF3098003490847EFF3088011
:1002600001490847704700003D3DFC07F8B50020F4
:100270000C250126154B164C1A78290051430F5DA9
:10028000FF2F0FD1002800D01A700C255A78114882
:10029000290051430C5CFF2C0FD1002201201A7061
:1002A0005A7009E06118496801323000D2B2002961
:1002B000E3D01A7088470020F8BD41184968013220
:1002C000D2B20029E4D05A70F4E7C04628CBFC072C
:1002D0000C56FC077C52FC0700207047002070473A
:1002E0000020704770470000014B9B8C03807047D3
:1002F00028CBFC0708230380DB184380002383807E
:100300007D33C380704701230B7000234B808B80AB
:1003100070470000094B10B5C21893B20120042B9E
:100320000BD80024064B92009818836AA34201D090
:10033000846298470020029B1C7010BDF2FBFFFFF7
:1003400028CBFC0770470020704700000B78002B7B
:1003500006D0044A044913888B4201D0013313802C
:10036000002070474267FC07FFFF0000094B012295
:100370001B88DB0918001040134208D0064B0020F0
:100380001B681B0403D4054B1B889A4310000123F0
:1003900018407047080000503000004018FAFC0771
:1003A00000207047180A7A234343034A0020D218DA
:1003B0000B78B4321370704728CBFC0700207047CD
:1003C000084B10B5DA6B80231B02984207D3002339
:1003D00019005CF79DFF8905800A084310BD504352
:1003E000800AFBE7A8CBFC07044B10B59B6B0449C4
:1003F0005843044BC0185CF761FF10BDA8CBFC0745
:1004000040420F0020A1070010B5FFF7D9FF10BD33
:100410007047704770470000064B984200D000BEFE
:100420000321054A13888B43802109020B43138063
:100430007047C0461111111112000050F0B51E286E
:1004400005D10E4B4908D218CBB2002B00D1F0BD1C
:100450000B4800210600146855680832076BBC423F
:1004600006D10631C90071184D60013BDBB2ECE7E3
:10047000013108300629F1D1F7E7C046D42EF8073C
:10048000E8CDFC07044B8900D2188918034B0A6891
:100490007C331A807047C046D02EF807E8CDFC07A1
:1004A0000B4B10B5D2181068116880B2090C0B1AEA
:1004B000084A9BB29C080133E31814007E34238061
:1004C000092343435B1A1BB2DB108032138010BD3B
:1004D000D42EF807E8CDFC0700207047704770471E
:1004E00010B5031CE6280CD9084B1B78EC20FA2128
:1004F000DBB2FF30584389005CF7F6FE7E38C0B2AD
:1005000010BDC2B2282AF1D22823EFE7B04DFC0774
:10051000704770474B1E012B00D900BE431EDBB253
:10052000FD2B04D800BE0C20022902D17047FF2801
:10053000F9D1024B48331878F8E7C046A8CBFC073E
:100540007149724B0A6870B51A40B0231B011343FE
:100550000B606F496F4B0A68FF2492B213436E4AD7
:100560000B6013686D496E4D0B40C02113606D4ADE
:10057000890013686C4E0B43136010236B4A10887C
:100580000343138001236A4802881A430280694AA0
:1005900069481060694A10880343694813800288DB
:1005A000684B1A40BC239B00134303806648674A8C
:1005B00003685B0D5B05134303606548654B026888
:1005C0001A4090235B01134303606348634B026846
:1005D0001A40634B134303606248634B02681A403E
:1005E000624B134303606248624B02681A40624BDD
:1005F000134303606148624B02681A40614B134326
:100600000360614B614848331A78C12312065B01CD
:1006100013435F4A1360A0225E4B52011A805E4B67
:100620005E4A1A8034230288A24313430380552371
:100630005B480288A24313438D220380594B9200EA
:100640001A80594B594A5A481A805A4B5A4A6C24B4
:100650001A805A4B5A4AFF341A805A4B5A4A1A8007
:100660005A4B5B4A1A8002685A4B1A405A4B134342
:100670000360B020594B80001C802A88584B1A40D8
:1006800002432A809022358892001D402A433280FE
:10069000A822544E920035881D402A43524D328084
:1006A0002A881A4010432880C620504A40001080F3
:1006B0004F4802881340194301801F2017234D49DA
:1006C0000A88824313430B8019234B490A888243CB
:1006D00013430B80494B4A491C800A88494B1A40F6
:1006E00080239B0113430B80072347490A689A43E1
:1006F000043B13430B604549454B0A681A40454B80
:1007000013430B6070BDC04634300040FF80FFFFD4
:10071000203000400000666638300040FF00FEFFD9
:100720003812004050300040441200405C3000401D
:10073000243000408000004059055C074010004014
:10074000202000400FFCFFFF1820004009581A002D
:100750001C200040FEE1FFFF04200040E0E000001C
:10076000080929490820004000000303696A686CF1
:100770000C200040031FFFFF7060000010200040AD
:10078000E0E0E0E00B0A0A08A8CBFC0740130040B9
:1007900000100040281300402C13004005140000F6
:1007A000481300405013004054130040340A000026
:1007B0003C200040581300404E0800005C130040ED
:1007C000260A000060130040580800002C2000405A
:1007D0000A1400002304E0FE181A0601001200406B
:1007E0001FFCFFFF481200404C1200400412004062
:1007F00088120040981200409C120040A81200404D
:100800003C100040FF9FFFFF80100040641000403C
:1008100000FE00FE500150010F4B10B51868FFF7A5
:10082000CFFD00220D4B0E49DC6CDA640419200068
:100830005CF744FD0B4B0A49186020005CF73EFD55
:10084000002901D0064B591A074B084A19600821A4
:1008500013680B43136010BD38000040A8CBFC07A1
:1008600071020000440000404000004030000040A1
:1008700000BE70470122044B10B51A80034B1B6D5C
:10088000002B00D0984710BD0E150050A8CBFC07D8
:10089000FA22030010B50020D200934209D3054A82
:1008A0006430934205D8044A0A2198185CF71CFD6D
:1008B000C0B210BDB80B000030F8FFFF00210B4B99
:1008C0000200181D70B5C167094810250186C020B7
:1008D000084C40002550DC6D59658C4204D019004D
:1008E0005431C988186EA04770BDC046A8CBFC071C
:1008F0000013005000E100E0F7B5430605D50020E5
:10090000FFF7DCFF244B1B88F7BD244980250B0033
:1009100002005433AD009C882A40DB88284215D160
:100920004D6E02264F6D29003140481E814149021B
:10093000019198B2A0421CD21949098831420DD1C7
:10094000002AE1D0154B5433D880DDE7E31A5A4230
:100950005341D8B2FFF7B2FF124BD4E7FA5C013330
:1009600000209C4200D1019802430F4802820122DC
:10097000DFE7002A02D0094B5433D880A042C3D10C
:100980000120054205D01021074A138E8B431386A0
:10099000BAE7FFF793FFB7E754130050A8CBFC0763
:1009A00070130050601300500013005000210B4BD7
:1009B0000200181D70B5C167094810250186C020C6
:1009C000084C400025505C6F99668C4204D0190099
:1009D0005431498B986FA04770BDC046A8CBFC0727
:1009E0000013005000E100E0F8B5400625D4284B84
:1009F00002241A005432108BDA6F224051424A41CD
:100A00005242520A1D005435A98B81421ED3012542
:100A10001A000024AC465432528B996E89189042C9
:100A20002BD93F271B4D2E88551CADB23E421DD100
:100A3000002C07D054335A8304E00020FFF7B6FFA0
:100A4000154B1B88F8BD802149000CE0134E3688F9
:100A50002642DCD0013189B2A9838142F3D1C0257D
:100A60005102AD0049190E4D2982CBE70C4A64466C
:100A7000128A0A702A000131D1E7002C01D05433C8
:100A80005A839042DED10120FFF790FFDAE7C0469B
:100A9000A8CBFC077813005054130050701300507B
:100AA0000013005010B5084B988D084B80B20433EA
:100AB000DB6F002B01D0984710BDC0231021044AE2
:100AC0005B00D150F8E7C04600130050A8CBFC07EC
:100AD00000E100E0134B10B51C68230509D5012384
:100AE000114A11680B431360104B5B68002B00D058
:100AF0009847E30409D502230B4A11680B4313609E
:100B00000A4B9B68002B00D09847A40409D5042306
:100B1000054A11680B431360044BDB68002B00D0BF
:100B2000984710BD084000501440005028CCFC07E6
:100B30000369022900D900BE00225B185A7770476A
:100B40000369022900D900BE00225B185A7770475A
:100B500000487047F44FFC077047704700487047E3
:100B60006051FC0730B500220124038B408B013318
:100B70009BB205001541254206D08A4202D10133BD
:100B800098B230BD02339BB20132092AF1D1002064
:100B9000F7E7002203695B18DA7470470048704772
:100BA0005452FC0710B50389032914D94289012442
:100BB00010002040224200D110BD05290BD902248B
:100BC000100020402242F7D0082904D90424100044
:100BD00020402242F0D05B1898B2EDE710B50289B0
:100BE0000400FF208A4206D8131D9BB2994203D20B
:100BF000081DC01AC0B210BD6489E00706D50632D0
:100C000093B2994202D20631C81AF3E7A20705D57A
:100C100003339BB2994201D20931F5E7FF20620705
:100C2000E9D59A1C92B2914202D20B31881AE1E7BF
:100C3000200704D50B209142DDD003339AB2FF2068
:100C4000E406D8D58A42D6D1F338D4E7F7B50024E4
:100C50000126134B1349D88F9A6B9F8F1218874226
:100C60000BD8002C00D0D88701248A88A2438A8020
:100C70009B6C002B0CD098470AE08D8AAC46451C33
:100C8000ADB201956546354203D1002C00D0D8871E
:100C9000F7BD08883400107001980132DFE7C046C4
:100CA00028CCFC0700110050F7B52F4C0F232089EA
:100CB000184001380B28F9D804F05AF85413F841B9
:100CC000F8444EF8F8F8F806FFF7C0FF0122A388B1
:100CD0009343264AA380936C002BE6D0D08F98478D
:100CE000E3E7224B988EDA8E82421CD21A6B2026C2
:100CF0000192022294461E4FD98E8842D5D93F25B3
:100D00002289AA43D2B2C02A09D165463A882A422A
:100D1000CBD04A1CDA86019A525C2280ECE7A28A88
:100D20003242F6D1C1E70221A2888A43A280A2887A
:100D30007E318A43A2805B6C002BD0D1B5E7FFF7F0
:100D400085FFB2E7094B1B6C002BAED09E22A18A17
:100D5000114005489847A8E7044B1B6C002BA4D012
:100D60000121F6E7F7BDC0460011005028CCFC0772
:100D70007C1100500D4B0E4A10B51C005A65002224
:100D800054341A66E28003325A660A4AD965110061
:100D9000A080543109881100603109880649043364
:100DA000D96794239B00138610BDC046A8CBFC07CF
:100DB0003D67FC0700130050F908FC071E22084B92
:100DC0001A80084B1B3A19880A431A800422198892
:100DD0000A431A800122044B50331A707047C046F0
:100DE000021600500016005028CCFC0710B501F088
:100DF0000FFCFFF74DFD10BDEFF31082012383F3CD
:100E0000108808490988090603D40749088803435C
:100E10000B80002A02D182F310887047012383F3EC
:100E20001088FAE7080000500833005070B5144BE2
:100E300083F3098813485DF74FFE134B1348834231
:100E400011D30020124B13498B4217D3FFF7B2F98D
:100E50001C68910065585C680132655099688A4247
:100E6000F6D30C33EBE70022F8E71C689500285115
:100E700001325C68A242F8D30833E5E70022F8E7C4
:100E8000906EFC07A000FC072856FC073456FC07B0
:100E90003456FC074456FC0710B561F7F9FE054BC4
:100EA00000211A00513211705A6D8A4201D05965E1
:100EB000904710BD28CCFC0770B5194EB56D002DBC
:100EC00028D12C2304220921164859F715FF164B67
:100ED0000400038010222900B06545800A3003F029
:100EE0000FFF80239B016383F72323840F4BA5838C
:100EF0001A00E5837E32658411880A1CFB2900D91B
:100F0000FB22E28480331988094A0B1C914200D9E4
:100F1000131C2385B06D59F70AFF0023B36570BD1C
:100F200028CCFC07040D0000030A000074FBFC073A
:100F30004808000070B50A4C85006619F36D002B57
:100F40000BD10A21000201431E330422054859F740
:100F5000D3FE0823FF330380F0656419E06D70BD94
:100F600028CCFC07140E0000F8B50F4C850066195C
:100F7000336E002B11D10A21000201431E330422DB
:100F80000A4859F7B9FE07220700306608490230BF
:100F900003F0E2FE0223FF333B806419206E59F711
:100FA000C6FE00232366F8BD28CCFC07140E000003
:100FB0001856FC0710B5FFF7D7FF10BD10B5042277
:100FC00009211C230E4859F797FE1B2304000370C8
:100FD000242061F799FE04220A4B228262600121DB
:100FE0000222A3810023A174FF3223316070E381C8
:100FF000200061802281A37259F799FE10BDC0467E
:101000001B0D0000AD27000010B5042209210A23A2
:101010000A4859F771FE1B2304000370142061F77E
:1010200073FE14236380103B63607423FF3360708E
:101030002381200059F77BFE10BDC0461B0D000028
:1010400070B50422092110230A4859F755FE1B25C3
:1010500004000570280061F757FE04236360064B07
:101060006070A360054B65802000E36059F75FFE68
:1010700070BDC0461B0D00001D0201002C010500C3
:1010800070B50400242041F79EFB0423010090204A
:101090001A00800159F730FE04700F4C002526001D
:1010A000643633784570C570837059F740FE23006D
:1010B00065331D70230066331D70230009226733DA
:1010C0001A70064B042106486834013235702380BB
:1010D00061F7ECFD70BDC04628CCFC07701700001E
:1010E0001304000070B51600FFF780FE1A4C0500CF
:1010F000230064331B7883420DD0242041F763FB27
:10110000022301000422154859F7F6FD002345701B
:10111000037059F70CFE230064331D702300653300
:101120001B78002B0FD0042D0DD8230067331878BF
:101130005EF72AFC230001226A331A700421084852
:10114000C73261F7B3FD683431002288054861F782
:10115000ADFD002070BDC04628CCFC070224000075
:10116000140400001304000070B50F4C1500230098
:1011700065331B78002B0FD023006A34673318784F
:101180002378002B0AD05EF7F7FB0023142223708C
:101190002900064861F78AFD002070BD5EF7F4FB68
:1011A000012305222370F3E728CCFC071404000078
:1011B0001FB514001A0005230293044B0193069BEC
:1011C0000093230062F74CF804B010BDE84EFC0712
:1011D00013B500240094FFF7EBFF13BD1FB51400F7
:1011E0001A0001230293044B0193069B00932300F2
:1011F00062F736F804B010BD104FFC071FB514009D
:101200001A0004230293044B0193069B00932300CE
:1012100062F726F804B010BD184FFC071FB5140084
:101220001A0005230293044B0193069B00932300AD
:1012300062F716F804B010BD584FFC07F8B50E0061
:1012400030781900082818D80E4B1D5C0E4B800012
:10125000C758AB1C0D4859F74FFD33780400037095
:101260004570002D04D02A003900023003F074FDCF
:10127000200059F75CFD0020F8BD00BE00273D00AE
:10128000E7E7C046A84EFC07B44EFC070314000075
:1012900010B504498A7803310270013003F05CFD17
:1012A00010BDC04628CBFC0770B5047803000D00C4
:1012B000002C04D0012C0AD048242C7070BD8278F8
:1012C0000548191D8270033003F046FDF5E7024A18
:1012D000438800249384F0E728CBFC070A4B70B5C1
:1012E0001C000D00110088342078AA00C000C0182E
:1012F000064BC91803F030FD21784919C9B2217095
:101300000C2900D900BE70BDE8CDFC07D42EF8072B
:101310000B4B70B51D000C00110089352878A20018
:101320000630C000C018074BC91803F015FD2B7814
:101330001B19DBB22B700C2B00D900BE70BDC04650
:10134000E8CDFC07D42EF807F8B50E4C0500402276
:1013500020000D4903F000FD0C490D4B0A00C1CBE4
:10136000C1C243CB43C243CB43C243CB43C2094B6D
:101370000948ADB25B1B401B9BB280B223816081E8
:10138000F8BDC04670E0FC077C37F207B0E0FC0710
:10139000C437F207B8E0FFFFCCE0FFFFF7B5144C0D
:1013A0008700E519EB6E16000191002B0AD10A2186
:1013B000000201431E3304220E4859F79DFC04230A
:1013C0000370E866E419E56E1022AF1C38000021B6
:1013D00003F096FC32003800019903F0BDFC0123B4
:1013E00028006B7059F7A3FC0023E366F7BDC046E5
:1013F00028CCFC07140E00001FB54B780400002B0E
:101400000AD1102268460B4903F0A6FC1022694657
:101410002000FFF7C3FF1FBD012B03D1064B0422A1
:101420000093F4E7022BF9D0032BF4D11022023100
:10143000EEE7C046004EFC0740E2010002690B00E7
:101440005218002110B5D174808A1B02184359F735
:1014500084FE10BD3F2210B543790400934311D19F
:1014600041F74DFA030A20706370030C000EA3705D
:10147000E07041F744FA4023207180B2000A5B42D9
:101480000343637110BD70B50D000C00203541F7AA
:1014900036FA20700134AC42F9D1002070BD000052
:1014A000F0B57A25234B454385B04E780393224B04
:1014B000214A5B1902931E772B001433D31808229C
:1014C000040011001800019361F709FF1A4BAF1CCB
:1014D000DF1931001022380061F701FF41F70FFAE0
:1014E000039B5E194E36144B3080EA5C0123134394
:1014F000114A2000AB54FFF71DFD0500029B019926
:101500001B7F0822037733884382143003F024FCC6
:1015100010223900A81C03F01FFC2000FFF70AFD71
:1015200059F705FC0022054BA4001B19DA6505B02C
:10153000F0BDC04628CBFC0764CBFC0728CCFC07D9
:1015400008781B0A10B5DCB207281FD803F01AFC74
:10155000041E1E1E1614141A0C2159430C4A200096
:10156000703252180121D17279314B430021094A5E
:101570003C329954FFF7F8FC002010BD2000FFF723
:101580003BFFF9E72000FFF78BFFF5E700BEF3E72D
:1015900028CCFC0728CBFC0770B504000D00FEF733
:1015A000E5FE002806D00A4B2A000421E01859F76E
:1015B000E2FE70BDFFF720FC04220823110005485D
:1015C00059F79AFB4560047059F7B1FBF1E7C04643
:1015D000030400000104000070B5002801D100BE22
:1015E00002E00C4B9842FAD80B4A002315007C35D8
:1015F0009C0066590133002E08D11219DCB2D16764
:1016000001002000FFF7C8FF200070BD0A2BEFD1BA
:101610000024F9E7FCFF3F0028CCFC07002370B54D
:101620000E4C23700E4B1B78002B12D1012215009B
:101630000C4E092033785D409A420BD05EF7A4F936
:1016400005203570002D00D1BE300749FFF7C4FFDB
:10165000207070BD5EF790F9F2E7C0463167FC0775
:101660006967FC073267FC071D16FC0737B5384C65
:1016700023780133DBB22370364B002809D01A7867
:10168000022A06D81A78501CC0B21870324852008C
:10169000115221781A78D2B2022909D82F4C237816
:1016A000002B3CD10A202E49FFF796FF207036E030
:1016B000002A30D01A7800232748D2B2D9B28A4201
:1016C00033D80021274B19706B4600215B5E032A3B
:1016D00031D16A460221515E6A460420105E1A1C0E
:1016E0008B4200DD0A1C12B290422EDB1A1C8B4288
:1016F00000DA0A1C131C12B2824200DD031C1BB26A
:101700000120194A194C1380194B18702378002BAB
:1017100005D11849C8E7134A1378FF2B00D137BD0C
:1017200013780133DBB21370F9E76D4659000C5A98
:1017300001336C52C2E7022AE2D16A460221525EAC
:10174000D218D30F9B185B10D9E71300D8E7C04617
:101750005367FC075467FC075667FC076467FC0780
:101760000D36FC074067FC074667FC076567FC070A
:101770004467FC07291DFC0710B50C4B1B78FF2B99
:1017800008D00B4B1B78002B04D0002803D101009C
:10179000FFF76CFF10BD074C2378002BFAD109200E
:1017A0000549FFF719FF2070F4E7C0464456FC07CF
:1017B0003067FC072867FC07E934FC0710B5054BC8
:1017C0001B78FF2B05D0044B1B78002B01D0FFF7B3
:1017D0004DFF10BD4456FC073067FC07394A70B511
:1017E00003000D00049C904216D0374A904239D035
:1017F000364A90424AD14B68002B00D100BE344B90
:101800006A689A4200D900BE28782F4B04216A6882
:10181000C01859F7B0FD10E00B78013BDAB2092A85
:101820001ED82C4A9B00D218D16F2B48814207D179
:101830000021D167294AD31859620020207070BD59
:10184000274B9942F9D10422082311001E4859F769
:1018500053FA2B7803706B68436059F768FAECE72A
:1018600000BEEAE70878411ECBB2092BF8D8194B25
:1018700089005B181A4ADE6F9642DED1174A521869
:10188000526A6968DA67FFF787FED6E7154A0120D2
:101890009A18092AD3D8033BD8B2411E0D4B8900B0
:1018A0005B18DA6F002AC8D00D4DAA42C5D00A4D88
:1018B000AA42C2D00025DD67084B5B185D629047E5
:1018C000BBE7C0460204000003040000010400005E
:1018D000FCFF3F0028CCFC07E502FC07A8CCFC0776
:1018E0004503FC07FCFBFFFF431EDAB270B50500A1
:1018F000092A18D80D4C9B00E418E36F002B12D076
:101900000B4EB3420FD00B4B0421C01859F77DFD8D
:101910000422082311000848E66759F7EDF905701D
:1019200059F705FA70BD00BEFCE7C04628CCFC079D
:10193000E502FC07030400000204000070B5234C1C
:10194000230051331878002801D0FFF7CDFF20493C
:101950002048FFF741FE204D5134EB6C2070002BE6
:101960002AD10422092152331C4859F7C5F90D2305
:1019700003801B4B04008380C3800823FF33038153
:101980008023DB00438104221649E8640C3003F015
:10199000E3F923000C22200013492B331A70103175
:1019A00026002C3003F0D8F922000B360821300035
:1019B0000E4B103261F7E8F8E86C59F7B8F90023DC
:1019C00002210420EB6459F7C8FB70BD28CCFC074A
:1019D000990EFC0770170000A8CCFC070D0D000045
:1019E0004C040000B14DFC07004EFC07B64DFC074F
:1019F00010B561F79FF8002801D0FFF79FFF10BDD9
:101A000010B5064C2078002801D0FFF76DFF044B7D
:101A100004491868FFF7E0FD207010BD6867FC07F7
:101A20004C56FC07C937FC0770B5EFF3108401234F
:101A300083F310881B4D2878002803D0FFF754FF4C
:101A400000232B70184D2B78002B05D02878C0B2BE
:101A5000FFF74AFF00232B70144D2B78002B05D085
:101A60002878C0B2FFF740FF00232B70104D2B7871
:101A7000002B05D02878C0B2FFF736FF00232B706B
:101A800000230C4A13700C4A13700C4A13700C4A52
:101A900013709C4202D184F3108870BD012383F33C
:101AA0001088FAE76867FC072867FC076567FC078A
:101AB0006467FC074467FC075467FC075367FC072F
:101AC0004067FC0710B54A781300591E8B41064940
:101AD000DBB20B70002A03D0FFF792FF002010BD8D
:101AE000FFF7A2FFFAE7C0463067FC0710B5040015
:101AF0001B2060F703F8210060F716F80100D820DA
:101B000004220223400159F7F7F8044B04705033C4
:101B10001B785B00437059F70AF910BDA8CCFC078D
:101B200070B505001B200C005FF7E8FF29005FF788
:101B3000FBFF022301000422034859F7DDF844703B
:101B400059F7F5F870BDC046071B000010B50C78BA
:101B50004A889621531E9BB249008B4213D26423BC
:101B600053430A490B600A4B1B78002B05D0094BE5
:101B70001B78FF2B01D0FFF743FF00212000FFF768
:101B8000CFFF002010BD8021F8E7C0464C56FC076F
:101B90003067FC074456FC07F8B50C00002116001E
:101BA00005005FF7C1FF08210200C12024020923BC
:101BB0002143000159F7A0F81223040003702420E8
:101BC0005FF79CFF002800D100BE831CDB7F002252
:101BD000B34207D90121078B0130D3B2B3420BD3F3
:101BE0000237BAB20123AD19E380AB7E2000A28098
:101BF000237259F79CF8F8BDC37F13410B4004339F
:101C0000FF18BFB20132E8E7F8B51B200D0017003E
:101C10001E005FF773FF002800D100BE2988FEF781
:101C2000DDFF062304003A0031000F4859F764F83D
:101C30002A8803000280E01E082812D803F0A2F8C8
:101C40000D111111110D11050D0000225A801800FF
:101C50001A7159F76CF80020F8BD02225A80002250
:101C6000F5E70622F3E7C046180C0000F0B51B208C
:101C700085B01F00009101925FF740FF041E00D164
:101C800000BE009B20001988FEF7A8FF03383D0A1C
:101C900003AE092843D803F075F828423D4242318B
:101CA0004205390AA38900243380022505E0E3892F
:101CB00004253380238A002473803900019AAB1DE8
:101CC000184859F719F80700ABB22A0031004380D1
:101CD000053003F041F8009B38001B883C713B80C5
:101CE00059F725F8002005B0F0BD6419E37C5B00CE
:101CF000022500242B4033707470DEE76419E37C06
:101D000000249B07DB0F33707470CEE76519EB7C02
:101D10005B10EDE7A37C012500243370CDE706249A
:101D20000025CAE7140C000000211D4B30B51970C6
:101D30001C4B85B01A788A4207D01B4A12788A4217
:101D400003D01A4D2A78FF2A03D100221A7005B059
:101D500030BD1970164B0C2201A81C8802F0D0FF70
:101D6000FE2324B22402240A1B0623432C781B20C2
:101D7000E4B200935FF7C2FE21005FF7D5FE1423A3
:101D8000010004220B4858F7B7FF0123040010227A
:101D90006946037402F0E0FF200058F7C8FFD6E759
:101DA0006567FC074467FC073067FC074456FC077F
:101DB0004667FC07021B0000F0B5040085B0242034
:101DC000019115005FF79AFE011E00D100BE8B1C29
:101DD0000A8B02934B1C0393012300269C46019B14
:101DE0001E70029BDF7FB74201D9944201D280204E
:101DF00005E0931C9C4204DCA21A2A70002005B066
:101E0000F0BD0399C87F61463041084206D00332D5
:101E100093B29C4203D103232B70EFE79BB2012FB7
:101E200005D001339BB29C4201D10423F4E7013376
:101E300001369AB2F6B2D2E7F7B51E006B460D0036
:101E40001700D91D6A4600230632288813700B70CC
:101E5000FFF7B2FF062304003A0031000A4858F7A2
:101E60004BFF2B880380002C05D16B469B79032BFD
:101E700006D1013B4380047158F759FF0020FEBD95
:101E800044800324F7E7C046180C0000F7B50500AE
:101E900008781C0A0238052800D971E002F072FFA8
:101EA0000328703948587A23634337488A783C308E
:101EB000C518290078310A7034490191D2070ED52E
:101EC0000C270E00674371337036791DC0187118E6
:101ED0000622F61902F040FF337977352B700C2279
:101EE0006243019B70339B180022DA720020FEBD12
:101EF0000C226243254B002170339B187A226243E7
:101F0000D972214BE0B29B18B433197060F7A2FE6E
:101F1000ECE77A2565431C4B17221C0058197630D4
:101F2000023102F019FF04233C342A5D13430DE013
:101F30007A25154B654310261C00581932009D3038
:101F400002313C3402F008FF2B5D33432B55CDE7C3
:101F50007A235C434A8A0C4D02312819002A07D1A2
:101F60001C323E303C3502F0F7FE0123625DDDE7B6
:101F70001C225A303C3502F0EFFE0223625DD5E7A9
:101F80002800FFF725F9B1E728CBFC0728CCFC0790
:101F900010B5064B1B78012B07D1054B1A78FF2A89
:101FA00003D01878C0B260F755FE10BD6967FC0712
:101FB0004456FC0770B55DF7F4FB264A13881B05F1
:101FC0001CD50520244B19880140814216D10422DA
:101FD00019880A4301211A801A888A431A801F4BE4
:101FE0005B6D002B09D01E4A10881E4A00B2118872
:101FF0001D4A09B2128812B2984770BD1388DB06D9
:1020000013D501241948038823420ED08021184B90
:102010001D880D4209D004801A888A431A800F4B0C
:102020009B6D002BE9D09847E7E71388DB06E4D5E2
:1020300002210E4A13880B42DFD00D4B1888C005D1
:10204000DBD511801A880B490A401A80034BDB6DDF
:10205000E7E7C0460400005000020050A8CCFC078F
:1020600002020050040200500A0200500401005015
:1020700000010050FFFEFFFF10B5034B0348196835
:1020800060305DF7C5F810BD4856FC07A8CCFC07CA
:1020900010B5074C2078002803D0FFF725FC00235B
:1020A000237009205DF768FC0022024B1A7010BDF6
:1020B0003167FC073267FC0710B5FFF7E9FF09201D
:1020C0005DF762FC0122044B052004491A70FFF7FA
:1020D00083FA034B187010BD3267FC071D16FC070E
:1020E0003167FC07F7B50C222E4E424333007033A4
:1020F0009B189B780400FF2B51D033005133187884
:10210000002801D0FFF7F0FB330000250C275133E6
:102110001D7075653A006A43234BD15CFF2935D1A8
:10212000224BA5005D196E6E0193002E0AD1230289
:10213000F5391943042202231D4858F7DDFD0770C5
:1021400046706866019BA5005D19686E58F7EFFD43
:1021500000236B660125174B1C70174B1D70FFF792
:1021600097FF09205DF710FC144B20001D70FFF74E
:10217000BDFC2000FEF784FF0C4B68331B78002B5E
:1021800003D10F4B1D700F4BDD70F7BD9B189B6883
:102190000135EDB2002BBDD020009847BAE7FFF71C
:1021A000CDFBD7E728CCFC077C52FC07A8CCFC076A
:1021B0001A0E00004456FC076967FC073267FC07EB
:1021C00078FAFC0718FAFC0710B50024FF22094B27
:1021D0001C70094B1A70FFF727FC09205DF7CCFB38
:1021E000064B1C70064B1C70FFF766FFFFF7A6FB43
:1021F00010BDC0463067FC074456FC073267FC0739
:102200006967FC071FB500BA009068465DF78CF857
:1022100005B000BD0C4B10B51A0050321278002AE0
:1022200011D00A4A00280BD0042110880842FCD1A2
:1022300000220748503338301A705CF7ABFF02E0D9
:1022400012885207F4D510BD28CCFC0700160050A8
:10225000A8CBFC07F8B5164B164F84331E88164BD7
:1022600016499C6B20007043C0195BF727F8144B8C
:1022700005006A33188030003C3060430F49C019B4
:102280005BF71CF80F4B043018600F4B4019C21D50
:102290001A600E4A1278022A01D1183018601868A4
:1022A000FEF78EF80A4BC01880B259F793FAF8BDC2
:1022B000E8CDFC0720A10700A8CBFC0740420F0097
:1022C000A8CCFC078067FC078467FC0778FAFC074A
:1022D000E20400000022054B10B51A60FFF7BAFFB8
:1022E000034A13685B005B08136010BD9CF9FC0790
:1022F0003000004010B55DF72FF810BD10B5074C49
:1023000000224834237806490133DBB205482370A4
:102310005DF7CAF92378013B237010BDA8CBFC07F9
:102320008867FC07E8CDFC0710B5084C084948341D
:10233000237800220133DBB20648096823705DF779
:10234000E7F92378013B237010BDC046A8CBFC07FA
:102350008867FC07E8CDFC07264B00B54362264B97
:1023600000228362254B8BB04361030030331A7027
:10237000234BC362234B0360234B0362234B436015
:10238000234BC3612348244B0168194080239B02DF
:102390000B43224903600B68214803400B606B46E6
:1023A000D2540132282AFAD11E4B694618684030AF
:1023B00002F0D2FC08221C4B48331A701B4A6C32C4
:1023C0001278002A01D001221A705FF703F9FFF793
:1023D00095FFFFF7A9FFFEF7B3F85FF739F95FF74D
:1023E0004BF95FF7BDF812485FF784F95FF708F91A
:1023F0000BB000BDD904FC07DD04FC071505FC0784
:102400003516F207DF04FC071105FC071305FC076E
:10241000E104FC0774000040FFFFE0FF0002004001
:10242000FFFFF7FF4CF9FC07A8CBFC07A8CCFC0783
:1024300070E0FC071749184B0A6810B51A40802352
:102440009B02134380220B600721D20513688B4344
:1024500013600823114A11880B431380104B6C330F
:102460001B78002B03D001220E4B48331A705FF704
:10247000B1F8FFF743FFFFF757FFFEF761F85FF78B
:10248000E7F85FF7F9F808485FF724F95FF7B8F85D
:1024900010BDC04674000040FFFFE0FF0800005080
:1024A000A8CCFC07A8CBFC0770E0FC0710B5184CC3
:1024B00023006A33198823006E3318885EF72EFED6
:1024C0005DF76FF90321134B1A880A4202D01A886C
:1024D0008A431A808023104A11880B4304211380F9
:1024E0000E4A13888B43138002230D490A881A422F
:1024F000FCD03FF716FF226F0A4B1A600A4B1A688E
:10250000520700D500BE042219681142FCD010BD4C
:10251000A8CCFC070A000050080000501000005032
:102520001400005008020040100000400121084A39
:1025300010B513888B43138059F722F940F780F8C0
:10254000FEF73CFC0022034B74331A7010BDC046EA
:1025500008330050A8CCFC0710B549F7A2FDFEF7E0
:102560002DFC10BD10B559F727F949F79AFD012246
:10257000014B74331A7010BDA8CCFC0710B546F798
:10258000ABFF10BD10B5002046F75AFF0422034BE5
:1025900074331A705FF734F810BDC046A8CCFC073E
:1025A00010B5012046F74CFF10BD00000A4B10B5D6
:1025B0001A68D20703D5022219680A431A608022DA
:1025C0001968D203114202D019680A431A600348FD
:1025D0005EF7CEFD10BDC046000200400450FC076F
:1025E0007FB501AB1900074A203270CA70C1064A94
:1025F00011007C3109880909197104495EF744FC0E
:102600007FBDC046004EFC07E8CDFC072A67FC07EB
:1026100030B5174C87B021000822343101A802F0F0
:102620009BFB03AB22001900203231CA31C1114C8F
:10263000114922007C321288012012091A712200ED
:102640005EF77CFC01A8FFF7CBFF5EF769FC062272
:1026500021005EF7E1FC04005EF752FCE12000017E
:10266000604306495AF740FE80B207B030BDC0460D
:10267000004EFC07E8CDFC072A67FC07FF070000B7
:1026800010B504005DF794FA2200084B0A3A920054
:102690009B189B6F002B01D0984710BD0123C022CF
:1026A000A340034952008B50F7E7C046A8CCFC0773
:1026B00000E100E010B50A20FFF7E2FF10BD10B501
:1026C0000B20FFF7DDFF10BD10B50C20FFF7D8FF82
:1026D00010BD10B50D20FFF7D3FF10BD10B50E20B3
:1026E000FFF7CEFF10BD70B50569040068690028CA
:1026F00001D058F76EFA00232800236158F769FAD1
:1027000070BD0000F8B524205FF7F8F9041E00D171
:1027100000BE9021636989011A898A423BD1012256
:1027200094461D7CE61C6719F27F012A1DD9902171
:10273000636989011A898A4249D15A8999892A4843
:10274000022358F7D9FA00230570437058F7EFFABF
:102750000025606958F73DFA2900200065615FF7A0
:10276000E3F9290058F7F9FC11E0797F604611413F
:1027700001420DD09818A118807C897E884207D02C
:1027800029002000FFF708FAF37F0133F377F8BD43
:102790000132F277C8E715498A4216D10126E51CB5
:1027A000E97F022901D9FF25C1E760181A7C407F23
:1027B0001041304206D02000FFF7EEF9EB7F0133E5
:1027C000EB77E4E70131E977EAE700BEEBE7074999
:1027D0008A42BDD15A8999890548012358F78CFA54
:1027E00000230370B2E7C046012400000224000069
:1027F000032400000B7810B5122B01D1FFF782FFE4
:10280000002010BD70B5056904006868002801D07B
:1028100058F7DFF900232800236158F7DAF970BD73
:1028200070B51B205FF76AF9041E00D100BE636813
:102830005D78022D2AD9002120009D885FF774F968
:10284000854216D0636800211D782000043D6A424D
:102850005541274A6D009E88AD185FF765F9012341
:1028600002003100280058F747FA0023037058F798
:102870005EFA0025606858F7ACF929002000656011
:102880005FF752F9290058F768FC2DE06219D27CF5
:102890001978114229D0DA79AA4226D000212000E5
:1028A0005FF742F908210200C12063682D029B797D
:1028B00029430833000158F71FFA616805000B78B7
:1028C000023B5A1E9341123303708A79C2804B88AF
:1028D00008318380083002F03FFA280058F727FAC1
:1028E000626853780133537070BD01355D709FE7A6
:1028F000031B000010B5FFF793FF002010BD000080
:10290000F0B58BB00693109B06001B788125013B28
:1029100004910792012B00D993E00121242058F75C
:10292000DDF8002704003D002422002102F0E8F930
:10293000109AA31C1278DA77109B1B78BB4266D9D9
:10294000002D03D0200058F744F97AE0132504AB9A
:10295000ED1807232B70109BDB195B780593059905
:10296000631CB940DA7F0A43DA77109BF9006018DC
:10297000591808220430043102F0EEF9059B012BAE
:1029800001D10E332B70A31CDB7F012B03D9102345
:102990002A7813432B7014227B000593049B04A90F
:1029A0001B88891878000B5209AB18181E2306994A
:1029B0006C320B4013430393234B13210293B38ACE
:1029C00004AA0193002389180A0000931F490533C4
:1029D0004CF7A8FF051E17D1142204AB9B187900F1
:1029E000585A109BDB195978431D9C464A1E531EAA
:1029F0009A4163469B1A049A1380012904D102303C
:102A0000134980B24CF74DFE0137FFB294E7002D19
:102A100098D109AB1B88049A346113802383069BE9
:102A2000079ADB031A4324232280B08A290060809E
:102A3000F382233BF381074B1C34B460736058F777
:102A40008CFB28000BB0F0BD804FFC070F18000076
:102A500001020000BC4FFC07F0B589B004930E9B47
:102A600005921A7805000F000F23D10700D53033E7
:102A7000910702D5E02149000B4351070AD5110700
:102A800000D569E0C021C9000B43D20602D58022DF
:102A900052011343162202A9521813801E230499CF
:102AA00038000B4080210B4303932D4B2D4902939B
:102AB000AB8A0193002300930D334CF733FF061EBE
:102AC00047D10121182058F709F8040018223100D5
:102AD00002F016F93B882C612381049B059ADB03E5
:102AE0001A432280AB8A012763801B23EB822300D9
:102AF00020001633AB601C4BEF816B600E9B0322F2
:102B00001B78310063810E9B1330DB88A3810E9B01
:102B10005B88E3810E9B9B8823820E9B5B786660BB
:102B2000A37402F0EDF80E9B1B785A070DD51A0717
:102B300000D54037DB0601D50C4B1F430A2120008E
:102B4000FEF730F839004CF7ACFD0021A88A58F7A1
:102B500004FB300009B0F0BDE021090194E7C04654
:102B60007051FC07091800000C52FC070800020015
:102B7000F8B510001F000D00160058F703FB0223E4
:102B800000281BD124305EF7B9FF041E00D100BE1F
:102B9000A21C2B78D27F9A4212D96A78642A0FD865
:102BA000E3189A760121300058F7D7FA0023103D38
:102BB00065610334E377FFF7A5FD01231800F8BD35
:102BC000012332003900044858F796F88123037036
:102BD00058F7ADF80023F1E703240000F7B5100023
:102BE0000C00150058F7CEFA01282AD113305EF7F1
:102BF00085FF061E00D100BE377F30003900FDF78B
:102C0000B1FF23780190727FBB421CD10821637809
:102C10001202114306332A00114858F76DF8019B40
:102C200006000380002303716278A11C42800530F6
:102C300002F092F8300058F77AF80021280058F78F
:102C40008CFA0020FEBD0821130219432A00062336
:102C5000034858F751F8019B038080230371EAE78A
:102C6000140C0000F7B5100015001F00019158F773
:102C700089FA0226002818D11B305EF73FFF041E98
:102C800000D100BE04260422019B1B88A381638916
:102C90001E4013420BD101232A0039001B4858F76C
:102CA0002BF88C23037058F742F83000FEBD082241
:102CB0001E001640134207D101232A003900134891
:102CC00058F71AF80670EEE701210A2057F706FFB9
:102CD0000A220021606002F013F80A212000FDF7AB
:102CE00061FF0423666801213380033BFF3BF380CF
:102CF000019B70801B88280033721B0A7372B78097
:102D000058F72BFA0026FFF78BFDCEE7051B0000D6
:102D1000F8B51B200E0015005EF7F0FE041E00D172
:102D200000BE280058F72EFA012827D10821636831
:102D30002A00DF7912483B021943042357F7DCFFCE
:102D40000A2105002000FDF72DFF3278802328801E
:102D5000BA4200D173782800AB7057F7E8FFA97822
:102D6000002909D16268537A107A1B020343A381B8
:102D700063891B0700D55170FFF752FD0020F8BD95
:102D8000160C0000F8B510001F000C00160058F7D4
:102D9000F9F90223002818D124305EF7AFFE051E92
:102DA00000D100BE2078032811D902233200390057
:102DB000124857F7A1FF227840230270032A00D857
:102DC0004933437057F7B3FF00231800F8BD51F79C
:102DD000EBF80B4B9842E8D00121300058F7BDF9D1
:102DE00023786278EB185A770023103C6C61033526
:102DF000EB77FFF787FC0123E7E7C04601240000DB
:102E0000FFFF0000F8B508781D000C00160051F710
:102E1000CBF80E4B892798420AD01B205EF76EFE36
:102E2000002800D100BE00272378C0186378C3743F
:102E3000320029000223064857F75EFF23784770C7
:102E4000037057F774FF0020F8BDC046FFFF000075
:102E5000011B0000F0B587B0029304AB0D00D91D33
:102E60000023170004AA9371288806320B70FEF71E
:102E7000A3FF041E35D124205EF740FE002800D1B8
:102E800000BE04AB9B79032B39D1EB79AA791B02E5
:102E900013430193012B32D80121029B1E0A83198F
:102EA0005A7F039304ABDB79994013008B439C4614
:102EB000019B012B02D10A43D3B29C466246039B7D
:102EC000F6B25A7731005EF737FE022301003A006E
:102ED0000C4857F711FF039B06705B7F437057F751
:102EE00026FF3A0002990423074857F705FF2B886D
:102EF0008470038057F71BFF002007B0F0BD8024CB
:102F0000EFE7C04604240000160C0000F7B51000DF
:102F10000F0016001D0058F735F9002845D1143070
:102F20005EF7ECFD002800D100BE3B880193428B88
:102F3000038B9446002201339BB2D4B200946446C2
:102F4000012114410C4205D05C1801998C4247D0F4
:102F500002339BB20132092AEFD106233200290045
:102F6000204857F7C9FE3B8803808023037134E073
:102F70002379009A93421DD02468002CF8D1009B3D
:102F8000290A037741775EF7D7FD0123010032005C
:102F9000154857F7B1FE009B037057F7C8FE012193
:102FA000300058F7DAF8002003E001384342584176
:102FB0004000FEBD6379320029000633094857F707
:102FC0009BFE002605003B88067103806279A11DE7
:102FD0004280053001F0C0FE280057F7A8FEE2E766
:102FE0004468CAE7140C000002140000F7B505009D
:102FF0001B200E001F0001925EF780FD041E00D111
:1030000000BE019B9F4203D08020002F1BD0FEBD3D
:103010006219D37C3343D374290020005EF78CFD02
:103020002900060020005EF77FFD02230200310028
:10303000074857F761FE64190570E37C437057F742
:1030400076FE0020E3E76219D37CB343E3E7C04692
:10305000081B0000F0B51B2085B00C001F00029279
:103060005EF74CFD061E00D100BE30002188FDF742
:10307000B5FDA3888D25022B5CD103383D0A0828B5
:1030800000D971E001F07EFE4C70707070627005C6
:103090006900E379A2791B0213430193F389019A32
:1030A000934202D8338A934202D2019B002B5DD116
:1030B000029858F767F80227039000282DD12900BD
:1030C00030005EF739FD029A01000423284857F7C3
:1030D00013FE019B0570438057F729FE01210A204A
:1030E00057F7FCFC0A220399706001F009FE0A21DF
:1030F0003000FDF757FD7468029B6080A380FC23BD
:103100005B422380019B012123721B0A0298E57117
:10311000A771637258F721F80027380005B0F0BD99
:10312000E379A2791B021343012102222800FFF751
:103130005DFF050004233900029A0E4857F7DCFDB5
:1031400023888570038057F7F2FDE5E7E379A279DC
:103150001B02134302210122E8E7E379A2791B0253
:10316000134304210222E1E70625E3E78025E1E796
:10317000061B0000160C0000F0B587B0029304ABEC
:103180000191D91D0023039204AA93710B70019B36
:1031900006321888FEF710FE0600050024205EF7B0
:1031A000ADFC071E00D100BE0024A64208D104AB2E
:1031B0009B79022B23D0032B23D0042B23D08025F3
:1031C000A31D039A02991E4857F796FD019B06001E
:1031D0001B88057103804480002D0AD104AB06339F
:1031E0001B78022B11D104AB07331B78FB189B7E95
:1031F0004371300057F79BFD002007B0F0BD01245C
:10320000DEE70224DCE70724DAE7032B0CD1029B7C
:1032100004AA1B0AFB1807325B7F127885711341E1
:10322000012213404371E4E7042BE2D104AB0733DE
:103230001B780530DB00191D79185EF7F7FCD8E71D
:10324000140C0000F0B589B00592012204930E9B86
:1032500005001E880F0000239446032431006046B9
:103260001941014204D02000590001318840024335
:103270000133092BF2D10792049A153313408022AF
:10328000134303931B4B38000293AB8A1A490193F3
:10329000002307AA009313334CF744FB061E25D1E5
:1032A0000121202057F71AFC04003100202201F0F0
:1032B00027FD3B882C6123830E9B059A1B88201DCC
:1032C0006383049BDB031A432280AB8A638014234D
:1032D000EB82133BEB8123001E33AB60074B6B602B
:1032E0003FF7D4FB3100A88A57F737FF300009B009
:1032F000F0BDC0465C50FC070A1800004051FC07B6
:1033000070B5040005696B68002B04D128002361A7
:1033100057F75FFC70BD281D3FF7C0FB57F759FCFE
:10332000F1E70000F7B514200C00009201935EF75E
:10333000E5FB051E00D100BE27788126082F3CD86A
:1033400039002800FDF70EFC0136002835D06378DF
:103350000B36802B31D8072F2CD0082F3AD0062FD0
:1033600001D1082B29D16E68002E0AD03379BB42D7
:1033700034D100223100281D3FF700FC300057F700
:1033800028FC60780121083057F7A8FB0600627816
:103390000021083201F0B4FC2378B01D337162784B
:1033A000A11C727101F0D8FC3100281D3FF792FB7F
:1033B000002602E08D26052BD5D8009A019902231C
:1033C000074857F799FC23784670037057F7AFFC0E
:1033D0000020FEBD8D26072BEFD1C4E73668C3E77A
:1033E00001140000F0B5100087B00F001600019323
:1033F00057F7C8FE0224002818D11B305EF77EFB69
:10340000051E00D100BE3B7C002B12D16A8902331D
:1034100014001C401A420CD1013B32000199314882
:1034200057F76AFC8C23037057F781FC200007B024
:10343000F0BD0121152057F751FB152200216860CE
:1034400001F05EFC00236C686370019BA380FF2386
:10345000E3713B7C002B3DD001232370288902308F
:1034600080B2230002AD083301932A003B00608044
:1034700083CB83C21B6805271360029ADBB2110A53
:103480006272A172110C120E2372E17222739B07F9
:1034900006D5200003A90D305EF7D7FBC019C7B2CF
:1034A0002B7B5B0704D56B7B019AD3550137FFB2A9
:1034B0000C2F06D80D22019B0021D21BD81901F038
:1034C0001FFC01213000A77157F747FE0024FFF7CA
:1034D000A7F9ABE70223072128002370FDF762FB61
:1034E000BFE7C046031B00001FB50024174B1C702C
:1034F000174B1B78FF2B28D0164B1B78A34224D0E8
:10350000154B164A68461A600122154B1A70154B66
:103510000093154B0193154B0293154B03935DF7E5
:1035200081F9144B144A9C679A660722DA661A00DE
:1035300054329483114ADC675A67114A0433128863
:10354000104ADA675422104B1A861FBD2867FC0701
:103550004456FC073067FC074867FC07BD17FC07AB
:103560003C67FC0748004F000800170001000100FD
:1035700038000101A8CBFC074C67FC073936FC0773
:1035800054130050E909FC07001300501FB5012433
:10359000124B134A68461A60124B1C70124B009370
:1035A000124B0193124B0293124B03935DF73AF9BE
:1035B000114B124A19009A66002254319A67DA6751
:1035C0008A830F490F4A59671100DC665431098814
:1035D0000D490433D967542313861FBD6067FC0768
:1035E0007917FC073C67FC0748004F0008001700EC
:1035F0000100010038000101A8CBFC075C67FC0753
:103600000D37FC0700130050E909FC07002210B534
:10361000064B1A70064B1B78FF2B05D0054B1B7809
:10362000934201D0FFF7B2FF10BDC0466467FC07AC
:103630004456FC073067FC07F8B515000C005DF731
:1036400057F90023264A13709D4221D0072C1FD121
:10365000244802787F2A1BD8FF2208263125C15C26
:103660004A40310057B25400E2B2002F01DA6C40F8
:10367000E2B20139C9B20029F4D10133062BEED1EF
:10368000194B81791B68914202D1002B09D1F8BDF9
:10369000154B1B68002BFAD0002211001000984730
:1036A000F5E7C17884780A092401144342780904B3
:1036B000120314430D4A05796243F02424030C409D
:1036C00041790B480902294349BA89B20C43094997
:1036D000120D6143C90B091809B20120DFE7C0468A
:1036E0003C67FC074C67FC074867FC071027000095
:1036F00078ECFFFF7102000010B55DF7F9F80022C9
:10370000014B1A7010BDC0463C67FC0710B5002A7B
:1037100001D001290AD05DF7EBF80020104B18709A
:10372000104B1B68834200D0984710BD0E4B0822F7
:1037300019780E4B08001040114208D1BE211970B3
:103740000B495A7098700320FDF714FBEDE7AC228B
:103750001A70793A5A70002206499A70F3E7C04607
:103760003C67FC076067FC075C67FC073D67FC077C
:103770007937FC079937FC0710B55DF7B9F80020D9
:10378000034B1870034B1B68834200D0984710BD51
:103790003C67FC076067FC0770B50C0015005DF71F
:1037A000A7F80020064B1870064B1B68834205D013
:1037B000854202D0033C60426041984770BDC046DC
:1037C0003C67FC076067FC07002330B5434C85B0BD
:1037D0002370434B1B78FF2B75D0424B1B78002B7B
:1037E00071D0414B41491868FDF7F6FE404D2070FD
:1037F0002B78D8B2042B68D933235B424343DBB226
:10380000332B62D80A2159F759FDCCB2002C3ED196
:10381000C02122000123072089005CF7BDF82300A6
:103820002200210006205CF7B7F809240EE00720EB
:103830005CF7A2F805205BF799FF07205CF7A4F876
:10384000013C05205BF792FF002C04D006205CF7BA
:10385000C1F80028EBD00023C0211A0089000620FF
:103860005CF79AF805205BF781FF06205CF78CF87F
:1038700005205BF77BFF00230922190007205CF776
:103880008BF800230A22190006205CF785F8012432
:10389000184B68461C70184B0093184B0193184B3B
:1038A0000293184B03935CF7BDFFBA22164B20001E
:1038B0001A701649FDF75EFA2B78FF2B03D02B7890
:1038C0001B19DBB22B7005B030BD0022104B1A70F3
:1038D000104B1A70FFF75AFEF5E7C0466867FC0701
:1038E0004456FC073067FC074C56FC07C937FC07F9
:1038F0004067FC073C67FC0748004F0008001700C2
:1039000001000100380001013D67FC07F936FC07A2
:103910005467FC075367FC07174970B58B89002B68
:103920001DD1164A1400283498000559002D11D1D4
:10393000121813489062134A9B189BB28B81802106
:10394000114B124A09019A650800282301225CF7ED
:10395000C9F970BD0133052BE6D10D4BEEE70D4AD9
:103960009B18042B01D900BEE9E7044A9B00D2183A
:10397000034B9362E3E7C04628CDFC0728CBFC0746
:10398000911FFC070E040000A8CCFC07D93BFC07E4
:10399000FFFF0000F2FBFFFF70B5442800D074E089
:1039A000FEF776FBFFF7B8FF08223E4B1A8072B68F
:1039B000042180243C4803880B4303803B4B1A8836
:1039C000A2431A8040221C8822431A80384B394A6D
:1039D0001980138838490B4013800121C023374ACE
:1039E0005B004942D150713B3549FF3B0A881A427E
:1039F000FCD1344A3449138804250B40138001223A
:103A000032490C260B88324C93430B8031490B69A9
:103A10002B430B61032123888B431343238023888B
:103A2000B3431D4325800388134303802A4803883A
:103A3000934313430380F020284B80011C882043CC
:103A4000188080201C88C0012043188024480488E6
:103A50002448240A144219D004885F329443403A1F
:103A6000224302804022188802431A801A880A439F
:103A70001A80082219880A4304211A801A888A4366
:103A80001A80C046C046C04630BF70BD164C25885F
:103A90002A43228060240288A24302801A881143AC
:103AA0001980E6E700330050100000500800005075
:103AB0000002005004000050FFF7FFFF00E100E0AB
:103AC00014000050120000507FFEFFFF1003005052
:103AD0001800005000ED00E00C03005020030050DF
:103AE0002A000050520000505600005010B5FDF75B
:103AF00025FF08211B205FF71BF9FDF7A1FAFDF751
:103B000075F9054B64331870FDF758FA0022034B22
:103B10001A70FEF7D1FA10BD28CCFC076967FC07C4
:103B20000122254B10B51A80244B25499A7B1B2076
:103B30005BF7CCFE00248021224B22001C600B206E
:103B4000230049005BF728FFC02123002200092041
:103B500089005BF721FF1C4B1B78DCB2002B0BD1DB
:103B600023000922210007205BF716FF23000A2209
:103B7000210006205BF710FFFFF7CEFE134B1A0063
:103B800065321278002A08D01A006A331B7867322F
:103B90001078012B0CD15BF7F7FE08220C4B0D4976
:103BA00048331A7001230A889A4313430B8010BDCF
:103BB0005BF7E2FEF1E7C0460003005028CDFC07AA
:103BC0006667FC07000008403C67FC0728CCFC0740
:103BD000A8CBFC070C03005010B5FFF7A1FF0D4C5C
:103BE000E37B002B0DD00C4B68331B78002B04D1EA
:103BF00001220A4B1A700A4BDA70FDF7FDF8002318
:103C0000E373A089002803D00022042157F7A5F808
:103C100010BDC04628CDFC07A8CCFC0778FAFC07ED
:103C200018FAFC072A4B10B51B880400DB0507D5E2
:103C30001B205BF7F3FD0123264A11880B431380F9
:103C4000A023DB051B88244924480A881B079B0FF7
:103C50000240DB0113430B802268214B1A6062682B
:103C6000204B1A60A268204B1A60E2681F4B1A6052
:103C700022691F4B1A6062691E4B1A60A2691E4BB3
:103C80001A60E2691D4B1A601D4B1C601D4B1A68BF
:103C90001D4B1A601D4B1A681D4B1A601D4B1A688C
:103CA0001D4B1A601D4B1A681D4B1A601D4B1A687C
:103CB0001D4B1A601D4B1A681D4B1A6008221D4BC4
:103CC0001A801D4B1B88DB0601D500BE10BDFEE728
:103CD0002A00005080000050120000507FFEFFFFBD
:103CE00000F8FC0704F8FC0708F8FC070CF8FC07D0
:103CF00010F8FC0714F8FC0718F8FC071CF8FC0780
:103D000020F8FC0728ED00E024F8FC072CED00E08B
:103D100028F8FC0730ED00E02CF8FC073CED00E053
:103D200030F8FC0734ED00E034F8FC0738ED00E033
:103D300038F8FC0700330050140000500423344AC4
:103D400070B5118801250B4313804023314A0400CC
:103D500011880B431380C0232F4A5B00D5500822E3
:103D60002E4B1A802E4B1B88DB0506D51B205BF7DC
:103D700055FD2C4B1A8815431D80A023DB051B889D
:103D8000294A2A4811881B079B0F0140DB010B437E
:103D900013802168264B19606168264B1960A16861
:103DA000254B1960E168254B19602169244B196086
:103DB0006169244B1960A169234B1960E169234BA8
:103DC0001960234B1C60234B1968234B1960234B4C
:103DD0001968234B1960234B1968234B1960234B37
:103DE0001968234B1960234B1968234B1960234B27
:103DF0001968234B1960234B1B88DB0607D500BECF
:103E0000138821490B4004310B43138070BDFEE73A
:103E1000100000500800005000E100E000330050A6
:103E20002A00005080000050120000507FFEFFFF6B
:103E300050F8FC0754F8FC0758F8FC075CF8FC073E
:103E400060F8FC0764F8FC0768F8FC076CF8FC07EE
:103E500070F8FC0728ED00E074F8FC072CED00E09A
:103E600078F8FC0730ED00E07CF8FC073CED00E062
:103E700080F8FC0734ED00E084F8FC0738ED00E042
:103E800088F8FC0714000050FC7F0000C823E64AB5
:103E9000F0B513800023E54A0C2013800822E44982
:103EA0009BB00A80E3490793079B002B01DC00F0DD
:103EB00028FDE04C0125E36B002B01D000F036FD1E
:103EC000206C616CEE176B0DF6021E43E563ED028C
:103ED00005430E432A00330022646364636B0125AB
:103EE000002B01D000F025FD206C616CEE17EB0D6E
:103EF00076021E4365636D0205430E432A003300BC
:103F000022646364E36A0125002B01D000F014FDF4
:103F1000206C616CEE176B0EF6011E43E562ED013D
:103F200005430E432A00330022646364A36A01251B
:103F3000002B01D000F003FD206C616CEE17AB0E7E
:103F4000B6011E43A562AD0105430E432A003300AE
:103F500022646364002300222264636400230793C5
:103F6000079B002B01DC00F0EDFCB34E06AA338862
:103F7000951C9BB25380508880B200E000BF0422A1
:103F80002B88934301D000F021FD0121AB4A138817
:103F90008B43138008259620A94A40001388A94F17
:103FA0002B4313805BF7E2FB8023A74A11880B4366
:103FB000F0211380A54B890118880143198006213F
:103FC00038888843388080201E88C001304318809C
:103FD0009B489F4E00883040994E30800E261088B6
:103FE000B043014311809B490988C90501D400F001
:103FF000F1FC3988984A11408022D2000A4380217E
:104000003A803A8809021205120D0A4304213A80C7
:104010001A882A431A801A888A431A803A880339F0
:104020008A433A80402219880A431A8003261A8854
:10403000012732431A806023022581490A889A4366
:10404000403B13430B80854B854A009360331F70C0
:10405000138884492B4313800422834B1A80834A9C
:1040600013880B4013808021C023814A5B004902E2
:10407000D150804B03936F4B039918000E3002937D
:104080005CF754FD28005CF719FD7B4B1A68330080
:10409000D2B2AA2A00D03B00A0220C21D205168859
:1040A0009B008E431E43168000E000BF20000622C6
:1040B0007249483000F050FE012000E000BF0023AC
:1040C0006F4C0AAD260029009C46883633806D4B24
:1040D00004933C3385CB85C185CB85C185CB85C118
:1040E0002B006246200068495BF7C0F93378DB0794
:1040F00000D500BE2200883213785B0813702300BD
:1041000089331B78DB0700D500BE22008932137883
:104110005B081370230084331A88002A02D1FA2224
:1041200092001A80220086321388002B0CD1FF21C6
:10413000514B09021B680B40D42189018B4201D0ED
:1041400000F071FC90231380009B863420886E332E
:1041500018805BF775F87F22029B02984E331A7025
:104160004A4B03991A684A4B0E301A605CF78AFD75
:10417000484B494F1A680023BA4209D0474C484A75
:104180004849581800681919043308609342F7D158
:10419000454E00213000454A00F0B2FDE0220021EA
:1041A000D200434800F0ACFD00F08AFD414B424A8A
:1041B00042491A604248302200F0CEFD00243F22DE
:1041C000404B04991A705C709C70DC701C715C71BF
:1041D0009C71DC7128006031013200F0BDFD2900C6
:1041E0004022394800F0B8FDFF22384B01211A70F7
:1041F0005A709A70DA701A71FC3A5A719C71DC71BB
:10420000334B344A1C70344B1A60344B344A1A60B6
:10421000344B354A1A600A22344B1A70344B053A33
:104220001C70344B1A6067E00031005002310050BE
:104230000233005028CDFC07040300501003005047
:1042400052000050800000505400005020030050E5
:10425000FFBFFFFF2A000050FFF0FFFFA8CCFC07C4
:1042600038000050FFF7FFFF00020050040000502C
:1042700000E100E06667FC07D02FF807D42FF807AD
:10428000E8CDFC07004EFC07A000FC07E82FF8076C
:104290003467FC070867FC076587341274CEFC0797
:1042A000040A000000F0FC0700E0FC07AC1400006A
:1042B00000F9FC0724FAFC076452FC075CDEF107F6
:1042C000C8F9FC07A4F9FC073CFCFC07ACF9FC07A7
:1042D000C5F9FC07E036F20750F9FC0754F9FC0772
:1042E000F453FC0758F9FC07EC52FC07A1F9FC0752
:1042F000A2F9FC075CF9FC07E14B1960E14B1A607D
:10430000E14B52181A60E14B52181A60E04B5218F8
:104310001A60E04BFE321A60DF4DE04B2E601A60EF
:10432000FFF7FEFB5AF7BAFE5AF7FEFEDC49DD4BFB
:104330000A881A40E0231B0113430B805AF710FF31
:10434000D94E3368BB4236D02A68D84BD8491A6058
:10435000D84B1B681A0A0B704A701A0C1B0ECB70D4
:10436000D54B8A705A000392C022FF3294461A78C5
:10437000039802926246D21A125C029801344240BB
:1043800003200492029A0240885C049A42401A7008
:10439000E022013352009442E9D1C84CA53A2000F2
:1043A000C549FF3A5BF780FD002800D000BE200021
:1043B0005AF7BAFF376028683DF74CFF0023802288
:1043C000BF4CD20523711168E3700133FF330B43F7
:1043D0001360FCF7F3FC0120FDF71CFF009B683322
:1043E0001B78002B02D1B74AE3701370B64F0C2232
:1043F0003E0070360021300000F082FC08220025CB
:10440000B248B3498270033000F0A6FCB14BB24908
:1044100004205D8456F76FFEFF232900B37004204B
:1044200056F79BFEFCF7E2FC3B00643318705EF726
:1044300097FC009B68331B78AB4203D10122A14B50
:10444000E2701A70FF22A54BFA211A700023A44AC9
:1044500049001370A34A1370A34A1370A34A137040
:10446000A34A1370A34A1370A34A1370A34A11609E
:10447000A34A1370A34A1380A34A1370A34A13706C
:10448000A34A1370A34A1380FDF724FFC823A24A4E
:104490001380A24AC03B1380A14BA24A9B189B08E1
:1044A000013B0593FBF762FF002800D19FE057F71F
:1044B00000F90020FDF7AEFE9B4B74331C78042CF2
:1044C00000D094E00120FDF7A5FE0023210009A8FB
:1044D000099347F73DFF002800D188E00122934B64
:1044E0001A601A68002AFCD1914B924C1B68216D0E
:1044F0008B4200D22265C821226D09019A1A8A4294
:1045000000D274E0002523658B4B0AA81B888B4FD3
:104510009BB200938A4B8B4E1B889BB202938A4BB3
:104520001B889BB20393894B1B880B959BB204930A
:10453000874B0A93FEF754F822003B8854329B05C0
:104540009B0D13808022338856349B059B0D23805E
:104550003B8892009B0A9B0213433B8033889B0A53
:104560009B021A4332805CF783FD7A4B0200198864
:10457000FA23401A9B004343AB4200DC5DE2764ADB
:104580009818764958F7B0FE6A4B8411543319884D
:1045900080231934E2B2DB0064B2994200D300BE3A
:1045A0003B88644D9B0A9B0219432B00398056338C
:1045B00019888023DB00994200D300BE33889B0A10
:1045C0009B021943002331805A494E31CB567F2B31
:1045D00000D038E20C70029A594B1A80039A5A4B59
:1045E0001A80049A594B1A80534B009A1A8072B65B
:1045F00000235B4D09AF2A683B70926A0A924D4ACC
:104600000092D27B9A4203D12D4A1279022A00D11C
:104610000A93544C39002000534A5CF7C1FD00282E
:1046200000D00CE1009BDB7B002B06D14F4B9B6A3B
:10463000002B02D02B689B6A0A93FDF70BFE20002B
:104640000AA95CF7E3FD002800D0F8E001305BF731
:10465000B3F80A9B002B07D0454A1268393AFF3A53
:10466000DA2A01D8013B0A93424B2F4D18682B00E0
:104670006A331B884049414A1B180B6080E0C046E2
:1046800060F9FC0764F9FC0768F9FC076CF9FC07A2
:1046900070F9FC0748F9FC074CF9FC0744F9FC07E2
:1046A00026000050FFF0FFFF0867FC0708020040EB
:1046B0002C67FC073467FC0774CEFC076C67FC07AB
:1046C00018FAFC0778FAFC0728CCFC0728CBFC0773
:1046D000B64DFC072ACBFC07D84EFC074456FC0716
:1046E0003067FC076867FC072867FC076567FC07FD
:1046F0003167FC076467FC076967FC074C56FC07D9
:104700004467FC074667FC075467FC075367FC07D0
:104710004067FC074267FC0700310050023300503D
:104720005856FC07030004F8A8CCFC07FC00004026
:104730001C00004028CDFC07001500500815005053
:10474000021500500A1500500415005006150050BF
:10475000010400002A67FC077E040000FC0800003A
:1047600058F9FC073867FC077920FC0700FEFC07B6
:10477000200000408067FC077C67FC073C0000408D
:104780001368C04C9B0A9B020343136010682368A4
:10479000BD4E9B0230400343136010680B68C1029A
:1047A0005B05C90A0B43136004230A983B70B74B9F
:1047B000984200D900BEB64E0021326C736C58F797
:1047C000A7FD0903000D009B08430138D865236845
:1047D0005A1C904201D1009AD365AE4B19794B1EF9
:1047E0009941009BC9B2D86D44F7E6FFAA4BDB6A3A
:1047F00098478023A9491B020A681A42FCD08023EB
:10480000A74C5B0022681A42FCD0802223689343A5
:10481000A44A236011888BB2452903D84621CB1ABC
:10482000F36411803DF751FD80219F4B1B682B677E
:1048300023680B42FCD09D4A13888B4313803B783E
:10484000042B05D19A4B1B78013B5A1E934102332E
:104850009A1E012A00D98EE1042201279548964E1E
:104860000188102511430180316994481143316159
:104870000188934CB9430180022B00D048E1238882
:10488000AB43238000228F4B1A808F4B1B88DB05A4
:1048900009D401238D4A11880B43138060228C496F
:1048A0000B8893430B8001248A4A0D201388A3436D
:1048B00013805AF75BFF0321874A13888B431C43FD
:1048C000864B14801A88D20602D5854A053111809C
:1048D00030BF1B88DB0602D50823824A1380602381
:1048E0007B490A889A43403B13430B80FFF718F932
:1048F000042233699343336162B6C8237A4A138032
:10490000D0E500220892089B0B2B04DD079B0133A6
:104910000793FFF7C9FA079B089C43431B199B00A9
:10492000CB181A61089B01330893ECE76D42FFF73F
:10493000C7FA6D42FFF7D8FA6D42FFF7E9FA6D4208
:10494000FFF7FAFA0023694D0893089B0B2B03DD50
:10495000079B0133FFF703FB089B079A01229A404C
:104960001305F5D00C21079B089A4B439B189B001D
:10497000EB181B69013300D100BE0C20079B089A7D
:1049800043439B189B00EB181B69002B1AD0079B15
:10499000089943435B189B00EB181869089A079E17
:1049A000C117029658F748FD2E6C6F6C029B1A01D6
:1049B00058F742FD3043394300900191009A019B22
:1049C0002A646B64089B01330893BEE7002333809D
:1049D000FFF7E0FA464E474930880840C021C90039
:1049E0000143F02031803188000201433180198871
:1049F000A9431980042118883F4D884318801088E6
:104A00002840108015883D480540C02040012843BB
:104A1000108001223088024332802B4A12880A42D9
:104A2000FBD0FFF703FB36495B1836490B4201D038
:104A3000FFF78AFB9423FFF786FB28008A4200D108
:104A40009FE5314A9CE5DBB2D11A48B2090601D58F
:104A50009B1A58B2072800DCBDE5AB6D0133AB658E
:104A60005CF7B8FD4E35FDF75FFCFBF769FD5CF7C1
:104A7000EFFD5CF775FD25485CF71CFE5CF7C0FD9B
:104A80002C70A8E58467FC07FF03E0FF3F420F009E
:104A9000A8CBFC0718FAFC07E4FEFC073000004036
:104AA000000200400A330050080200400800005095
:104AB00078FAFC071000005000ED00E00C030050F5
:104AC00012000050180000502A00005056000050FC
:104AD00052000050240000500A0000501400005002
:104AE00000330050023300500031005028CDFC0745
:104AF00080000050FFF0FFFFFFF9FFFFFFC7FFFF3F
:104B000000CDFFFFFFFEFFFF82FBFFFF70E0FC0711
:104B1000238800982B43238023881949134323803B
:104B20000E305CF703F82388059A1D43154B25804A
:104B30001A60EFF3108287F31088A0218020C90546
:104B40000B8883430B80002A12D182F310880E4B0E
:104B50001B88DB0500D495E60023009A0B20937395
:104B60005AF75CFE012309490A8813430B8089E642
:104B700087F31088EBE7012B00D0BDE630BFBBE622
:104B80006667FC072000F4072A00005080000050F0
:104B9000F0B50546007985B007073F0F28463DF779
:104BA0005CFF029028794006C00F039028463DF72D
:104BB00054FF4448806A8079012825D00126414865
:104BC00040300079800775D5002E73D000222B234A
:104BD00011463D4856F790F80227077001263B49D9
:104BE00046700446C969A87988472A21085528795A
:104BF00000210007000FA070030058F72DFC0737B5
:104C0000393B423F423D4200029801902D4814300A
:104C10000090002604680BE0611D01983EF733F810
:104C2000002804D02079B84201D101261BE0246875
:104C3000002CF1D100983EF71CF8254909788842EC
:104C400002D1244806780EE000210C2055F746FFDB
:104C500004460622401D019958F7AAFB27712146F8
:104C600000983DF737FF01204640A8E7A1700AE011
:104C7000A67021E0032002E0A77004E00420A070E9
:104C800001E0012818D0A888000A801FA0722846D9
:104C90003DF7E3FE811D2046A27A0B3058F788FBD2
:104CA0000622201D029958F783FB0398E0702046E6
:104CB00049F7A4F805B0F0BDA172F1E7704770475D
:104CC0007047000074FBFC0704080000E4FEFC07CA
:104CD000A1F9FC07A2F9FC07074B10B50400002B53
:104CE00002D0002100E000BF044B1B68002B00D065
:104CF0009847200000F03AF8000000008C67FC079D
:104D000003008218934200D1704719700133F9E70C
:104D100070B500260C4C0D4D641BA410A64209D1A1
:104D2000002600F039F80A4C0A4D641BA410A64274
:104D300005D170BDB300EB5898470136EEE7B300DC
:104D4000EB5898470136F2E75056FC075056FC07DF
:104D50005456FC075056FC07002310B59A4200D168
:104D600010BDCC5CC4540133F8E70000FEE7C04638
:104D700002B4714649084900095649008E4402BCF4
:104D80007047C04602B4714649084900095C4900B1
:104D90008E4402BC7047C046F8B5C046F8BC08BC9B
:104DA0009E467047F8B5C046F8BC08BC9E467047A2
:104DB000E60303091800444C475F5448524D005223
:104DC000656E6573617300444131343533350031AC
:104DD0002E302E302E302D4C4500765F362E302E64
:104DE00032342E3134363400312E312E300012342C
:104DF00056FFFE9ABCDE00FFEEDDCCBBAA00000031
:104E0000000102030405060708090A0B0C0D0E0F2A
:104E10000BFF00D2444C472D5448524D0000000077
:104E20005BB0050200000000320000000106020035
:104E30000000000101050200000300018504FC07D9
:104E4000DD12FC071113FC0700000000A104FC07A1
:104E50003D04FC0700000000D02EF807C02FF80723
:104E60002000800000C00000000004000000282294
:104E7000000000000000040000F7FFFF7F000000BA
:104E800030F00708000000000004000000000000EF
:104E90000000000000000000000000000000000012
:104EA00001D200800500010007070A070D0508066A
:104EB00007000000BF4DFC07C74DFC07CF4DFC07A6
:104EC000C74DFC07DA4DFC07E84DFC07EE4DFC072B
:104ED000F74DFC07A04EFC0700000000983BF207CE
:104EE000E4CDFC070400010001240000D902FC0706
:104EF00003240000DD02FC0704240000E102FC079B
:104F000013040000E510FC07140400006911FC07FD
:104F1000021400003D12FC07011B00004703FC07C0
:104F2000031B00004D03FC07061B00004D1BFC0784
:104F3000081B0000C51AFC07FD31F207DD17FC074E
:104F40001503FC071D12FC07DD11FC07B111FC075E
:104F5000FD11FC07F8000000130E00004115FC07CE
:104F6000150E00008D1EFC07170E0000A103FC07A4
:104F7000190E0000A503FC07150D0000BD03FC077A
:104F800000280000010000000000000003280000CD
:104F90000100000000000000192A000001000000CC
:104FA00000800000022900000980020000000000CB
:104FB000042900000100000000800000C44FFC072D
:104FC0000600000000240000852DFC0702240000DC
:104FD000712BFC07170C0000391EFC07150C000094
:104FE000552EFC07130C00007931FC07000C000063
:104FF000F527FC070129FC07E726FC07310BFC0716
:10500000410BFC07800000005925FC07020000004E
:105010007D25FC07080000008525FC070001000035
:10502000A125FC070002000075C1F0074000000048
:105030003794F00710000000C97BF007040000005F
:105040002D25FC07010000006525FC07200000005D
:105050007108FC07000000000000000000280000AC
:105060000100000000000000032800000100000013
:1050700002000000292A00000100000080800000DA
:10508000032800000100000004000000242A0000A2
:1050900001000000808000000328000001000000E3
:1050A00006000000252A00000100000080800000AA
:1050B000032800000100000008000000272A00006B
:1050C00001000000808000000328000001000000B3
:1050D0000A000000262A0000010000008080000075
:1050E00003280000010000000C000000282A000036
:1050F0000100000080800000032800000100000083
:105100000E000000232A00000100000008800000BB
:105110000328000001000000100000002A2A0000FF
:1051200001000000088000000328000001000000CA
:1051300012000000502A000001000000078000005B
:105140004851FC0703000000001400002533FC0751
:10515000130C00000D2FFC0703140000DD2BFC07CF
:105160004532FC070133FC07590BFC075B0BFC07BE
:1051700000280000010000000000000003280000DB
:1051800001000000000000001C2A00004000000098
:105190000080000002290000090002000000000059
:1051A0000328000001000000000000001D2A00008C
:1051B0000100000000800000032800000100000042
:1051C000000000001E2A0000000200000080000015
:1051D000022900000900020000000000032800006E
:1051E0000100000000000000212A00000100000072
:1051F00002800000022900000900020000000000F7
:105200000629000001000000008000001452FC0785
:1052100008000000001B0000052EFC07170C000012
:10522000091CFC07150C00005530FC07130C00008E
:105230006D1CFC07000C0000F528FC07021B000099
:10524000E533FC07041B0000652CFC07071B00006E
:10525000112DFC07592AFC070528FC07930BFC07B6
:105260003D14FC070000000000000000F4011000E5
:10527000F4352348F40108C4140A00002400000097
:10528000BD0FFC078110FC07140000000910FC078B
:10529000000000001B0000004110FC07ED1AFC0795
:1052A000FF00000000000000000000001B000000E4
:1052B0009D0BFC07140000005D0BFC0724000000A0
:1052C000510BFC07FF00000000000000B90EFC07B6
:1052D0006D02FC078855FC07D111FC07384FFC070D
:1052E00098CCFC0764CBFC0788CDFC0705000000C8
:1052F000805DFC0700040000C45AFC07B0020000F7
:10530000B856FC07000400008C61FC077005000023
:105310002003000000A60E0004000000D2000000E0
:10532000320000003C00000001000000010000000D
:105330000200000002000000040000000300000062
:105340000600000000000000020000000200000053
:105350000000000000000000030000000300000047
:105360000500000005000000060000000A00000023
:105370000A000000C8000000B80B00000200000096
:10538000B80B0000B80B000010000000D4010000B2
:10539000CC010000700200006A0000000400000060
:1053A00001000000200000000C00000001000000CF
:1053B000E20400008A020000DC050000AF000000EB
:1053C0007455FC07E453FC07000000007C55FC0703
:1053D000CC52FC07000000000000000000000000AC
:1053E0005E0100006056FC075856FC077056FC072B
:1053F000B056FC075923FC073524FC07A7C6F00765
:1054000003C7F0070BC7F0075FC7F00777C7F007C0
:105410008DC7F007AFC7F00731CBF007D5CDF00748
:1054200015CCF00735CCF00755CCF00793CCF0073E
:10543000A3CCF0070DE2F007C9DFF007E7DFF007C4
:1054400003E0F0071DE0F00731E0F007AFE0F00700
:10545000C7E0F007E3B0F1076BB3F10707A9F00766
:10546000B5EFF10799F0F10795F0F10791F0F10729
:105470008D21F0071904FC071908FC07D522FC0749
:10548000E903FC070904FC07057DF007D37BF0075F
:10549000737CF007AD82F1074134F1075D19F20723
:1054A000DD19F207811AF207BD1AF2074D1BF20748
:1054B000851BF207000000001304FC071504FC071D
:1054C0007DB3F007D976F107617DF107B181F1076E
:1054D0009780F107C549F1079759F107F10AF107DC
:1054E000A1ECF0071104FC07914BFC07DDBAF007B3
:1054F00025AAF00799AAF00749ABF007E72DF007B6
:10550000A32EF007657FF0072F7EF0070136F00726
:1055100000000000F522FC070522FC078714FC07A9
:1055200001A7F10783A7F10707A8F1074913FC07B3
:10553000B5B7F00700000000000000000000000008
:10554000000000000000000000000000000000005B
:10555000000000000000000000000000000000004B
:10556000000000000000000000000000000000003B
:10557000000000006C52FC0770CDFC07AC52FC0729
:105580009CCDFC0703000000E520FC07C921FC07B7
:105590000000000000000000F119FC0700000000FE
:1055A0009939FC0700000000ED3AFC0700000000FC
:1055B00000000000000000009112FC07E902FC0757
:1055C000F502FC07A912FC07000000000703FC0716
:1055D0005514FC070000000000000000000000005F
:1055E000B50FFC07F913FC070000000000000000E5
:1055F000A114FC07000000000000000000000000F3
:10560000000000000000000000000000FF0000009B
:0F56100000000000000000000300001000010077
:0856200088ABFF7F01000000D0
:0C5628004456FC074456FC071400000028
:105634000C67FC078400000028CBFC074C03000027
:10564400FF000000E0010000F40100008501FC07F8
:045654005901FC07F5
:105658000000000000000000000000000000000042
:105668000000000000000000000000000000000032
:105678000000000000000000000000000000000022
:105688000000000000000000000000000000000012
:04670800000000008D
:0400000507FC0E2DB9
:00000001FF
