:0200000407FCF7
:10000000005BFC078549FC079949FC07B349FC07DD
:100010008149FC078149FC078149FC078149FC07AC
:100020000000000000000000000000008149FC0703
:1000300000000000000000008149FC075514FC0787
:10004000491CFC07351DFC07A526F007FD14FC071D
:100050006D1BFC078149FC07A512FC078149FC07C1
:100060008149FC078149FC07BD10FC07C710FC074C
:10007000D110FC07DB10FC07E510FC078149FC07E9
:10008000FD10FC078149FC078149FC078149FC07F9
:100090008149FC078149FC078149FC078149FC072C
:0800A0000000000090070E00B3
:0200000407FCF7
:100110000348854604F068FB004800475901FC0786
:10012000005BFC0770B50C460546064E304611468E
:1001300001F05CFAA2B201233046294601F0DCFA54
:1001400070BDC0460011005080B5024860F7D1FA7A
:1001500080BDC0460011005084B05E485E4908185A
:100160005E4940188008401E029000F0EDFB012619
:1001700037020520050701960097288900061FD53C
:100180005748006800041BD4EA480088C00717D10C
:100190005BF78FFA0024204600F084FA514800787B
:1001A00004280BD1012000F07DFA039403A8042158
:1001B0004CF7CEF8002801D000F0DAFA5EF7A4FE82
:1001C00072B601F0E7FDF6490978012901D0032153
:1001D00000E00221042800D00146881E022812D225
:1001E000288A042420432882BB4A106820431060D8
:1001F000B84A1088B0431080688A022907D11021BC
:10020000884368822FE001295FD130BF5DE010276D
:1002100038436882688A2043688201F01FFB688A3D
:1002200038436882029830490860EFF3108086F303
:1002300010882988802291432980002802D086F3E3
:10024000108802E0002080F31088009F688D3842FB
:10025000019E08D001F0FCFA0B205FF7DFFA9F49FE
:10026000C88D3043C88500202883688D384207D167
:100270009A4A90883043908010886021884310808B
:10028000A88CB043A8840D205FF770FA68893043CA
:10029000022188436881A88AC00602D508208749C0
:1002A000088030BFA88AC00602D50820834948804C
:1002B0008A4A10882021014340208143118003F0A5
:1002C000EFFA85490868A043086062B6C82007496C
:1002D000088052E76C5100001001FC07030004F88D
:1002E000300000409CCDFC072000F4070031005096
:1002F00070477047B0B50C460025202D04D042F75A
:10030000FEFA60556D1CF8E70020B0BD80B55FF7C0
:1003100023F880BDF8B56946C870020A8A70020CDD
:100320004A70000E087008465EF7FEFF8FBD7047EA
:100330007047C0460549884200D000BE0448018885
:10034000044A11408918091D0180704711111111CB
:1003500012000050FC7F000010B5064800243E2229
:10036000422321465AF7C8FC4470082101704DF71A
:1003700045FD10BD0408000006480178002902D0A0
:1003800080214170704704480021C170034801700A
:100390007047C046CACBFC0718FAFC0778FAFC077E
:1003A0000A490A78002A03D000280AD17E2009E0F1
:1003B000074A0121D170002800D0022105480170B0
:1003C00070477D20C04348707047C046CACBFC07C9
:1003D00018FAFC0778FAFC07FFB502930191374938
:1003E000082203920A8072B6354EB1890424214353
:1003F000B181B18880229143B180B28840210091BF
:100400000A43B2802F4A148032882F4B1340338026
:100410000022D2432D4B1A60328AD206FCD4F289D4
:100420002B4B1340F3810123DD432A4FBA882A4026
:10043000BA80294A116821431160B18A032291438D
:100440000143B182B08A0C2188430199890001439C
:10045000B182B0891843B081388828400299401889
:1004600038800F208002B98A0143B9829803B98A83
:100470000143B982F08CC005184807D4818819431C
:100480008180018860239943018008E0018820234E
:100490000B4300998B430380B88A0843B882B88A1B
:1004A0001043B882B88A03990843B882B88AA04337
:1004B000B88200BF00BF00BF30BFFFBD0033005097
:1004C0000400005000020050FFF7000080E200E04E
:1004D0007FFE00000C03005010ED00E052000050C1
:1004E00002280FD0012807D0002811D11048017828
:1004F000002917D080210AE00D480178002908D092
:10050000812104E00A480178002905D08221417048
:1005100070470848012107E006480121C1700648DC
:10052000022103E003480021C170034801707047B5
:10053000CACBFC0718FAFC0778FAFC0704480178D4
:100540004A1E50425041022900D108467047C04619
:1005500078FAFC0710488178002904D0491E817080
:10056000090600D070474178002904D0002242706B
:100570000322114003E001780029F3D0491E002234
:100580000270481EC0B20128ECD804480122C27093
:10059000034801707047C046CACBFC0718FAFC0735
:1005A00078FAFC070B488178491C81700178002992
:1005B00000D0704708490023CB7008490A780B70B7
:1005C000012A01D0012100E00221022A00D10321E9
:1005D00001707047CACBFC0718FAFC0778FAFC07D1
:1005E0000148012101707047C9CBFC070148002177
:1005F00001707047C9CBFC07014800787047C046BE
:10060000C9CBFC0710B5EFF31082012080F31088EE
:1006100009490B888021194003D1084B1C880443E9
:100620001C80002A02D080F3108802E0002080F3B2
:1006300010884842484110BD08000050083300505F
:10064000014800787047C0469CCDFC0780B55EF736
:1006500025FD0848AA2101605EF766FD064801886D
:10066000064A0A4007214902511801805EF778FDC9
:1006700080BDC046D4CBFC0726000050FFF0000030
:10068000064948800888032202430A800888042219
:1006900002430A8002480121017070470016005091
:1006A00000CCFC0780B5014609480278002A0ED02C
:1006B000084A002903D011884907FCD402E01188B8
:1006C000490704D40021017018305EF763FD80BD36
:1006D00000CCFC0700160050F8B5842013490E5AD0
:1006E000134FBC69304660431249401812495CF709
:1006F000E5FD0546B8803C3666430E4830180E4985
:100700005CF7DCFD021D0D49A818C01D0A60486099
:100710000B4A1278022A01D11130486000F08AF8A1
:100720000849401880B25BF755F8F8BD2CCCFC079F
:1007300000CCFC0720A1070040420F00BC52FC0780
:1007400078FAFC07E204000080B504498969414356
:100750000348081803495CF7B1FD80BD00CCFC07D5
:1007600020A1070040420F0080B500F063F880BD73
:10077000F0B587B022480121016001680029FCD151
:1007800020480068204DA968884201D20021A96054
:10079000411AC909192930D3A8601C4E308803902A
:1007A0007788B0880290F088019000200590184862
:1007B000049004A800F010FD00F0CCFD00F0F0FD66
:1007C00000F090FD044600F0D5FD68787F280CD03D
:1007D000201A41B2C9114840401A40B2082805DB2E
:1007E000E868401CE86001F083FC6C707780029838
:1007F000B0800198F0800398308007B0F0BDC0460B
:10080000FC0000401C00004000CCFC07001500501C
:100810000104000080B50449896941430348081870
:1008200003495CF74BFD80BD00CCFC0720A107000D
:1008300040420F0080B50246C00B09D00748C0698E
:1008400000210B465CF764FD8905800A401880BDD5
:100850000248C0694243900A80BDC04600CCFC07F4
:1008600080B5034801680348801C5EF7D1FC80BD59
:100870007852FC0700CCFC070020704780B5064882
:1008800000210160FFF728FF0120C00703490A6823
:1008900082430A6080BDC0469CF9FC0730000040DE
:1008A000002805D00748C18880694843C00B01E093
:1008B0000448C0883F210840034A13888B43C0186E
:1008C0001080704700CCFC0700010050B0B540011B
:1008D000074A84184B001B1903252D029D80012512
:1008E0008D4085522F205EF741FF6580B0BDC04628
:1008F0000230005080B5024908805EF7A1FC80BD3F
:10090000D0CBFC070248018802220A4302807047CC
:100910003800005010B50A4C20880821014321807E
:100920004B2080005EF722FF6088802101436180B8
:100930000F20800203490A8802430A8010BDC04686
:100940005200005020030050F0B587B07148C82114
:1009500005910180002747806F480826068000F037
:10096000EBFA6E4D288806AC20802088C046C04631
:1009700020880422D14308420397029201D02F809D
:1009800003E0A88901218843A881FFF7C3FF6448D9
:10099000C28D06218A43C2850124A203AB8B134377
:1009A000AB8302885F4B1340038042880A43B24303
:1009B000428005210F07798D5B4BFF33C28D1A40B2
:1009C000C905049625D40F210B0303250195314653
:1009D0006E02524D3243C285C28D1A43C285AA8B24
:1009E0008A43AA83AA8B04239A43AA834288504B42
:1009F0001340438042884F4B13400199C902591854
:100A00004180C18D2143C185029E798D4907FCD566
:100A100016E0A1020A43C285C18D444A0A40E1039F
:100A20005118C185A98B3143A983A98B029EB1437B
:100A3000A983C18DA143C185A98B40220A43AA8302
:100A4000A98B03220A43AA83018820220A4340215A
:100A50008A430280388F022528433887364806802B
:100A6000B88836490140B98035488470200435493A
:100A7000086000F0F3FE284600F0FAFEDC4D28681E
:100A8000C1B20C20AA29014600D031463A888243DF
:100A900088183880C046C046294E3046103000F0D5
:100AA0002BFA00F049F98620F049085AFFF722FF97
:100AB0007F207070A8692449086000F0DDFE00F016
:100AC00047F802F0EDFEFFF7C1FD00F07BFC844823
:100AD000006841F7BFFB1D4803990171C1702002F6
:100AE000A1070A6802430A601E20FFF7C9FD2046DD
:100AF000FFF7D8FDFFF740FC02F034F902F02AFFBF
:100B0000FFF7BCFE03480599018003480499018062
:100B100007B0F0BD00310050023300500403005014
:100B200052000050FFBF000000F0FFFFFF0F000069
:100B3000FFF90000FFC7000000020050FFF70000AF
:100B400000CCFC0780E200E0F453FC0718FAFC0735
:100B500070B5344800683449884257D1354C36491D
:100B600020465CF73EFC0725290234485CF739FC37
:100B700003F010FE324833490160334833493022D4
:100B80005CF716FC32480026C67186714671067104
:100B9000C670867046703F2101702E482EA14022FB
:100BA0005CF706FC3C48C671867103214171FF2148
:100BB0000171C17081704170017038480670384809
:100BC000384901603848394901603948394901607C
:100BD00039480A21017039480670394805210160F9
:100BE0003848012202603848016038480621016017
:100BF00037480560374808210160832040003649A6
:100C00000860364908603648046070BD0020074916
:100C1000074A05235B029842A0D843588350001D21
:100C2000F7E7C0469CF8FC076587341200F0FC0724
:100C3000E8CEFC0700E0FC07AC14000000F9FC075C
:100C400024FAFC071C4EFC07C8F9FC075CDEF10720
:100C5000A4F9FC073CFCFC072000800000C0000059
:100C60000000040000002822000000000000040032
:100C700000F7FFFF7F00000030F0070800000000D1
:100C80000004000000000000000000000000000060
:100C90000000000000000000ACF9FC07C5F9FC07EB
:100CA00050F9FC07E036F20754F9FC07D04FFC0777
:100CB00058F9FC07944EFC07A1F9FC07A2F9FC07C0
:100CC0005CF9FC0760F9FC0764F9FC0768F9FC07AC
:100CD0006CF9FC0770F9FC0748F9FC0744F9FC07BC
:100CE0004CF9FC070248002101600248018070476E
:100CF0000000084028CCFC0770B51E2816D10C480F
:100D0000101849080B4A0B0610D0046843680830D5
:100D1000002635460835382D06D09619366BA64282
:100D20002E46F7D15419E362491EECE770BDC04668
:100D3000D42EF8072CCCFC07F0B589B00120C046B2
:100D4000C04688271F4C0025E5536E461EA124226D
:100D500030465CF72DFB254920462A4633465EF790
:100D600085FBE15DCA0701D000BEE15D4908E155A0
:100D70008921625CD30701D000BE625C52086254D4
:100D80008421625A002A02D17D22D2006252862139
:100D9000625A002A14D1FF221302154A12681A401F
:100DA00035231B029A4209D00D239B029A4203D09D
:100DB00033231B029A4203D1942200E09022625214
:100DC00009B0F0BD2CCCFC07F50DFC070D0EFC079F
:100DD0003D0EFC0700000000710EFC07F90CFC073B
:100DE00000000000D02EF807C02FF807A000FC0775
:100DF000D02FF80788001018024940587C21024A79
:100E000050527047D02EF8072CCCFC0770B50C461A
:100E1000084811188825084E705DC0003018A200DF
:100E20005CF7C6FA705D00197055C0B20D2800D38A
:100E300000BE70BDD42EF8072CCCFC0770B50C4654
:100E4000094811188925094E705DC00030183030EE
:100E5000A2005CF7ADFA705D00197055C0B20D28A4
:100E600000D300BE70BDC046D42EF8072CCCFC07C2
:100E700010B50A48115809234B431058000C1A1A90
:100E80001204D2148023064CE252401A0104890C49
:100E90000818401C7E21605210BDC046D42EF807B1
:100EA0002CCCFC0710B5074C2078401C207006495C
:100EB0000A78091DC3B205485EF7F6FB2078401E8C
:100EC000207010BDB0CDFC078052FC072CCCFC0775
:100ED00010B5074C2078401C2070064A51681278E3
:100EE000C3B2FA485EF714FC2078401E207010BD93
:100EF000B0CDFC078052FC0780B5024906225CF7A2
:100F000057FA80BDD42FF80780B5024800785EF705
:100F1000B5FC80BD60CDFC0780B503490A78034964
:100F20005EF7D4FC80BDC04660CDFC07FB53FC07D8
:100F300080B55EF7F9FC80BD1CB500202C4C0190FB
:100F40000198002812DC00200090009901980B29DC
:100F50000ADC3021414360180099890040180021C3
:100F600081600098401CEFE7401CE8E702F0A0FB1E
:100F700000206060206001900198002837DC00208C
:100F8000009000980B282FDC009801990B282BD893
:100F90003020019941436118009A920089188968AC
:100FA000491C00D100BE019941436118009A92008A
:100FB00089188968002914D001994843201800999C
:100FC000890040188068C117009A5CF735FA019AC9
:100FD00012015CF731FA62680A43216862600143DA
:100FE00021600098401CCBE70198401CC3E71CBD62
:100FF000D0CCFC0780B5084611461A465EF7AAFC1D
:1010000080BD80B508465EF7ADFC80BD10B51C46BE
:101010000846029B114622465EF7BEFC10BD80B515
:10102000084611465EF7CAFC80BD80B508465EF7EB
:10103000ABFC80BD80B508465EF79EFC80BD80B5E8
:1010400008465EF7C7FC80BD80B508465EF7CEFC5B
:1010500080BD1CB51C46084605990091049B1146AD
:1010600022465EF7CFFC1CBDC0B202460A3A042AF3
:1010700004D88000024A8018283801607047C046B2
:10108000B8CCFC0710B504460A38C0B204280FD803
:1010900020465EF78DFDA0000649401828380068FC
:1010A000002801D0804710BD0120A04002490860FF
:1010B00010BDC046B8CCFC0780E200E080B50A2035
:1010C000FFF7E0FF80BD80B50B20FFF7DBFF80BDA1
:1010D00080B50C20FFF7D6FF80BD80B50D20FFF74F
:1010E000D1FF80BD80B50E20FFF7CCFF80BD80B55D
:1010F000084611461A465EF76DFD80BD10B55EF7D5
:1011000050FB23480188090518D5224A1188052378
:101110000B40052B12D11088042108431080108841
:101120000123984310801C480368002B2ED0022016
:10113000105E515E0A24125F984710BD0188C906EF
:1011400006D516498A88D20702D00A88120612D418
:101150000088C0061AD511488188890716D50188EC
:10116000C90513D50221818001880D4A0A400280F9
:101170000948806807E00120888008888022904321
:10118000088005484068002800D0804710BDC04650
:10119000040000500002005008CDFC070001005080
:1011A000FFFE000080B55EF79DFD80BD80B55EF757
:1011B000BDFD80BD014948607047C04608CDFC07B1
:1011C000014988607047C04608CDFC0701490860A6
:1011D0007047C04608CDFC077FB5074901AB1A46EA
:1011E00070C970C27C21054A515A09091971044914
:1011F0005FF74AFE7FBDC046E449FC072CCCFC07E4
:10120000C452FC07704770477047C04609490A88B6
:10121000202313430B8008490860FF20000407497E
:101220000A6882430120C005101808600448402164
:10123000016070470015005014CDFC0704E400E085
:1012400000E100E0084840210160BFF34F8FBFF389
:101250006F8F0648028820239A43028004480022A8
:10126000026004480160704780E100E00015005012
:1012700014CDFC0780E200E07FB5074901AB1A46B8
:1012800070C970C27C21054A515A09091971044973
:101290005FF754FE7FBDC046E449FC072CCCFC0739
:1012A000C452FC0780B5044801210180034800684E
:1012B000002800D0804780BD0E15005014CDFC07DB
:1012C00080B5024906225FF7A7FE80BD2CCCFC0743
:1012D0000120000302490A8802430A807047C04681
:1012E0000015005080B55FF7C3FE00F001F880BD27
:1012F00080B50B490988401A7D21CA001146414337
:10130000002804DC074A8918C017084001E0881843
:10131000963005495BF7E8FF8009193040B280BD7F
:10132000C452FC0782FBFFFFFC08000070B51446A6
:101330000D460646064801210180002D07D0308861
:10134000FFF7D6FF2070B61C641C6D1EF5E770BD5C
:101350000E15005004480188044A1140044B1980BE
:10136000408810405880704708150050FF03000067
:1013700018CDFC0710B507480188074A1388074CA9
:1013800023400B4313804088518821400143518002
:1013900010BDC04618CDFC070815005000FCFFFF2B
:1013A00006480188064A114001235B02C9180180E2
:1013B00041881140C91841807047C0460815005047
:1013C00000FCFFFFF8B519480068194EB0422CD058
:1013D00018480068184908601848016818480170E2
:1013E0000A0EC2700A0C8270090A41700721890135
:1013F0000022144B00290AD0491ECC5C9F5C0325B7
:101400003D40455D65407D409D54521CF2E7041D02
:101410000C491C2220465EF747FD002800D000BE84
:1014200020465DF781FF01480660F8BD9CF8FC0787
:10143000658734124CF9FC0708020040F453FC079E
:101440008852FC07E8CEFC07014908607047C04697
:101450001CCDFC0780B503480068002800D08047F9
:1014600080BDC0461CCDFC07B0B50E4A14680123F0
:101470009C431460FF24240655682540401E2843E1
:10148000506090682040906010680224A04349009A
:1014900001431160106804218843106010681843EC
:1014A0001060B0BD10E000E0FF20000604498A682B
:1014B00002408A6008680122904308607047C04675
:1014C00010E000E080B50021FFF7CEFF064801687C
:1014D000C903FCD5FF21090682680A4082600168C1
:1014E00001229143016080BD10E000E0FF20010671
:1014F000014800688843704718E000E070B52F4C41
:101500002F4D304E40E0AA8CE88C90422FD2296AB1
:10151000904239D22289C0231340C02B03D1328894
:10152000920703D430E0A28A92062DD5421CEA84A9
:10153000085C2080AA8CE88CEAE72A6B002A23D07A
:10154000012105E02A6B002A1ED0A08A9E210140BD
:101550002046904718E000F055F9A0880121884303
:10156000A080A96B00290FD0E88D88470CE0A088E7
:1015700002218843A080A08880218843A080696BD5
:10158000002901D0A88C884720890F210140481EDE
:101590000B28F9D878440079400087440D0C0B08DB
:1015A0000B07060B0B0B0B05D5E7C6E7CAE700F0E8
:1015B00029F9E9E7E8E7A6E770BDC0460011005049
:1015C00020CDFC077C11005010B5828980231A437E
:1015D0008281CAB2C02402538AB2120A0280090C64
:1015E000C9B2818081899943818110BD044A801AE2
:1015F000421E90414001034A101841617047C046A5
:101600000010005020CDFC07044A801A421E904171
:101610004001034A101881617047C0460010005015
:1016200020CDFC07044A801A421E90414001034A23
:10163000101801617047C0460010005020CDFC0713
:10164000FEB50C4605465EF7EFFF7C20285A208841
:10165000A178090441182846FFF7B6FFE0781F215A
:101660000140C008042202400A43AA8128467C3077
:10167000E178C9098183032166561D4B184610384D
:10168000002E21D52A469C32854216D17608202785
:1016900002973E4001961F88029EB743019EBE19E5
:1016A0001E80E6787609022702973E4001961F8841
:1016B000029EB743019EBE191E8023791B079B0F14
:1016C000138023790B409380281A411E88414001E2
:1016D00008490818A1680177E16801612169416141
:1016E0006169816121790907890F4177FEBDC04693
:1016F0001010005020CDFC0770B5174D441B661E1E
:10170000B4416401154E3419A2800026E680012BF5
:1017100004D0002B1ED15EF7DDFF70BD21600221D9
:10172000A84201D10A4600E00322012595400C4B56
:101730001D60BFF34F8FBFF36F8F83880B43838090
:10174000818880230B438380217F104600F00CF8B2
:101750000448056070BDC0460010005020CDFC0755
:1017600080E100E000E100E08007C00E8907090E7B
:101770008140FF2282400348036893430B43036088
:101780007047C04600E400E070B5174D441B661E6C
:10179000B4416401154E34190026E681A281A1608E
:1017A000012B04D0002B1DD15EF7B0FF70BDA84205
:1017B00001D1022200E0032201210D4695400C4B8D
:1017C0001D60BFF34F8FBFF36F8F83880B43838000
:1017D000818804230B438380217F1046FFF7C4FFD9
:1017E0000448056070BDC0460010005020CDFC07C5
:1017F00080E100E000E100E080B5AF2252005EF73A
:10180000A5FF80BD70B50D48C38D826A848D0C49DB
:10181000A34208D28D8AED070ED00D885E1CC685C6
:10182000D5543346F4E78A8801239A438A80816B32
:10183000002901D0C08D884770BDC04620CDFC076F
:1018400000110050014800787047C04660CDFC0789
:10185000014800210170704760CDFC0780B5024847
:1018600002495FF763F980BD60CDFC07FB53FC07BD
:1018700080B55FF723F980BD80B5024802495FF764
:1018800001FA80BD60CDFC07FB53FC07B0B50C4CE2
:101890000025A5802180214614310DC10498C1077F
:1018A0008A0F024322620748828C002901D150210D
:1018B00002E0018E25210901018003486063B0BD6B
:1018C00064CDFC0730130050E118FC07024A118078
:1018D000024948637047C0463013005064CDFC078E
:1018E00070B541061E4C1DD4800520D41D498B883F
:1018F0004A691D480D889BB2AB4222D2A68BB6071F
:101900001FD55E1CAE4201D0002504E00D6A022600
:101910002E4075086D02D35CEB1803808B885B1C2E
:101920008B80E7E7002000F035F9208870BD0D4876
:1019300001888088411A4842484100F02BF9A0896B
:1019400070BDAB4206D12022895CC90703D10120BA
:1019500000F020F970BD018C10229143018470BD0C
:101960005413005064CDFC0710130050B0B5084C60
:1019700000252582A5812181606204982063E362AD
:10198000A262044860630448818C54210180B0BD88
:1019900064CDFC079D19FC073013005070B540065C
:1019A000184C18D4184819490A890B8A934217D23F
:1019B000A58BAD0714D55D1C0D8201231B020E6B98
:1019C000B60701D41E4601E003263602954200D038
:1019D0001E460680E8E7002000F0F4F8208870BD7D
:1019E0008B894D6A934207D2A68CB60604D006882E
:1019F000EE545B1C8B81F5E7934202D1012000F08D
:101A0000E1F870BD541300501013005064CDFC0772
:101A1000B0B5064C0025A5812181054961632146A9
:101A200024310DC1034804490180B0BD64CDFC07D9
:101A30003D1AFC073013005006020000F8B50446BA
:101A400080070F4D03D5002000F0BCF8288F0D4A09
:101A50009089536A11890C4E378BBF0606D0884295
:101A600004D22F881F54401C9081F5E7A20502D4B0
:101A7000884200D0F8BD012000F0A4F83088F8BDFD
:101A80001013005064CDFC0760130050B0B5074C34
:101A90000025A5802180214614310DC104486063D2
:101AA0000448818C04490180B0BDC04664CDFC0768
:101AB000BD1AFC0730130050E6020000B0B5044622
:101AC00040061F4D03D5002000F064F82888A007C9
:101AD00004D5002000F05EF81A48008F200616D4C6
:101AE000A0051CD4A00625D5164C1748038881886C
:101AF000994220D24269994220D2AB8B9B071DD5D7
:101B00004B1C8380515C218003888188F3E70E4859
:101B100001888088411A484248412C1D07E00A4844
:101B200001888088411A484248410C352C4600F013
:101B300031F82088B0BD40340020F8E74034F8E7A1
:101B4000541300501013005064CDFC0704480021CA
:101B50000180044841630448102101607047C04679
:101B60003013005064CDFC0780E200E080B50648E9
:101B7000416B06480088002901D0884780BD044891
:101B80001021016080BDC04664CDFC072C130050BD
:101B900080E200E080B50246074800210180074846
:101BA00041634161064910230B608369002B02D019
:101BB0008188C069984780BD3013005064CDFC0710
:101BC00080E200E080B50246074800210180074816
:101BD00041634162064910230B60836A002B02D0E7
:101BE0008189C06A984780BD3013005064CDFC07DE
:101BF00080E200E0F8B50F4FBC682046FEF7B4FD68
:101C00000D490A6800230B6016180C4D3046294612
:101C10005BF754FB78610A494143881901D0281ABF
:101C200080B2386138680821014339600548046092
:101C3000F8BDC04630000040A0CDFC077102000096
:101C40008FFDFFFFACCDFC0780B504480188044838
:101C500000885FF763FA00F005F880BD04CCFC074C
:101C6000D0CBFC0780B55DF79CFD0F484188890704
:101C700003D04188032291434180018880220A4396
:101C80000280018904229143018181898907FCD561
:101C900000F074F805480168490700D500BE0168E6
:101CA0004907FCD580BDC046080000501000004028
:101CB00080B54AF7F6F91E20FEF7E2FC80BD80B53C
:101CC00047F70AFC80BDC04680B5002047F7B8FB47
:101CD0000248042101705FF793FC80BD9CCDFC0796
:101CE00080B5012047F7ACFB80BDC04680B50848F1
:101CF000018801229143018059F742FD40F7A0FC81
:101D00001E20FEF7BDFC03480021017080BDC046C7
:101D1000083300509CCDFC0780B559F74DFD4AF7BC
:101D2000C0F902480121017080BDC0469CCDFC076E
:101D300000BE704780B5AF480168C90703D001688D
:101D400002220A4302600168490204D50121890583
:101D500002680A43026002485FF70AFA80BDC04683
:101D6000844AFC0780B540F7B0FA0248006802498F
:101D7000086080BD08020040A4CDFC0780B540F794
:101D8000D0FA024800680249086080BDA4CDFC0773
:101D9000080200407CB501A8002505704E4C206863
:101DA000806A0090FEF728FC002803D14B48007998
:101DB000022800D100954A4801A94A4A5FF7F0F984
:101DC000002800D084E0FEF717FC002806D1464822
:101DD000806A002802D02068806A0090FEF77CFCB0
:101DE0003F4C694620465FF711FA002870D1012068
:101DF0005DF7E2FC3D4D0098002806D029683C4A7A
:101E00008918DA2901D8401E00903A4800883A49DA
:101E1000096808186060E869384A02400A43EA61C4
:101E2000E86937490140374E306880020843E8616D
:101E3000E86935490140606840054018E86101A83B
:101E400004210170009A3148824200D300BE30491B
:101E50008868C96800235BF75BFA0903000D411825
:101E60003068821C8A4200D0481E2A4908601B49FB
:101E700009794A1E914147F79FFC2748C06A80476D
:101E8000FEF7FAFC0446002801D05DF77FFC2869C4
:101E90000004FCD5574D2868C005FCD5286880266D
:101EA000B0432860002C01D05DF77BFC1B48018803
:101EB000452904D846220280501A19490860FFF7C4
:101EC00051FF28680006FCD577480188B14301809E
:101ED00001A800787CBDC04658F9FC0718FAFC0739
:101EE0009C52FC076108FC0700FEFC072000004034
:101EF000C8FEFFFF04CCFC07BC52FC0700FCFFFF40
:101F0000FF03E0FFC052FC07FFFF1F0040420F002D
:101F100018CCFC07A8CDFC07E4FEFC070A330050F0
:101F2000A0CDFC07002070477047C046F0B58BB0CD
:101F30003021002444542649264A274B4361274B2D
:101F4000274D284E284FC761056242628162C362F5
:101F500026490660416000F051FB1F20000424491F
:101F60000A68824301204304D2180A60C004214950
:101F70000A6882430A60282C03D001A80455641C17
:101F8000F9E71D480068403001A928225BF710FAE4
:101F9000082000F0BDFB00F0C7FB002802D00120A4
:101FA00000F0B6FB5FF716FBFEF77CFFFEF790FF35
:101FB00000F0B2F85FF74CFB5FF75EFB5FF7D0FA1B
:101FC0000E485FF797FB5FF71BFB0BB0F0BDC046F9
:101FD000291FFC07251FFC070120FC073516F20707
:101FE0002720FC072520FC072B20FC072920FC07C5
:101FF00074000040000200404CF9FC0770E0FC0750
:1020000080B5022902D0012900D000BE002802D0EC
:10201000FF2804D000BE022901D10C2080BD00F0B1
:102020007DFB80BD70477047704780B5E62800D3C0
:10203000E620282800D82820FF22EC3242437D20C9
:10204000C10010465BF73AF97E38C0B280BDC04689
:1020500080B51F20000401218A07536F8343480481
:102060001818506710680721884310600E480188CF
:1020700008220A43028000F057FB002802D001200A
:1020800000F046FB5FF7A6FAFEF70CFFFEF720FF15
:1020900000F042F85FF7DCFA5FF7EEFA03485FF70B
:1020A00019FB5FF7ADFA80BD0800005070E0FC0737
:1020B000B0B5044609480A4D402229465BF778F935
:1020C00048350848302229465BF772F90648001B5C
:1020D0000649088014304880B0BDC04670E0FC0757
:1020E0007C37F207B0E0FC07B8E0FFFF78E0FC07C0
:1020F00080B55FF76FFAFEF7EBFE00F00DF85FF7C3
:10210000A7FA5FF72DFA03485FF7D4FA5FF778FA7A
:1021100080BDC04670E0FC07FCB57F20010264482A
:1021200042698A430B21090251184161016889B251
:10213000604A8918016081695F4A0A40826103210F
:1021400001910902026B0A430263818F10220A4344
:102150008287818801220092114381805748584923
:1021600001605849088810430880574D28461038A8
:10217000564EB18B01401520440108195030B083F0
:10218000706953490140534808187061B069524959
:102190000140092040020818B06130684F490140F1
:1021A0004F480818306070684E4901404E48081882
:1021B0007060B0684D4901404D480818B060F06843
:1021C0004C4901404C480818F060C12040014B497F
:1021D0000978090608184A49086005208202494919
:1021E0000A80571D8F800F8B34203843CB27B8438C
:1021F0000883088C55270743AA2087430F84FF27AD
:102200006C373846C93008853F4B18460E308885F4
:102210003E4808868B860A3008870A323285B06BC2
:102220003B4901403B480818B0633B480780028F98
:102230002A402146203152180287384E32882A40DF
:10224000D219D5323280B2882A401219B28032892E
:102250002A40511831813946213181803048018826
:102260002940091960310180018A17220A43082197
:102270008A430282818A19220A4306218A43828282
:1022800007841F4A908F274901400098400308188F
:1022900090870C4A106C019908430421884310640C
:1022A000506A21490140214808185062FCBDC046CF
:1022B0002030004000006666FF00FEFF8000004006
:1022C00059055C07401000401FFCFFFF0420004040
:1022D0000000E0FF09581A00FEE1FFFFE0E0000007
:1022E0000809294900000303696A686C031FFFFF9E
:1022F00070600000E0E0E0E00B0A0A08B0CDFC07E7
:102300000010004028130040260A00004E0800007C
:102310002304E0FE181A0601001200404412004097
:1023200088120040FF9F000000FE00FE5001500197
:10233000F0B589B0324908680790886C0690C86C7F
:102340000590304C206808902F4E306A04902F4A38
:10235000106803902E4B18680190306802902D4849
:10236000006800901868012738431860B77100258D
:102370008D64CD64284820602068022101432160DB
:10238000F803216881432160B8032168014321607B
:10239000032000022168814378020818206015603C
:1023A000756202F008FA306A800728460FD4306A56
:1023B0003843306202F004FA306AC007284606D07B
:1023C00002F008FA306AC007284600D13846756224
:1023D0000B49079A0A60069A8A64059ACA640499A6
:1023E00031620A49039A0A600949019A0A60089908
:1023F0002160029931600749009A0A6009B0F0BD76
:1024000008120040282000400010004094120040B4
:10241000A81000400030004094A4F800F0B585B04A
:102420005EF784FF544D2868142101436B208143DB
:10243000296000F0ABF802F0C8F9EA6FE96FE86FC5
:102440002B6D1E24A3431207D20E9A182A65072269
:1024500052022B6D934370220A405101591829658D
:102460003F214904800208402A6D8A4310182865DC
:10247000286D424908400321490740182865022772
:10248000F9430191E86C0840E864E86C01242043BA
:10249000E864286D2043286521020491286D0843D3
:1024A000286521040391286D084328653448401CA1
:1024B000296D01432965286C402102910843286455
:1024C000286C1F2101432964E86C3843E86402F05A
:1024D00081F9AE6F2B488682E86C01990840E86468
:1024E000286D264908400521490740182865E86CF1
:1024F0003843E86402F06EF9A86F2249C882204987
:102500000E400840311A20485AF7D8FE1D4F388334
:10251000E143EA6C0A40EA642A6D0A402A65296DA3
:10252000049A91432965296D039A91432965E10530
:102530002A6D8A432A65296C029A91432964C10550
:10254000C90FC8407F220240C8011018C61C00F005
:102550003DF802F030F97E70F0B2E968FF22914355
:102560000918E96000021102EA688A431018E8605D
:10257000204605B0F0BDC04604300040FFFFFF001C
:10258000FFFF7F00C652FC0740E0000080B50B480B
:1025900001688905C90E0A4A11701F2149010268A4
:1025A0008A4302600748012101700748016803223D
:1025B0000A43026002F004F980BDC0464C1200409C
:1025C0007452FC0706100040AC10004080B508486B
:1025D0000021016002F0F4F8064800781F2149014B
:1025E000054A13688B43C006800DC018106080BD7B
:1025F000AC1000407452FC074C120040704770470A
:1026000010B51848816A184A11600021C9438162D7
:1026100002683F218A4302600123DA03046894437D
:10262000046003225202446894439B02E31843600F
:10263000436840241C4330239C4344600B06846958
:102640009C430B235B06E3188361890183698B43F9
:1026500099188161816918220A4327218A4382617E
:1026600010BDC04618300040F053FC071248016806
:102670001248816201681C220A4323218A430260B6
:102680000121C90302688A4302603F210A06836967
:102690009343072292069A188261890182698A43CC
:1026A0000F21C9015118816181691E220A4321212C
:1026B0008A4382617047C046F053FC0718300040DF
:1026C000044800210170C26A034B1A60C943C16209
:1026D0007047C04614300040F053FC0703480068C0
:1026E0000349C8620A2008707047C046F053FC07CF
:1026F0001430004001204107044A13688B431360E3
:1027000000071168814311607047C04614300040D3
:10271000014908707047C046B0CDFC0701480078F9
:102720007047C046B0CDFC07014840787047C046AE
:10273000B0CDFC0705484178002906D10121417040
:10274000034909680901090F41607047B0CDFC07D2
:102750000010004004484178012903D10021417054
:10276000416801707047C046B0CDFC07F0B58BB032
:102770001F4616460D46044610980990008800F042
:1027800063F80A90802038439E210140A08A03917B
:102790001D4902910190002000901C490AAA1323B0
:1027A000089528464DF7BEF80546002829D1079719
:1027B000202701210591384658F790F906960646DC
:1027C00039465AF70EFE266130461E3010496160C8
:1027D000A0600898008830830598E0811420E0828A
:1027E000A08A70800798C003069908433080099832
:1027F00000887083301D40F749F9A08A002158F7FE
:10280000ACFC28460BB0F0BDF44CFC070A180000E5
:10281000D84DFC0770B505460469261D30680028B0
:1028200005D0304640F73AF958F7D3F9F6E70020DB
:102830002861204658F7CDF970BD70477047C046F3
:1028400000487047F84DFC0770B501460120002292
:102850001346122A0BD0062494400D46DD40012673
:102860002E40754225402843921C5B1CF1E770BD49
:1028700010B5428B008B431C002009280AD0144657
:10288000C440E40704D09CB2641C8C4203D09B1C5F
:10289000401CF2E70920C0B210BDB0B5438B008BDD
:1028A000421C00200446092C0DD01D46E540ED07D2
:1028B00002D0A14202D0921C641CF4E7092901D085
:1028C000501C00E0002080B2B0BD802901D98D20CD
:1028D00010E008280AD0072804D0062804D10829C7
:1028E00002D005E0062903D3002003E00729FBD02E
:1028F0007220C043C0B27047F8B51D4616460C465C
:1029000014205FF7FBF80746002800D100BE2178AD
:102910000829009534D83846FFF7BFFF002831D08A
:1029200061782078FFF7D1FF054600282BD13F1DA5
:102930003D462D68002D0BD0207829798142F8D1B1
:1029400000223846294640F719F9284658F741F938
:1029500060780830012158F7C1F8054661780831E0
:102960005AF73FFD2078287162786A71A81DA11C72
:102970005AF71EFD3846294640F7ACF8002502E01C
:10298000812500E08225064802230099324658F747
:10299000B3F921780170457058F7C9F90020F8BDE6
:1029A00001140000FEB51F4615460C46104658F7A8
:1029B000E9FB012832D00026002855D102971420C7
:1029C0005FF79CF80746002800D100BE21883846F2
:1029D000FFF74EFF2146082822D8044600910196B1
:1029E0003E1D3668002E29D03079A042F9D1707989
:1029F000831D1E4802992A4658F77EF9044600981E
:102A0000008820800023237170796080601D7279B6
:102A1000B11D1E465AF7CCFC20460CE0022623E0EE
:102A2000124806230C4602992A4658F765F9218870
:102A300001808021017158F77AF915E03C770298FE
:102A4000010A797738465FF777F80146084801268A
:102A50002A46334658F750F9047058F768F9284663
:102A6000314658F77AFB019E3046FEBD140C00003B
:102A700002140000F8B514460D46104658F782FBC4
:102A8000012835D114205FF739F80746002800D116
:102A900000BE397F3846FFF700FF0646787F010207
:102AA00008312A783B7F1348934211D16A7889B262
:102AB000931D224658F720F90746002038713E80C2
:102AC00068787880781D6A78A91C5AF771FC08E04C
:102AD00089B20623224658F70FF90746802038713D
:102AE0003E80384658F723F90021204658F735FB39
:102AF0000020F8BD140C000080B500F08DF980BDF9
:102B000080B500F083FB60F72BF90020FDF7E8FCAF
:102B100080BDC04680B50C214143054A51188978D3
:102B2000FF2902D000F008F980BD00F09DFF80BDB4
:102B300018CEFC0780B500F097FF80BD80B55FF729
:102B4000F9FF002801D000F08FFF80BD80B500F0B4
:102B50008BFF80BD80B504490A780270401C491C77
:102B60005AF726FC80BDC04624CEFC070149498C9B
:102B70000180704724CEFC077D21C1800021818027
:102B800010214180082101807047C04610B50C46D5
:102B9000017801290BD000290ED1428808490A701A
:102BA0004B1C011DD2B218465AF702FC02E04088C5
:102BB00003494884002000E04820207010BDC04632
:102BC00024CEFC07002088804880012008707047D0
:102BD00010B5044640793F280FD83FF790FE20708B
:102BE000010EE170010CA170000A60703FF787FED2
:102BF0002071000AC0210143617110BDFEB5019032
:102C0000FEF72CFE0220FEF733FE174841680291C2
:102C10000468FEF731FE00252F462E462E2D0FD0DC
:102C2000029821462A4660F723FD012108400FA1A2
:102C30004A5D00215AF700FC0E4307436D1CEDE787
:102C40000024019D302C08D038463146224660F7DA
:102C50000FFD287008346D1CF4E7019A5079C021EB
:102C600001435171FEBDC046E42FF8071F171C0930
:102C7000080E11161407181D1E271B150601040047
:102C8000232A290A12250B22281A2D0F2C20210273
:102C900013242B030D051926100C000070B50446F3
:102CA0000948102521462A4600F0DAFC07A05CF707
:102CB00019F909A6002D05D06D1E295D30465CF777
:102CC00011F9F7E770BDC046084EFC07200D0A2039
:102CD00049524B3A2030780025303278000000000D
:102CE00010B512480178124ACCB20C236343D45C6D
:102CF000FF2C06D0D318491C01705B68002BF3D061
:102D00000DE041780B4ACCB21C236343D45CFF2C0A
:102D100008D0D318491C4170DB68002BF3D09847CA
:102D2000002010BD00210180012010BD10CEFC0745
:102D3000444EFC07DC4AFC0770B504460025084EEB
:102D4000E9B21C204843315CFF2907D030180169E3
:102D5000002901D0204688476D1CF1E770BDC046B0
:102D6000DC4AFC0770B50C4E0024B460F46034619A
:102D70000A2232753046153008495AF719FBF48695
:102D800004250749284658F7B6F9FF20B0722846AF
:102D9000214658F7E2F970BD10CEFC07C851FC0778
:102DA000504AFC0780B500F001F880BD70B5154DA4
:102DB0002868002800D070BD13480921042252233E
:102DC00057F79AFF04462860002686720F48E08075
:102DD000A0800D2020801622E272FF200830208182
:102DE00020460C300A495AF7E3FA2B202654204695
:102DF0002B302C340A21074B22465FF7C5FE28688A
:102E000070BDC046E8CDFC070D0D00004C0400006D
:102E1000B051FC07C851FC0780B5FFF7C7FF57F753
:102E200086FF0448002101600420022158F795F92B
:102E300080BDC046E8CDFC0780B500F001F880BD3C
:102E400070B5164E3468002C26D105461448092169
:102E50000422522357F750FF044630601148002DDA
:102E600001D0014600E02021A18007212172002627
:102E70006670002D01D00F2100E00E212170002D81
:102E800001D101208003E0802046093006A10931EC
:102E900006225AF78DFAE673204670BDE8CDFC078E
:102EA0000D0D00004C04000000004C044C04070110
:102EB000000102030405060080B5FFF7C1FF57F7C4
:102EC00036FF0448002101600420022158F745F92B
:102ED00080BDC046E8CDFC0780B500F001F880BD9C
:102EE00070B5154D2868002800D070BD1348092121
:102EF0000422522357F700FF044628601622C272AC
:102F000000268672FF20083020810D48E080A080D6
:102F10000C20208020460C300A495AF749FA2B2011
:102F2000265420462B302C340A21074B22465FF7CB
:102F30002BFE286870BDC046E8CDFC070D0D0000D3
:102F40004C040000B051FC07C851FC0780B5FFF7E6
:102F5000C7FF57F7ECFE064800210160042058F730
:102F600011F9032803D00420022158F7F6F880BD98
:102F7000E8CDFC0770B50D460446084EB078002831
:102F800001D000F0AFFA002D00D075600449204652
:102F900000F068FAB070FFF73FFF70BD10CEFC077D
:102FA000A52FFC0780B55FF773FE044800228270EE
:102FB0004168002901D04260884780BD10CEFC07DF
:102FC00010B5054CA078002801D000F08BFA002045
:102FD0006060A07010BDC04610CEFC0780B500F048
:102FE00001F880BD10B50146002800D000BE8A005F
:102FF0000D4B9858002800D010BD9C1809020A31CA
:103000000A4804220E2357F777FE09210170206039
:10301000102181800021818141817D220281C18036
:103020000821418010BDC046ECCDFC070E0E00000B
:1030300010B50446FFF7D6FF57F779FEA000024906
:1030400000220A5010BDC046ECCDFC0780B500F050
:1030500001F880BD10B5104C2068002800D010BDCC
:103060000E48092104221D2357F746FE2060012146
:103070000175052141820021018281816421418104
:1030800001810B214901C180132202800A4694323A
:10309000C2812031818010BDF0CDFC07110D0000F0
:1030A000F8B514460D460646FFF7D4FF0746012043
:1030B000387538461530062229465AF779F9FE76D2
:1030C0007C813C81F8BDC04680B5FFF7C3FF57F750
:1030D0002EFE02480021016080BDC046F0CDFC07F5
:1030E00010B50D4C2068002800D010BD0B480921F8
:1030F00004220C2357F700FE206001218172022177
:1031000001810B214901C1800022428011220280ED
:103110002031818010BDC046F4CDFC070F0D0000AA
:1031200080B5FFF7DDFF57F702FE0448002101607C
:103130000420022158F711F880BDC046F4CDFC07E9
:1031400080B5054809210422012357F7D5FD022146
:10315000017057F7ECFD80BD030D000080B500F055
:1031600001F880BDB0B5164D2C68002C25D115484E
:10317000092104222C2357F7BFFD0446286017209D
:103180002084114820800025658020460A301121C6
:103190005AF727F96584E583A5832020E0767E2110
:1031A0000A48415AFB2900D3FB21E1848021405A7F
:1031B0000749884200D3084620852046B0BDC04656
:1031C000F8CDFC07040D0000030A000074FBFC07A7
:1031D0004808000080B5FFF7C5FF57F7A8FD024873
:1031E0000021016080BDC046F8CDFC0710B501028A
:1031F0000A31054804240123224657F77DFD047057
:1032000057F795FD10BDC046050E00007047C0463B
:1032100070B50C48092104240A23224657F76CFD97
:1032200005461B202870142630465FF76DFDFF21F0
:10323000743129816C606E806870284657F777FD7D
:1032400070BDC0461B0D00001FB51446012202923E
:10325000044A0192069A00921A46234660F700F843
:1032600004B010BD604AFC07F8B51F460C4608784C
:1032700008281CD80725002100911AA67844007957
:103280004000874419040C0406060F0912001A4E68
:1032900012E00D25174E0FE0062514A60CE00A25B6
:1032A00016A609E008251AA606E017A604E000BE47
:1032B0000026012000903546AB1C1848394657F7C8
:1032C0001BFD0746207838707D700098002804D1D7
:1032D000B81C31462A465AF76BF8384657F727FD8F
:1032E0000020F8BD52656E6573617300FFEEDDCCA2
:1032F000BBAA00006451FC077251FC07312E302E2E
:10330000302E302D4C45000001D200800500010018
:10331000123456FFFE9ABCDE0000000003140000C9
:10332000074801880020090609D5064909680904EB
:1033300005D40548008801210140484248417047B2
:10334000080000503000004018FAFC0710B5044691
:10335000FFF7E6FF002801D1FDF754F9204657F7A3
:10336000E6FC10BDB0B50C463749884231D0374A2B
:1033700090421CD0364988423CD12078401E092812
:1033800056D88000344A1158354B994252D03348B0
:10339000814253D12D48042108230A4657F7ACFC3B
:1033A000217801706168416057F7C1FC46E02078E0
:1033B000411ECAB2092A39D88900274A5358274DD5
:1033C000AB423BD151188A6A0A60616800F06CF820
:1033D00034E06268002A01D100BE62681D48824262
:1033E00001D300BE6268207818494018042157F7BD
:1033F000C2FF23E0531C0121984222D30A3290429B
:103400001FD8C1B2091F8A00134B9958002915D043
:10341000124CA14212D0124CA1420FD09A18C01ED9
:10342000002313609362C0B2884707E000BE05E046
:1034300000BE03E0101800210160816204980021A1
:1034400001700846B0BDC04601040000030400003E
:1034500002040000FDFF3F004CCEFC07B935FC071D
:103460003D35FC07B0B50246002804D00C48824226
:1034700002D300BE00E000BE00240A4823460A2B07
:103480000BD00568002D02D0001D5B1CF7E7016022
:103490005C1CE0B2114600F007F8E0B2B0BDC046D7
:1034A000FDFF3F004CCEFC0770B50C4605460C4EA8
:1034B000FFF736FF002806D07019801C0421224631
:1034C00057F759FF70BDFDF79DF8042108233046DA
:1034D0000A4657F711FC4460057057F728FC70BD89
:1034E00001040000F8B50446401E09281BD8A000BE
:1034F0000F494018071F3868002816D00D4DA84204
:1035000013D00D482018401C0426314657F77DFF84
:103510003D60082308483146324657F7EDFB0470FA
:1035200057F705FCF8BD00BEF8BD00BEF8BDC046AB
:103530004CCEFC073D35FC07020400007047C04636
:10354000F8B50D460446002904D01748854202D339
:1035500000BE00E000BE601E09281ED8800013498E
:103560000A58002A1BD0124B9A4218D00E18114844
:103570002018401C0427394657F747FF3068B062CF
:103580000B48306008230B4839463A4657F7B4FBDE
:103590004560047057F7CBFB03E000BE00E000BEBF
:1035A00000242046F8BDC046FDFF3F004CCEFC077E
:1035B000B935FC07020400007047C04670B500240E
:1035C000084D094E0A2C0BD02868002805D0B042BF
:1035D00003D0601CC0B2FFF785FF2D1D641CF1E70E
:1035E00070BDC0464CCEFC073D35FC070146054882
:1035F0001C38027FFF2A03D01C308A42F9D1704761
:1036000000207047DC4AFC077047C04670B50C4884
:10361000092104241823224657F76EFB05461B2078
:103620002870FD2630465FF76FFB0021A982E96014
:1036300029616C606E806870284657F778FB70BD12
:103640001B0D00001FB51446002202920192069A3B
:1036500000921A4623465FF703FE04B010BD000037
:10366000F8B516460D4604460846114659F7B9FE08
:10367000277CB74201D900BE18E0FEF7EFF8022020
:10368000FEF7F6F8BE082746002E0DD001CF0068E1
:103690005BF7B6FE2870010EE970010CA970000AF4
:1036A0006870761E2D1DEFE7FEF7E6F8207CF8BD6A
:1036B000FEB50020C64356480368002B324600D1B1
:1036C0001A465449486810430D6848600124002B8D
:1036D000204600D03046019005430D604C484368B9
:1036E000002B274600D03746FD0F002B324600D175
:1036F0001A46500040194A68024308684A607A0036
:1037000002430A604248C369002B204600D030467D
:1037100000970290450E002B324600D11A46D00188
:1037200040194A68024308684A60029AD20102437B
:103730000A6037488369002B274600D03746BD0E04
:10374000002B324600D11A46900140194A680243C4
:1037500008684A60BA0102430A602D48C568002D16
:10376000234600D033465A0F002D304600D128465C
:10377000C00080184A68024308684A60DA000243C1
:103780000A602348019A0260009A42608761029AA7
:10379000C261C360C56A002D234600D03346D802FB
:1037A0000A68024348680A605A0D002D374600D166
:1037B0002F46FD02AA1802434A601548C362056AF3
:1037C000002D234600D0334618020A680243486899
:1037D0000A601A0E002D374600D12F463D02AA1866
:1037E00002434A600A4803624369002B00D0344612
:1037F000446160010D6805434A680D60E40E002BCA
:1038000000D11E467001001910434860FEBDC0463D
:10381000D8CCFC07D0CCFC07F0B585B000240094D0
:1038200003273A020397049204231C4E20462146A4
:10383000B0470094012502952046294622463B4682
:10384000B04700942F02072120463A462346134EE4
:10385000B0470094062120463A4623460F4EB04713
:10386000009420460399049E324623460B4DA847F8
:1038700000940B21204632462346084EB047029D55
:1038800000950821092320463A46B04700950521B6
:103890000A2320463A46B04705B0F0BD0D10FC079C
:1038A0007CB51B20FDF738FBFDF71CFAFFF7B4FFD2
:1038B000214D01262E80214C21492046FDF7C0FED6
:1038C000A8893043A8811F485CF7ACFF1E480190CF
:1038D0001E4800906946072220465CF7FBFE204602
:1038E0005CF707FF002403212046FDF79EFB184DDF
:1038F00000940098A84202DA0098441CF8E70024DB
:1039000003212046FDF796FB00940098A84202DAB6
:103910000098441CF8E7002403212046FDF785FBAE
:1039200000940098A84202DA0098441CF8E70020AE
:103930000321FDF77FFB7CBD000300500011005008
:10394000D451FC07324EFC074B0D0A0048575F4F1D
:1039500050C3000070B51E4E0024F472B472AB2048
:103960007072CD203072FF20F0710520B07134707C
:1039700030460C30174916252A4659F719FDB47000
:10398000757003212046FDF755FB0B212046FDF7FE
:1039900051FB11A0174DA84717A001222146A847A7
:1039A0001D4CA04700F0EEFC1C4908700878002868
:1039B00001D120A000E01AA0A847A0470C20FEF7E4
:1039C000A7FE21A0A847A047FFF79AF870BDC04600
:1039D0009CCEFC07B051FC070D0A0D0A3D3D3D2071
:1039E0004441313435333520424F4F54203D3D3D25
:1039F0000D0A0000E5EEF10755415254323A2050CD
:103A0000305F256420285458292C2050305F2564CD
:103A100020285258290D0A00CDEDF107AF52FC07BE
:103A20005B41485432305D20496E6974204F4B0D24
:103A30000A0000005B41485432305D20496E6974D1
:103A4000204641494C0D0A005B52465D20545820E7
:103A5000706F7765723A202B342E302064426D20CF
:103A6000284D4158290D0A00F8B500F0ADFA20485C
:103A70002049FFF7F7FC204CE070FFF793F905466B
:103A8000C67A162E09D8A8190C30A11D062259F79E
:103A90008FFCB21DEA72667116E02B202F5C192F85
:103AA00010D828462B300090E8192C30A11D062292
:103AB00059F77EFCB81D009908708020384360716A
:103AC000324601E000BEEA7A627020460C30294698
:103AD0000C3159F76DFC2B202A5CA2702B342C354D
:103AE0002046294659F764FCFFF796F9F8BDC04611
:103AF000B80B0000013DFC079CCEFC0770B50C46DE
:103B000005460C206843164908188078FF281FD006
:103B1000144801210170144E357114A029465BF739
:103B2000E1F95BF753F9F078FFF7DCFC60880828CF
:103B300007D3102805D8A088002802D1E0887D2866
:103B400008D07D20C0001149FFF78CFC307001E0E7
:103B5000FFF78AFF28462146FEF7DCFF70BDC0460E
:103B600018CEFC07AB52FC079CCEFC070D0A5B424B
:103B70004C455D20434F4E4E4543544544202869F3
:103B800064783D2564290D0A00000000513DFC07C2
:103B900080B5442801D1FFF767FF80BDB0B50E495D
:103BA00000240C7081780DA05BF79CF95BF70EF98F
:103BB00014480470144804701448047014480470C5
:103BC000144D2878002802D0FFF78CFC2C7000F0F0
:103BD000C9F8FFF749FFB0BDAB52FC070D0A5B42C5
:103BE0004C455D20444953434F4E4E454354454454
:103BF0002028726561736F6E3D3078253032582908
:103C00000D0A0000A452FC07A552FC07AD52FC07A8
:103C1000AE52FC079CCEFC07B0B50C463249884238
:103C200029D03249884217D0314988421ED03149C3
:103C300088423FD16088022851D015284AD00928EF
:103C400039D00D2841D011283AD0052832D1294841
:103C5000214600F0D5F9B0BD618826480C2913D162
:103C6000801F80B2214600F025FBB0BD20482146D0
:103C700000F0F2FAB0BD2148022519462B4657F74D
:103C80003BF8A188018013E0401F80B20825194647
:103C90002B4657F731F821780C224A4316498918E8
:103CA0008978017061884180002181808021817143
:103CB00057F73DF8B0BD0F48214600F043FAB0BDBC
:103CC0000C48214600F084FAB0BD0A48214600F0B5
:103CD0005DFAB0BD0748214600F09CFAB0BD05482A
:103CE000214600F0C9F9B0BD0D0C000004FD000034
:103CF0000DFD00000AFD000018CEFC070E0C0000B0
:103D0000F8B505200F4E305634460C3435462B3569
:103D10000028274600DA2F4600F024F870797F212A
:103D200001407818B11D062259F742FBB37871782B
:103D300020462A465EF73AFF03480449FFF792FB04
:103D4000F070F8BD9CCEFC07B80B0000013DFC07ED
:103D500010B5034C2079FFF76BF90020207010BDDF
:103D60009CCEFC070848817AC27A12025118491C7D
:103D700081720A0AC27289B2044A914202D10021B8
:103D8000C17281727047C0469CCEFC07FFFF0000E5
:103D9000B0B5002407212046FDF751F90125454023
:103DA00006212046FDF74BF9002800D1AD1C014843
:103DB0008570B0BDA452FC07F0B585B0764E0027E3
:103DC000B7713069401C306130697449884200D352
:103DD000376134693C252046294659F76FFA294650
:103DE0004143611A7171294659F768FA3171E1202E
:103DF0000101204659F762FA182159F75FFAF1706C
:103E0000FFF7C6FFF07A01282DD1307A012826D19C
:103E100004A8078003A90F8000F0CCFB00281ED067
:103E2000049FB781039CF48138B20A25294659F7CB
:103E30005BFA0290A0B2294659F740FA0346284699
:103E40005843201A80B20090029C6543781B00B250
:103E5000C1174840421A21B251A05BF743F800F065
:103E6000E3FA01203072707A012818D1F079012824
:103E700015D1F07A012812D1FD203EF7A4FC0146AD
:103E80004F480422082356F737FF02218180102172
:103E9000418001214170B189C18056F748FFB07A55
:103EA000012818D1F079012815D1F07A012812D112
:103EB000FD203EF788FC014641480422082356F7BE
:103EC0001BFF022181801421418001214170F18971
:103ED000C18056F72CFF707801283ED1F079012877
:103EE0003BD1FD203EF76FFC0146354804220E23EE
:103EF00056F702FF04460C20608001206070082005
:103F0000A0803A202072E072F0780A25294659F7FD
:103F1000D5F93030A071F078294659F7CFF930271C
:103F20003943E1713079294659F7C8F93030607268
:103F30003079294659F7C2F93943A1727079294677
:103F400059F7BCF9303020737079294659F7B6F922
:103F500039436173204656F7EAFE3078012814D1C0
:103F6000F079012811D1FD203EF72DFC01461448BF
:103F70000422072356F7C0FE082141800121417029
:103F80008180B178817156F7D2FE64200D49FFF728
:103F900069FAB07105B0F0BDA452FC078051010070
:103FA0005B41485432305D20543D25642E25642009
:103FB000432020483D25642E25640D0A00000000A2
:103FC00006FD0000B93DFC0710B5064CA07900289D
:103FD00002D0A079FFF786FA64200349FFF742FA7E
:103FE000A07110BDA452FC07B93DFC070348002195
:103FF000017041704172817201617047A452FC07E7
:1040000070B58C790F4804700125002003212540EC
:1040100002D1FDF70FF801E0FDF707F802260020B6
:104020000B21264002D1FDF705F801E0FCF7FDFF6A
:10403000730805A021462A465AF754FF5AF7C6FED0
:1040400070BDC046FA53FC075B424C455D20575299
:10405000495445204F7574707574733A2030782533
:1040600030325820284F5554313D2564204F555447
:10407000323D2564290D0A00FEB502AA0020907089
:1040800010808A88891D034690421AD2DCB2022C25
:1040900017D80E5C3546303DEFB2092F0CD802AE72
:1040A000375D019313460A460A2179434919315570
:1040B00011461A46019B02E03A2E00D15B1C401CBF
:1040C000E2E702AB1978172900D317210F48C17016
:1040D0005A783B243B2A00D3224602719B783B2B23
:1040E00000D323464371E12424014C433C2555432E
:1040F0002C19E4180461046944610069009004A06B
:104100005AF7F0FE5AF762FEFEBDC046A452FC0705
:104110005B424C455D2057524954452053657454C9
:10412000696D653A20253032643A253032643A258B
:10413000303264202865706F63683D256C75290DE9
:104140000A00000080B5887901210140064801700D
:104150000078002801D1064900E0044905A05AF77B
:10416000C1FE5AF733FE80BDA452FC07AC51FC07D8
:10417000A851FC075B424C455D20427574746F6E1C
:1041800073204E54462025730D0A000080B58879AF
:1041900001210140064841704078002801D10649BC
:1041A00000E0044905A05AF79DFE5AF70FFE80BDB6
:1041B000A452FC07AC51FC07A851FC075B424C45DC
:1041C0005D2054696D65204E54462025730D0A000C
:1041D00080B588790121014006484172407A002863
:1041E00001D1064900E0044905A05AF77BFE5AF7C1
:1041F000EDFD80BDA452FC07AC51FC07A851FC07A3
:104200005B424C455D2054656D70204E5446202520
:10421000730D0A0080B5887901210140064881723A
:10422000807A002801D1064900E0044905A05AF728
:1042300059FE5AF7CBFD80BDA452FC07AC51FC07D8
:10424000A851FC075B424C455D2048756D204E54DB
:10425000462025730D0A0000B0B50D461448FD2117
:1042600004220824234656F747FD002181712A784D
:1042700002706A884280921E132A13D87A441279F7
:10428000520097440B0F0F0D0F0F0D090F0F0B0965
:104290000F0F09090F0F0909022105E0848004E0CE
:1042A000012101E001228271818056F740FDB0BDFD
:1042B0000EFD0000F8B50D46FD203EF784FA0146DC
:1042C00024480422102356F717FD044628780C21B1
:1042D0004143214840188078207068886080082019
:1042E000A0803A20207360720020A0711B4EF078ED
:1042F0000A25294658F7E2FF3030E071F078294668
:1043000058F7DCFF3027394321723079294658F7B6
:10431000D5FF3030A0723079294658F7CFFF3943A6
:10432000E1727079294658F7C9FF303060737079AF
:10433000294658F7C3FF3943A173F178327973796D
:1043400007A05AF7CFFD5AF741FD204656F7EFFC7C
:10435000F8BDC04605FD000018CEFC07A452FC07BE
:104360005B424C455D20524541442054696D653A9D
:1043700020253032643A253032643A253032640DDB
:104380000A000000BFB50021114803910399814242
:1043900002D20399491CF8E702A8002585700D494F
:1043A000018000F029F80446002807D01148019543
:1043B0000199814209D201994D1CF8E7064801880C
:1043C00006A05AF78FFD5AF701FD204604B0B0BD94
:1043D00000E20400BE080000F853FC075B414854AB
:1043E00032305D20494E49542041424F52543D25C0
:1043F000640D0A0000350C001CB501AC00212180C1
:10440000032122460B465CF785FA21880448018087
:10441000002901D003480088484248411CBDC046DD
:10442000F853FC0754130050E0B501A80021817037
:1044300005490180FFF7E0FF002804D10348018807
:1044400003A05AF74FFD8CBDAC330000F853FC07B6
:104450005B41485432305D20545249472041424F1D
:1044600052543D25640D0A001CB501ACFF2020709C
:104470000121204600F004F82078C0091CBDC04688
:104480001CB501AC00222280022322465CF77EFA92
:10449000218804480180002901D00348008848424F
:1044A00048411CBDF853FC0754130050FEB52BA027
:1044B0005AF718FD5AF78AFC3F2085020020009029
:1044C00008242E4F782C2BD0398801208143398045
:1044D0003988C907FCD1284A118829402143118015
:1044E0003988014339803888C007FCD002A80021F0
:1044F000017001AE31800121032332465CF746FA98
:104500003088002803D038461838008806E01CA000
:1045100021465AF7E7FC0098401C0090641CD1E744
:104520000098C1B21CA05AF7DDFC5AF74FFC39883D
:104530000120814339803988C907FCD10E4B198885
:10454000294038220A431A80398801433980388843
:10455000C007FCD0183F3888FEBDC0465B493243D7
:104560005D205363616E6E696E6720307830382E3F
:104570002E307837370D0A00041300506C130050AA
:104580005B4932435D20466F756E643A2030782572
:104590003032580D0A0000005B4932435D20446F01
:1045A0006E653A2025642064657669636528732901
:1045B0000D0A00007CB50E4604466846002585803D
:1045C00000950621FFF75CFF002821D000256846F2
:1045D0004057002820D468468178090142781203A8
:1045E0005118C2781309C9187D23DD004D43290DE8
:1045F0003180017909021207120B5118407908180D
:1046000019014143080D164940182080012507E093
:104610000448018804A001E0C1B20AA05AF762FC74
:1046200028467CBDF853FC075B41485432305D207E
:1046300052454144362041424F52543D25640D0AB3
:10464000000000005B41485432305D204255535910
:104650002073743D3078253032580D0A0000000078
:104660000EFEFFFFF0B50546007985B007073F0F46
:1046700028463EF7F2F9029028794006C00F0390D1
:1046800028463EF7EAF94448806A8079012825D017
:104690000126414840300079800775D5002E73D03F
:1046A00000222B2311463D4856F726FB02270770B0
:1046B00001263B4946700446C969A87988472A21E2
:1046C0000855287900210007000FA070030058F753
:1046D000C3FE0737393B423F423D420002980190FA
:1046E0002D4814300090002604680BE0611D0198ED
:1046F0003EF7C9FA002804D02079B84201D101263A
:104700001BE02468002CF1D100983EF7B2FA25494D
:104710000978884202D1244806780EE000210C2056
:1047200056F7DCF904460622401D019958F740FE71
:104730002771214600983EF7CDF901204640A8E7B1
:10474000A1700AE0A67021E0032002E0A77004E057
:104750000420A07001E0012818D0A888000A801F5A
:10476000A07228463EF779F9811D2046A27A0B30C7
:1047700058F71EFE0622201D029958F719FE0398CD
:10478000E070204649F73AFB05B0F0BDA172F1E7B1
:10479000704770477047000074FBFC070408000076
:1047A000E4FEFC07A1F9FC07A2F9FC0710B50620FE
:1047B0005AF7DCFF10BD10B509205AF7D7FF10BD1E
:1047C00010B581205AF7D2FF10BD10B504485AF732
:1047D000CDFF10BD10B503485AF7C8FF10BD00004B
:1047E00001020000010800001CB5094800900948BA
:1047F000019005460126009C05E0E36807CC3343A1
:104800000C3C98471034AC42F7D3FBF785FC000012
:104810004452FC077452FC07F8B5044601273E02D7
:1048200005200507688DC00506D51B205AF7F6FF41
:10483000464801883943018080362888400130404D
:10484000698A434A0A4002436A8221681348016028
:1048500061684160A1688160E168C16021690161AE
:1048600061694161A1698161E169C16104623A499B
:104870000A6842624A6882628A68C2624A6902635E
:10488000CA684263096981632F4808210180A88AA8
:10489000C00600D4FEE700BEF8BDC04600F8FC0725
:1048A000F8B5044605200507288A0421014329821A
:1048B0002889402101432981224801270760224895
:1048C000082101803E02688DC00506D51B205AF7DD
:1048D000A5FF1E48018839430180803628884001A1
:1048E0003040698A1A4A0A4002436A82216819489C
:1048F000016061684160A1688160E168C16021690F
:10490000016161694161A1698161E169C16104621B
:1049100011490A6842624A6882628A68C2624A69C8
:104920000263CA68426309698163A88AC00600D429
:10493000FEE700BE688A094908404018001D6882E9
:10494000F8BDC04680E200E0003300508000005017
:104950007FFE000050F8FC0728ED00E0FC7F00001F
:1049600002E008C8121F08C1002AFAD17047704738
:10497000002001E001C1121F002AFBD17047000096
:10498000FEE7C046034880F3098800F023F8FBF7F0
:10499000BFFBC046005BFC0704207146084203D001
:1049A000EFF3098009490847EFF3088007490847F2
:1049B000704704207146084203D0EFF30980044990
:1049C0000847EFF30880024908477047A148FC07F1
:1049D0001948FC0780B502485AF77EF880BDC046EA
:1049E000A000FC075BB005020000000032000000E0
:1049F000BBBBBBBBBB000000963331B19159001566
:104A0000FFFFFFFFFFF04A0CB325DC536A68862DD9
:104A100001020000009242E6A876FA3BEFB4875A02
:104A200060606060E1F04A0CB325DC536A68862D53
:104A3000CCCCCCCCE1F04A0CB325DC536A68862D93
:104A4000EEEEEEEEEEEEEEABA1AC031C2E0D296CFD
:104A500000000000983BF20748CEFC07040001006C
:104A6000021400006932FC07FD31F2076533FC07D0
:104A70004932FC074536FC07F800000003280028EF
:104A80000229012980000000B11CFC07020000007F
:104A9000BF1CFC0708000000C91CFC070001000047
:104AA000E11CFC070002000075C1F0074000000097
:104AB0003794F00710000000C97BF00704000000E5
:104AC000ED1CFC0701000000191DFC072000000080
:104AD000311DFC070000000000000000FD00000088
:104AE000144BFC07170000000D36FC070000000007
:104AF0000000000000000000FF00000000000000B7
:104B000000000000000000000000000000000000A5
:104B1000000000007E4AFC070200000001000000C7
:104B200010001000E34CFC077C4AFC070200000068
:104B3000010000000000000000000000204AFC0707
:104B40001000000008000200080000000000000043
:104B5000824AFC0702000000010000000800080073
:104B60007A51FC077C4AFC070200000001000000AB
:104B70000000000000000000104AFC0710000000C8
:104B8000080002000100000000000000824AFC074B
:104B90000200000001000000070007009751FC0719
:104BA0007C4AFC0702000000010000000000000039
:104BB00000000000F049FC071000000001020000A6
:104BC0000100000000000000804AFC070200000015
:104BD000090002000200000000000000824AFC07F9
:104BE0000200000001000000070007008F51FC07D1
:104BF0007C4AFC07020000000100000000000000E9
:104C000000000000404AFC07100000000102000004
:104C10000880000000000000804AFC07020000003D
:104C2000090002000200000000000000824AFC07A8
:104C30000200000001000000040004007E51FC0797
:104C40007C4AFC0702000000010000000000000098
:104C500000000000304AFC071000000001020000C4
:104C60000200000000000000804AFC070200000073
:104C7000090002000200000000000000824AFC0758
:104C800002000000010000000B000B008351FC0734
:104C90007C4AFC0702000000010000000000000048
:104CA00000000000004AFC071000000001020000A4
:104CB0000200000000000000804AFC070200000023
:104CC000090002000200000000000000824AFC0708
:104CD0000200000001000000080008009F51FC07CE
:104CE000001701595A08E4862A9E8FE911BC7C9866
:104CF00043421800002800000100000000000000EE
:104D0000032800000100000002000000292A000022
:104D10000100000080800000032800000100000066
:104D200004000000242A0000010000008080000030
:104D3000032800000100000006000000252A0000F2
:104D40000100000080800000032800000100000036
:104D500008000000272A00000100000080800000F9
:104D600003280000010000000A000000262A0000BD
:104D70000100000080800000032800000100000006
:104D80000C000000282A00000100000080800000C4
:104D900003280000010000000E000000232A00008C
:104DA000010000000880000003280000010000004E
:104DB000100000002A2A0000010000000880000006
:104DC000032800000100000012000000502A00002B
:104DD0000100000007800000E04DFC070300000018
:104DE00000140000F928FC07130C0000A529FC079B
:104DF00003140000752AFC076D27FC071528FC0723
:104E00003B28FC073D28FC07E42FF807E82FF807AC
:104E1000242FF8072C2FF8071000000000000000D6
:104E200000000000F4011700F4352348F40108C421
:104E3000140A48004F000800170001010100380063
:104E400001010000140000001132FC070000000006
:104E5000FF0000000000000000000000140000003F
:104E60004128FC07FD0000003D1EF207FF00000086
:104E700000000000D531FC07E12CFC07EC51FC07D9
:104E8000193CFC07684AFC0718CEFC07000000002C
:104E9000FCCDFC0705000000005BFC0700040000DF
:104EA000F4D2FC07B0020000E8CEFC0700040000CA
:104EB000B0D5FC07700500002003000000A60E001E
:104EC00004000000D2000000320000003C0000009E
:104ED00001000000010000000200000002000000CC
:104EE00004000000030000000600000000000000B5
:104EF00002000000020000000000000000000000AE
:104F00000300000003000000050000000500000091
:104F1000060000000A0000000A000000C8000000AF
:104F2000B80B000002000000B80B0000B80B000036
:104F300010000000D4010000CC010000700200004D
:104F40006A000000040000000100000020000000D2
:104F50000C00000001000000E20400008A020000D2
:104F6000DC050000AF0000005051FC078C4FFC072F
:104F7000C04FFC075851FC07744EFC079C4FFC07C0
:104F800000000000000000005E010000A8F8FC071F
:104F9000A0F8FC07B8F8FC07F8F8FC07F052FC078B
:104FA000C0CBFC07C1CBFC07C4CBFC07C8CBFC07BC
:104FB0002501FC074901FC075505FC07A505FC0771
:104FC000E04CFC07E24CFC07144BFC07ED35FC07FA
:104FD0002D1FFC075120FC07A7C6F00703C7F007E9
:104FE0000BC7F0075FC7F00777C7F0078DC7F0075B
:104FF000AFC7F00731CBF007D5CDF00715CCF007E0
:1050000035CCF00755CCF00793CCF007A3CCF007D4
:105010000DE2F007C9DFF007E7DFF00703E0F00774
:105020001DE0F00731E0F007AFE0F007C7E0F00760
:10503000E3B0F1076BB3F10707A9F007B5EFF1078C
:1050400099F0F10795F0F10791F0F1078D21F00744
:105050003503FC07F51BFC077D08FC074907FC0727
:105060006907FC07057DF007D37BF007737CF00729
:10507000AD82F1074134F1075D19F207DD19F2073E
:10508000811AF207BD1AF2074D1BF207851BF207C2
:10509000000000002F03FC073103FC077DB3F0077D
:1050A000D976F107617DF107B181F1079780F107AA
:1050B000C549F1079759F107F10AF107A1ECF0078B
:1050C000F302FC076546FC07DDBAF0075903FC074D
:1050D00099AAF00749ABF007E72DF007A32EF007D8
:1050E000657FF0072F7EF0070136F0070000000013
:1050F0000D03FC071503FC07F502FC0701A7F107E8
:1051000083A7F10707A8F107B120FC07B5B7F0079F
:10511000000000000000000000000000000000008F
:10512000000000000000000000000000000000007F
:10513000000000000000000000000000000000006F
:10514000000000000000000000000000000000005F
:10515000244EFC0710CCFC075C4EFC07B8CDFC07C6
:1051600002000000765F362E302E32342E31343677
:10517000340044413134353335005365742054696B
:105180006D650054656D706572617475726500427D
:105190007574746F6E73004F757470757473004816
:1051A000756D6964697479004F4646004F4E000082
:1051B00003030A181107595A08E4862A9E8FE91139
:1051C000BC7C9843421800004449414C4F472D5441
:1051D000545400000B08008300000000020000008F
:1051E000000000000000000000000000FD3AFC0785
:1051F0009D3BFC0700000000000000003D2BFC0769
:1052000000000000913BFC07000000004D2BFC0754
:10521000000000000000000000000000552BFC070B
:105220006D2BFC07792BFC078D2BFC070000000081
:10523000C52BFC07D12BFC0700000000000000007C
:10524000000000007C52FC078052FC078001000037
:105250007049FC077C52FC070054FC070007000063
:105260007049FC07C0CBFC07C0CBFC07280300003B
:0C5270007049FC070E000000E001000087
:0400000507FC0111E2
:00000001FF
