:0200000407FCF7
:100000003C89FC078922FC078D07FC076D07FC076C
:100010006907FC076907FC076907FC076907FC0714
:100020000000000000000000000000006907FC075D
:1000300000000000000000006907FC076907FC07DA
:100040001525FC07C925FC07A526F0070510FC07A8
:100050000D05FC076907FC071103FC076907FC078E
:10006000850BFC076907FC07D904FC07E304FC07C0
:10007000ED04FC07F704FC070105FC076907FC0712
:10008000A506FC074906FC076907FC076907FC078A
:100090006907FC076907FC076907FC076907FC0794
:1000A000000000008E070E000000000000000000AD
:1000B0000000000000000000000000000000000040
:1000C0000000000000000000000000000000000030
:1000D0000000000000000000000000000000000020
:1000E0000000000000000000000000000000000010
:1000F0000000000000000000000000000000000000
:1001000000000000000000000000000000000000EF
:100110000448054B10B5834203D0044B002B00D09C
:10012000984710BDEC6BFC07EC6BFC07000000006F
:1001300006480749091A8B10C90FC91810B549108C
:1001400003D0044B002B00D0984710BDEC6BFC078C
:10015000EC6BFC070000000010B5074C2378002B67
:1001600009D1FFF7D5FF054B002B02D0044800E072
:1001700000BF0123237010BDA07CFC07000000001D
:10018000B86BFC07054B10B5002B03D0044905489C
:1001900000E000BFFFF7CCFF10BDC046000000002C
:1001A000A47CFC07B86BFC07402292029A1A924684
:1001B0007047C046174B002B00D1134B9D46FFF7ED
:1001C000F3FF00218B460F461348144A121A05F01C
:1001D00049FC0E4B002B00D098470D4B002B00D054
:1001E00098470020002104000D000D48002802D08F
:1001F0000C4800E000BF05F03DFC2000290003F0A2
:100200000BFC05F01BFCC0460000080000000000CD
:10021000000000003C89FC07A07CFC073C82FC0736
:100220000000000000000000002203695B18DA747F
:1002300070470000004870474467FC0710B5038909
:10024000032914D94289012410002040224200D100
:1002500010BD05290BD90224100020402242F7D0FE
:10026000082904D90424100020402242F0D05B1851
:1002700098B2EDE710B502890400FF208A4206D843
:10028000131D9BB2994203D2081DC01AC0B210BD03
:100290006489E00706D5063293B2994202D206314C
:1002A000C81AF3E7A20705D503339BB2994201D2DE
:1002B0000931F5E7FF206207E9D59A1C92B2914215
:1002C00002D20B31881AE1E7200704D50B209142B6
:1002D000DDD003339AB2FF20E406D8D58A42D6D1C6
:1002E000F338D4E70223074A11880B430121138016
:1002F00013885B080B42FBD1034B1980034B188812
:1003000080B27047001500500E15005010150050B7
:100310000122044B10B51A80034B1B68002B00D040
:10032000984710BD0E150050288BFC07F8B5234CDC
:1003300001212288224B12072CD51A006232002696
:10034000965F64330027DF5F1E4BF6180304181A0C
:1003500031005EF757FE050038043100C01B5EF720
:1003600067FE194A0023281A904204D880235B02B2
:10037000984220D283B207202288002192090240AD
:10038000824204D02288063192090240891A0B4128
:1003900098B2F8BD0D4A128892090A4205D01A0097
:1003A00058320026965F5A33CCE71A005C3200269A
:1003B000965F5E33C6E7034BDDE7C046021500508B
:1003C000288BFC07FFFF0000FEFF01000015005016
:1003D000FA22030010B50020D200934209D3054A47
:1003E0006430934205D8044A0A2198185EF720FE2B
:1003F000C0B210BDB80B000030F8FFFFF8B5040024
:100400000C4B0A001E6F5F6F0D00012000215EF78C
:10041000B7FE22015EF7B4FE30403940084300D1F8
:1004200000BE054B6401E4180123AB409BB223805E
:10043000F8BDC046288BFC0702300050F8B5040018
:100440000C4B0A001E6F5F6F0D00012000215EF74C
:1004500097FE22015EF794FE30403940084300D1F8
:1004600000BE054B6401E4180123AB409BB223801E
:10047000F8BDC046288BFC0704300050020070B560
:1004800001240A3A9440002610490B88A3431DB268
:10049000631E63405B109BB2002B0DD1012423002F
:1004A000B3402B439BB20B80094B92009B189B6F70
:1004B000002B05D0984770BD01365B08B6B2EBE75C
:1004C000C0238440034A5B00D450F4E70E1400506C
:1004D000288BFC0700E100E010B50A20FFF7CEFFF3
:1004E00010BD10B50B20FFF7C9FF10BD10B50C20D3
:1004F000FFF7C4FF10BD10B50D20FFF7BFFF10BD03
:1005000010B50E20FFF7BAFF10BD000010B5074B65
:10051000988D074B80B29B6B002B01D0984710BD84
:10052000C0231021034A5B00D150F8E700130050AC
:10053000A88BFC0700E100E0A0233022DB0519882E
:100540000A431A80032219880A431A807047A0239D
:100550003021DB051A888A431A801A882D398A438C
:100560001A807047044A138810885B059B0F80042B
:10057000DB00400FC01870475400005070B5EFF317
:100580001084012585F31088184B1B88DB050AD5DC
:10059000174B3C331D70FFF7E5FF164A164B1070E2
:1005A0001B882B405370A02380220720DB0519886D
:1005B0000A4312491A800A6882430A6004221048DA
:1005C00001681142FCD01B881B0600D400BE0D4BF5
:1005D0000D4A1A600D4B0E4A1A60002C02D184F3AA
:1005E000108870BD012383F31088FAE72A000050B9
:1005F000A88BFC07047DFC07800000500000F40776
:100600000400F4071000F4070F0099091400F40720
:10061000090404A4094A10B51188094CC3082140F3
:100620005B020B43E02113808901C002138808405C
:1006300004490B401843108010BDC04654000050C0
:10064000FFF9FFFFFFC7FFFF134B10B51C68230521
:1006500009D50123114A11680B431360104B1B6C21
:10066000002B00D09847E30409D502230B4A1168F8
:100670000B4313600A4B5B6C002B00D09847A4041B
:1006800009D50423054A11680B431360044B9B6C86
:10069000002B00D0984710BD084000501440005077
:1006A000A88BFC0770B5FFF752FF264A13881B057D
:1006B0001CD50520244B19880140814216D1042203
:1006C00019880A4301211A801A888A431A801F4B0D
:1006D000DB6C002B09D01E4A10881E4A00B211881C
:1006E0001D4A09B2128812B2984770BD1388DB0602
:1006F00013D501241948038823420ED08021184BBA
:100700001D880D4209D004801A888A431A800F4B35
:100710001B6D002BE9D09847E7E71388DB06E4D58B
:1007200002210E4A13880B42DFD00D4B1888C005FA
:10073000DBD511801A880B490A401A80034B5B6D88
:10074000E7E7C0460400005000020050A88BFC07F9
:1007500002020050040200500A020050040100503E
:1007600000010050FFFEFFFFFEE70000042071467D
:10077000084203D0EFF3098003490847EFF30880EC
:100780000149084770470000A937FC07042071465B
:10079000084203D0EFF3098003490847EFF30880CC
:1007A0000149084770470000C138FC070020704726
:1007B0007047704710B5031CE6280CD9084B1B780E
:1007C000F920FA21DBB24000584389005EF730FC83
:1007D0007F38C0B210BDC2B2282AF1D22823EFE779
:1007E0004464FC07704770474B1E012B00D900BEC4
:1007F000431EDBB2FD2B04D800BE0C20022902D11F
:100800007047FF28F9D1024B58331878F8E7C046F3
:10081000A88BFC070723054A11680B431360044AA1
:10082000044913680B4013607047C0463000004015
:1008300000020040FFFFFBFFFF22074910B50868D8
:10084000064C030C134002400A3320400A32024394
:100850001B0413430B6010BD8000004000FF00FF2D
:100860000F49104B0A881A4080239B0013430E4AFD
:100870000B8013680D490B40136000220C4B1A606B
:1008800019680C4A1140802292020A4380211A60A2
:10089000F023C9050A689A43103B13430B60704765
:1008A00038300050FFFCFFFF00020040FFFFDFFF79
:1008B00074000040FFFFE0FF70B50400074D702298
:1008C0002800074905F0FAF8064BA4B21B1B9BB29F
:1008D0002B81054B1B1B9BB26B8170BD70A0FC076D
:1008E000F065FC07B8A0FFFFCCA0FFFF6649674B8F
:1008F0000A6870B51A40B0231B0113430B606449AA
:10090000644B0A68C02092B21343634A0B601368B9
:10091000624980000B40802189010B431360604ACB
:10092000604D1368604E0343136010235F4A1488C0
:100930002343138001235E4A1488234313805D4BB5
:100940005D4A5E4C1A6022885D4B1A40BC239B00B6
:10095000134323805B4C5C4A23685B0D5B051343A8
:1009600023605A4C5A4B22681A4090235B01134370
:100970002360584C584B22681A40584B134323604D
:10098000574C584B22681A40574B13432360574C1F
:10099000574B22681A40574B13432360564C574B12
:1009A00022681A40564B13432360564B564C58331B
:1009B0001A78C12312065B011343544A1360A02224
:1009C000534B52011A80534B534A1A80FF232288FB
:1009D0009A43AA3B13438D222380504B92001A80E6
:1009E0004F4B504A504C1A80504B514A1A80514B31
:1009F000514A1A80514B524A1A80524B524A1A801D
:100A00002268524B1A40524B13436C222360B0248D
:100A1000504BFF321A802A884F4BA4001A402243C1
:100A20002A809022358892001D402A433280A822D5
:100A30004A4E920035881D402A43494D32802A880B
:100A40001A4014432C80C624464A64001480464C45
:100A50002288134018431F232080444802889A4369
:100A6000063B1343424A038013884248034019431C
:100A70000723118040490A689A43043B13430B60E3
:100A80003E4A3F4B1A6070BD34300040FF80FFFF8C
:100A9000203000400000888838300040FF00FEFF12
:100AA0005030004038120040441200405C3000409A
:100AB000243000408000004059055C0720200040A1
:100AC0000FFCFFFF1820004009581A001C200040AE
:100AD000FEE1FFFF04200040E0E000000809294992
:100AE0000820004000000303696A686C0C20004085
:100AF000031FFFFF7060000010200040E0E0E0E016
:100B00000B0A0A08A88BFC0748130040001000409D
:100B1000281300402C13004005140000501300401F
:100B200054130040340A00003C2000405813004099
:100B3000510800005C130040260A000060130040CA
:100B4000580800002C200040070F00002F64E0FE32
:100B5000101A0601001200401FFCFFFF481200405F
:100B60004C12004004120040881200409C120040C9
:100B70003C100040FF9FFFFF8010004050015001DB
:100B8000641000400C4B1B8899B2DB0708D5072383
:100B90000A4802889A430A4B59331B78134303804F
:100BA000490708D5072305490A889A43044B5A3355
:100BB0001B7813430B807047B4100040B8100040FE
:100BC000A88BFC07094B01221B88DB091800104089
:100BD000134208D0064B00201B681B0403D4054BAE
:100BE0001B889A43100001231840704708000050EA
:100BF0003000004054BAFC07054B5B331B78002BD8
:100C000005D10122034B01301870034BDA70704795
:100C1000A88BFC07B4BAFC0754BAFC0710B5174CF4
:100C200023005C331B78002B26D0154B002820D0E6
:100C3000042219881142FCD122000023F8205C32E2
:100C40001370104A104912880988120452180F496B
:100C500080055143890B013149086166492162F7DA
:100C6000FFFB0300A06664205843000CE166206689
:100C700002E01B885B07DFD510BDC046A88BFC07D0
:100C80000016005006160050041600501111010005
:100C9000084B10B55A6E80231B02984207D30023DD
:100CA00019005EF7D9F98905800A084310BD504341
:100CB000800AFBE7A88BFC0710B5FFF7E9FF10BD22
:100CC0000F4B10B51868FFF7E3FF00220D4B0E49DC
:100CD0001C6F1A67041920005EF794F90B4B0A4940
:100CE000186020005EF78EF9002901D0064B591AD2
:100CF000074B084A1960082113680B43136010BDA5
:100D000038000040A88BFC0771020000440000403E
:100D10004000004030000040044B10B51B6E0449F9
:100D20005843044BC0185EF76DF910BDA88BFC0743
:100D300040420F0020A10700704770477047000035
:100D4000064B984200D000BE0321054A13888B430E
:100D5000802109020B4313807047C0461111111105
:100D600012000050154BF7B51A00C02600203F278F
:100D7000134C6C3212785834009204330194B6004C
:100D8000009A824200DCF7BD1D680E495A688D4208
:100D900012D1910A4C040FD0019C2478092C0BD954
:100DA000394032400A432A605A680749D201D20DBD
:100DB0000A6001300833E3E72A60FAE7288BFC0772
:100DC000A88BFC074C100040247DFC07124BF7B5A4
:100DD0001A00002111486D325830114D114F16780C
:100DE000043301908E4200DCF7BD58691A698446CD
:100DF000AA420DD101980478092C09D960463A68B5
:100E0000094C5204204002432A6001310833E9E7CB
:100E100060461060F9E7C046288BFC07A88BFC07EA
:100E200038300040247DFC07FFFF01FCF8B51C4B67
:100E300000201A000C25012674321278194C290062
:100E400051430F5DFF2F16D1002802D019007431D5
:100E50000A701A000C257532127813482900514384
:100E60000C5CFF2C13D11900002274317533012062
:100E70000A701A700AE06118496801323000D2B273
:100E80000029DCD074331A7088470020F8BD41185F
:100E900049680132D2B20029E0D07533F3E7C04689
:100EA000A88BFC07246BFC07A067FC070020704799
:100EB0000020704700207047024B76335B8C038024
:100EC0007047C046A88BFC0708230380DB184380CB
:100ED000002383807D33C380704701230B70002380
:100EE0004B808B8070470000094B10B5C21893B23D
:100EF0000120042B0BD80024064B92009818C369DC
:100F0000A34201D0C46198470020029B1C7010BD11
:100F1000F2FBFFFF288CFC077047704700207047EA
:100F20000020704700207047180A7A234343034A81
:100F30000020D2180B78A83213707047288CFC0759
:100F400000207047002070470020704770B50D7872
:100F5000092D09D04C78012D01D1432C02D0002C51
:100F600000D000BE01F0F0FD002070BD1E22084B35
:100F70001A80084B1B3A19880A431A8004221988E0
:100F80000A431A800122044B5C331A707047C04632
:100F90000216005000160050A88BFC07174BF7B53F
:100FA0001A00583217881A00002401265A32108875
:100FB0005A6D1349121887420DD8002C02D01A001E
:100FC0005A32108001248A88A2438A805B6E002BEB
:100FD0000DD098470BE08D8AAC46451CADB201950B
:100FE0006546354204D1002C01D05A331880F7BD34
:100FF00008883400107001980132DCE7A88CFC07E7
:1010000000110050F8B5314C0F23208918400138E9
:101010000B28F9D804F05EFD5814F845F84852F84A
:10102000F8F8F806FFF7BAFF0122A3889343A380DC
:10103000274B5A6E002AE6D05A3318889047E2E7C9
:10104000234B1A0019005032523110880A8882420C
:101050001AD2DD6C022320279C460A889042D2D9FE
:101060003F262389B343DBB2C02B09D16646194B17
:101070001B883342C7D0531C0B80AB5C2380ECE74A
:10108000A38A3B42F7D1BEE70221A2888A43A2800D
:10109000A2887E318A43A2801B6E002BB3D0984772
:1010A000B1E7FFF77BFFAEE7094BDB6D002BAAD062
:1010B0009E22A18A114005489847A4E7044BDB6DA6
:1010C000002BA0D00121F6E7F8BDC046001100506A
:1010D000A88CFC077C11005010B500F0ABFAFFF7AC
:1010E00077F910BD802310B582881B019A4200D386
:1010F00000BE8021427803789203DB039B1882783C
:10110000C478520324039B1882881B199B180C4A2D
:1011100049021068014311608021106809020143EF
:1011200011601168074801402143116011680648A9
:10113000014011601360054B054A1A6410BDC0469A
:1011400000400050FFEFFFFFFFF7FFFFA88BFC07F9
:10115000A929FC07134A30B513006C331B88002BF8
:1011600014D111490C001C3498000559002D08D1E8
:1011700009180E48C8610E495B189BB26C32138087
:1011800030BD0133052BEFD10A4BF7E70A4A9B1814
:10119000042B01D900BEF3E7034A9B00D218034B8E
:1011A000D361EDE7A88CFC07288CFC076D14FC07C5
:1011B0000E040000FFFF0000F2FBFFFFF0B585B05A
:1011C0000291039204000200002101201E005DF73D
:1011D000D7FF05002B000191114F019A386F796FED
:1011E00003400A40134300D100BE2100002E13D05B
:1011F0000020FFF703F93A6F7B6F01991540194002
:101200000D4300D100BE074B6400E418039A029B13
:101210001343238005B0F0BD3000FFF70FF9EAE774
:10122000288BFC0706300050EFF31082012383F374
:10123000108808490988090603D407490888034328
:101240000B80002A02D182F310887047012383F3B8
:101250001088FAE70800005008330050054910B51F
:101260000B0076331A7877310270013004F026FCD7
:1012700010BDC046A88BFC0770B5047803000D00B4
:10128000002C04D0012C0CD048242C7070BD827826
:101290000748010076310A707730191D04F00EFC02
:1012A000F3E7034A4388763200245384EDE7C046CF
:1012B000A88BFC0701225A4B70B55A4D1A802B8817
:1012C000DB0523D45849594B0A0031CB31C213CB2B
:1012D00013C2574B574A31CB31C204F052F9564B27
:1012E000564A1A60564B574A31CA31C3EFF3108140
:1012F000012282F3108880235348DB0004882343B3
:101300000380002922D082F3108821E04F4B3C3328
:101310001B78002B12D14E4B1B88DB0413D51B20EE
:1013200001244C4B5C701870FFF774F94A4B1A8813
:1013300014431C802B885B07FCD5C3E7FFF712F929
:101340001B28E8D9BEE7454B1B88E8E781F31088E6
:1013500020217C201C260325414B002419809A88DB
:10136000824332439A809A88AA439A80802298883E
:10137000904398809C81188902437F201A811A89A2
:1013800082432A431A811A883F3882431A801A8876
:1013900035388A431A80E03123002200FFF70EFF20
:1013A0000123C02118001D228900FFF707FFC0217B
:1013B0002300320004208900FFF700FFC021230032
:1013C0001B2220008900FFF7F9FE23001A222100CA
:1013D0002800FFF7F3FE23000F2221000620FFF76D
:1013E000EDFEFFF7B7FE1F4B1A006E321278A242D5
:1013F0000BD01A006F3210781A0071331B787032DC
:101400001178012B08D1FEF7F9FF012316490A884C
:101410009A4313430B8070BDFFF710F8F5E7C04601
:10142000000300502A000050200008408867FC0795
:101430007C67FC07C000FC070000084007001000A4
:10144000F87CFC07886AFC0704000050A88BFC07A6
:1014500052000050047DFC07800000502003005023
:1014600000120050A88CFC070C03005070B5FFF769
:1014700021FF0A4C250072352B78002B0DD000205F
:10148000FFF7BAFBFFF7D0FE00226C3420882A70E9
:10149000904202D004215BF7DEFA70BDA88CFC07F5
:1014A0000023F7B5564C4022238084237027554DE6
:1014B0009B002B80544E554B3280019360331B8828
:1014C0005349BC460B800B88BB4313430B80514BE5
:1014D000DA67BFF34F8FBFF36F8F00285DD023888B
:1014E00007789343BA011343238043784A4A009311
:1014F000634611889943009B1B0119431180002FFB
:1015000006D11188009B0737B9431B090B43138091
:10151000C3780421002B45D023880B4323803188D6
:101520000379C9B21B020B43338013883B4F5B0620
:101530003B4E5B0F042B3AD1019B66331A88394B23
:10154000002A32D01A80802322885B011343238033
:10155000192004F063FA802322889B001343238020
:10156000402322889A431343238004232A88134369
:101570002B802B88DB04DB0C2B80F0232A885B017B
:101580003A4013432B80C0232A885B003240134328
:1015900003222B802B8893432B8001232288134323
:1015A0002380F7BD23888B43B8E71F4ACAE7238807
:1015B0001E4A1340238082780F2A00D900BE2B8850
:1015C00052023B4013439BB22B8003232A889A4349
:1015D000437913432B808379002B0DD080232288FD
:1015E0009B0013432380C279072A00D900BE2B88B1
:1015F000920133401343CFE723880D4A1340F1E7AC
:10160000001500500215005004150050288BFC07EF
:101610000C15005004E100E006150050FFE1FFFF4B
:101620003FFEFFFFBC7CFC0740760000FFEFFFFFA2
:10163000FFFDFFFFF0B5082487B04E4D22004E4954
:1016400004A804F03BFA2B88234200D000BE4B4C88
:10165000002023884A4F9BB201932B88494E9BB2AE
:101660000293FFF71DFF04232A88474913432B8069
:101670002B88464A13408022920013432B802388F4
:101680000B4023802988424B1940E0235B000B4329
:101690002B804023218899430B4323803B889B0A5E
:1016A0009B0213433B8033889B0A9B021A4380238F
:1016B00032802288134323802388364A13402380B4
:1016C000FEF710FE802223885200134303902380EC
:1016D000FEF708FE8022039B2F499B095B185200EE
:1016E0009BB2D31A802280095B0040189BB280B263
:1016F000D200934200D300BE3A88920A920213436A
:101700003B80802380225B001B1A5B009BB2D200CF
:10171000934200D300BE3288920A92021343338070
:1017200023881C4A13402380FEF7DCFD80228009B9
:1017300080B29200131A904201D9174BC318072B9D
:1017400000D900BE019B04A82380029B2B80FFF7D9
:10175000A7FEFEF7C7FDFEF7E9FD012223880F492A
:1017600093432380E1231B0158435DF761FC80B262
:1017700007B0F0BD021500505664FC07001500507C
:10178000081500500A150050FFFDFFFFFFE1FFFFA5
:101790003FFEFFFFFFFEFFFF00FEFFFFFF07000011
:1017A0000822054B10B511201A7004F037F90322F6
:1017B000024B1A7010BDC0460410004005100040D6
:1017C00070B50A4C85006619736F002B0BD10A2186
:1017D000000201431E33042205485BF70BF908237E
:1017E000FF33038070676419606F70BDA88CFC07BD
:1017F000140E0000F7B51B200D0017001E005FF748
:10180000F7FC041E00D100BE29882000FEF732FD3F
:1018100006233A000190310011485BF7EBF82A8863
:101820000300028001980338082817D804F05CF9F7
:101830000B161616160B16050B00608910210200F8
:101840000A40084203D002225A80002200E05A8057
:1018500018001A715BF7E9F80020FEBD0622F7E7D1
:10186000180C0000F0B51B2085B01F0000910192FC
:101870005FF7BEFC041E00D100BE009B200019884B
:10188000FEF7F8FC03383D0A03AE092843D804F0FC
:101890002BF928423D4242314205390AA3890024EE
:1018A0003380022505E0E38904253380238A002460
:1018B00073803900019AAB1D18485BF79BF807004D
:1018C000ABB22A0031004380053004F0F7F8009BEA
:1018D00038001B883C713B805BF7A7F8002005B0FF
:1018E000F0BD6419E37C5B00022500242B403370BB
:1018F0007470DEE76419E37C00249B07DB0F337010
:101900007470CEE76519EB7C5B10EDE7A37C0125D5
:1019100000243370CDE706240025CAE7140C00002C
:1019200010B504001B205FF763FC21005FF776FC15
:101930000100D8200422022340015BF75BF8044B2E
:10194000047078331B785B0043705BF76EF810BD52
:10195000A88CFC0770B505001B200C005FF748FC45
:1019600029005FF75BFC02230100042203485BF7B8
:1019700041F844705BF759F870BDC046071B000082
:10198000F0B50C7816001D008BB0012C24D0022C71
:101990002DD0002C1DD101AF21222100380004F0F0
:1019A00061F83800FFF75AFC3F7829003B0032000D
:1019B0000A3316485BF71EF8BBB243806B4605003E
:1019C00004703A000430591D04F078F828005BF7E1
:1019D0002CF800200BB0F0BD0D4B290076335F8C46
:1019E0000A480A235BF706F804704780EFE70A23EA
:1019F000290006485AF7FEFF08234380DB1883803E
:101A00000023C3807D3304700381E0E70B0E0000E8
:101A1000A88BFC07F8B50F4C85006619F36F002BF7
:101A200011D10A21000201431E3304220A485AF749
:101A3000E1FF07220700F0670849023004F03EF892
:101A40000223FF333B806419E06F5AF7EEFF002357
:101A5000E367F8BDA88CFC07140E0000306BFC0790
:101A600010B5FFF7D7FF10BD70B50B4C0500E08A2D
:101A70005FF744FC002803D08368290020009847C2
:101A8000E08D5FF73BFC031E04D0200029009B681B
:101A90001830984770BDC046288DFC0770B5051EEC
:101AA000194C17D1194B210020606060A060E060E4
:101AB0002061636110205BF79CF92100144B112019
:101AC000A561E56125626562A562E36218315BF795
:101AD00090F970BD2500FF26E88A5FF70FFC00280B
:101AE00002D04368280098470023A88A6B60AB6047
:101AF000EB81EE8230405BF7D6F9230018353033A6
:101B00009D42E9D1E5E7C046288DFC071000FF00A3
:101B10001100FF0002690B005218002110B5D174AA
:101B2000808A1B0218435BF796F910BD70B5194EF9
:101B3000356B002D28D12C230422092116485AF791
:101B400059FF164B040003801022290030634580A2
:101B50000A3003F087FF80239B016383F7232384EC
:101B60000F4BA5831A00E5837E32658411880A1C19
:101B7000FB2900D9FB22E28480331988094A0B1C17
:101B8000914200D9131C2385306B5AF74EFF002376
:101B9000336370BD288DFC07040D0000030A0000AC
:101BA000B0BBFC0748080000F7B5144C8700E519E6
:101BB0006B6B16000191002B0AD10A210002014330
:101BC0001E3304220E485AF715FF0423037068637E
:101BD000E419656B1022AF1C3800002103F042FFAE
:101BE00032003800019903F069FF012328006B706F
:101BF0005AF71BFF00236363F7BDC046288DFC071F
:101C0000140E00001FB54B780400002B0BD10C49BB
:101C100010226846103103F051FF1022694620005F
:101C2000FFF7C2FF1FBD012B03D1064B0422009317
:101C3000F4E7022BF9D0032BF4D110220231EEE7A6
:101C40005664FC0740E20100F0B589B004930E9B96
:101C500005921A7805000F000F23D10700D5303305
:101C6000910702D5E02149000B4351070AD511071E
:101C700000D569E0C021C9000B43D20602D58022FD
:101C800052011343162202A9521813801E230499ED
:101C900038000B4080210B4303932D4B2D490293B9
:101CA000AB8A0193002300930D334FF71FFA061EF2
:101CB00047D1012118205AF78FFD04001822310066
:101CC00003F0D0FE3B882C612381049B059ADB0343
:101CD0001A432280AB8A012763801B23EB822300F7
:101CE00020001633AB601C4BEF816B600E9B032210
:101CF0001B78310063810E9B1330DB88A3810E9B20
:101D00005B88E3810E9B9B8823820E9B5B786660D9
:101D1000A37403F0A7FE0E9B1B785A070DD51A0774
:101D200000D54037DB0601D50C4B1F430A212000AC
:101D3000FEF784FA39004FF798F80021A88A5BF77C
:101D40008AF8300009B0F0BDE021090194E7C046EF
:101D50006066FC0709180000FC66FC07080002002A
:101D600070B5056904006868002801D05AF7AFFD16
:101D70000023280023615AF7AAFD70BD70B51B200F
:101D80005FF736FA041E00D100BE63685D78022D4D
:101D90002AD9002120009D885FF740FA854216D09D
:101DA000636800211D782000043D6A425541274A9E
:101DB0006D009E88AD185FF731FA012302003100F3
:101DC00028005AF717FE002303705AF72EFE00254D
:101DD00060685AF77CFD2900200065605FF71EFAF5
:101DE00029005BF738F82DE06219D27C197811428E
:101DF00029D0DA79AA4226D0002120005FF70EFA16
:101E000008210200C12063682D029B792943083311
:101E100000015AF7EFFD616805000B78023B5A1E7E
:101E20009341123303708A79C2804B8808318380D2
:101E3000083003F043FE28005AF7F7FD6268537834
:101E40000133537070BD01355D709FE7031B0000C7
:101E500010B5FFF793FF002010BD0000F7B5050097
:101E60001B200E001F0001925FF7C2F9041E00D173
:101E700000BE019B9F4203D08020002F1BD0FEBDDF
:101E80006219D37C3343D374290020005FF7CEF965
:101E90002900060020005FF7C1F90223020031008B
:101EA00007485AF7A7FD64190570E37C43705AF799
:101EB000BCFD0020E3E76219D37CB343E3E7C046EF
:101EC000081B0000F8B508781D000C00160053F739
:101ED000F9FC0E4B892798420AD01B205FF788F93E
:101EE000002800D100BE00272378C0186378C3748F
:101EF00032002900022306485AF77CFD23784770F8
:101F000003705AF792FD0020F8BDC046FFFF0000A5
:101F1000011B0000F7B5100015001F0001915AF7D2
:101F2000AFFF0226002818D11B305FF761F9041EAD
:101F300000D100BE04260422019B1B88A381638973
:101F40001E4013420BD101232A0039001B485AF7C7
:101F500051FD8C2303705AF768FD3000FEBD082246
:101F60001E001640134207D101232A0039001348EE
:101F70005AF740FD0670EEE701210A205AF72CFCC3
:101F80000A220021606003F06DFD0A212000FEF7A7
:101F900055F90423666801213380033BFF3BF3803E
:101FA000019B70801B88280033721B0A7372B780F4
:101FB0005AF751FF0026FFF7E1FECEE7051B0000B0
:101FC000F0B51B2085B00C001F0002925FF710F9DE
:101FD000061E00D100BE30002188FEF74BF9A38811
:101FE0008D25022B5CD103383D0A082800D971E009
:101FF00003F07AFD4C707070706270056900E379CF
:10200000A2791B0213430193F389019A934202D8E8
:10201000338A934202D2019B002B5DD102985AF77A
:102020002FFF0227039000282DD1290030005FF7F1
:10203000FDF8029A0100042328485AF7DBFC019BB3
:10204000057043805AF7F1FC01210A205AF7C4FBBE
:102050000A220399706003F005FD0A213000FEF7A3
:10206000EDF87468029B6080A380FC235B422380B0
:10207000019B012123721B0A0298E571A77163720B
:102080005AF7E9FE0027380005B0F0BDE379A279E0
:102090001B021343012102222800FFF7DFFE050087
:1020A00004233900029A0E485AF7A4FC238885704D
:1020B00003805AF7BAFCE5E7E379A2791B021343E0
:1020C00002210122E8E7E379A2791B0213430421EC
:1020D0000222E1E70625E3E78025E1E7061B000091
:1020E000160C0000F8B51B200E0015005FF780F8F5
:1020F000041E00D100BE28005AF7C2FE012827D1D5
:10210000082163682A00DF7912483B02194304233F
:102110005AF770FC0A2105002000FEF78FF832788C
:1021200080232880BA4200D173782800AB705AF718
:102130007CFCA978002909D16268537A107A1B02C5
:102140000343A38163891B0700D55170FFF716FE77
:102150000020F8BD160C000010B510005AF790FED4
:1021600000280BD101230422092105485AF742FC1B
:10217000012303705AF759FC002010BD00BEFBE795
:10218000020D0000F0B5100087B00F00160001939B
:102190005AF776FE0224002818D11B305FF728F882
:1021A000051E00D100BE3B7C002B12D16A89023390
:1021B00014001C401A420CD1013B320001993148F5
:1021C0005AF718FC8C2303705AF72FFC200007B035
:1021D000F0BD012115205AF7FFFA15220021686091
:1021E00003F040FC00236C686370019BA380FF2315
:1021F000E3713B7C002B3DD0012323702889023002
:1022000080B2230002AD083301932A003B006080B6
:1022100083CB83C21B6805271360029ADBB2110AC5
:102220006272A172110C120E2372E17222739B076B
:1022300006D5200003A90D305FF781F8C019C7B299
:102240002B7B5B0704D56B7B019AD3550137FFB21B
:102250000C2F06D80D22019B0021D21BD81903F0A8
:1022600001FC01213000A7715AF7F5FD0024FFF7AA
:1022700085FDABE70223072128002370FDF7DEFF71
:10228000BFE7C046031B000070B5334B83F30988DA
:102290000721324A13888B431380314B1B88DB079D
:1022A00016D5304B1B88002B12D12F4B2F4A598843
:1022B0002F48118099882F4A1180D9882E4A118081
:1022C0002E491B880A88DB01024013439BB20B8016
:1022D00006222B4B1A8080222A4B1202DA67BFF3A8
:1022E0004F8FBFF36F8F0222DA67BFF34F8FBFF3B9
:1022F0006F8F013ADA67BFF34F8FBFF36F8F0421FF
:10230000214A13888B431380A0230022DB051A8007
:1023100062B61E4B1E48834211D300201D4B1E493E
:102320008B4217D3FDF746FF1C68910065585C6827
:102330000132655099688A42F6D30C33EBE70022EC
:10234000F8E71C689500285101325C68A242F8D376
:102350000833E5E70022F8E73C89FC070803005052
:102360001003005004030050A000FC072800005098
:102370007FFEFFFF2400005020000050120000509C
:102380000034005004E100E00A000050C06BFC077C
:10239000CC6BFC07CC6BFC07DC6BFC0710B5FFF7C4
:1023A000FFF9FEF713FDFEF7A1FAFEF745FA03F079
:1023B000B9FA0B4A0B4B1988D3691B0C1B040B434E
:1023C000D361094B1988136A1B0C1B040B4313625E
:1023D0000222064B1A700022054B1A8010BDC0461F
:1023E00070A0FC07183000401A3000400610004072
:1023F000041000402049214B0A6810B51A40802380
:102400009B02134380220B600721D20513688B4384
:10241000136008231A4A11880B431380194B383371
:102420001B78002B03D00122174B58331A70FFF78B
:10243000B7F9FEF797FCFEF7C9FCFEF757FAFEF76F
:10244000FBF9FEF70DFA114A114B05201988936A22
:102450001B0C1B040B4393620E4B1988D36A1B0C95
:102460001B040B43D36202220B4B1A7000220B4B4E
:102470001A8003F07FFA10BD74000040FFFFE0FFF8
:1024800008000050288DFC07A88BFC0770A0FC07F3
:10249000383000403A300040061000400410004040
:1024A0000022084B10B51A6003F0A4FA064B074946
:1024B0001A781F2306481A400B8852010340134321
:1024C0000B8010BDAC100040DE6BFC074C120040CE
:1024D0001FFCFFFF0A4A10B513680A499B05DB0E73
:1024E0000B70138808490B4013800122074B1A70A8
:1024F0000323074A11780B43137003F07BFA10BDD6
:102500004C120040DE6BFC071FFCFFFF0610004072
:10251000AC10004070B5FEF70FF804231F490A887D
:102520001A42FCD1FEF713F81D4C1E4B628F1E4D54
:102530001A80A38F1D4A023B9BB2138007232B8076
:10254000FDF7FAFF04232A881A42FCD1FDF7FFFFAA
:102550000321174B1A880A4202D01A888A431A802C
:102560008023144A11880B4304211380124A1388D4
:102570008B431380022311490A881A42FCD03FF78B
:10258000D0FE226C0E4B1A600E4B1A68520700D513
:1025900000BE042219681142FCD070BD08330050FF
:1025A000288DFC0702000050001600500216005053
:1025B0000A000050080000501000005014000050A5
:1025C0000802004010000040F8B53F4B1A68D207DF
:1025D00003D5022219680A431A6080221968D203BF
:1025E000114202D019680A431A6080270225374B2E
:1025F0001C68002C66D03C4205D0354B1F604BF761
:1026000046F9FEF7B3FC2C4203D0314B1D6047F76F
:102610003CF808231C420FD02D4A136002F074FFCF
:10262000002046F7EBFF04222A4B44331A700022A5
:10263000294B1D70294B1A8080235B001C4204D05B
:10264000234A0120136046F7D9FF80239B001C42D8
:1026500003D01F4A13604BF783F940231C4203D079
:102660001B4A136046F7C5FF10231C4203D0184ACB
:10267000136045F781FB04231C4210D00121144A4A
:102680001360174A13888B4313805AF71DFF3FF7D7
:10269000D7FFFEF76BFC00220E4B44331A70012665
:1026A000344208D00A4B1E605AF72AFF4BF7EFF866
:1026B000084B44331E7020231C4298D0044A1360F8
:1026C00000BE94E7F8BDC046000200401000004084
:1026D00018000040288DFC07061000400410004040
:1026E000083300501FB500BA009068465EF72CFC16
:1026F00005B000BDF8B5164B164F68331E88164B53
:1027000016491C6E20007043C0195CF77BFC144B0B
:102710000500988730003C3060431049C0195CF7D1
:1027200071FC104B043018600F4B4019C21D1A6029
:102730000E4A1278022A01D1183018601868FEF784
:10274000A7FA0B4BC01880B25AF7E8FEF8BDC04696
:10275000288BFC0720A10700A88BFC0740420F0034
:10276000288DFC071C7DFC07207DFC07B4BAFC0704
:10277000E20400000022054B10B51A60FFF7BAFF13
:10278000034A13685B005B08136010BDA8B9FC071F
:102790003000004070B50D000C00203540F7AFF858
:1027A00020700134AC42F9D1002070BD3F2210B539
:1027B00043790400934311D140F7A1F8030A207034
:1027C0006370030C000EA370E07040F798F840238C
:1027D000207180B2000A5B420343637110BD10B5E3
:1027E0005EF7CAFB10BD000010B560F7E7FE054BB1
:1027F00000211A00453211709A6C8A4201D0996406
:10280000904710BD288DFC0710B5042209211C2318
:102810000E485AF7EFF81B2304000370242060F7DA
:102820003BFF04220A4B2282626001210222A38123
:102830000023A174FF3223316070E38120006180A6
:102840002281A3725AF7F1F810BDC0461B0D00009B
:10285000AD27000070B50422092110230A485AF759
:10286000C9F81B2504000570280060F715FF042334
:102870006360064B6070A360054B65802000E360D9
:102880005AF7D3F870BDC0461B0D00001D020100B1
:102890003C00050010B5040024203FF794FF0422FB
:1028A0000100022304485AF7A5F80023447003707E
:1028B0005AF7BBF810BDC04602240000F0B5304CFA
:1028C00087B02378FF2B59D02E4B1B78002B55D087
:1028D0002D4B01270093802368469B040193FEF74C
:1028E000DFFD142003F09AF8FDF7FCFC274A02AE46
:1028F0001388BB43138003F033FD254903F0A8FA86
:102900008121C90503F0BEFB224903F001F92249E8
:1029100003F0B8FB03F004FDFF231B0618438023DC
:1029200025789B0002901B20B3815EF761FC290093
:102930005EF774FC14230100042218485AF75AF871
:10294000050010223100077403F0B8F828005AF788
:102950006CF8134A1378DB19DBB21370132B0DD903
:10296000104B1878002809D00138C0B21870002325
:1029700013702378FF2B01D0FFF78CFF07B0F0BD59
:10298000DD6BFC07F07CFC07010202000015005023
:1029900000C07F440000104200002041021B0000E4
:1029A000F17CFC07DC6BFC0713B5104C104A236864
:1029B0001340236023680F4A13402360FFF77EFF14
:1029C0006A460D4B684600930C4B1B885B01938055
:1029D000FEF788FB802322685B0213432360802379
:1029E00022681B011343236013BDC0460040005002
:1029F000FFF7FFFFFFFFFEFF00000101E06BFC0798
:102A000070B5040024203FF7DEFE0423010090206F
:102A10001A00800159F7EEFF0F4D04702E000024BC
:102A20004C36337844708370C47059F7FEFF0B4BFB
:102A30004E351A006E3214701A006F32147008226C
:102A400070331A70064B04210648023234702B8012
:102A500060F7F6FD70BDC046288DFC07A88CFC070A
:102A60007017000013040000F8B51600FEF734FBE1
:102A7000154D07002B004C331B78834201D0FFF724
:102A800009FF2B00114C4C331F7023006E331B7851
:102A9000002B11D0042F0FD8230070331978230096
:102AA0006F331878FDF7AAFC01237134C822042182
:102AB0000748237060F7C4FD4E3531002A88054869
:102AC00060F7BEFD0020F8BD288DFC07A88CFC0730
:102AD000140400001304000070B5114C150022000E
:102AE0006E321278002A12D022006F321078220043
:102AF0007134237870321178002B0AD0FDF79EFCD8
:102B00000023142223702900064860F799FD002055
:102B100070BDFDF773FC012305222370F3E7C04667
:102B2000A88CFC07140400001FB514001A0005232C
:102B30000293044B0193069B0093230060F7D8FB9C
:102B400004B010BDD464FC0713B500240094FFF753
:102B5000EBFF13BD1FB514001A0004230293044BAE
:102B60000193069B0093230060F7C2FB04B010BDE5
:102B70007C65FC071FB514001A0007230293044B61
:102B80000193069B0093230060F7B2FB04B010BDD5
:102B9000B865FC071FB514001A000E230293044BFE
:102BA0000193069B0093230060F7A2FB04B010BDC5
:102BB0000C65FC07F0B57A24264B44431E0085B013
:102BC00000904D783036019333191D772300082289
:102BD0001433F3181100180002340293341960F70B
:102BE000BFFB102D04D810222900200060F7B8FB8D
:102BF0007A273FF784FE009B019D5F43019B3035A0
:102C0000DB190433D887039301237A5D00981343BB
:102C10007B55FEF7D5FD0600ED192B7F0299037752
:102C2000039B0822DB8F4382143002F047FF1022FF
:102C30002100B01C02F042FF0098FEF7C1FD59F7D9
:102C4000F4FE009B044A9B00D2180023536705B092
:102C5000F0BDC046288CFC07A88CFC0708781B0A2E
:102C600010B5DCB207281FD802F03EFF041E1E1E5E
:102C70001614141A0C2159430C4A200050325218D1
:102C80000121D17279314B430021094A30329954E4
:102C9000FEF7C0FE002010BD2000FEF7B3FFF9E7ED
:102CA0002000FFF787FFF5E700BEF3E7288DFC075C
:102CB000288CFC0770B504000D00FDF783FF002889
:102CC00006D00A4B2A000421E0185AF7D2F970BD49
:102CD000FEF7AAFA042208231100054859F78AFED4
:102CE0004560047059F7A1FEF1E7C04603040000F7
:102CF0000104000070B5002800D100BE0A4A00237C
:102D000015005C359C0066590133002E08D112195C
:102D1000DCB2D16501002000FFF7CCFF200070BDC0
:102D20000A2BEFD10024F9E7288DFC07002370B5AA
:102D30000B4D2B70FFF7C2FD0A4B1B78002B0ED0FA
:102D4000094B1B78FF2B0AD0084B0A2118885CF727
:102D500059F9074C80B22100FFF7CCFF287070BDF5
:102D6000067DFC07F07CFC07DD6BFC07E06BFC07D5
:102D70002D2DFC07394A70B503000D00049C9042CC
:102D800016D0374A904239D0364A90424AD14B68E1
:102D9000002B00D100BE344B6A689A4200D900BEB5
:102DA00028782F4B04216A68C0185AF762F910E09E
:102DB0000B78013BDAB2092A1ED82C4A9B00D218A4
:102DC000D16D2B48814207D10021D165294AD31802
:102DD00059600020207070BD274B9942F9D1042220
:102DE000082311001E4859F705FE2B7803706B6805
:102DF000436059F71AFEECE700BEEAE70878411E87
:102E0000CBB2092BF8D8194B89005B181A4ADE6D32
:102E10009642DED1174A521852686968DA65FFF7A0
:102E200049FFD6E7154A01209A18092AD3D8033B4F
:102E3000D8B2411E0D4B89005B18DA6D002AC8D04C
:102E40000D4DAA42C5D00A4DAA42C2D00025DD656B
:102E5000084B5B185D609047BBE7C046020400006A
:102E60000304000001040000FCFF3F00288DFC0764
:102E7000190FFC07A88DFC071B0FFC07FCFBFFFFCD
:102E8000431EDAB270B50500092A18D80D4C9B0014
:102E9000E418E36D002B12D00B4EB3420FD00B4B56
:102EA0000421C0185AF72FF90422082311000848FA
:102EB000E66559F79FFD057059F7B7FD70BD00BE77
:102EC000FCE7C046288DFC07190FFC07030400002F
:102ED0000204000037B5041E01D0442831D1194D39
:102EE0002878002803D0FFF7CBFF00232B70442C59
:102EF00027D10122144B72331A70FEF72BF96A4660
:102F0000124B68460093124B1B885B019380FEF7BF
:102F1000E9F8C4200F4B800019580F4A1140802255
:102F200012020A431A50802292021A6080220B4B2E
:102F3000520219680A431A608022196812010A4372
:102F40001A6037BD067DFC07A88CFC070000010154
:102F5000E06BFC0700E100E0FF00FFFF00400050D5
:102F600070B5234C230045331878002801D0FFF7B3
:102F700087FF20492048FFF7BDFE204D4534EB6A0E
:102F80002070002B2AD10422092152331C4859F702
:102F900031FD0D2303801B4B04008380C380082375
:102FA000FF330381C023DB00438106221649E86218
:102FB0000C3002F083FD23000C22200013492B3338
:102FC0001A70203126002C3002F078FD22000B36DA
:102FD000092130000E4B123260F79CFAE86A59F76B
:102FE00024FD002302210420EB6259F734FF70BD59
:102FF000288DFC07E927FC0750460000A88DFC0738
:103000000D0D00004C0400004564FC075664FC07ED
:103010004C64FC0710B5FFF7A3FF0122064B783381
:103020001A70FFF717FCFEF757F8044B4C33187073
:10303000FFF7EAFB10BDC046A88CFC07288DFC07F3
:103040000C2270B5194E4243330050339B189B78C5
:103050000500FF2B27D0330045331878002801D016
:10306000FFF70EFF00243300B4640C2645331C70B8
:10307000320062430E4BD15CFF290BD10D4B28006F
:103080001D70FEF74DFC2800FFF7BAFC0020FDF78D
:10309000B3FD70BD9B189B680134E4B2002BE7D0F0
:1030A00028009847E4E7FFF75BFFE7E7288DFC0778
:1030B000A067FC07DD6BFC0710B50E4C20780028DC
:1030C00003D0FFF7DDFE002323700B4B0B491A687A
:1030D00000200A401A601A6809490A401A60FF2253
:1030E000084B1A70084B1870FDF786FDFFF738FF84
:1030F00010BDC046067DFC0700400050FFF7FFFFF3
:10310000FFFFFEFFDD6BFC07F07CFC0770B51000D5
:103110000C001D0059F7B4FE03280CD12B0A0C2516
:103120005D43FF23054A2000521950325380FFF7B8
:10313000C3FF002070BD00BEFBE7C046288DFC0722
:1031400010B560F7BDF9002801D0FFF709FF10BDE9
:1031500070B50C78012C11D0E51E142D1BD801255B
:10316000A5400E4E354210D10D2C10D0032C12D19B
:103170004B78002B05D1FFF7E3FF06E04B78002BDF
:1031800001D000BE01E0FEF7D1FC002070BD487800
:10319000FFF7A0FEF9E7FFF7D7FCF6E700D08E00B7
:1031A000F8B54A880D78531E80213B2B15D8FA2399
:1031B0009B0053430B4E0C4F30783B8000280BD0C4
:1031C000FFF75EFE0A2138885BF71CFF074C80B2D0
:1031D0002100FFF78FFD307000212800FEF7BAFBB9
:1031E0000020F8BD067DFC07E06BFC072D2DFC07D9
:1031F00070B54D78104B2A00511E8A410F4C1A7041
:103200002078002D12D0002803D0FFF739FE0023CC
:1032100023700B4B0A2118885BF7F4FE094D80B22E
:103220002900FFF767FD2070002070BD0028FBD04B
:10323000FFF726FE2570F7E7F07CFC07067DFC070C
:10324000E06BFC072D2DFC07F7B5050008781C0A7C
:103250000238052800D971E002F046FC03287039D5
:1032600048587A23634337488A783030C518290094
:1032700078310A7034490191D2070ED50C270E001F
:10328000674371335036791DC01871180622F6193C
:1032900002F014FC337977352B700C226243019BCA
:1032A00050339B180022DA720020FEBD0C226243CC
:1032B000254B002150339B187A226243D972214B4F
:1032C000E0B29B18A833197060F75AF9ECE77A2539
:1032D00065431C4B17221C0058196A30023102F05A
:1032E000EDFB042330342A5D13430DE07A25154BA2
:1032F000654310261C0058193200913002313034D9
:1033000002F0DCFB2B5D33432B55CDE77A235C4386
:103310004A8A0C4D02312819002A07D11C3232305A
:10332000303502F0CBFB0123625DDDE71C224E301D
:10333000303502F0C3FB0223625DD5E72800FFF7BA
:1033400003FCB1E7288CFC07288DFC07F7B51000BB
:103350000D001C0059F794FD022831D1240A00D039
:1033600000BE0C236343174FE6B250370093FB189F
:1033700001939E70FF2C1DD001220321DA700420DE
:1033800059F769FD29002B88009A0A31D3536B7ACB
:10339000019A1371009B0622581D381802F08EFB0B
:1033A0007A226243084B30009B18A8330122197817
:1033B00060F79AF829003000FFF742FE0020FEBDBA
:1033C00000BEFBE7288DFC07288CFC0710B55FF7D3
:1033D00059FE10BD10B55FF762FE10BD10B55FF766
:1033E000D1FE10BD10B55FF7EEFE10BD10B55FF752
:1033F00003FF10BD10B55FF71FFF10BD10B55FF7DD
:1034000028FF10BD10B55FF732FF10BD0323F7B5DD
:103410006B4F6C493B700A687C339A436B3B134398
:10342000694A0B601368694980260B60012301918A
:103430003F21674C5B421360236866488B432360DF
:103440002368654D034023602B886448F6000340E1
:1034500033432B8070232A88614E9A43303B1343B9
:103460002B8032685F4B1A40B0235B0513433360F7
:1034700032685D4B1A40C023DB00134333601823CE
:1034800032688A4313433360432302222B70574B25
:103490001A7002F0A5FAFFF71DF802F0B0FA032344
:1034A0003B70534F3F68FEF7FBFF02F09EFA236824
:1034B000FF05FF0D5B02FA055B0A134323602768D3
:1034C0004C49520C0F401743412227602A702B8829
:1034D00042483F3A03408020C00003432B80434BC7
:1034E000374F1A7002F07CFAFEF7F4FF02F087FA09
:1034F00003233B703E4F3F68FEF7D2FF02F075FAA0
:103500002368FF05FF0D5B02FA055B0A1343236086
:1035100027683849520C0F40412117432760297012
:103520002B882E48022203408020C00003432F48EE
:103530002B80027002F054FAFEF7CCFF02F05FFA23
:1035400003231F4F2B483B70294F3B682268DB0544
:103550005202520A1A4322602268DF0D1040590CB1
:10356000030001220B4323602B883F2193432B80D0
:10357000019D154A2B68174813601C2322688A4353
:10358000134323602368034023603268154B1A40BD
:10359000E0235B05134333603268134B1A40F0237A
:1035A000DB00134333601E2332688A4313433360C6
:1035B000FEF776FF02F019FA0F4B5F81F7BDC046A8
:1035C000051000400430004040300040EC7CFC0717
:1035D00018300040FF7FFFFF1C300040FFF9FFFF65
:1035E00030300040FFFFFFC03FF0FFFF06100040FB
:1035F000883000403F80FFFFBE7CFC074D4B10B57C
:1036000043624D4B002283624C4B8AB043610300FE
:1036100030331A704A4BC3624A4B03604A4B036211
:103620004A4B43604A4BC3614A484B4B01681940BF
:1036300080239B020B43494903600B6848480340C1
:103640000B606B46D2540132282AFAD1454B6946A9
:103650001868403002F032FA434C092322005832F5
:103660001370424B38331B78002B01D001231370A9
:10367000FEF796F8FDF776FBFDF7A8FBFDF736F9A8
:10368000FDF7DAF8FDF7ECF8FFF7C0FE0122384B42
:103690005A3430331A70374B06321B88134023706C
:1036A00002F040F9344B1988344BDA69120C1204D9
:1036B0000A43DA61324A11881A6A120C12040A4368
:1036C0001A62304A11889A6A120C12040A439A62EA
:1036D0002D4A1188DA6A120C12040A43DA622B4A64
:1036E00011889A69120C12040A439A61284A1188B7
:1036F0001A6B120C12040A431A63264A11885A6B79
:10370000120C12040A435A63234A11889A6B120C52
:1037100012040A439A63214A1188DA6B120C1204CC
:103720000A43DA6302221E4B1A7000221D4B1A80D4
:103730000AB010BDAD07FC07B107FC07E907FC079D
:103740001508FC07B307FC07E507FC07E707FC07BC
:10375000B507FC0774000040FFFFE0FF00020040D7
:10376000FFFFF7FF4CB9FC07A88BFC07288DFC076F
:10377000A88DFC07B81000401830004070A0FC076E
:103780001A300040383000403A30004010300040DD
:103790006430004066300040223000402430004059
:1037A00006100040041000402A4B10B51B8804008E
:1037B000DB0507D51B20FCF72DFF0123264A1188C6
:1037C0000B431380A023DB051B88244924480A8867
:1037D0001B079B0F0240DB0113430B802268214B28
:1037E0001A606268204B1A60A268204B1A60E26877
:1037F0001F4B1A6022691F4B1A6062691E4B1A60C8
:10380000A2691E4B1A60E2691D4B1A601D4B1C60B9
:103810001D4B1A681D4B1A601D4B1A681D4B1A6010
:103820001D4B1A681D4B1A601D4B1A681D4B1A6000
:103830001D4B1A681D4B1A601D4B1A681D4B1A60F0
:1038400008221D4B1A801D4B1B88DB0601D500BECC
:1038500010BDFEE72A00005080000050120000500A
:103860007FFEFFFF0090FC070490FC070890FC0718
:103870000C90FC071090FC071490FC071890FC07B4
:103880001C90FC072090FC0728ED00E02490FC072A
:103890002CED00E02890FC0730ED00E02C90FC07B8
:1038A0003CED00E03090FC0734ED00E03490FC0784
:1038B00038ED00E03890FC07003300501400005051
:1038C0000423344A70B5118801250B43138040232B
:1038D000314A040011880B431380C0232F4A5B0038
:1038E000D55008222E4B1A802E4B1B88DB0506D59F
:1038F0001B20FCF78FFE2C4B1A8815431D80A0233C
:10390000DB051B88294A2A4811881B079B0F0140A9
:10391000DB010B4313802168264B19606168264B3D
:103920001960A168254B1960E168254B1960216970
:10393000244B19606169244B1960A169234B1960FC
:10394000E169234B1960234B1C60234B1968234BFF
:103950001960234B1968234B1960234B1968234BBB
:103960001960234B1968234B1960234B1968234BAB
:103970001960234B1968234B1960234B1B88DB0606
:1039800007D500BE138821490B4004310B43138037
:1039900070BDFEE7100000500800005000E100E09C
:1039A000003300502A0000508000005012000050E8
:1039B0007FFEFFFF5090FC075490FC075890FC07D7
:1039C0005C90FC076090FC076490FC076890FC0723
:1039D0006C90FC077090FC0728ED00E07490FC07E9
:1039E0002CED00E07890FC0730ED00E07C90FC07C7
:1039F0003CED00E08090FC0734ED00E08490FC0793
:103A000038ED00E08890FC0714000050FC7F0000B7
:103A100010B5FFF7FBFC10BDC823D44AF0B51380E6
:103A20000023D34A0C2013800822D249A1B00A8077
:103A3000D1490C930C9B002B00DC7BE1CE4F012481
:103A40003B6E002B00D089E1E617630DCB4DF602EB
:103A50001E433C66E402286F696F04430E43220054
:103A600033002A676B67FB6C0124002B00D077E1E1
:103A7000286F696FC04EE717A30EBF011F43F464A0
:103A8000A4010F4304433B0022002A676B67B36B1A
:103A90000121002B00D065E10A00B84BB1631C6F17
:103AA0005D6F0193CB1792185B4117002B4327439F
:103AB00019003800019B012518675967736C002BAA
:103AC00000D051E1019BAC4CEE17186F596F3601D5
:103AD0002B0F1E4365642D0105430E432A0033005E
:103AE000019901250A674B67636B002B00D077E1D2
:103AF000A24EEF17306F716F65630F4305433B00B4
:103B00002A0032677367236C0124002B00D069E11F
:103B1000994BE5171C64019BED00186F596F630FFB
:103B20001D43E4000D43044322002B0001990A6762
:103B30004B67002300220A674B6700230C930C9B02
:103B4000002B00DC50E18E4D0AAA2B88941D9BB2FD
:103B5000D380D08880B200E000BF04222388934342
:103B600000D085E10121874A13888B431380864B5F
:103B7000864A198808201140E02292010A43062152
:103B8000834D1A802A88834F02432A803A888A43C9
:103B90003A8080221C88D20122431A802A887E4CD7
:103BA00022402A800E257D4A1488AC43214311808F
:103BB0007B490988C90500D45DE13988794A1140FB
:103BC0008022D2000A4380213A803A8809021205F5
:103BD000120D0A4304213A801A8802431A801A8877
:103BE0008A431A803A8803398A433A801A883F31D7
:103BF0008A431A800322198865480A4360211A8083
:103C000020220388684E8B43134303806748038850
:103C10008B4313430380C02365490A889A43403B82
:103C200013430B80FF21634A13888B431380624A3E
:103C3000E33913888B4318390B431380E023108832
:103C40009843403B034313805C4B5D4A19801388C3
:103C50005C490B4013808021C0235B4A5B00490212
:103C6000D150FCF78BFC0722336813400AAA53712A
:103C70005379022B00D01EE1544B03221B68DBB2A8
:103C8000AA2B00D03AE1A0210C20C9050B88920094
:103C9000834313430B8000E000BF374B0024180020
:103CA00006224B496430069301F008FF334B012094
:103CB00007936C331C8000E000BF464B1A68464BEC
:103CC0009A4200D070E204940434424B434AE31811
:103CD000934200D926E290221B6812060E930E9B97
:103CE0001B0F1B07934200D0B4E1FF220E9B0E99DD
:103CF0001340090A0591581E11400291162800D957
:103D000083E101F0FBFE26012601820126018201EA
:103D1000FD00120182018201820182018201820181
:103D20008201820182012C01430159016B01820150
:103D30007201780100220D920D9B0B2B03DD0C9B71
:103D400001330C9376E60C9B0D9C43431B199B009F
:103D5000CB185A630D9B01330D93EDE7644273E674
:103D6000644285E6494297E66D42ABE60031005079
:103D70000231005002330050A88DFC07288BFC074D
:103D8000040300501003005020030050FFC3FFFF46
:103D90005200005080000050FFBFFFFF5400005051
:103DA0002A000050FFF0FFFF0000F407240300503A
:103DB0001600005030000050380000500002005043
:103DC00004000050FFF7FFFF00E100E0D07FF8079C
:103DD000D47FF807D07EF807A5A5A5A5BF7FF80773
:103DE0006D4285E6644293E60023B94C0D930D9B2A
:103DF0000B2B02DD0C9B0133A0E60D9B0C9A0122DC
:103E00009A401305F6D00C210C9B0D9A4B439B183E
:103E10009B00E3185B6B013300D100BE0C200C9BB0
:103E20000D9A43439B189B00E3185B6B002B1BD040
:103E30000C9B0D9943435B189B00E318586B0D9A3C
:103E40000C9DC11704955BF79BF9049BA14D1A01CA
:103E50005BF796F92E6F6F6F3043394302900391F1
:103E6000029A039B2A676B670D9B01330D93BEE794
:103E700000232B807BE63C8897490C40C021C90079
:103E80002143F0243980398824022143398019885C
:103E9000924C814319800421188888431880108827
:103EA000204010800122388802433A808C4A1288D0
:103EB0000A42FBD09EE68A4B1B88DB050BD4072306
:103EC000326888499A43053B1343336004230A68E8
:103ED0001A42FCD0D0E6FCF745FB0A2802D80B209A
:103EE000FCF798FB01233A881A42E8D13A88134339
:103EF0003B807B4B1B885B07FBD5E0E70122C2E6DA
:103F0000744D281D6C352B78DB00C018029B9A007D
:103F1000754BE11801F0D2FD2B78059A9B18DBB2A6
:103F20002B70042B15D900BE13E06A4D281D6D358A
:103F30002B780233DB00C018029B9A006A4BE11811
:103F400001F0BCFD2B78059A9B18DBB22B700C2B73
:103F5000E9D8029B01339B001B191C00B5E6624B9C
:103F60005C4AE3181868196880B2090C0B1A9BB2F6
:103F70005D1C9B08EB18150058352B800923434323
:103F80005B1A1BB2DB105A321380E2E7564B514AE0
:103F9000E3181868196880B2090C0B1A9BB29D08C7
:103FA0000133EB1815005C352B80092343435B1A62
:103FB0001BB2DB105E32E7E7049B980010AB1818C9
:103FC000029B9A00484BE11801F078FD029A049B8D
:103FD000944663440493022BBBD9A4E7424BE318F5
:103FE0001A683C4B66331A80B3E73F4BE3181A68F4
:103FF000384B5A65ADE73C4B364AE3181B686832CC
:104000009BB21380002BA4D18DE71E2BA1D1364B80
:10401000E118029B5A082F4B0593002A99D00B6890
:1040200008934B6808310993059B181D0023056907
:10403000AC46089D654508D105980233DB00C318DE
:1040400009989860013AD2B2E7E701330830062BAD
:10405000EDD1F7E780220E9BD20593422FD30E9A23
:10406000224B9A422BD823000E99214A08339142C1
:1040700005D11D4AA41821681E4A51806DE70E998A
:104080001D4A914206D1184AA418124A21686A3280
:10409000118062E70E99194A914205D1124AA4187B
:1040A0002168144A918058E70E99154A914200D030
:1040B00053E70D4AA41821680E4AD1804DE70E9BA4
:1040C0001B0F072B1ED1002000E000BF231D44E77B
:1040D000A88DFC07288BFC07FFF0FFFFFFF9FFFF0F
:1040E0002A0000500400F407D47EF8074C42005028
:1040F00028000050A000FC070200005024000050DF
:10410000200000500E9B1B0F082BDFD00E9B1B0FB7
:104110000A2BDBD00E9B1B0F062BD7D00E9B013337
:1041200000D07EE3019B109A60331A80119A91B2FD
:10413000120C531A9BB298080133C31801986230CD
:10414000038009234B439B1A019A1BB2DB10643294
:104150001380019B6C331B78DB0700D565E3E04BD4
:1041600019006C310A7852080A701A006D32127800
:10417000D20700D500BE19006D310A7852080A70C6
:104180001A0068321188002902D1FA2189001180B1
:104190006A331A88002A07D1D24A1268D2B2AA2AF0
:1041A00000D044E32A3A1A800124079BCE4A6A339E
:1041B0001D88CE4B0D205D8701931388A343138088
:1041C00001F02CFC0322CA490B8893431C43402373
:1041D0000C80C74A12881A42FBD0FA20C54B8000D7
:1041E0001D8001F01BFC0322C1490B8893430B8007
:1041F0008023BF4A12881A42FBD07F21069A6A3276
:104200001170BD4A1168BD4A1160EFF3108401229C
:1042100082F31088A022D20511880B431380072255
:104220003368B7499343336004230A681A42FCD0C9
:10423000B44BB54A80211A60B44BB54A1A60A0222B
:10424000D20513888B431380B24B1B88DB050ED538
:104250000022B14DB14B28783C331A70FCF7DAF9E3
:104260006B78002B03D101223B8893433B80002CC9
:1042700000D0DEE284F31088A94BAA491A68002313
:104280008A4209D0A84CA94AA949581800681919A6
:10429000043308609342F7D10021A64AA64801F0F2
:1042A000E1FBE0220021D200A44801F0DBFB01F099
:1042B0006FF9A34BA34AA4491A60A448302201F025
:1042C000FDFB002540243F22A14BA2491A705D70DE
:1042D0009D70DD701D715D719D71DD7122002D314C
:1042E00010A801F0EBFB220010A99B4801F0E6FBAF
:1042F0009A4B9B4A1D709B4B01211A609A4B9B4A1B
:104300001A609B4B9B4A1A600A229B4B1A709B4B6C
:1043100028321D709A4B08351A709A4B2D3A1A6044
:10432000994B1960994B1A60994B52181A60994B26
:1043300052181A60984BFF321D60984B1A60984BC8
:104340001A607D4B974E3360FCF7B4FF30229649DC
:1043500001200B8893430B8080230A8813430B8032
:104360000B88924A1D430D801388834313801822C3
:104370005F480388934303800B88143A1C430C80E6
:104380008B490B8893430B8002238A4A12881A4276
:10439000FBD0894B894A198855481140B022120137
:1043A0000A431A80012219881143198018230188B1
:1043B0009943103B0B43824903800B8893430B8046
:1043C00079493F320B88934380220B80D2051368D2
:1043D0007C490B407C4913600A687C4B1A4080235F
:1043E0009B0113430B6080230A689B0313430B60FC
:1043F0004B4B4C4A1B68934234D03268744B75491E
:104400001A603E4B00241B681A0A0B704A701A0C83
:104410001B0ECB70444B8A705A000292C022FF32AE
:1044200094466246029DD21A525D032518780134E3
:1044300042402840085C42401A70E022013352009A
:104440009442EED1644CA53A20003749FF3A5CF71C
:10445000E7FD002800D000BE20005CF775FD304B62
:10446000304A1A6030683DF7F5FE002380225B4D2C
:10447000D2052B711168EB700133FF330B431360CE
:10448000FCF774FD0120FCF7C9FB244C23005B33CF
:104490001B78002B02D1524AEB701370019D0C2245
:1044A00050350021280001F0DDFA26002000092205
:1044B000002476364B497730327001F0FFFA74846D
:1044C000FF264949042058F794FC21000420AE70CF
:1044D00058F7C1FCFCF700FE019B4C33187085E0D7
:1044E000288BFC07D07FF80724000050288DFC079C
:1044F0000A00005002000050E87FF807F47CFC0737
:104500000400F4071000F4070F0099091400F407E1
:10451000090404A42A000050047DFC07A88BFC07B2
:104520009C7CFC07658734123C8EFC07040A000063
:1045300000B0FC07AC14000000A0FC0700B9FC07A9
:1045400060BAFC075467FC077CFCF10700BAFC0763
:10455000DAB9FC075664FC07B0BCFC07FDB9FC07E0
:10456000603FF20750B9FC0754B9FC07F868FC0734
:1045700058B9FC07FC67FC07B0B9FC07B1B9FC07E8
:10458000D9B9FC075CB9FC0760B9FC0764B9FC0742
:1045900068B9FC076CB9FC0770B9FC0748B9FC079F
:1045A00044B9FC074CB9FC0708000050200000503B
:1045B000100000501400005026000050FFF0FFFFD4
:1045C00022000050FFFEFFFF00020040FF81FFFFBE
:1045D00008020040E87CFC07087DFC0754BAFC0791
:1045E000B4BAFC074C64FC07C464FC075FF780F8AE
:1045F0002000FCF701FB954A954B1A80954B1C70E7
:10460000954B1E70FEF7B6F8052001F0B3F9C823EC
:10461000924A1380924AC03B1380924B924A9B1855
:104620009B08013B0693FCF7CDFA00282ED058F7E3
:10463000E4FE0020FCF7F2FA8C4B44331C78042C87
:1046400024D10120FCF7EAFA002321000FA80F93E0
:1046500049F774FA002819D00123854A13601368BA
:10466000002BFCD1834A844C1268E16E8A4200D24E
:10467000E3662300C820E16E30331B78511A000135
:10468000814200D3D9E0002B00D0D8E072B67B4E37
:104690007B4D33689B6A10932B0072331B78002B81
:1046A00003D1784B1B79022B01D1002310930122F7
:1046B000754B1B88134200D00FE257F76AFF0028A2
:1046C00000D10AE26F4CE378002B00D19BE101227C
:1046D0006E4B1B88134200D09CE02388002B00D037
:1046E00091E172352B78002B06D1694B9B6A002B28
:1046F00002D033689B6A1093FDF7FCFFA17810A8E5
:1047000058F73FFD002800D17DE1624B1B685B0636
:1047100000D578E1A17810A849F710FA002800D157
:1047200071E15D495D4B0A881A4080235B001343A9
:104730000B80109B002B07D0594A1268393AFF3A78
:10474000DA2A01D8013B1093564B57491868474B5A
:10475000564A01939B8F564D1B180B601368554E9C
:104760009B0A9B020343136010682B6830409B0236
:104770000343136010680B68C1025B05C90A0B4351
:10478000136010984C4B984200D900BE4B4E00214C
:10479000B26EF36E5AF760FC2A680903000D0843F5
:1047A000354B0138511C9867884200D19A672179AE
:1047B000986F4A1E9141C9B245F7D6F8404BDB6A63
:1047C000984780233F491B020A681A42FCD0802385
:1047D0005B003D4A12681A42FBD080223A490B68BE
:1047E00093433A4A0B6011888BB2452903D846217E
:1047F000CB1A336711803DF768FD354B019A1B6872
:1048000013648022304B1B681342FBD031490B8864
:1048100093430B80304B1B78013B5A1E934102336C
:10482000F2E000BE2300FFF798FB00BE97E46E2283
:10483000B9E4012383F310881EE5002B4ED0236FCB
:1048400001332367FDF7AAFD20E7C0468813000067
:10485000E06BFC07067DFC07DD6BFC0700310050B8
:1048600002330050EC6BFC07030004F8288DFC07B2
:10487000FC0000401C000040A88DFC0758B9FC0754
:10488000A88CFC0754BAFC070833005014000050F1
:1048900074BEFC071000004038300050FFFCFFFFE2
:1048A000200000401C7DFC07187DFC073C000040F8
:1048B000207DFC07FF03E0FF3F420F00A88BFC07B1
:1048C00058BFFC0730000040000200400A3300508F
:1048D0000802004008000050B4BAFC079B4DE26695
:1048E0002A8810A892B20192994A9A4E128892B2DE
:1048F0000292994A128892B20492984A12881193AD
:1049000092B20592964A1092FCF7CAFD2200954990
:1049100074320B8876349B059B0D1380802233887C
:1049200092009B059B0D23800B889B0A9B021343DF
:104930000B8033889B0A9B021A43022332802A8809
:1049400013432B80012001222B885B08184013425F
:10495000F8D1854B1A80854B854A1C88FA2312882A
:10496000A1B29B00A41A6343002B37DD814A98183B
:1049700081495AF75DFB814B841174331988802378
:104980001934E2B2DB0064B2994200D300BE75482C
:1049900003889B0A9B021943784B01807633198860
:1049A0008023DB00994200D300BE33889B0A9B0220
:1049B00019433180714E002331006A31CB567F2B71
:1049C00010D10C70029A624B1A80049A624B1A80C2
:1049D000624B059A1A80019B2B8057E69142C7D003
:1049E000674AC4E7DBB2D11A48B2090601D59B1A5F
:1049F00058B20428E6DD336F013333676A36FDF7BA
:104A0000CDFC3470DEE701239A1E012A00D998E01C
:104A1000042201245B485C4E01881025114301806B
:104A200031695A48114331610188A1430180584CD2
:104A3000022B54D12388AB4323800022554B1A808C
:104A4000554B1B88DB0506D4602354490A889A43DA
:104A5000203B13430B8060224024012550490D2048
:104A60000B88934323434F4A0B801388AB43138037
:104A700000F0D4FF03224C490B8893432B430B8057
:104A8000494B1B882342FBD03223484A1380484BB2
:104A90001B88DB0602D50822464B1A8030BF444BE8
:104AA0001B88DB0602D50822434B1A806021202296
:104AB0003A4803888B4313430380394803888B4368
:104AC0001A430280FCF7F6FB0422336993433361F7
:104AD00062B6C822394B1A80A5E5002394E72388E3
:104AE0002B432380238813432380FBF747FD238830
:104AF000069A1D43324B25801A60EFF31082012382
:104B000083F31088A0218020C9050B8883430B8084
:104B1000002A12D182F310881F4B1B88DB0500D4BA
:104B20008BE70022274B0B203C331A70FBF772FDFA
:104B300001223B8813433B807FE7012383F31088E6
:104B4000EAE7012BC4D130BFC2E7C04600150050D0
:104B5000021500500A1500500415005006150050AB
:104B600001040000081500500E15005010150050EB
:104B7000BC7CFC07D5020000AA050000A88DFC073C
:104B80002BFDFFFF1000005000ED00E00C03005073
:104B900012000050180000502A000050520000502F
:104BA00024030050240000500A000050020000506E
:104BB0001400005000330050023300500031005008
:104BC0002000F407A88BFC07F8B507460120002356
:104BD000024600901946032044F714FC04460221C3
:104BE00080300170FF4DFE482A6843881146FF312E
:104BF000F7310B8680884886FB48066A0123DB066E
:104C00009E431E430662FF320020FF32383250823C
:104C10009082D0821D200882F4484884F448C882DB
:104C2000F448088300204882384644F72BFF0146A9
:104C30002868FF30F730C28B920992010A43C28381
:104C4000ED48416800208847002C02D0204643F7F9
:104C5000C2FF2046F8BDFFB58BB006461698002768
:104C6000022821D00D9801881498814278D3718848
:104C7000084640383F2802D8159850F7BFFF0C98D7
:104C8000361D0088149A80190E995AF735FA0C9837
:104C90000188149808180C9908800D9801881498B8
:104CA000081A0D9908805CE100200E9D0790697834
:104CB0002C78090221433180E978AC78090221433C
:104CC00071808C46403904242D1D024603468E46D1
:104CD000402900D32878614604291FD0052914D023
:104CE000062918D070463F283DD8159850F786FF02
:104CF0000006000E04D0C148008D0006C00F30D061
:104D000002230120BE4A002712E0697800290FD053
:104D1000BC4A17230CE0BC4A0F2309E0522802D0FA
:104D2000D22802D002E0142000E01520B74A1F2349
:104D3000002A1AD0984218D28000105804900028F7
:104D400013D000200890059070884038402803D385
:104D50002878052430716D1C701D00900498B5E012
:104D6000FEE03027F0E03327EEE07088042872D1AF
:104D70000627E9E0522862D00CDC4B283FD004DC47
:104D800041286AD0422858D111E04C2820D0502820
:104D900053D140E0632830D004DC572818D0612874
:104DA0004BD19BE06C2864D0772846D109E000986D
:104DB000297801700098641C401CA4B26D1C0090FE
:104DC00081E00498401C04900178089881427AD1CF
:104DD0000098A41C401C41084900881C0090687879
:104DE0002A780002104308800599AD1CA4B200295E
:104DF00069D008900020059065E00120FBE71022B3
:104E0000294600985AF778F9009810341030A4B267
:104E10001035009057E020464030149903908842A6
:104E20000BD84022294600985AF766F9009840307E
:104E300000900398403584B245E0342743E00822CF
:104E4000294600985AF758F9009808340830A4B257
:104E50000835009037E068E0FFE706222946009811
:104E60005AF74AF90098A41D801DA4B2AD1D009008
:104E700029E01498001B80B203903088001B001DAD
:104E800081B2012007900498401C04900098401CB7
:104E90004008400000900498007857281CD0422811
:104EA000CBD100980170090A417000982946801CF6
:104EB0000090039A5AF720F903980399201884B2B6
:104EC0000098401800900498401C04900078002836
:104ED0001ED0002F17D01BE04908E2E71498001BF2
:104EE00081B200980391401C4008400000900120CE
:104EF0000A460790294600985AF7FEF80399601869
:104F000084B20098DDE70D990988A14200D331E70A
:104F10000D980088A04208D304990978002904D18B
:104F20000799002903D1A04201D034270CE00D9944
:104F3000001B08800C9801880098801B001F08182F
:104F40000C99002F08800CD07088042809D00628FE
:104F500007D04038402804D30E984079707100E0A3
:104F6000342738460FB0F0BDFFB581B01F46164656
:104F70000C46104657F784FF00257F2802D0218970
:104F8000062909D03B4632462146019851F7C9F916
:104F90000546284605B0F0BDC00601D50225F8E754
:104FA00020780028F5D1300AA11D3DF752FBF0E72B
:104FB000F1B598B018983DF74AFD044618980521B8
:104FC0000079134A4006C00F099068460184618B3E
:104FD00008460A38904276D2E08A062873D319E050
:104FE00030BCFC074CB9FC07C0000040108000003A
:104FF000294100007671000058BFFC0748BEFC073D
:105000003803F2074003F2079C03F207D803F207C4
:10501000770C00001922D201904254D8228BFF2332
:10502000F5339A424FD8521C9300D2184243521C77
:105030000A23521059438A4245DC217F00290CD1B2
:10504000617F002909D1A17F002906D1E17F0029D4
:1050500003D12021095DC90635D02746203779784C
:10506000C906C90E491F0C292DD2A18A81422AD80E
:10507000E17C002927D0421E082A01D9082000E03F
:10508000401E81421FD8684641F7A2FD00281AD170
:10509000FE4D0622286221460AA85AF72DF8A87963
:1050A0002E46803E00287DD06079800901280BD0F3
:1050B0000AA8099948F75BF8010003D03820405C42
:1050C000002870D09BE008E1F06A807A012808D0BF
:1050D000042806D00AA848F7B7F8286200284ED05E
:1050E00054E0686A06220AA932305AF729F80028E3
:1050F00006D00AA848F7A8F82862002802D012E0D3
:10510000686AF9E700210AA848F7B4F82862F16A4A
:10511000897A012905D18B071A6849068A430A430F
:105120001A60002811D0F16A286A06222530103151
:105130005AF706F8002808D1286AF16A2030C07AA8
:10514000C97B884201D1286A1EE0D148D149008834
:10515000C96880B20622504308183DF77DFC01461D
:1051600014A80622023059F7C7FF13AA00213C20D9
:105170003DF73FFF0121B06D43F766F9A9E011A9A2
:105180000AA848F777F82862002838D00146253168
:1051900006220FA859F7B0FF286A08AA2030C17A62
:1051A0000FA801E041E024E047F7C4FE002812D038
:1051B000286A2030C07A002809D16846B649008C98
:1051C00046F72BFE08AA0121B34847F7B3FE68460D
:1051D0000AA9008C0AE008AA012111A847F7AAFE33
:1051E00000280CD0296A6846008C323146F72BFE25
:1051F00005E00A18527D002A08D010286DDBF06AFD
:10520000407A022806D0032804D00EE0401C102863
:10521000EFDBF4E76846008C052806D308AA0AA845
:10522000099947F787FE002857D000226946204693
:1052300047F729FF002850D1F06A407A02280BD0A6
:10524000032809D00023684602880AA8099947F76D
:105250003BFF002802D02FE00123F4E7E18A6846F3
:105260000181218B4181618B8181787806224109FE
:10527000684681757878C106C90E68464175214631
:105280000E3059F739FF189800794006C10F68466B
:1052900001750388214602A8B26D42F77BFC0146E6
:1052A000B06502A83DF7F3FE0020B06521466846D0
:1052B0001C31008841F7DFFC44F75EFD734C20345D
:1052C000207A002805D00021092057F71CFF002074
:1052D00020720021084657F7BEFD19B0F0BDF8B5A1
:1052E0006E4C064685000F4660594C21095C242906
:1052F0000ED140691022791D2E3059F7FDFE6159FB
:105300002520403108730022114630464FF7C9FD71
:1053100060594C21095C0C291FD140691022791D6C
:105320002E3059F7E9FE60595F214069095C090791
:105330002DD401462E3110221E3059F701FF0028CE
:105340000CD06059092140300173304650F7C6FA3D
:105350000146002230464FF723F9F8BD0421684684
:1053600001706A46052130464FF7C4FA6846017855
:105370006020014368460170304650F7AFFA01469D
:1053800068460278012330464FF71FFAF8BD3046D1
:1053900050F7A4FA012809D0605907214030017361
:1053A0000022114630464FF77CFDF8BD61590020C0
:1053B0004969C031887160590421426930461E3202
:1053C0004FF798FA605941694031897F002907D029
:1053D0001A2140300173002130464FF7ECFDF8BD33
:1053E0001B214030017330464FF73AFEF8BDF8B547
:1053F0002A4C05468600A0594C22125C192A11D16C
:1054000040224D30491D59F777FEA05940222449CA
:105410004D3059F795FE002805D0214928462039FE
:1054200056F7F9FFF8BD0B21684601706A46052161
:1054300028464FF75FFA68460178602001436846C6
:105440000170284650F74AFA01466846027801235F
:1054500028464FF7BAF9F8BDFFB581B003980C465E
:10546000060A002557F70CFD002827D0132825D061
:10547000142823D00B48B700C0592030407BC00609
:1054800037D5039857F7FCFC15280DE030BCFC0716
:1054900068B9FC0760BBFC0750F5F1073CBEFC0790
:1054A000FCBDFC0778BBFC070CD0A0793DF7C2FA25
:1054B000304642F75DFB032806D015E0A0793DF7A2
:1054C000B9FA1FE002251DE03248C0592030407B68
:1054D000400704D53D2130463DF7AAFF04E03D22B8
:1054E000002130463DF7B3FF3D21304641F788FBB0
:1054F00008E02046103828490181468120464AF7B5
:1055000071F80125284645E5244852220068643098
:105510008188C37E5143224A12688918FF225F3274
:10552000525AFF31120AD21A01310B8CD2B2DB0B64
:1055300009D00B8C5B045B0C0B84002A03D18088A0
:10554000184A012111547047FFB51746140A81B05B
:10555000104A0298A100515840780026114D0029A8
:1055600007D0295D002905D0002803D120463FF748
:10557000C3F92E553A46049B0299019840F74DF91C
:1055800008E50A48084901600949416070477047C9
:105590007047000078BBFC070608000084BBFC07CE
:1055A0004CB9FC07248EFC070459F007C0000840E2
:1055B000490C00BF7FB5E4486B46018842888918D2
:1055C0006A46118001214C0022181546403DED8F9E
:1055D000065B5288AD19AA18491CC9B21A5307298B
:1055E000F1D38189C089081881B2D981D88800286F
:1055F00021D01889002820D0988800281FD05889E9
:1056000000281ED0988900281DD0588800281CD05A
:1056100000291CD0188800280BD00720062254002F
:105620001C5B8C4201D22146D0B2521E52B2002ADB
:10563000F5DA04B070BD0320FBE70420F9E702208F
:10564000F7E70520F5E70620F3E70120F1E707205B
:10565000EFE7F0B595B0EFF310801090012080F3E4
:105660001088BA48816B4A07520F69460A800A922D
:10567000816B0122C908C9008163B5498B886946DD
:105680004B800224B24B00219980C16A09078B0F1D
:1056900069468B800F93C16A0C2399430831C1621C
:1056A0000521090709880906CB0F6946CB8005212A
:1056B0000907099309888023194305231B071980CB
:1056C000A449898A4906CB0F69460B81A1490893F1
:1056D000898A402319439F4B9982016A09074B0F1E
:1056E00069464B810C93036A0E218B4303629B4DE9
:1056F00099486860FF204030A8602888A04328802F
:10570000974841680B071B0F69468B810B934168D3
:105710000909090108314160416849064B0F694692
:10572000CB810D9341687023994360314160874874
:10573000403801688904CB0F69460B8202930368E5
:1057400041140B4303600168CB07DB0F69464B82B2
:105750000E9301681143016041688903CA0D6946CF
:105760008A8203924168CA05D20D6946CA820492B0
:1057700081688903CA0D69460A8301928168CA0556
:10578000D20D69464A8305924168764A1140032248
:10579000D203891841604168490A4902FF31413109
:1057A000416081686F4A11400322D20389188160E9
:1057B0008168490A4902FF3141318160642000F06B
:1057C0002DF9A88969468007C00F8883A8892043DE
:1057D000A8810024604F28880026012108432880E2
:1057E0000A2000F01BF9FF205F4941303A680A4265
:1057F00000D0761C401E3F1D0004000CF6D1A88A84
:105800008004FCD15149886B671CC208D20078071C
:10581000400F02438A630A2000F000F960004A4901
:10582000FCB20E52082CD5D348480A99826BD20894
:10583000D2000A4382636946454A498891800F999C
:105840008A00C16A0C2399431143C1620999CA01B4
:10585000052109070988802399431143052212076E
:10586000118008998A013B49898A40239943114351
:10587000384A91820C994A00016A0E2399431143D8
:10588000016237480B994268120912010A434260CB
:105890000D994268090170239A430A4342600298B5
:1058A00041032A48403800680122520390430843CC
:1058B0002649403908600E980968490849000143A3
:1058C000224840380160039842022048403840682E
:1058D0002449084010431D4A403A506004985268D9
:1058E000520A520202431948403842600198174A4E
:1058F0004002403A92680A400243144840388260AD
:105900001249059840398968490A490201430F48FC
:10591000403881601098002800D0012080F3108862
:1059200015B0F0BD10B5114C2078002808D0FFF755
:1059300090FEFFF73FFE0E4908700020207010BD5A
:10594000FEF766F80120F9E72882FC078010004086
:105950000012004020300050287DFC070035005028
:1059600040200040FF01FCFFC0C0C0C0D88DFC0734
:10597000018CFC0710B5FF22154901320A60BFF304
:105980004F8FBFF36F8F13490A6013490B68402490
:105990001B0A1B0223430B601049898A0021C3079D
:1059A00000D03521830702D57D231B02194343070D
:1059B00002D575231B041943000702D53D200006BC
:1059C000014306482038016301488038026010BD59
:1059D00080E100E080E200E008E400E0A010004088
:1059E00010B5062000F01AF810BD10B5092000F01F
:1059F00015F810BD10B5812000F010F810BD10B5DD
:105A0000044800F00BF810BD10B5034800F006F88C
:105A100010BD0000010200000108000000280CD0A9
:105A200000BF00BF00BF00BF00BF00BF00BF00BF7E
:105A300000BF00BF00BF401EF0D17047074B10B53C
:105A40000400002B02D0002100E000BF044B1B68C3
:105A5000002B00D09847200000F03AF8000000002A
:105A60003882FC0703008218934200D170471970F6
:105A70000133F9E770B500260C4C0D4D641BA410E2
:105A8000A64209D1002600F0D1FC0A4C0A4D641B45
:105A9000A410A64205D170BDB300EB58984701365B
:105AA000EEE7B300EB5898470136F2E7E46BFC07EA
:105AB000E46BFC07E86BFC07E46BFC07002310B504
:105AC0009A4200D110BDCC5CC4540133F8E7000009
:105AD000FEE7C04602B4714649084900095649002C
