:0200000407FCF7
:10000000886CFC07690EFC074D02FC072D02FC07FB
:100010002902FC072902FC072902FC072902FC0728
:100020000000000000000000000000002902FC07A2
:1000300000000000000000002902FC072902FC0764
:10004000A125FC079D26FC07A526F007E50CFC076B
:10005000B90AFC072902FC078908FC072902FC07EA
:100060002902FC072902FC07A527FC07AF27FC078C
:10007000B927FC07C327FC07CD27FC072902FC078B
:10008000A920FC07E90AFC072902FC072902FC0752
:100090002902FC072902FC072902FC072902FC07A8
:1000A0000000000090070E000000000000000000AB
:1000B0000000000000000000000000000000000040
:1000C0000000000000000000000000000000000030
:1000D0000000000000000000000000000000000020
:1000E0000000000000000000000000000000000010
:1000F0000000000000000000000000000000000000
:1001000000000000000000000000000000000000EF
:100110000448054B10B5834203D0044B002B00D09C
:10012000984710BD4C54FC074C54FC0700000000DD
:1001300006480749091A8B10C90FC91810B549108C
:1001400003D0044B002B00D0984710BD4C54FC0743
:100150004C54FC070000000010B5074C2378002B1E
:1001600009D1FFF7D5FF054B002B02D0044800E072
:1001700000BF0123237010BD0465FC0700000000D0
:100180001454FC07054B10B5002B03D00449054857
:1001900000E000BFFFF7CCFF10BDC046000000002C
:1001A0000865FC071454FC07402292029A1A9246F2
:1001B0007047C046174B002B00D1134B9D46FFF7ED
:1001C000F3FF00218B460F461348144A121A04F01D
:1001D00091FC0E4B002B00D098470D4B002B00D00C
:1001E00098470020002104000D000D48002802D08F
:1001F0000C4800E000BF04F085FC2000290003F05B
:100200003DFE04F063FCC046000008000000000052
:1002100000000000886CFC070465FC078865FC078B
:100220000000000000000000FEE70000042071460E
:10023000084203D0EFF3098003490847EFF3088031
:100240000149084770470000213EFC070420714621
:10025000084203D0EFF3098003490847EFF3088011
:100260000149084770470000393EFC07F8B50020F7
:100270000C250126154B164C1A78290051430F5DA9
:10028000FF2F0FD1002800D01A700C255A78114882
:10029000290051430C5CFF2C0FD1002201201A7061
:1002A0005A7009E06118496801323000D2B2002961
:1002B000E3D01A7088470020F8BD41184968013220
:1002C000D2B20029E4D05A70F4E7C04628CBFC072C
:1002D0000054FC077050FC07002070470020704756
:1002E0000020704770470000014B9B8C03807047D3
:1002F00028CBFC0708230380DB184380002383807E
:100300007D33C380704701230B7000234B808B80AB
:1003100070470000094B10B5C21893B20120042B9E
:100320000BD80024064B92009818836AA34201D090
:10033000846298470020029B1C7010BDF2FBFFFFF7
:1003400028CBFC0770470020704700000B78002B7B
:1003500006D0044A044913888B4201D0013313802C
:10036000002070473A65FC07FFFF0000094B01229F
:100370001B88DB0918001040134208D0064B0020F0
:100380001B681B0403D4054B1B889A4310000123F0
:1003900018407047080000503000004018FAFC0771
:1003A00000207047180A7A234343034A0020D218DA
:1003B0000B78B4321370704728CBFC0700207047CD
:1003C000084B10B5DA6B80231B02984207D3002339
:1003D00019005CF79DFF8905800A084310BD504352
:1003E000800AFBE7A8CBFC07044B10B59B6B0449C4
:1003F0005843044BC0185CF761FF10BDA8CBFC0745
:1004000040420F0020A1070010B5FFF7D9FF10BD33
:1004100070477047704700000321044A13888B43DC
:10042000802109020B4313807047C0461200005020
:10043000F0B51E2805D10E4B4908D218CBB2002BBF
:1004400000D1F0BD0B480021060014685568083241
:10045000076BBC4206D10631C90071184D60013BE3
:10046000DBB2ECE7013108300629F1D1F7E7C046ED
:10047000D42EF807ACCDFC07044B8900D21889189C
:10048000034B0A687C331A807047C046D02EF807A9
:10049000ACCDFC070B4B10B5D2181068116880B2B8
:1004A000090C0B1A084A9BB29C080133E31814008C
:1004B0007E342380092343435B1A1BB2DB10803256
:1004C000138010BDD42EF807ACCDFC070020704778
:1004D0007047704710B5031CE6280CD9084B1B78F1
:1004E000EC20FA21DBB2FF30584389005CF7FCFEB8
:1004F0007E38C0B210BDC2B2282AF1D22823EFE75D
:10050000A44BFC07704770474B1E012B06D9C8222D
:100510000D4B1A800D4BC03A1A80FEE7431EDBB22A
:10052000FD2B06D8C822084B1A80084BC03A1A8007
:10053000FEE7FF2803D1064B48331878704702299D
:10054000F9D10C20FAE7C0460031005002330050C8
:10055000A8CBFC077149724B0A6870B51A40B023EA
:100560001B0113430B606F496F4B0A68FF2492B263
:1005700013436E4A0B6013686D496E4D0B40C021EA
:1005800013606D4A890013686C4E0B43136010238F
:100590006B4A10880343138001236A4802881A4378
:1005A0000280694A69481060694A108803436948B3
:1005B00013800288684B1A40BC239B0013430380BE
:1005C0006648674A03685B0D5B0513430360654833
:1005D000654B02681A4090235B0113430360634834
:1005E000634B02681A40634B134303606248634BDA
:1005F00002681A40624B134303606248624B026810
:100600001A40624B134303606148624B02681A4010
:10061000614B13430360614B614848331A78C1232F
:1006200012065B0113435F4A1360A0225E4B520126
:100630001A805E4B5E4A1A8034230288A243134319
:10064000038055235B480288A24313438D22038015
:10065000594B92001A80594B594A5A481A805A4BA2
:100660005A4A6C241A805A4B5A4AFF341A805A4B01
:100670005A4A1A805A4B5B4A1A8002685A4B1A40EF
:100680005A4B13430360B020594B80001C802A88CA
:10069000584B1A4002432A809022358892001D4010
:1006A0002A433280A822544E920035881D402A43A6
:1006B000524D32802A881A4010432880C620504A62
:1006C000400010804F4802881340194301801F20CA
:1006D00017234D490A88824313430B8019234B4942
:1006E0000A88824313430B80494B4A491C800A887D
:1006F000494B1A4080239B0113430B800723474932
:100700000A689A43043B13430B604549454B0A680A
:100710001A40454B13430B6070BDC0463430004057
:10072000FF80FFFF20300040000066663830004048
:10073000FF00FEFF381200405030004044120040DD
:100740005C300040243000408000004059055C07C8
:1007500040100040202000400FFCFFFF1820004008
:1007600009581A001C200040FEE1FFFF0420004051
:10077000E0E00000080929490820004000000303C8
:10078000696A686C0C200040031FFFFF7060000066
:1007900010200040E0E0E0E00B0A0A08A8CBFC07CC
:1007A0004013004000100040281300402C1300406C
:1007B000051400004813004050130040541300403B
:1007C000340A00003C200040581300404E0800004E
:1007D0005C130040260A0000601300405808000027
:1007E0002C2000400A1400002304E0FE181A060121
:1007F000001200401FFCFFFF481200404C12004056
:100800000412004088120040981200409C120040E0
:10081000A81200403C100040FF9FFFFF80100040E6
:100820006410004000FE00FE500150010F4B10B557
:100830001868FFF7C5FD00220D4B0E49DC6CDA6429
:10084000041920005CF73AFD0B4B0A4918602000A0
:100850005CF734FD002901D0064B591A074B084AB2
:100860001960082113680B43136010BD3800004065
:10087000A8CBFC077102000044000040400000408B
:1008800030000040704700000122044B10B51A8070
:10089000034B1B6D002B00D0984710BD0E15005068
:1008A000A8CBFC07FA22030010B50020D200934227
:1008B00009D3054A6430934205D8044A0A2198189E
:1008C0005CF712FDC0B210BDB80B000030F8FFFF9E
:1008D00000210B4B0200181D70B5C1670948102597
:1008E0000186C020084C40002550DC6D59658C42C3
:1008F00004D019005431C988186EA04770BDC04695
:10090000A8CBFC070013005000E100E0F7B5430658
:1009100005D50020FFF7DCFF244B1B88F7BD2449D9
:1009200080250B0002005433AD009C882A40DB88F0
:10093000284215D14D6E02264F6D29003140481EC8
:1009400081414902019198B2A0421CD219490988FB
:1009500031420DD1002AE1D0154B5433D880DDE768
:10096000E31A5A425341D8B2FFF7B2FF124BD4E711
:10097000FA5C013300209C4200D1019802430F48E9
:1009800002820122DFE7002A02D0094B5433D880CB
:10099000A042C3D10120054205D01021074A138E81
:1009A0008B431386BAE7FFF793FFB7E75413005062
:1009B000A8CBFC07701300506013005000130050C8
:1009C00000210B4B0200181D70B5C16709481025A6
:1009D0000186C020084C400025505C6F99668C420F
:1009E00004D019005431498B986FA04770BDC046A0
:1009F000A8CBFC070013005000E100E0F8B540066A
:100A000025D4284B02241A005432108BDA6F22406E
:100A100051424A415242520A1D005435A98B81422B
:100A20001ED301251A000024AC465432528B996E15
:100A3000891890422BD93F271B4D2E88551CADB2EB
:100A40003E421DD1002C07D054335A8304E00020CD
:100A5000FFF7B6FF154B1B88F8BD802149000CE05D
:100A6000134E36882642DCD0013189B2A9838142F7
:100A7000F3D1C0255102AD0049190E4D2982CBE7B3
:100A80000C4A6446128A0A702A000131D1E7002C10
:100A900001D054335A839042DED10120FFF790FFFA
:100AA000DAE7C046A8CBFC07781300505413005077
:100AB000701300500013005010B5084B988D084B70
:100AC00080B20433DB6F002B01D0984710BDC023E8
:100AD0001021044A5B00D150F8E7C04600130050D3
:100AE000A8CBFC0700E100E0134B10B51C68230500
:100AF00009D50123114A11680B431360104B5B6841
:100B0000002B00D09847E30409D502230B4A116853
:100B10000B4313600A4B9B68002B00D09847A4043A
:100B200009D50423054A11680B431360044BDB68A5
:100B3000002B00D0984710BD0840005014400050D2
:100B400028CCFC070369022906D9C822044B1A8065
:100B5000044BC03A1A80FEE700225B185A777047B0
:100B600000310050023300500369022906D9C8221F
:100B7000044B1A80044BC03A1A80FEE700225B182F
:100B80005A777047003100500233005000487047D8
:100B9000E84DFC077047704700487047544FFC070A
:100BA00030B500220124038B408B01339BB205003A
:100BB0001541254206D08A4202D1013398B230BD98
:100BC00002339BB20132092AF1D10020F7E700225B
:100BD00003695B18DA747047004870474850FC0797
:100BE00010B50389032914D942890124100020403B
:100BF000224200D110BD05290BD90224100020404B
:100C00002242F7D0082904D90424100020402242AF
:100C1000F0D05B1898B2EDE710B502890400FF2010
:100C20008A4206D8131D9BB2994203D2081DC01AEE
:100C3000C0B210BD6489E00706D5063293B299426E
:100C400002D20631C81AF3E7A20705D503339BB2D7
:100C5000994201D20931F5E7FF206207E9D59A1CD4
:100C600092B2914202D20B31881AE1E7200704D5F3
:100C70000B209142DDD003339AB2FF20E406D8D591
:100C80008A42D6D1F338D4E7F7B500240126134BB6
:100C90001349D88F9A6B9F8F121887420BD8002C5C
:100CA00000D0D88701248A88A2438A809B6C002BBD
:100CB0000CD098470AE08D8AAC46451CADB2019530
:100CC0006546354203D1002C00D0D887F7BD08888F
:100CD0003400107001980132DFE7C04628CCFC07D1
:100CE00000110050F7B52F4C0F2320891840013810
:100CF0000B28F9D803F036FF5413F841F8444EF8A6
:100D0000F8F8F806FFF7C0FF0122A3889343264AAC
:100D1000A380936C002BE6D0D08F9847E3E7224B5B
:100D2000988EDA8E82421CD21A6B20260192022201
:100D300094461E4FD98E8842D5D93F252289AA4391
:100D4000D2B2C02A09D165463A882A42CBD04A1C81
:100D5000DA86019A525C2280ECE7A28A3242F6D10E
:100D6000C1E70221A2888A43A280A2887E318A43F9
:100D7000A2805B6C002BD0D1B5E7FFF785FFB2E70F
:100D8000094B1B6C002BAED09E22A18A1140054856
:100D90009847A8E7044B1B6C002BA4D00121F6E771
:100DA000F7BDC0460011005028CCFC077C11005054
:100DB0000D4B0E4A10B51C005A65002254341A66B9
:100DC000E28003325A660A4AD9651100A080543184
:100DD000098811006031098806490433D9679423D2
:100DE0009B00138610BDC046A8CBFC073565FC07E9
:100DF000001300500D09FC071E22084B1A80084BF7
:100E00001B3A19880A431A80042219880A431A8057
:100E10000122044B50331A707047C046021600502E
:100E20000016005028CCFC0710B501F069FCFFF754
:100E300039FD10BDEFF31082012383F310880849B8
:100E40000988090603D40749088803430B80002A50
:100E500002D182F310887047012383F31088FAE7E8
:100E6000080000500833005070B5144B83F3098814
:100E700013485DF731FE134B1348834211D3002012
:100E8000124B13498B4217D3FFF794F91C6891005A
:100E900065585C680132655099688A42F6D30C3314
:100EA000EBE70022F8E71C689500285101325C68E6
:100EB000A242F8D30833E5E70022F8E7886CFC0784
:100EC000A000FC071C54FC072854FC072854FC070E
:100ED0003854FC0710B561F7DBFE054B00211A0002
:100EE000513211705A6D8A4201D05965904710BD38
:100EF00028CCFC0770B5194EB56D002D28D12C23D8
:100F000004220921164859F7F7FE164B0400038006
:100F100010222900B06545800A3003F0EBFD8023E4
:100F20009B016383F72323840F4BA5831A00E5837A
:100F30007E32658411880A1CFB2900D9FB22E284D9
:100F400080331988094A0B1C914200D9131C238550
:100F5000B06D59F7ECFE0023B36570BD28CCFC07DB
:100F6000040D0000030A000074FBFC0748080000A1
:100F700070B50A4C85006619F36D002B0BD10A2160
:100F8000000201431E330422054859F7B5FE082329
:100F9000FF330380F0656419E06D70BD28CCFC0759
:100FA000140E0000F8B50F4C85006619336E002B47
:100FB00011D10A21000201431E3304220A4859F7C5
:100FC0009BFE0722070030660849023003F0BEFD91
:100FD0000223FF333B806419206E59F7A8FE0023DB
:100FE0002366F8BD28CCFC07140E00000C54FC0747
:100FF00010B5FFF7D7FF10BD10B5042209211C233F
:101000000E4859F779FE1B2304000370242061F772
:101010007BFE04220A4B2282626001210222A3810C
:101020000023A174FF3223316070E38120006180CE
:101030002281A37259F77BFE10BDC0461B0D000034
:10104000AD27000010B5042209210A230A4859F7E8
:1010500053FE1B2304000370142061F755FE142374
:101060006380103B63607423FF3360702381200032
:1010700059F75DFE10BDC0461B0D000070B504227F
:10108000092110230A4859F737FE1B250400057073
:10109000280061F739FE04236360064B6070A3608B
:1010A000054B65802000E36059F741FE70BDC046E6
:1010B0001B0D00001D0201002C01050070B504008D
:1010C000242041F780FB0423010090201A008001B6
:1010D00059F712FE04700F4C002526006436337851
:1010E0004570C570837059F722FE230065331D706B
:1010F000230066331D702300092267331A70064BE4
:1011000004210648683401323570238061F7CEFD32
:1011100070BDC04628CCFC07701700001304000007
:1011200070B51600FFF780FE1A4C050023006433EB
:101130001B7883420DD0242041F745FB0223010098
:101140000422154859F7D8FD00234570037059F75C
:10115000EEFD230064331D70230065331B78002BE4
:101160000FD0042D0DD82300673318785EF70CFCE0
:10117000230001226A331A7004210848C73261F73C
:1011800095FD683431002288054861F78FFD002005
:1011900070BDC04628CCFC070224000014040000E7
:1011A0001304000070B50F4C1500230065331B7845
:1011B000002B0FD023006A34673318782378002B74
:1011C0000AD05EF7D9FB00231422237029000648B9
:1011D00061F76CFD002070BD5EF7D6FB0123052290
:1011E0002370F3E728CCFC07140400001FB514009B
:1011F0001A0005230293044B0193069B00932300DE
:1012000062F72EF804B010BDDC4CFC0713B50024C7
:101210000094FFF7EBFF13BD1FB514001A00012364
:101220000293044B0193069B0093230062F718F886
:1012300004B010BD044DFC071FB514001A000423B0
:101240000293044B0193069B0093230062F708F876
:1012500004B010BD0C4DFC071FB514001A00052387
:101260000293044B0193069B0093230061F7F8FF60
:1012700004B010BD4C4DFC07F8B50D0028781900DE
:10128000082806D9C8220E4B1A800E4BC03A1A8085
:10129000FEE70D4B1E5C0D4B8000C758B31C0C487D
:1012A00059F72AFD04002B7832003900037046708C
:1012B000023003F04BFC200059F739FD0020F8BD47
:1012C00000310050023300509C4CFC07A84CFC0736
:1012D0000314000010B504498A780331027001300C
:1012E00003F034FC10BDC04628CBFC0770B5047871
:1012F00003000D00002C04D0012C0AD048242C70CF
:1013000070BD82780548191D8270033003F01EFC01
:10131000F5E7024A438800249384F0E728CBFC07D2
:10132000084B70B51D000C00110088352878A2000C
:10133000C000C018044BC91803F008FC2B781B1917
:101340002B7070BDACCDFC07D42EF807094B70B5DF
:101350001D000C00110089352878A2000630C0005D
:10136000C018054BC91803F0F1FB2B781B192B7023
:1013700070BDC046ACCDFC07D42EF807F8B50E4CB6
:101380000500402220000D4903F0E0FB0C490D4B05
:101390000A00C1CBC1C243CB43C243CB43C243CB00
:1013A00043C2094B0948ADB25B1B401B9BB280B2E4
:1013B00023816081F8BDC04670E0FC077C37F207EE
:1013C000B0E0FC07C437F207B8E0FFFFCCE0FFFF56
:1013D000F7B5144C8700E519EB6E16000191002B50
:1013E0000AD10A21000201431E3304220E4859F794
:1013F00083FC04230370E866E419E56E1022AF1C39
:101400003800002103F076FB32003800019903F028
:101410009DFB012328006B7059F789FC0023E366CC
:10142000F7BDC04628CCFC07140E00001FB54B7852
:101430000400002B0AD1102268460B4903F086FBFA
:10144000102269462000FFF7C3FF1FBD012B03D107
:10145000064B04220093F4E7022BF9D0032BF4D1BE
:1014600010220231EEE7C046F44BFC0740E20100D7
:1014700002690B005218002110B5D174808A1B023A
:10148000184359F76AFE10BD3F2210B54379040096
:10149000934311D141F733FA030A20706370030CB0
:1014A000000EA370E07041F72AFA4023207180B249
:1014B000000A5B420343637110BD70B50D000C0060
:1014C000203541F71CFA20700134AC42F9D10020DC
:1014D00070BD0000F0B57A25234B454385B04E78AA
:1014E0000393224B214A5B1902931E772B0014337E
:1014F000D3180822040011001800019361F7EFFED1
:101500001A4BAF1CDF1931001022380061F7E7FEDB
:1015100041F7F5F9039B5E194E36144B3080EA5CB7
:1015200001231343114A2000AB54FFF721FD0500AE
:10153000029B01991B7F0822037733884382143072
:1015400003F004FB10223900A81C03F0FFFA20006E
:10155000FFF70EFD59F7EBFB0022054BA4001B190A
:10156000DA6505B0F0BDC04628CBFC0764CBFC07AC
:1015700028CCFC0708781B0A10B5DCB207281FD856
:1015800003F0FAFA041E1E1E1614141A0C215943F5
:101590000F4A2000703252180121D17279314B4329
:1015A00000210C4A3C329954FFF7FCFC002010BD8E
:1015B0002000FFF73BFFF9E72000FFF78BFFF5E77F
:1015C000C822054B1A80054BC03A1A80FEE7C04678
:1015D00028CCFC0728CBFC07003100500233005018
:1015E00070B504000D00FEF7C1FE002806D00A4BBE
:1015F0002A000421E01859F7BEFE70BDFFF71AFC5F
:10160000042208231100054859F776FB4560047051
:1016100059F78DFBF1E7C046030400000104000008
:101620000B4A70B5150000237C359C0066590133C8
:10163000002E08D11219DCB2D16701002000FFF79B
:10164000CFFF200070BD0A2BEFD10024F9E7C04680
:1016500028CCFC0710B5002806D1C822094B1A80F7
:10166000094BC03A1A80FEE7084B984206D9C822B7
:10167000044B1A80044BC03A1A80FEE7FFF7D0FFF4
:1016800010BDC0460031005002330050FCFF3F0047
:10169000002370B50E4C23700E4B1B78002B12D11B
:1016A000012215000C4E092033785D409A420BD080
:1016B0005EF76AF905203570002D00D1BE3007496C
:1016C000FFF7C8FF207070BD5EF756F9F2E7C0461D
:1016D0002965FC076165FC072A65FC079116FC0774
:1016E00037B5384C23780133DBB22370364B0028F2
:1016F00009D01A78022A06D81A78501CC0B218707D
:1017000032485200115221781A78D2B2022909D8EF
:101710002F4C2378002B3CD10A202E49FFF780FF65
:10172000207036E0002A30D01A7800232748D2B241
:10173000D9B28A4233D80021274B19706B46002159
:101740005B5E032A31D16A460221515E6A4604205B
:10175000105E1A1C8B4200DD0A1C12B290422EDB76
:101760001A1C8B4200DA0A1C131C12B2824200DDE2
:10177000031C1BB20120194A194C1380194B187015
:101780002378002B05D11849C8E7134A1378FF2B9B
:1017900000D137BD13780133DBB21370F9E76D4622
:1017A00059000C5A01336C52C2E7022AE2D16A4650
:1017B0000221525ED218D30F9B185B10D9E7130099
:1017C000D8E7C0464B65FC074C65FC074E65FC0737
:1017D0005C65FC070D38FC073865FC073E65FC07B7
:1017E0005D65FC073C65FC07091EFC0710B50C4B4A
:1017F0001B78FF2B08D00B4B1B78002B04D0002844
:1018000003D10100FFF76CFF10BD074C2378002BBC
:10181000FAD109200549FFF703FF2070F4E7C0461D
:101820003854FC072865FC072065FC07E936FC07EF
:1018300010B5054B1B78FF2B05D0044B1B78002BF4
:1018400001D0FFF74DFF10BD3854FC072865FC0799
:10185000444A70B503000D00049C90420FD0424AE8
:10186000904237D0414A904260D14A68002A4CD118
:101870003F4BC8321A803F4BC03A1A80FEE70B78C4
:10188000013BDAB2092A1ED83B4A9B00D218D16F1D
:101890003A48814207D10021D167394AD3185962A9
:1018A0000020207070BD374B9942F9D104220823E3
:1018B00011002D4859F720FA2B7803706B684360AC
:1018C00059F735FAECE7C822294B1A80294BC03A60
:1018D0001A80FEE70878411ECBB2092B0ED8264BA2
:1018E00089005B18274ADE6F9642D9D1244A5218E4
:1018F000526A6968DA67FFF773FED1E7C8221C4BAA
:101900001A801C4BC03A1A80FEE71F4B9A4206D938
:10191000C822174B1A80174BC03A1A80FEE7087886
:10192000114B0421C01859F726FDB9E7174A0120C9
:101930009A18092AB6D8033BD8B2411E0E4B89002B
:101940005B18DA6F002AABD00E4DAA42A8D00B4D1F
:10195000AA42A5D00025DD67094B5B185D62904760
:101960009EE7C046020400000304000001040000DA
:10197000003100500233005028CCFC07E502FC0780
:10198000A8CCFC074503FC07FCFF3F00FCFBFFFF66
:10199000431EDAB270B50500092A17D80C4C9B001B
:1019A000E418E36F002B11D00A4EB3420ED00A4B5D
:1019B0000421C01859F729FD042208231100074803
:1019C000E66759F799F9057059F7B1F970BDC04646
:1019D00028CCFC07E502FC07030400000204000019
:1019E00070B5234C230051331878002801D0FFF73D
:1019F000CFFF20492048FFF713FE204D5134EB6CF8
:101A00002070002B2AD10422092152331C4859F797
:101A100073F90D2303801B4B04008380C3800823CC
:101A2000FF3303818023DB00438104221649E864ED
:101A30000C3003F08BF823000C22200013492B33C9
:101A40001A70103126002C3003F080F822000B367B
:101A5000082130000E4B103261F796F8E86C59F708
:101A600066F9002302210420EB6459F776FB70BD70
:101A700028CCFC07D50EFC0770170000A8CCFC078B
:101A80000D0D00004C040000A54BFC07F44BFC07B7
:101A9000AA4BFC0710B561F74DF8002801D0FFF7FD
:101AA0009FFF10BD10B5064C2078002801D0FFF72D
:101AB0006FFF044B04491868FFF7CCFD207010BD80
:101AC0006065FC074054FC07C939FC0770B5EFF3AB
:101AD0001084012383F310881B4D2878002803D03D
:101AE000FFF756FF00232B70184D2B78002B05D0E5
:101AF0002878C0B2FFF74CFF00232B70144D2B78D1
:101B0000002B05D02878C0B2FFF742FF00232B70CE
:101B1000104D2B78002B05D02878C0B2FFF738FF86
:101B200000232B7000230C4A13700C4A13700C4ACC
:101B300013700C4A13709C4202D184F3108870BD5C
:101B4000012383F31088FAE76065FC072065FC0732
:101B50005D65FC075C65FC073C65FC074C65FC07A4
:101B60004B65FC073865FC0710B54A781300591E11
:101B70008B410649DBB20B70002A03D0FFF792FFBE
:101B8000002010BDFFF7A2FFFAE7C0462865FC075A
:101B900010B504001B205FF7B1FF21005FF7C4FF01
:101BA0000100D82004220223400159F7A5F8044B74
:101BB000047050331B785B00437059F7B8F810BDC0
:101BC000A8CCFC0770B505001B200C005FF796FF42
:101BD00029005FF7A9FF022301000422034859F7F7
:101BE0008BF8447059F7A3F870BDC046071B00007E
:101BF00010B50C784A889621531E9BB249008B423F
:101C000013D2642353430A490B600A4B1B78002B01
:101C100005D0094B1B78FF2B01D0FFF743FF0021B4
:101C20002000FFF7CFFF002010BD8021F8E7C0465D
:101C30004054FC072865FC073854FC07F8B50C0035
:101C40000021160005005FF76FFF08270200C12082
:101C5000210209233943000159F74EF812230400E9
:101C6000037024205FF74AFF002805D1C822124BD9
:101C70001A80124B1F80FEE7831CDB7F0022B342D9
:101C800007D90121078B0130D3B2B3420BD30237FE
:101C9000BAB20123AD19E380AB7E2000A28023728B
:101CA00059F745F8F8BDC37F13410B400433FF18C3
:101CB000BFB20132E8E7C0460031005002330050A5
:101CC000F8B51B200D0017001E005FF717FF002856
:101CD00006D1C822154B1A80154BC03A1A80FEE770
:101CE0002988FEF799FF062304003A0031001148C5
:101CF00059F702F82A8803000280E01E082812D84B
:101D000002F03AFF0D111111110D11050D00002205
:101D10005A8018001A7159F70AF80020F8BD0222FB
:101D20005A800022F5E70622F3E7C0460031005052
:101D300002330050180C0000F0B51B2085B01F00C6
:101D4000009101925FF7DAFE041E06D1C8222B4BE8
:101D50001A802B4BC03A1A80FEE7009B3D0A198877
:101D6000FEF75AFF033803AE092843D802F004FFF8
:101D700028423D4242314205390AA389002433807A
:101D8000022505E0E38904253380238A002473803B
:101D90003900019AAB1D1B4858F7AEFF0700ABB2E4
:101DA0002A0031004380053002F0D0FE009B38004D
:101DB0001B883C713B8058F7BAFF002005B0F0BD8E
:101DC0006419E37C5B00022500242B40337074709F
:101DD000DEE76419E37C00249B07DB0F337074702B
:101DE000CEE76519EB7C5B10EDE7A37C01250024B1
:101DF0003370CDE706240025CAE7C0460031005005
:101E000002330050140C000000211D4B30B5197036
:101E10001C4B85B01A788A4207D01B4A12788A4236
:101E200003D01A4D2A78FF2A03D100221A7005B078
:101E300030BD1970164B0C2201A81C8802F05AFE06
:101E4000FE2324B22402240A1B0623432C781B20E1
:101E5000E4B200935FF752FE21005FF765FE1423A2
:101E6000010004220B4858F747FF01230400102209
:101E70006946037402F06AFE200058F758FFD6E75F
:101E80005D65FC073C65FC072865FC073854FC07CA
:101E90003E65FC07021B0000F0B5040085B024205D
:101EA000150001915FF72AFE002806D1C8221D4BBC
:101EB0001A801D4BC03A1A80FEE7831C028B0293E6
:101EC000431C0393012300269C46019B1E70029B2A
:101ED000DF7FB74201D9944201D2802005E0931CF4
:101EE0009C4204DCA21A2A70002005B0F0BD0399C0
:101EF000C87F61463041084206D0033293B29C420B
:101F000003D103232B70EFE79BB2012F05D00133E0
:101F10009BB29C4201D10423F4E7013301369AB20B
:101F2000F6B2D2E70031005002330050F7B51E0080
:101F30006B460D001700D91D6A460023063228881B
:101F400013700B70FFF7A8FF062304003A0031005E
:101F50000A4858F7D1FE2B880380002C05D16B4628
:101F60009B79032B06D1013B4380047158F7DFFEB8
:101F70000020FEBD44800324F7E7C046180C000093
:101F8000F7B5050008781C0A0238052800D971E069
:101F900002F0F2FD0328703948587A23634337482A
:101FA0008A783C30C518290078310A70344901918B
:101FB000D2070ED50C270E00674371337036791D9A
:101FC000C01871180622F61902F0C0FD3379773572
:101FD0002B700C226243019B70339B180022DA7233
:101FE0000020FEBD0C226243254B002170339B185C
:101FF0007A226243D972214BE0B29B18B433197034
:1020000060F728FEECE77A2565431C4B17221C007D
:1020100058197630023102F099FD04233C342A5DD0
:1020200013430DE07A25154B654310261C00581903
:1020300032009D3002313C3402F088FD2B5D334389
:102040002B55CDE77A235C434A8A0C4D023128197F
:10205000002A07D11C323E303C3502F077FD0123C7
:10206000625DDDE71C225A303C3502F06FFD022331
:10207000625DD5E72800FFF7C9F8B1E728CBFC0778
:1020800028CCFC0710B5064B1B78012B07D1054B5C
:102090001A78FF2A03D01878C0B260F7DBFD10BDB4
:1020A0006165FC073854FC0770B55DF77AFB264A7A
:1020B00013881B051CD50520244B1988014081423B
:1020C00016D1042219880A4301211A801A888A43EA
:1020D0001A801F4B5B6D002B09D01E4A10881E4AC8
:1020E00000B211881D4A09B2128812B2984770BD19
:1020F0001388DB0613D501241948038823420ED028
:102100008021184B1D880D4209D004801A888A430B
:102110001A800F4B9B6D002BE9D09847E7E7138897
:10212000DB06E4D502210E4A13880B42DFD00D4BAB
:102130001888C005DBD511801A880B490A401A801F
:10214000034BDB6DE7E7C04604000050000200507F
:10215000A8CCFC0702020050040200500A02005002
:102160000401005000010050FFFEFFFF10B5034BBB
:102170000348196860305DF74BF810BD3C54FC070C
:10218000A8CCFC0710B5074C2078002803D0FFF737
:10219000FFFB0023237009205DF7EEFB0022024BBA
:1021A0001A7010BD2965FC072A65FC0710B5FFF7FA
:1021B000E9FF09205DF7E8FB0122044B05200449F3
:1021C0001A70FFF72DFA034B187010BD2A65FC0733
:1021D0009116FC072965FC07F7B50C222E4E4243E9
:1021E000330070339B189B780400FF2B51D03300D1
:1021F00051331878002801D0FFF7CAFB33000025BF
:102200000C2751331D7075653A006A43234BD15C2E
:10221000FF2935D1224BA5005D196E6E0193002E6A
:102220000AD12302F5391943042202231D4858F725
:1022300063FD077046706866019BA5005D19686EB6
:1022400058F775FD00236B660125174B1C70174B63
:102250001D70FFF797FF09205DF796FB144B2000D8
:102260001D70FFF795FC2000FEF728FF0C4B68332C
:102270001B78002B03D10F4B1D700F4BDD70F7BD8A
:102280009B189B680135EDB2002BBDD0200098470C
:10229000BAE7FFF7A5FBD7E728CCFC077050FC078F
:1022A000A8CCFC071A0E00003854FC076165FC0737
:1022B0002A65FC0778FAFC0718FAFC0710B5002419
:1022C000FF22094B1C70094B1A70FFF7FFFB092016
:1022D0005DF752FB064B1C70064B1C70FFF766FF48
:1022E000FFF77EFB10BDC0462865FC073854FC078D
:1022F0002A65FC076165FC071FB500BA00906846B7
:102300005DF712F805B000BD0C4B10B51A00503245
:102310001278002A11D00A4A00280BD00421108814
:102320000842FCD100220748503338301A705CF75D
:1023300031FF02E012885207F4D510BD28CCFC070B
:1023400000160050A8CBFC07F8B5164B164F843387
:102350001E88164B16499C6B20007043C0195AF713
:10236000ADFF144B05006A33188030003C306043E9
:102370000F49C0195AF7A2FF0F4B043018600F4BDA
:102380004019C21D1A600E4A1278022A01D1183073
:1023900018601868FEF714F80A4BC01880B259F795
:1023A00019FAF8BDACCDFC0720A10700A8CBFC07AB
:1023B00040420F00A8CCFC077865FC077C65FC0751
:1023C00078FAFC07E20400000022054B10B51A6001
:1023D000FFF7BAFF034A13685B005B08136010BD88
:1023E0009CF9FC073000004010B55CF7B5FF10BD4C
:1023F00010B5074C00224834237806490133DBB27C
:10240000054823705DF750F92378013B237010BD18
:10241000A8CBFC078065FC07ACCDFC0710B5084CC9
:1024200008494834237800220133DBB206480968A2
:1024300023705DF76DF92378013B237010BDC04612
:10244000A8CBFC078065FC07ACCDFC07264B00B58C
:102450004362264B00228362254B8BB0436103000D
:1024600030331A70234BC362234B0360234B036248
:10247000234B4360234BC3612348244B016819401D
:1024800080239B020B43224903600B6821480340D1
:102490000B606B46D2540132282AFAD11E4B694692
:1024A0001868403002F052FB08221C4B48331A7067
:1024B0001B4A6C321278002A01D001221A705FF791
:1024C00089F8FFF795FFFFF7A9FFFEF743F85FF7DD
:1024D000BFF85FF7D1F85FF743F812485FF70AF9E2
:1024E0005FF78EF80BB000BDCD04FC07D104FC07EC
:1024F0000905FC073516F207D304FC070505FC07A0
:102500000705FC07D504FC0774000040FFFFE0FF4F
:1025100000020040FFFFF7FF4CF9FC07A8CBFC07C7
:10252000A8CCFC0770E0FC071749184B0A6810B5E7
:102530001A4080239B02134380220B600721D2059F
:1025400013688B4313600823114A11880B431380CF
:10255000104B6C331B78002B03D001220E4B4833F9
:102560001A705FF737F8FFF743FFFFF757FFFDF7E4
:10257000F1FF5FF76DF85FF77FF808485FF7AAF89B
:102580005FF73EF810BDC04674000040FFFFE0FF5B
:1025900008000050A8CCFC07A8CBFC0770E0FC07A3
:1025A00010B5174C23006A33198823006E3318883E
:1025B0005EF7B4FD5DF7F5F80321124B1A880A4265
:1025C00002D01A888A431A8080230F4A11880B434D
:1025D000042113800D4A13888B43138002230C4976
:1025E0000A881A42FCD03FF79CFE226F094B1A6002
:1025F000094B1A68042219681142FCD010BDC0466C
:10260000A8CCFC070A000050080000501000005041
:102610001400005008020040100000400121084A48
:1026200010B513888B43138059F7AAF840F708F8C0
:10263000FEF7E2FB0022034B74331A7010BDC04654
:1026400008330050A8CCFC0710B549F72AFDFEF767
:10265000D3FB10BD10B559F7AFF849F722FD0122A1
:10266000014B74331A7010BDA8CCFC0710B546F7A7
:1026700033FF10BD10B5002046F7E2FE0422034BE5
:1026800074331A705EF7BCFF10BDC046A8CCFC07BF
:1026900010B5012046F7D4FE10BD00000A4B10B55E
:1026A0001A68D20703D5022219680A431A608022E9
:1026B0001968D203114202D019680A431A6003480C
:1026C0005EF756FD10BDC04600020040F84DFC0705
:1026D0007FB501AB1900074A203270CA70C1064AA3
:1026E00011007C3109880909197104495EF7CCFB96
:1026F0007FBDC046F44BFC07ACCDFC072265FC0750
:1027000030B5174C87B021000822343101A802F0FF
:102710001DFA03AB22001900203231CA31C1114C1D
:10272000114922007C321288012012091A712200FC
:102730005EF704FC01A8FFF7CBFF5EF7F1FB062272
:1027400021005EF769FC04005EF7DAFBE12000017E
:10275000604306495AF7C8FD80B207B030BDC04695
:10276000F44BFC07ACCDFC072265FC07FF0700001B
:1027700010B504005DF71CFA2200084B0A3A9200DB
:102780009B189B6F002B01D0984710BD0123C022DE
:10279000A340034952008B50F7E7C046A8CCFC0782
:1027A00000E100E010B50A20FFF7E2FF10BD10B510
:1027B0000B20FFF7DDFF10BD10B50C20FFF7D8FF91
:1027C00010BD10B50D20FFF7D3FF10BD10B50E20C2
:1027D000FFF7CEFF10BD70B50569040068690028D9
:1027E00001D058F7F6F900232800236158F7F1F9D2
:1027F00070BD0000F8B524205FF780F9041E06D1F3
:10280000C822314B1A80314BC03A1A80FEE7902122
:10281000436989011A898A4227D1012294461E7C84
:10282000C51C8719EA7F012A09D95A89998928483C
:10283000022358F761FA00230670437025E0797F80
:102840006046114101420DD09818A118807C897E04
:10285000884207D031002000FFF7F0F9EB7F013309
:10286000EB77F8BD0132EA77DCE71A498A4224D1D6
:102870000126C51CE97F022916D95A89998916486B
:10288000012358F739FA00230370002558F74FFA4F
:10289000606958F79EF92900200065615FF744F9E7
:1028A000290058F75AFCDCE760181A7C407F104179
:1028B0003042D0D10131E977DCE7C822024B1A80DF
:1028C000024BC03A1A80FEE700310050023300503C
:1028D0000124000002240000032400000B7810B53E
:1028E000122B01D1FFF786FF002010BD70B50569DE
:1028F00004006868002801D058F76BF9002328000D
:10290000236158F766F970BD70B51B205FF7F6F8C4
:10291000041E2ED043685D78022D31D9002120009D
:102920009D885FF701F9854216D0636800211D7804
:102930002000043D6A4255412A4A6D009E88AD1828
:102940005FF7F2F8012302003100280058F7D4F9AC
:102950000023037058F7EBF90025606858F739F940
:102960002900200065605FF7DFF8290058F7F5FBC4
:1029700034E0C8221C4B1A801C4BC03A1A80FEE778
:102980006219D27C1978114229D0DA79AA4226D06C
:10299000002120005FF7C8F808210200C120636809
:1029A0002D029B7929430833000158F7A5F9616886
:1029B00005000B78023B5A1E9341123303708A794B
:1029C000C2804B8808318380083002F0BFF82800AD
:1029D00058F7ADF9626853780133537070BD013513
:1029E0005D7098E7031B0000003100500233005077
:1029F00010B5FFF789FF002010BD0000F0B58BB0C7
:102A00000693109B06001B788125013B04910792D9
:102A1000012B00D993E00121242058F75FF800270B
:102A200004003D002422002102F064F8109AA31C47
:102A30001278DA77109B1B78BB4266D9002D03D041
:102A4000200058F7C6F87AE0132504ABED180723E9
:102A50002B70109BDB195B7805930599631CB940BB
:102A6000DA7F0A43DA77109BF900601859180822B8
:102A70000430043102F06AF8059B012B01D10E33BA
:102A80002B70A31CDB7F012B03D910232A7813435F
:102A90002B7014227B000593049B04A91B888918C2
:102AA00078000B5209AB18181E2306996C320B40A4
:102AB00013430393234B13210293B38A04AA019374
:102AC000002389180A0000931F4905334CF72AFF99
:102AD000051E17D1142204AB9B187900585A109B7D
:102AE000DB195978431D9C464A1E531E9A41634682
:102AF0009B1A049A1380012904D10230134980B231
:102B00004CF7CFFD0137FFB294E7002D98D109AB08
:102B10001B88049A346113802383069B079ADB0386
:102B20001A4324232280B08A29006080F382233B49
:102B3000F381074B1C34B460736058F70EFB280018
:102B40000BB0F0BD744DFC070F180000010200002F
:102B5000B04DFC07F0B589B004930E9B05921A782E
:102B600005000F000F23D10700D53033910702D5A0
:102B7000E02149000B4351070AD5110700D569E050
:102B8000C021C9000B43D20602D580225201134353
:102B9000162202A9521813801E23049938000B40F4
:102BA00080210B4303932D4B2D490293AB8A019354
:102BB000002300930D334CF7B5FE061E47D10121CB
:102BC000182057F78BFF04001822310001F092FF04
:102BD0003B882C612381049B059ADB031A432280E6
:102BE000AB8A012763801B23EB822300200016336E
:102BF000AB601C4BEF816B600E9B03221B78310096
:102C000063810E9B1330DB88A3810E9B5B88E3817D
:102C10000E9B9B8823820E9B5B786660A37401F0F9
:102C200069FF0E9B1B785A070DD51A0700D5403750
:102C3000DB0601D50C4B1F430A212000FDF7D0FF16
:102C400039004CF72EFD0021A88A58F786FA30008B
:102C500009B0F0BDE021090194E7C046644FFC07CC
:102C6000091800000050FC0708000200F7B510002A
:102C70000D001600019358F785FA07000220002F77
:102C800020D122305EF73AFF041E06D1C822144B31
:102C90001A80144BC03A1A80FEE7821C2B78D27F30
:102CA0009A4210D96A78642A0DD8C31801213000DD
:102CB0009A76103D58F751FA65610334E777FFF7CC
:102CC00099FD0120FEBD012332000199064858F705
:102CD00013F88123037058F72AF80020F2E7C04662
:102CE000003100500233005003240000F7B51000FB
:102CF0000C00150058F746FA01282FD113305EF763
:102D0000FDFE061E06D1C8221C4B1A801C4BC03A81
:102D10001A80FEE7077F3900FDF742FF2378019014
:102D2000727FBB421CD10821637812021143063323
:102D30002A00144857F7E0FF019B06000380002398
:102D400003716278A11C4280053001F0FFFE300063
:102D500057F7EDFF0021280058F7FFF90020FEBDCE
:102D60000821130219432A000623064857F7C4FF17
:102D7000019B038080230371EAE7C04600310050C5
:102D800002330050140C0000F7B510001F001600AD
:102D9000019158F7F7F90090009B0220002B1FD1FA
:102DA00019305EF7ABFE051E06D1C822244B1A80EF
:102DB000244BC03A1A80FEE704240422019B1B889E
:102DC000838143891C4013420BD101233200390017
:102DD0001D4857F791FF8C23037057F7A8FF200079
:102DE000FEBD08221C001440134207D1012332000B
:102DF0003900154857F780FF0470EEE701210A20DB
:102E000057F76CFE0A220099686001F073FE0A21F0
:102E10002800FDF7E5FE04236C6801212380033BB5
:102E2000FF3BE380019B60801B88300023721B0AFC
:102E30006372A78058F791F9FFF766FD0098CFE716
:102E40000031005002330050051B0000F8B51B2074
:102E50000E0015005EF752FE041E06D1C8221A4B62
:102E60001A801A4BC03A1A80FEE7280058F78AF9F0
:102E7000012827D1082163682A00DF7914483B0222
:102E80001943042357F738FF0A2105002000FDF7F6
:102E9000A7FE327880232880BA4200D173782800B8
:102EA000AB7057F744FFA978002909D16268537ABB
:102EB000107A1B020343A38163891B0700D551705D
:102EC000FFF722FD0020F8BD003100500233005012
:102ED000160C0000F7B510000C001600019358F70F
:102EE00051F907000220002F1ED122305EF706FEA6
:102EF000051E06D1C822174B1A80174BC03A1A80FC
:102F0000FEE72078032810D90223320001991348E4
:102F100057F7F2FE227840230270032A00D8493383
:102F2000437057F704FF0020FEBD51F73DF80C4BEE
:102F30009842E9D03000012158F70FF923786278E0
:102F4000EB18103C5A776C610335EF77FFF752FCB2
:102F50000120E9E700310050023300500124000055
:102F6000FFFF0000F8B508781D000C00160051F7AF
:102F70001BF8114B98421DD01B205EF7BFFD0028A7
:102F800006D1C8220D4B1A800D4BC03A1A80FEE7BD
:102F900000272378C0186378C37432002900022305
:102FA000084857F7A9FE23784770037057F7BFFE0C
:102FB0000020F8BD8927F0E7FFFF00000031005036
:102FC00002330050011B0000F0B587B002930023CC
:102FD000170004AAD3719371130008880D000632FC
:102FE000D91DFEF759FF041E3BD124205EF786FD54
:102FF000002806D1C822234B1A80234BC03A1A80DE
:10300000FEE704AB9B79032B39D1EB79AA791B023C
:1030100013430193012B32D80121029B1E0A83190D
:103020005A7F039304ABDB79994013008B439C4692
:10303000019B012B02D10A43D3B29C466246039BFB
:10304000F6B25A7731005EF777FD022301003A00AD
:103050000E4857F751FE039B06705B7F437057F78E
:1030600066FE3A0002990423094857F745FE2B886B
:103070008470038057F75BFE002007B0F0BD80240A
:10308000EFE7C04600310050023300500424000036
:10309000160C0000F7B510000F0016001D0058F7C1
:1030A00071F8041E4AD114205EF728FD002806D1CD
:1030B000C822314B1A80314BC03A1A80FEE73B8858
:1030C0000193428B038B944601339BB2E1B2009192
:1030D000614601222141114205D09918019A91427D
:1030E00047D002339BB20134092CEFD106233200C2
:1030F0002900234857F700FE3B8803808023037193
:1031000034E02379009A93421DD02468002CF8D132
:10311000009B290A037741775EF70EFD012301002A
:103120003200184857F7E8FD009B037057F7FFFD82
:103130000121300058F711F8002003E0013C634200
:103140005C416000FEBD63793200290006330C4803
:1031500057F7D2FD002605003B880671038062798F
:10316000A11D4280053001F0F1FC280057F7DFFD7A
:10317000E2E74468CAE7C04600310050023300501D
:10318000140C000002140000F7B505001B200E000F
:103190001F0001925EF7B2FC041E06D1C822164B36
:1031A0001A80164BC03A1A80FEE7019B9F4203D05B
:1031B0008020002F1BD0FEBD4219D37C3343D37433
:1031C000290020005EF7B8FC2900060020005EF709
:1031D000ABFC022302003100094857F78DFD64194A
:1031E0000570E37C437057F7A2FD0020E3E7621906
:1031F000D37CB343E3E7C0460031005002330050B4
:10320000081B0000F0B51B2085B00C001F000292C7
:103210005EF774FC061E06D1C822444B1A80444B4C
:10322000C03A1A80FEE72188FDF7F6FCA3888D25B9
:10323000022B5CD103383D0A082800D971E001F067
:103240009BFC4C707070706270056900E379A27924
:103250001B0213430193F389019A934202D8338AE4
:10326000934202D2019B002B5DD1029857F78AFF4F
:103270000227039000282DD1290030005EF75CFC66
:10328000029A010004232B4857F736FD019B057075
:10329000438057F74CFD01210A2057F71FFC0A22F3
:1032A0000399706001F026FC0A213000FDF798FCBC
:1032B0007468029B6080A380FC235B422380019B97
:1032C000012123721B0A0298E571A771637257F7F7
:1032D00044FF0027380005B0F0BDE379A2791B0256
:1032E0001343012102222800FFF74EFF05000423AB
:1032F0003900029A104857F7FFFC23888570038035
:1033000057F715FDE5E7E379A2791B021343022184
:103310000122E8E7E379A2791B0213430421022288
:10332000E1E70625E3E78025E1E7C04600310050EC
:1033300002330050061B0000160C0000F0B50025FB
:1033400085B00091019302ABD91D9D71009B1400C3
:10335000188802AB9A1D0D70FEF79EFD0700242011
:103360005EF7CCFB0600A84206D1C822284B1A8083
:10337000284BC03A1A80FEE7002F08D102AB9B7998
:10338000022B23D0032B23D0042B23D08037220001
:10339000AB1D0199204857F7AFFC009B04001B8828
:1033A000077103804580002F0AD102AB06331B78DA
:1033B000022B11D102AB07331B78F3189B7E4371AC
:1033C000200057F7B4FC002005B0F0BD0125DEE772
:1033D0000225DCE70725DAE7032B0CD1019B02AAC3
:1033E0001B0AF31807325B7F1278877113410122A1
:1033F00013404371E4E7042BE2D102AB07331B789F
:103400000530DB00191D71185EF710FCD8E7C046C7
:103410000031005002330050140C0000F0B589B0A8
:103420000592012204930E9B05001E880F000023C5
:1034300094460324310060461941014204D0200023
:1034400059000131884002430133092BF2D1079220
:10345000049A153313408022134303931B4B380007
:103460000293AB8A1A490193002307AA00931333EE
:103470004CF758FA061E25D10121202057F72EFBC4
:1034800004003100202201F035FB3B882C612383AE
:103490000E9B059A1B88201D6383049BDB031A4344
:1034A0002280AB8A63801423EB82133BEB812300E1
:1034B0001E33AB60074B6B603FF7E8FA3100A88A18
:1034C00057F74BFE300009B0F0BDC046504EFC0728
:1034D0000A180000344FFC0770B5040005696B68DA
:1034E000002B04D12800236157F773FB70BD281D02
:1034F0003FF7D4FA57F76DFBF1E70000F7B514205A
:103500000C00009201935EF7F9FA051E06D1C8225D
:103510002C4B1A802C4BC03A1A80FEE72778812664
:10352000082F3BD83900FDF73BFB0136002835D08A
:1035300063780B36802B31D8072F2CD0082F3AD048
:10354000062F01D1082B29D16E68002E0AD03379BD
:10355000BB4234D100223100281D3FF70FFB300061
:1035600057F737FB60780121083057F7B7FA0600A4
:1035700062780021083201F0BDFA2378B01D337162
:103580006278A11C727101F0E1FA3100281D3FF749
:10359000A1FA002602E08D26052BD5D8009A0199C4
:1035A00002230A4857F7A8FB23784670037057F7A1
:1035B000BEFB0020FEBD8D26072BEFD1C4E7366889
:1035C000C3E7C04600310050023300500114000030
:1035D000F0B5100087B00F001600009357F7D2FD2A
:1035E000022400281FD11B305EF788FA051E06D181
:1035F000C8223A4B1A803A4BC03A1A80FEE73B7C0D
:10360000002B13D143891A002240019223420DD18D
:10361000012332000099334857F76EFB8C23037067
:1036200057F785FB0024200007B0F0BD01211520CD
:1036300057F754FA15220021686001F05BFA002365
:103640006C686370009BA380FF23E3713B7C002BBD
:103650003CD0012323702889023080B2230002ADC0
:10366000083300932A003B00608083CB83C21B6831
:1036700005271360029ADBB2110A6272A172110C63
:10368000120E2372E17222739B0706D5200003A954
:103690000D305EF7DAFAC019C7B22B7B5B0704D591
:1036A0006B7B009AD3550137FFB20C2F06D80D2241
:1036B000009B0021D21BD81901F01CFA0121300017
:1036C000A77157F74AFDFFF71FF9ABE70223072160
:1036D00028002370FDF784FAC0E7C046003100508F
:1036E00002330050031B00001FB50024174B1C7051
:1036F000174B1B78FF2B28D0164B1B78A34224D0E6
:10370000154B164A68461A600122154B1A70154B64
:103710000093154B0193154B0293154B03935DF7E3
:1037200081F8144B144A9C679A660722DA661A00DD
:1037300054329483114ADC675A67114A0433128861
:10374000104ADA675422104B1A861FBD2065FC0709
:103750003854FC072865FC074065FC073118FC0756
:103760003465FC0748004F00080017000100010005
:1037700038000101A8CBFC074465FC073938FC0779
:1037800054130050FD09FC07001300501FB501241D
:10379000124B134A68461A60124B1C70124B00936E
:1037A000124B0193124B0293124B03935DF73AF8BD
:1037B000114B124A19009A66002254319A67DA674F
:1037C0008A830F490F4A59671100DC665431098812
:1037D0000D490433D967542313861FBD5865FC0770
:1037E000ED17FC073465FC0748004F000800170080
:1037F0000100010038000101A8CBFC075465FC075B
:103800000D39FC0700130050FD09FC07002210B51C
:10381000064B1A70064B1B78FF2B05D0054B1B7807
:10382000934201D0FFF7B2FF10BDC0465C65FC07B4
:103830003854FC072865FC07F8B515000C005DF747
:1038400057F80023264A13709D4221D0072C1FD120
:10385000244802787F2A1BD8FF2208263125C15C24
:103860004A40310057B25400E2B2002F01DA6C40F6
:10387000E2B20139C9B20029F4D10133062BEED1ED
:10388000194B81791B68914202D1002B09D1F8BDF7
:10389000154B1B68002BFAD000221100100098472E
:1038A000F5E7C17884780A092401144342780904B1
:1038B000120314430D4A05796243F02424030C409B
:1038C00041790B480902294349BA89B20C43094995
:1038D000120D6143C90B091809B20120DFE7C04688
:1038E0003465FC074465FC074065FC0710270000B1
:1038F00078ECFFFF7102000010B55CF7F9FF0022C1
:10390000014B1A7010BDC0463465FC0710B5002A83
:1039100001D001290AD05CF7EBFF0020104B187092
:10392000104B1B68834200D0984710BD0E4B0822F5
:1039300019780E4B08001040114208D1BE211970B1
:103940000B495A7098700320FDF732FAEDE7AC226C
:103950001A70793A5A70002206499A70F3E7C04605
:103960003465FC075865FC075465FC073565FC07A2
:103970007939FC079939FC0710B55CF7B9FF0020CD
:10398000034B1870034B1B68834200D0984710BD4F
:103990003465FC075865FC0770B50C0015005CF732
:1039A000A7FF0020064B1870064B1B68834205D00A
:1039B000854202D0033C60426041984770BDC046DA
:1039C0003465FC075865FC07002330B5434C85B0CF
:1039D0002370434B1B78FF2B75D0424B1B78002B79
:1039E00071D0414B41491868FDF734FE404D2070BD
:1039F0002B78D8B2042B68D933235B424343DBB224
:103A0000332B62D80A2159F759FCCCB2002C3ED195
:103A1000C02122000123072089005BF7BDFF23009E
:103A20002200210006205BF7B7FF09240EE00720E3
:103A30005BF7A2FF05205BF799FE07205BF7A4FF69
:103A4000013C05205BF792FE002C04D006205BF7BA
:103A5000C1FF0028EBD00023C0211A0089000620F6
:103A60005BF79AFF05205BF781FE06205BF78CFF72
:103A700005205BF77BFE00230922190007205BF776
:103A80008BFF00230A22190006205BF785FF012423
:103A9000184B68461C70184B0093184B0193184B39
:103AA0000293184B03935CF7BDFEBA22164B20001D
:103AB0001A701649FDF77CF92B78FF2B03D02B7871
:103AC0001B19DBB22B7005B030BD0022104B1A70F1
:103AD000104B1A70FFF75AFEF5E7C0466065FC0709
:103AE0003854FC072865FC074054FC07C939FC071B
:103AF0003865FC073465FC0748004F0008001700D4
:103B000001000100380001013565FC07F938FC07A8
:103B10004C65FC074B65FC07164970B58B89002B7B
:103B20001DD1154A1400283498000559002D11D1D3
:103B3000121812489062124A9B189BB28B81802106
:103B4000104B114A09019A650800282301225CF7ED
:103B5000C9F870BD0133052BE6D10C4BEEE70C4ADA
:103B60009B18042BEBD8044A9B00D218034B93629A
:103B7000E5E7C04628CDFC0728CBFC078520FC07DD
:103B80000E040000A8CCFC07D53DFC07FFFF000099
:103B9000F2FBFFFF70B5442800D074E0FEF7F2FAA4
:103BA000FFF7BAFF08223E4B1A8072B60421802428
:103BB0003C4803880B4303803B4B1A88A2431A807E
:103BC00040221C8822431A80384B394A19801388B6
:103BD00038490B4013800121C023374A5B0049421A
:103BE000D150713B3549FF3B0A881A42FCD1344A17
:103BF0003449138804250B401380012232490C26D6
:103C00000B88324C93430B8031490B692B430B617A
:103C1000032123888B43134323802388B3431D430D
:103C200025800388134303802A4803889343134362
:103C30000380F020284B80011C88204318808020BE
:103C40001C88C00120431880244804882448240A82
:103C5000144219D004885F329443403A22430280D0
:103C60004022188802431A801A880A431A800822C0
:103C700019880A4304211A801A888A431A80C04688
:103C8000C046C04630BF70BD164C25882A432280EE
:103C900060240288A24302801A8811431980E6E753
:103CA0000033005010000050080000500002005087
:103CB00004000050FFF7FFFF00E100E01400005097
:103CC000120000507FFEFFFF10030050180000504C
:103CD00000ED00E00C030050200300502A000050CB
:103CE000520000505600005010B5FDF779FE082133
:103CF0001B205FF71DF8FDF7C1F9FDF795F8054B9F
:103D000064331870FDF778F90022034B1A70FEF740
:103D10004DFA10BD28CCFC076165FC070122254B3C
:103D200010B51A80244B25499A7B1B205BF7CEFDEA
:103D300000248021224B22001C600B20230049001C
:103D40005BF72AFEC02123002200092089005BF7CF
:103D500023FE1C4B1B78DCB2002B0BD12300092265
:103D6000210007205BF718FE23000A22210006200D
:103D70005BF712FEFFF7D0FE134B1A006532127884
:103D8000002A08D01A006A331B7867321078012B9A
:103D90000CD15BF7F9FD08220C4B0D4948331A7022
:103DA00001230A889A4313430B8010BD5BF7E4FD9F
:103DB000F1E7C0460003005028CDFC075E65FC0714
:103DC000000008403465FC0728CCFC07A8CBFC07A2
:103DD0000C03005010B5FFF7A1FF0D4CE37B002B47
:103DE0000DD00C4B68331B78002B04D101220A4BF9
:103DF0001A700A4BDA70FDF71DF80023E373A089EF
:103E0000002803D00022042156F7A7FF10BDC046AA
:103E100028CDFC07A8CCFC0778FAFC0718FAFC07A9
:103E2000C822034B1A80034BC03A1A80FEE7C046F3
:103E3000003100500233005004230B4A11880B4319
:103E400013804023094A11880B431380C0230121AA
:103E5000074A5B00D150074A074913880B400431D9
:103E60000B4313807047C0461000005008000050FC
:103E700000E100E012000050FC7F0000C823F0B514
:103E80000026E74AE74D1380E74BE84A1E800823E7
:103E900013802B8899B006AA9BB253805088941C3B
:103EA00080B200E000BF042223889343B34200D0D5
:103EB00092E30121DE4A13888B4313800824962065
:103EC000DC4F40003B88DC4E23433B805BF74EFCDD
:103ED0008023DA4A11880B43F0211380D84B8901E3
:103EE000188801431980062130888843308080205B
:103EF0001D88C001284318803888D24D28400E25DF
:103F000038801088A84301431180CF490988C9052A
:103F100000D463E33188CD4A11408022D2000A43A5
:103F200080213280328809021205120D0A430421D1
:103F300032801A8822431A801A888A431A8032886B
:103F400003398A433280402219880A431A800324A5
:103F50001A88012522431A8060230226B549BC4FE6
:103F60000A8838009A43403B13430B80B94BBA4A46
:103F7000019360331D701388B849334313800422C2
:103F8000B74B0E301A80B74A13880B40138080213C
:103F9000C023B54A5B004902D150B44B19000293CB
:103FA0005CF7C4FD30005CF789FDB14B1A68230053
:103FB000D2B2AA2A00D02B00A0220C21D20514884C
:103FC0009B008C431C43148000E000BF3800062295
:103FD000A849103000F0BAFD012000E000BF002326
:103FE0009C46624608AD2900A34BA44C1A80A44B02
:103FF00003933C3345CB45C145CB45C145CB45C17A
:104000002B00624620009F495BF730FA9A4B9A4A90
:104010001B785B0813702200893213785B081370D9
:10402000230084331A88002A02D1FA2292001A80CF
:10403000220086321388002B0BD1FF218C4B090202
:104040001B680B40D42189018B4200D0EEE2902303
:104050001380019B863420886E3318805BF7F0F85C
:104060007F233800BB75884B02991A68874B0E3046
:104070001A605CF707FE864B864F1A680023BA4227
:1040800009D0854C854A86495818006819190433A7
:1040900008609342F7D1834E00213000824A00F03D
:1040A00029FDE0220021D200804800F023FD00F02D
:1040B00001FD7F4B7F4A80491A608048302200F022
:1040C00045FD00243F227E4B03991A705C709C7062
:1040D000DC701C715C719C71DC71280060310132F4
:1040E00000F034FD29004022764800F02FFDFF2229
:1040F000754B01211A705A709A70DA701A71FC3A75
:104100005A719C71DC71714B714A1C70714B1A6051
:10411000714B724A1A60724B724A1A600A22724BD1
:104120001A70724B053A1C70714B1A60714B196012
:10413000714B1A60714B52181A60714B52181A6009
:10414000704B52181A60704BFE321A606F4D704BF4
:104150002E601A60FFF7E2FD5AF7A0FF5AF7E4FF5E
:104160006C493A4B0A881A40E0231B0113430B8029
:104170005AF7F6FF464E3368BB4233D02A68664B87
:1041800066491A60414B1B681A0A0B704A701A0C78
:104190001B0ECB70404B8A705A000392C022FF3234
:1041A00094461A78039802926246D21A125C0298D8
:1041B0000134424003200492029A0240885C049A2F
:1041C00042401A70E022013352009442E9D1544C2B
:1041D000A53A3149FF3A20005BF766FE20005BF705
:1041E000A3F8376028683EF735F8002380224D4C4D
:1041F000D20523711168E3700133FF330B43136061
:10420000FCF7FAFD0120FEF77FF8019B68331B786D
:10421000002B00D08AE0444AE370137086E0C04669
:1042200000310050040300500231005002330050AE
:104230001003005052000050800000505400005005
:1042400020030050FFBFFFFF2A000050FFF0FFFFD8
:1042500028CDFC07A8CCFC0738000050FFF7FFFF73
:10426000000200500400005000E100E05E65FC0721
:10427000D02FF807D42FF80734CEFC07ACCDFC07BD
:10428000F44BFC07A000FC07E82FF8072C65FC079F
:104290000065FC076587341238CEFC07040A00006D
:1042A00000F0FC0700E0FC07AC14000000F9FC077C
:1042B00024FAFC075850FC075CDEF107C8F9FC073C
:1042C000A4F9FC073CFCFC07ACF9FC07C5F9FC07AA
:1042D000E036F20750F9FC0754F9FC07E851FC07F7
:1042E00058F9FC07E050FC07A1F9FC07A2F9FC070C
:1042F0005CF9FC0760F9FC0764F9FC0768F9FC0746
:104300006CF9FC0770F9FC0748F9FC074CF9FC074D
:1043100044F9FC0726000050080200402465FC0711
:104320006465FC0718FAFC0778FAFC07D54F0C22E5
:104330003E0070360021300000F0DCFB0822002532
:10434000D148D2498270033000F000FCD04BD149F3
:1043500004205D8456F7CFFEFF232900B3700420AC
:1043600056F7FBFEFCF760FD3B00643318705EF708
:10437000F7FC019B68331B78AB4203D10122C64B8B
:10438000E2701A70FF22C54BFA211A700023C44A4A
:1043900049001370C34A1370C34A1370C34A1370A1
:1043A000C34A1370C34A1370C34A1370C34A1160DF
:1043B000C34A1370C34A1380C34A1370C34A1370AD
:1043C000C34A1370C34A1380FDF7FEFFC823C24AD5
:1043D0001380C24AC03B1380C14BC24A9B189B0842
:1043E000013B0593FBF7C2FF002800D18BE057F794
:1043F00060F90020FDF788FFBB4B74331C78042C58
:1044000000D080E00120FDF77FFF0023210007A8F6
:10441000079347F79DFF002800D174E00122B34BBA
:104420001A601A68002AFCD1B14BB24D1B68A96909
:104430008B4200D2AA61C821AA6909019A1A8A424C
:1044400061D30024AB61AC4B08A81B88AB4F9BB277
:104450000193AB4BAB4E1B889BB20293AA4B1B88BC
:104460009BB20393A94B1B8809949BB20493A84B5E
:104470000893FEF72DF980223B8892009B059B0D47
:10448000AB8333889B059B0DEB833B889B0A9B0288
:1044900013433B8033889B0A9B021A4332805CF7AC
:1044A000E7FD9C4B02001988FA23401A9B00434306
:1044B000A34200DCC2E0984A9818984958F714FFC4
:1044C0003B888C4D9B0AA98B9B020B433B80338816
:1044D000E98B9B0A9B020B43338016238411EB5616
:1044E0001934E2B264B27F2B00D0ADE0AC75029A11
:1044F000834B1A80039A844B1A80049A834B1A8048
:104500007D4B019A1A8072B60023854E07AC326843
:104510002370926A0892774A0192D27B9A4203D121
:10452000804A1279022A00D108937F4D2100280089
:104530007E4A5CF735FE002800D05AE1019BDB7B08
:10454000002B06D17A4B9B6A002B02D033689B6A02
:104550000893FDF7F9FE280008A95CF757FE00282C
:1045600000D046E101305BF727F9089B002B07D00C
:10457000704A1268393AFF3ADA2A01D8013B0893A7
:104580006D4B594E186833006A331B886B496C4A6F
:104590001B180B6013686B4D9B0A9B02034313604F
:1045A00010682B68684F9B02384003431360106803
:1045B0000B68C1025B05C90A0B431360042308980A
:1045C0002370624B984200D8D4E0C823424A13803B
:1045D000424AC03B1380FEE72E806FE45C4D5D498C
:1045E00028880840C021C9000143F020298029887B
:1045F0000002014329801988A143198004211888E9
:10460000554C8843188010882040108014885348E7
:104610000440C0204001204310800122288802432A
:104620002A804F4A12880A42FBD090E44D495B1819
:104630004D490B4200D00CE5942309E520008A4245
:1046400000D13AE7494A37E7DBB2D11A48B2090646
:1046500001D59B1A58B2072800DC48E72B6A0133C2
:104660002B625CF7B7FFFDF7D9FEFBF773FF5CF732
:10467000EFFF5CF775FF3E485DF71CF85CF7C0FF85
:1046800034E7C04628CCFC0728CBFC07AA4BFC0724
:104690002ACBFC07CC4CFC0778FAFC073854FC0703
:1046A0002865FC076065FC072065FC075D65FC0765
:1046B0002965FC075C65FC076165FC074054FC0745
:1046C0003C65FC073E65FC074C65FC074B65FC0739
:1046D0003865FC073A65FC07003100500233005092
:1046E0004C54FC07030004F8A8CCFC07FC00004075
:1046F0001C00004028CDFC07001500500815005094
:10470000021500500A1500500415005006150050FF
:10471000010400002265FC077E040000FC08000084
:1047200058F9FC0718FAFC073065FC076D21FC07F7
:1047300000FEFC07200000407865FC077465FC075C
:104740003C0000407C65FC07FF03E0FF3F420F0098
:1047500080000050FFF0FFFFFFF9FFFFFFC7FFFFE2
:104760002A00005000CDFFFFFFFEFFFF82FBFFFF8E
:1047700070E0FC07694F00213A6C7B6C58F7C8FD6C
:104780002B680903000D084301385A1C904200D1E0
:104790001800634B19794B1E9941C9B245F70CF8C3
:1047A000604BDB6A984780235F491B020A681A4204
:1047B000FCD080235D4D5B002A681A42FCD0802229
:1047C0002B6893435A4A2B6011888BB2452903D832
:1047D0004621CB1AFB6411803DF777FD8021554BB4
:1047E0001B6833672B680B42FCD0534A13888B43FA
:1047F00013802378042B05D1504B1B78013B5A1EA4
:10480000934102339A1E012A00D983E00422012633
:104810004B484C4D01884C4C1143018029694B4851
:10482000114329610188B1430180022B42D12388C1
:104830000C32934323800022454B1A80454B1B8842
:10484000DB0509D40123444A11880B4313806022FD
:1048500042490B8893430B800124414A0D20138861
:10486000A34313805AF782FF03213E4A13888B43E8
:104870001C433D4B14801A88D20602D53B4A0531B1
:10488000118030BF1B88DB0602D50823384A13800D
:10489000602332490A889A43403B13430B80FFF759
:1048A0003DFA04222B6993432B6162B6C823314A37
:1048B000138097E523880198934323802E490E3077
:1048C0005CF734F91023228813432380059A2B4B7D
:1048D0001A60EFF3108286F31088A0218020C905AA
:1048E0000B8883430B80002A11D182F31088194B67
:1048F0001B88DB059FD50023019A0B2093735AF781
:104900008DFF01231E490A8813430B8093E786F32A
:104910001088ECE7012BC8D130BFC6E7A8CBFC0755
:1049200018FAFC07E4FEFC073000004000020040DB
:104930000A330050080200400800005078FAFC07D3
:104940001000005000ED00E0120000500C03005079
:10495000180000502A00005056000050520000502D
:10496000240000500A000050140000500033005092
:1049700002330050003100505E65FC072000F40750
:1049800080000050F0B50546007985B007073F0F5D
:1049900028463EF762F8029028794006C00F03903F
:1049A00028463EF75AF84448806A8079012825D085
:1049B0000126414840300079800775D5002E73D01C
:1049C00000222B2311463D4856F796F9022707701F
:1049D00001263B4946700446C969A87988472A21BF
:1049E0000855287900210007000FA070030058F730
:1049F00033FD0737393B423F423D42000298019068
:104A00002D4814300090002604680BE0611D0198C9
:104A10003EF739F9002804D02079B84201D10126A7
:104A20001BE02468002CF1D100983EF722F92549BB
:104A30000978884202D1244806780EE000210C2033
:104A400056F74CF804460622401D019958F7B0FC71
:104A50002771214600983EF73DF801204640A8E71F
:104A6000A1700AE0A67021E0032002E0A77004E034
:104A70000420A07001E0012818D0A888000A801F37
:104A8000A07228463DF7E9FF811D2046A27A0B302F
:104A900058F78EFC0622201D029958F789FC0398CE
:104AA000E070204649F7AAF905B0F0BDA172F1E720
:104AB000704770477047000074FBFC070408000053
:104AC000E4FEFC07A1F9FC07A2F9FC07074B10B5AF
:104AD0000400002B02D0002100E000BF044B1B6843
:104AE000002B00D09847200000F03AF800000000AA
:104AF0008465FC0703008218934200D17047197047
:104B00000133F9E770B500260C4C0D4D641BA41061
:104B1000A64209D1002600F039F80A4C0A4D641B60
:104B2000A410A64205D170BDB300EB5898470136DA
:104B3000EEE7B300EB5898470136F2E74454FC0720
:104B40004454FC074854FC074454FC07002310B5A8
:104B50009A4200D110BDCC5CC4540133F8E7000088
:104B6000FEE7C04602B471464908490009564900AB
:104B70008E4402BC7047C04602B4714649084900E1
:104B8000095C49008E4402BC7047C046F8B5C04677
:104B9000F8BC08BC9E467047F8B5C046F8BC08BCD7
:104BA0009E467047E60303091800444C475F54488B
:104BB000524D0052656E6573617300444131343566
:104BC000333500312E302E302E302D4C4500765F9F
:104BD000362E302E32342E3134363400312E312EF2
:104BE0003000123456FFFE9ABCDE00FFEEDDCCBB77
:104BF000AA000000000102030405060708090A0BC9
:104C00000C0D0E0F0BFF00D2444C472D5448524D53
:104C1000000000005BB00502000000003200000050
:104C2000010602000000000101050200000300016E
:104C30007904FC072113FC074D13FC07000000005A
:104C40009504FC073104FC0700000000D02EF80793
:104C5000C02FF8072000800000C000000000040002
:104C600000002822000000000000040000F7FFFF01
:104C70007F00000030F00708000000000004000082
:104C80000000000000000000000000000000000024
:104C90000000000001D200800500010007070A079C
:104CA0000D05080607000000B34BFC07BB4BFC07D3
:104CB000C34BFC07BB4BFC07CE4BFC07DC4BFC0794
:104CC000E24BFC07EB4BFC07944CFC070000000098
:104CD000983BF207A8CDFC07040001000124000066
:104CE000D902FC0703240000DD02FC0704240000B5
:104CF000E102FC07130400002111FC07140400006A
:104D0000A511FC07021400007912FC07011B00002A
:104D10004703FC07031B00004D03FC07061B0000B4
:104D2000F11BFC07081B0000691BFC07FD31F207A3
:104D30005118FC071503FC075912FC071912FC0750
:104D4000ED11FC073912FC07F8000000130E0000FB
:104D50007515FC07150E0000811FFC07170E0000DB
:104D6000A103FC07190E0000A503FC07150D0000A8
:104D7000BD03FC0700280000010000000000000047
:104D8000032800000100000000000000192A0000B4
:104D900001000000008000000229000009800200DC
:104DA0000000000004290000010000000080000055
:104DB000B84DFC070600000000240000D52EFC07BB
:104DC000022400006D2CFC07170C00002D1FFC07AF
:104DD000150C0000C92FFC07130C00003D33FC0725
:104DE000000C0000DD28FC07FD29FC07D727FC0785
:104DF000450BFC07690BFC07800000004926FC07F7
:104E0000020000006D26FC07080000007526FC0764
:104E1000000100009126FC070002000075C1F007A8
:104E2000400000003794F00710000000C97BF00735
:104E3000040000001D26FC07010000005526FC07A9
:104E4000200000008508FC070000000000000000B2
:104E500000280000010000000000000003280000FE
:104E60000100000002000000292A000001000000EB
:104E70008080000003280000010000000400000002
:104E8000242A0000010000008080000003280000A8
:104E90000100000006000000252A000001000000BB
:104EA00080800000032800000100000008000000CE
:104EB000272A000001000000808000000328000075
:104EC000010000000A000000262A00000100000086
:104ED0008080000003280000010000000C0000009A
:104EE000282A000001000000808000000328000044
:104EF000010000000E000000232A00000100000055
:104F000008800000032800000100000010000000DD
:104F10002A2A000001000000088000000328000089
:104F20000100000012000000502A000001000000F3
:104F3000078000003C4FFC07030000000014000045
:104F4000FD34FC07130C00009530FC07031400002F
:104F5000ED2CFC071D34FC07D934FC07950BFC072E
:104F6000970BFC0700280000010000000000000073
:104F70000328000001000000000000001C2A0000BF
:104F8000400000000080000002290000090002002B
:104F900000000000032800000100000000000000E5
:104FA0001D2A00000100000000800000032800000E
:104FB00001000000000000001E2A000000020000A6
:104FC000008000000229000009000200000000002B
:104FD000032800000100000000000000212A00005A
:104FE0000100000002800000022900000900020008
:104FF0000000000006290000010000000080000001
:105000000850FC0708000000001B0000652FFC078B
:10501000170C0000C11CFC07150C00000532FC0732
:10502000130C0000391DFC07000C0000F129FC07DF
:10503000021B0000D135FC07041B0000892DFC0772
:10504000071B00004D2EFC07552BFC07ED28FC0725
:10505000CF0BFC077114FC070000000000000000EB
:10506000F4011000F4352348F40108C4140A0000C8
:1050700024000000F90FFC07BD10FC07140000001D
:105080004510FC07000000001B0000007D10FC071D
:10509000911BFC07FF000000000000000000000062
:1050A0001B000000D90BFC0714000000990BFC0743
:1050B000240000008D0BFC07FF0000000000000032
:1050C000F50EFC076D02FC077C53FC070D12FC0774
:1050D0002C4DFC0798CCFC0764CBFC074CCDFC079F
:1050E00005000000785BFC0700040000BC58FC07CA
:1050F000B0020000B054FC0700040000845FFC070D
:10510000700500002003000000A60E00040000004F
:10511000D2000000320000003C000000010000004E
:105120000100000002000000020000000400000076
:105130000300000006000000000000000200000064
:10514000020000000000000000000000030000005A
:10515000030000000500000005000000060000003C
:105160000A0000000A000000C8000000B80B0000A0
:1051700002000000B80B0000B80B00001000000097
:10518000D4010000CC010000700200006A000000A1
:105190000400000001000000200000000C000000DE
:1051A00001000000E20400008A020000DC050000AB
:1051B000AF0000006853FC07D851FC070000000056
:1051C0007053FC07C050FC07000000000000000006
:1051D000000000005E0100005854FC075054FC071A
:1051E0006854FC07A854FC074D24FC072925FC073C
:1051F000A7C6F00703C7F0070BC7F0075FC7F007A4
:1052000077C7F0078DC7F007AFC7F00731CBF007BE
:10521000D5CDF00715CCF00735CCF00755CCF0070D
:1052200093CCF007A3CCF0070DE2F007C9DFF0073D
:10523000E7DFF00703E0F0071DE0F00731E0F007DB
:10524000AFE0F007C7E0F007E3B0F1076BB3F10799
:1052500007A9F007B5EFF10799F0F10795F0F1070D
:1052600091F0F1078D21F0071904FC072D08FC07C8
:10527000C923FC07E903FC070904FC07057DF007C7
:10528000D37BF007737CF007AD82F1074134F1075F
:105290005D19F207DD19F207811AF207BD1AF2074C
:1052A0004D1BF207851BF207000000001304FC07EA
:1052B0001504FC077DB3F007D976F107617DF1078E
:1052C000B181F1079780F107C549F1079759F107B7
:1052D000F10AF107A1ECF0071104FC078549FC076E
:1052E000DDBAF00725AAF00799AAF00749ABF00745
:1052F000E72DF007A32EF007657FF0072F7EF0075C
:105300000136F00700000000E923FC07F922FC0742
:10531000BB14FC0701A7F10783A7F10707A8F10752
:105320007D13FC07B5B7F007000000000000000087
:10533000000000000000000000000000000000006D
:10534000000000000000000000000000000000005D
:10535000000000000000000000000000000000004D
:1053600000000000000000006050FC0738CDFC0782
:10537000A050FC0760CDFC0703000000D921FC070A
:10538000BD22FC070000000000000000951AFC0789
:1053900000000000953BFC0700000000E93CFC0712
:1053A000000000000000000000000000D512FC0713
:1053B000E902FC07F502FC07ED12FC070000000003
:1053C0000703FC078914FC07000000000000000030
:1053D00000000000F10FFC072D14FC070000000086
:1053E00000000000D514FC070000000000000000D1
:1053F00000000000000000000000000000000000AD
:10540000FF0000000000000000000000030000108A
:0354100000010098
:0854140094ADFF7F01000000D0
:0C541C003854FC073854FC071400000052
:105428000465FC078400000028CBFC07100300007B
:10543800FF000000E0010000F40100008501FC0706
:045448005901FC0703
:10545000000000000000000000000000000000004C
:10546000000000000000000000000000000000003C
:10547000000000000000000000000000000000002C
:10548000000000000000000000000000000000001C
:046500000000000097
:0400000507FC0E697D
:00000001FF
