:0200000407FCF7
:100000005C6BFC074D0EFC074D02FC072D02FC0744
:100010002902FC072902FC072902FC072902FC0728
:100020000000000000000000000000002902FC07A2
:1000300000000000000000002902FC072902FC0764
:100040001525FC071126FC07A526F007C90CFC079F
:100050009D0AFC072902FC076D08FC072902FC0722
:100060002902FC072902FC071927FC072327FC07A4
:100070002D27FC073727FC074127FC072902FC072F
:100080002920FC07CD0AFC072902FC072902FC07EE
:100090002902FC072902FC072902FC072902FC07A8
:1000A0000000000090070E000000000000000000AB
:1000B0000000000000000000000000000000000040
:1000C0000000000000000000000000000000000030
:1000D0000000000000000000000000000000000020
:1000E0000000000000000000000000000000000010
:1000F0000000000000000000000000000000000000
:1001000000000000000000000000000000000000EF
:100110000448054B10B5834203D0044B002B00D09C
:10012000984710BD2453FC072453FC07000000002F
:1001300006480749091A8B10C90FC91810B549108C
:1001400003D0044B002B00D0984710BD2453FC076C
:100150002453FC070000000010B5074C2378002B47
:1001600009D1FFF7D5FF054B002B02D0044800E072
:1001700000BF0123237010BDDC63FC0700000000FA
:10018000EC52FC07054B10B5002B03D00449054881
:1001900000E000BFFFF7CCFF10BDC046000000002C
:1001A000E063FC07EC52FC07402292029A1A924646
:1001B0007047C046174B002B00D1134B9D46FFF7ED
:1001C000F3FF00218B460F461348144A121A04F01D
:1001D000FDFB0E4B002B00D098470D4B002B00D0A1
:1001E00098470020002104000D000D48002802D08F
:1001F0000C4800E000BF04F0F1FB2000290003F0F0
:10020000AFFD04F0CFFBC046000008000000000076
:10021000000000005C6BFC07DC63FC075C64FC070F
:100220000000000000000000FEE70000042071460E
:10023000084203D0EFF3098003490847EFF3088031
:100240000149084770470000053DFC07042071463E
:10025000084203D0EFF3098003490847EFF3088011
:1002600001490847704700001D3DFC07F8B5002014
:100270000C250126154B164C1A78290051430F5DA9
:10028000FF2F0FD1002800D01A700C255A78114882
:10029000290051430C5CFF2C0FD1002201201A7061
:1002A0005A7009E06118496801323000D2B2002961
:1002B000E3D01A7088470020F8BD41184968013220
:1002C000D2B20029E4D05A70F4E7C04628CBFC072C
:1002D000D852FC07484FFC070020704700207047A9
:1002E0000020704770470000014B9B8C03807047D3
:1002F00028CBFC0708230380DB184380002383807E
:100300007D33C380704701230B7000234B808B80AB
:1003100070470000094B10B5C21893B20120042B9E
:100320000BD80024064B92009818836AA34201D090
:10033000846298470020029B1C7010BDF2FBFFFFF7
:1003400028CBFC0770470020704700207047000052
:10035000094B01221B88DB0918001040134208D00A
:10036000064B00201B681B0403D4054B1B889A43D3
:100370001000012318407047080000503000004072
:1003800018FAFC0700207047180A7A234343034AEF
:100390000020D2180B78B4321370704728CBFC07BA
:1003A00000207047084B10B5DA6B80231B0298427F
:1003B00007D3002319005CF7ABFF8905800A0843C7
:1003C00010BD5043800AFBE7A8CBFC07044B10B5D7
:1003D0009B6B04495843044BC0185CF76FFF10BD7A
:1003E000A8CBFC0740420F0020A1070010B5FFF783
:1003F000D9FF10BD70477047704700000321044AC1
:1004000013888B43802109020B4313807047C04639
:1004100012000050F0B51E2805D10E4B4908D21825
:10042000CBB2002B00D1F0BD0B48002106001468B0
:1004300055680832076BBC4206D10631C9007118F5
:100440004D60013BDBB2ECE7013108300629F1D108
:10045000F7E7C046D42EF807A4CDFC07044B89006B
:10046000D2188918034B0A687C331A807047C0463B
:10047000D02EF807A4CDFC070B4B10B5D21810688E
:10048000116880B2090C0B1A084A9BB29C08013310
:10049000E31814007E342380092343435B1A1BB204
:1004A000DB108032138010BDD42EF807A4CDFC07DA
:1004B000002070477047704710B5031CE6280CD920
:1004C000084B1B78EC20FA21DBB2FF30584389003F
:1004D0005CF70AFF7E38C0B210BDC2B2282AF1D242
:1004E0002823EFE77C4AFC07704770474B1E012B1F
:1004F00006D9C8220D4B1A800D4BC03A1A80FEE770
:10050000431EDBB2FD2B06D8C822084B1A80084BCD
:10051000C03A1A80FEE7FF2803D1064B483318780B
:1005200070470229F9D10C20FAE7C046003100508B
:1005300002330050A8CBFC077149724B0A6870B5B2
:100540001A40B0231B0113430B606F496F4B0A68BD
:10055000FF2492B213436E4A0B6013686D496E4DCF
:100560000B40C02113606D4A890013686C4E0B4329
:10057000136010236B4A10880343138001236A48D9
:1005800002881A430280694A69481060694A1088E3
:100590000343694813800288684B1A40BC239B00C0
:1005A000134303806648674A03685B0D5B0513438A
:1005B00003606548654B02681A4090235B01134352
:1005C00003606348634B02681A40634B1343036044
:1005D0006248634B02681A40624B134303606248EF
:1005E000624B02681A40624B134303606148624BDE
:1005F00002681A40614B13430360614B6148483302
:100600001A78C12312065B0113435F4A1360A022CC
:100610005E4B52011A805E4B5E4A1A803423028878
:10062000A2431343038055235B480288A24313432C
:100630008D220380594B92001A80594B594A5A48CF
:100640001A805A4B5A4A6C241A805A4B5A4AFF3421
:100650001A805A4B5A4A1A805A4B5B4A1A800268CF
:100660005A4B1A405A4B13430360B020594B800039
:100670001C802A88584B1A4002432A8090223588D1
:1006800092001D402A433280A822544E92003588A1
:100690001D402A43524D32802A881A401043288038
:1006A000C620504A400010804F480288134019432A
:1006B00001801F2017234D490A88824313430B8072
:1006C00019234B490A88824313430B80494B4A49FB
:1006D0001C800A88494B1A4080239B0113430B80DE
:1006E000072347490A689A43043B13430B60454973
:1006F000454B0A681A40454B13430B6070BDC0461A
:1007000034300040FF80FFFF20300040000066666C
:1007100038300040FF00FEFF3812004050300040EB
:10072000441200405C300040243000408000004013
:1007300059055C0740100040202000400FFCFFFFDF
:100740001820004009581A001C200040FEE1FFFF5D
:1007500004200040E0E0000008092949082000408A
:1007600000000303696A686C0C200040031FFFFF50
:100770007060000010200040E0E0E0E00B0A0A0892
:10078000A8CBFC0740130040001000402813004095
:100790002C13004005140000481300405013004083
:1007A00054130040340A00003C200040581300401D
:1007B0004E0800005C130040260A00006013004051
:1007C000580800002C2000400A1400002304E0FE1A
:1007D000181A0601001200401FFCFFFF48120040DB
:1007E0004C12004004120040881200409812004051
:1007F0009C120040A81200403C100040FF9FFFFFE9
:10080000801000406410004000FE00FE50015001C6
:100810000F4B10B51868FFF7C5FD00220D4B0E49B0
:10082000DC6CDA64041920005CF748FD0B4B0A49C4
:10083000186020005CF742FD002901D0064B591AD0
:10084000074B084A1960082113680B43136010BD59
:1008500038000040A8CBFC077102000044000040B3
:100860004000004030000040704700000122044B6F
:1008700010B51A80034B1B6D002B00D0984710BD9C
:100880000E150050A8CBFC07FA22030010B500207B
:10089000D200934209D3054A6430934205D8044AF2
:1008A0000A2198185CF720FDC0B210BDB80B0000FB
:1008B00030F8FFFF00210B4B0200181D70B5C16717
:1008C000094810250186C020084C40002550DC6DE9
:1008D00059658C4204D019005431C988186EA0475C
:1008E00070BDC046A8CBFC070013005000E100E03B
:1008F000F7B5430605D50020FFF7DCFF244B1B8826
:10090000F7BD244980250B0002005433AD009C88BC
:100910002A40DB88284215D14D6E02264F6D2900F2
:100920003140481E81414902019198B2A0421CD237
:100930001949098831420DD1002AE1D0154B5433B1
:10094000D880DDE7E31A5A425341D8B2FFF7B2FF2D
:10095000124BD4E7FA5C013300209C4200D101988D
:1009600002430F4802820122DFE7002A02D0094B2E
:100970005433D880A042C3D10120054205D01021B4
:10098000074A138E8B431386BAE7FFF793FFB7E747
:1009900054130050A8CBFC07701300506013005094
:1009A0000013005000210B4B0200181D70B5C167E9
:1009B000094810250186C020084C400025505C6F76
:1009C00099668C4204D019005431498B986FA04726
:1009D00070BDC046A8CBFC070013005000E100E04A
:1009E000F8B5400625D4284B02241A005432108B47
:1009F000DA6F224051424A415242520A1D00543598
:100A0000A98B81421ED301251A000024AC46543222
:100A1000528B996E891890422BD93F271B4D2E88F7
:100A2000551CADB23E421DD1002C07D054335A8321
:100A300004E00020FFF7B6FF154B1B88F8BD8021AE
:100A400049000CE0134E36882642DCD0013189B2D1
:100A5000A9838142F3D1C0255102AD0049190E4D41
:100A60002982CBE70C4A6446128A0A702A000131B7
:100A7000D1E7002C01D054335A839042DED10120BB
:100A8000FFF790FFDAE7C046A8CBFC0778130050C9
:100A900054130050701300500013005010B5084B51
:100AA000988D084B80B20433DB6F002B01D0984740
:100AB00010BDC0231021044A5B00D150F8E7C046A6
:100AC00000130050A8CBFC0700E100E0134B10B569
:100AD0001C68230509D50123114A11680B431360D3
:100AE000104B5B68002B00D09847E30409D5022324
:100AF0000B4A11680B4313600A4B9B68002B00D014
:100B00009847A40409D50423054A11680B431360D0
:100B1000044BDB68002B00D0984710BD0840005004
:100B20001440005028CCFC070369022906D9C822CA
:100B3000044B1A80044BC03A1A80FEE700225B186F
:100B40005A77704700310050023300500369022980
:100B500006D9C822044B1A80044BC03A1A80FEE71B
:100B600000225B185A777047003100500233005062
:100B700000487047C04CFC077047704700487047FA
:100B80002C4EFC0730B500220124038B408B01332F
:100B90009BB205001541254206D08A4202D101339D
:100BA00098B230BD02339BB20132092AF1D1002044
:100BB000F7E7002203695B18DA7470470048704752
:100BC000204FFC0710B50389032914D94289012459
:100BD00010002040224200D110BD05290BD902246B
:100BE000100020402242F7D0082904D90424100024
:100BF00020402242F0D05B1898B2EDE710B5028990
:100C00000400FF208A4206D8131D9BB2994203D2EA
:100C1000081DC01AC0B210BD6489E00706D50632AF
:100C200093B2994202D20631C81AF3E7A20705D55A
:100C300003339BB2994201D20931F5E7FF206207E5
:100C4000E9D59A1C92B2914202D20B31881AE1E79F
:100C5000200704D50B209142DDD003339AB2FF2048
:100C6000E406D8D58A42D6D1F338D4E7F7B50024C4
:100C70000126134B1349D88F9A6B9F8F1218874206
:100C80000BD8002C00D0D88701248A88A2438A8000
:100C90009B6C002B0CD098470AE08D8AAC46451C13
:100CA000ADB201956546354203D1002C00D0D887FE
:100CB000F7BD08883400107001980132DFE7C046A4
:100CC00028CCFC0700110050F7B52F4C0F232089CA
:100CD000184001380B28F9D803F0B0FE5413F8413E
:100CE000F8444EF8F8F8F806FFF7C0FF0122A38891
:100CF0009343264AA380936C002BE6D0D08F98476D
:100D0000E3E7224B988EDA8E82421CD21A6B2026A1
:100D10000192022294461E4FD98E8842D5D93F2592
:100D20002289AA43D2B2C02A09D165463A882A420A
:100D3000CBD04A1CDA86019A525C2280ECE7A28A68
:100D40003242F6D1C1E70221A2888A43A280A2885A
:100D50007E318A43A2805B6C002BD0D1B5E7FFF7D0
:100D600085FFB2E7094B1B6C002BAED09E22A18AF7
:100D7000114005489847A8E7044B1B6C002BA4D0F2
:100D80000121F6E7F7BDC0460011005028CCFC0752
:100D90007C1100500D4B0E4A10B51C005A65002204
:100DA00054341A66E28003325A660A4AD965110041
:100DB000A080543109881100603109880649043344
:100DC000D96794239B00138610BDC046A8CBFC07AF
:100DD0000C64FC0700130050F108FC071E22084BAE
:100DE0001A80084B1B3A19880A431A800422198872
:100DF0000A431A800122044B50331A707047C046D0
:100E0000021600500016005028CCFC0710B501F067
:100E100031FCFFF739FD10BDEFF31082012383F39E
:100E2000108808490988090603D40749088803433C
:100E30000B80002A02D182F310887047012383F3CC
:100E40001088FAE7080000500833005070B5144BC2
:100E500083F3098813485DF73FFE134B1348834221
:100E600011D30020124B13498B4217D3FFF7A2F97D
:100E70001C68910065585C680132655099688A4227
:100E8000F6D30C33EBE70022F8E71C6895002851F5
:100E900001325C68A242F8D30833E5E70022F8E7A4
:100EA0005C6BFC07A000FC07F452FC070053FC0736
:100EB0000053FC071053FC0710B561F7E9FE054B22
:100EC00000211A00513211705A6D8A4201D05965C1
:100ED000904710BD28CCFC0770B5194EB56D002D9C
:100EE00028D12C2304220921164859F705FF164B57
:100EF0000400038010222900B06545800A3003F009
:100F000065FD80239B016383F72323840F4BA58317
:100F10001A00E5837E32658411880A1CFB2900D9FA
:100F2000FB22E28480331988094A0B1C914200D9C4
:100F3000131C2385B06D59F7FAFE0023B36570BD0D
:100F400028CCFC07040D0000030A000074FBFC071A
:100F50004808000070B50A4C85006619F36D002B37
:100F60000BD10A21000201431E330422054859F720
:100F7000C3FE0823FF330380F0656419E06D70BD84
:100F800028CCFC07140E0000F8B50F4C850066193C
:100F9000336E002B11D10A21000201431E330422BB
:100FA0000A4859F7A9FE07220700306608490230AF
:100FB00003F038FD0223FF333B806419206E59F79C
:100FC000B6FE00232366F8BD28CCFC07140E0000F3
:100FD000E452FC0710B5FFF7D7FF10BD10B504228F
:100FE00009211C230E4859F787FE1B2304000370B8
:100FF000242061F789FE04220A4B228262600121CB
:101000000222A3810023A174FF3223316070E381A7
:10101000200061802281A37259F789FE10BDC0466D
:101020001B0D0000AD27000010B5042209210A2382
:101030000A4859F761FE1B2304000370142061F76E
:1010400063FE14236380103B63607423FF3360707E
:101050002381200059F76BFE10BDC0461B0D000018
:1010600070B50422092110230A4859F745FE1B25B3
:1010700004000570280061F747FE04236360064BF7
:101080006070A360054B65802000E36059F74FFE58
:1010900070BDC0461B0D00001D0201002C010500A3
:1010A00070B50400242041F78EFB0423010090203A
:1010B0001A00800159F720FE04700F4C002526000D
:1010C000643633784570C570837059F730FE23005D
:1010D00065331D70230066331D70230009226733BA
:1010E0001A70064B0421064868340132357023809B
:1010F00061F7DCFD70BDC04628CCFC07701700000E
:101100001304000070B51600FFF780FE1A4C0500AE
:10111000230064331B7883420DD0242041F753FB16
:10112000022301000422154859F7E6FD002345700B
:10113000037059F7FCFD230064331D7023006533F1
:101140001B78002B0FD0042D0DD82300673318789F
:101150005EF71AFC230001226A331A700421084842
:10116000C73261F7A3FD683431002288054861F772
:101170009DFD002070BDC04628CCFC070224000065
:10118000140400001304000070B50F4C1500230078
:1011900065331B78002B0FD023006A34673318782F
:1011A0002378002B0AD05EF7E7FB0023142223707C
:1011B0002900064861F77AFD002070BD5EF7E4FB68
:1011C000012305222370F3E728CCFC071404000058
:1011D0001FB514001A0005230293044B0193069BCC
:1011E0000093230062F73CF804B010BDB44BFC0739
:1011F00013B500240094FFF7EBFF13BD1FB51400D7
:101200001A0001230293044B0193069B00932300D1
:1012100062F726F804B010BDDC4BFC071FB51400C4
:101220001A0004230293044B0193069B00932300AE
:1012300062F716F804B010BDE44BFC071FB51400AC
:101240001A0005230293044B0193069B009323008D
:1012500062F706F804B010BD244CFC07F8B50D0089
:1012600028781900082806D9C8220E4B1A800E4B80
:10127000C03A1A80FEE70D4B1E5C0D4B8000C7582C
:10128000B31C0C4859F738FD04002B7832003900A4
:1012900003704670023003F0C5FB200059F747FD8C
:1012A0000020F8BD0031005002330050744BFC07A1
:1012B000804BFC070314000010B504498A78033101
:1012C0000270013003F0AEFB10BDC04628CBFC0716
:1012D00070B5047803000D00002C04D0012C0AD056
:1012E00048242C7070BD82780548191D8270033027
:1012F00003F098FBF5E7024A438800249384F0E763
:1013000028CBFC07084B70B51D000C001100883578
:101310002878A200C000C018044BC91803F082FB53
:101320002B781B192B7070BDA4CDFC07D42EF807A9
:10133000094B70B51D000C00110089352878A200FA
:101340000630C000C018054BC91803F06BFB2B78A2
:101350001B192B7070BDC046A4CDFC07D42EF80716
:10136000F8B50E4C0500402220000D4903F05AFB51
:101370000C490D4B0A00C1CBC1C243CB43C243CB86
:1013800043C243CB43C2094B0948ADB25B1B401B70
:101390009BB280B223816081F8BDC04670E0FC073B
:1013A0007C37F207B0E0FC07C437F207B8E0FFFF74
:1013B000CCE0FFFFF7B5144C8700E519EB6E160083
:1013C0000191002B0AD10A21000201431E3304229D
:1013D0000E4859F791FC04230370E866E419E56EA2
:1013E0001022AF1C3800002103F0F0FA3200380060
:1013F000019903F017FB012328006B7059F797FC44
:101400000023E366F7BDC04628CCFC07140E00009D
:101410001FB54B780400002B0AD1102268460B49F7
:1014200003F000FB102269462000FFF7C3FF1FBD39
:10143000012B03D1064B04220093F4E7022BF9D0D1
:10144000032BF4D110220231EEE7C046CC4AFC0750
:1014500040E2010002690B005218002110B5D1745E
:10146000808A1B02184359F778FE10BD3F2210B541
:1014700043790400934311D141F741FA030A2070E4
:101480006370030C000EA370E07041F738FA40233C
:10149000207180B2000A5B420343637110BD70B5D6
:1014A0000D000C00203541F72AFA20700134AC42BF
:1014B000F9D1002070BD0000F0B57A25234B4543DB
:1014C00085B04E780393224B214A5B1902931E7715
:1014D0002B001433D31808220400110018000193C4
:1014E00061F7FDFE1A4BAF1CDF19310010223800E6
:1014F00061F7F5FE41F703FA039B5E194E36144B74
:101500003080EA5C01231343114A2000AB54FFF7FB
:1015100021FD0500029B01991B7F08220377338878
:101520004382143003F07EFA10223900A81C03F025
:1015300079FA2000FFF70EFD59F7F9FB0022054B61
:10154000A4001B19DA6505B0F0BDC04628CBFC0726
:1015500064CBFC0728CCFC0708781B0A10B5DCB26A
:1015600007281FD803F074FA041E1E1E1614141A3E
:101570000C2159430F4A2000703252180121D172B8
:1015800079314B4300210C4A3C329954FFF7FCFC63
:10159000002010BD2000FFF73BFFF9E72000FFF718
:1015A0008BFFF5E7C822054B1A80054BC03A1A801D
:1015B000FEE7C04628CCFC0728CBFC0700310050D2
:1015C0000233005070B504000D00FEF7C1FE002884
:1015D00006D00A4B2A000421E01859F7CCFE70BD52
:1015E000FFF71AFC042208231100054859F784FB71
:1015F0004560047059F79BFBF1E7C0460304000007
:10160000010400000B4A70B5150000237C359C00D6
:1016100066590133002E08D11219DCB2D1670100DE
:101620002000FFF7CFFF200070BD0A2BEFD1002470
:10163000F9E7C04628CCFC0710B5002806D1C8221F
:10164000094B1A80094BC03A1A80FEE7084B9842B2
:1016500006D9C822044B1A80044BC03A1A80FEE710
:10166000FFF7D0FF10BDC0460031005002330050DC
:10167000FCFF3F00002370B50E4C23700E4B1B780F
:10168000002B12D1012215000C4E092033785D4049
:101690009A420BD05EF778F905203570002D00D105
:1016A000BE300749FFF7C8FF207070BD5EF764F9D0
:1016B000F2E7C0460164FC073564FC070264FC07DE
:1016C0007516FC0710B52C4A13780133DBB2137082
:1016D000002808D029480278022A04D8541C047033
:1016E000274852001152022B09D8264C2378002B90
:1016F0000FD10A202449FFF785FF207009E01F4B16
:10170000224A1978002905D11378FF2B01D0013323
:10171000137010BD00231370194A0020135E0229B4
:101720001FD90220115E0420105E0A1C994200DDC0
:101730001A1C12B290421DDB0A1C994200DA1A1CD4
:10174000131C12B2824200DD031C1BB20120104A9E
:10175000104C1380104B18702378002BD9D10F49EF
:10176000C9E70229F2D10221525ED218D30F9B1889
:101770005B10EAE71300E9E71F64FC072064FC073D
:101780002264FC073064FC077537FC070F64FC0714
:101790001264FC073164FC071064FC07951DFC070C
:1017A00010B50C4B1B78FF2B08D00B4B1B78002B74
:1017B00004D0002803D10100FFF784FF10BD074CBF
:1017C0002378002BFAD109200549FFF71BFF207071
:1017D000F4E7C0461053FC070064FC07F863FC07FD
:1017E0005D36FC0710B5054B1B78FF2B05D0044B6D
:1017F0001B78002B01D0FFF765FF10BD1053FC07CD
:101800000064FC07444A70B503000D00049C90423C
:101810000FD0424A904237D0414A904260D14A6844
:10182000002A4CD13F4BC8321A803F4BC03A1A8035
:10183000FEE70B78013BDAB2092A1ED83B4A9B002F
:10184000D218D16F3A48814207D10021D167394A75
:10185000D31859620020207070BD374B9942F9D1DE
:101860000422082311002D4859F746FA2B780370FB
:101870006B68436059F75BFAECE7C822294B1A8082
:10188000294BC03A1A80FEE70878411ECBB2092BDB
:101890000ED8264B89005B18274ADE6F9642D9D1B5
:1018A000244A5218526A6968DA67FFF78BFED1E75B
:1018B000C8221C4B1A801C4BC03A1A80FEE71F4BF3
:1018C0009A4206D9C822174B1A80174BC03A1A8081
:1018D000FEE70878114B0421C01859F74CFDB9E711
:1018E000174A01209A18092AB6D8033BD8B2411EDC
:1018F0000E4B89005B18DA6F002AABD00E4DAA425E
:10190000A8D00B4DAA42A5D00025DD67094B5B1876
:101910005D6290479EE7C046020400000304000099
:1019200001040000003100500233005028CCFC07B5
:10193000E502FC07A8CCFC074503FC07FCFF3F00C1
:10194000FCFBFFFF431EDAB270B50500092A17D869
:101950000C4C9B00E418E36F002B11D00A4EB342ED
:101960000ED00A4B0421C01859F74FFD042208235A
:1019700011000748E66759F7BFF9057059F7D7F91D
:1019800070BDC04628CCFC07E502FC07030400003C
:101990000204000070B5234C23005133187800284E
:1019A00001D0FFF7CFFF20492048FFF72BFE204D45
:1019B0005134EB6C2070002B2AD1042209215233C0
:1019C0001C4859F799F90D2303801B4B04008380B1
:1019D000C3800823FF3303818023DB00438104227B
:1019E0001649E8640C3003F01DF823000C22200097
:1019F00013492B331A70103126002C3003F012F8E3
:101A000022000B36082130000E4B103261F7BCF873
:101A1000E86C59F78CF9002302210420EB6459F794
:101A20009CFB70BD28CCFC07B90EFC0770170000AA
:101A3000A8CCFC070D0D00004C0400007D4AFC07FB
:101A4000CC4AFC07824AFC0710B561F773F80028FE
:101A500001D0FFF79FFF10BD10B5064C207800287D
:101A600001D0FFF76FFF044B04491868FFF7E4FD4E
:101A7000207010BD3464FC071853FC070539FC07BF
:101A800010B5154C2078002803D0FFF75BFF00232A
:101A90002370124C2078002803D0FFF753FF002357
:101AA00023700F4C2078002803D0FFF74BFF002352
:101AB00023700C4C2078002803D0FFF743FF00234D
:101AC00023700023084A1370084A1370084A1370E1
:101AD000084A137010BDC0463464FC07F863FC0765
:101AE0003164FC073064FC071064FC072064FC07C9
:101AF0001F64FC070F64FC0710B54A78064B110001
:101B0000481E81411970002A03D0FFF7A5FF00206D
:101B100010BDFFF7B5FFFAE70064FC0710B504003D
:101B20001B205FF7EBFF21005FF7FEFF0100D820CD
:101B300004220223400159F7DFF8044B04705033AC
:101B40001B785B00437059F7F2F810BDA8CCFC0776
:101B500070B505001B200C005FF7D0FF29005FF770
:101B6000E3FF022301000422034859F7C5F844703B
:101B700059F7DDF870BDC046071B000010B50C78A2
:101B80004A889621531E9BB249008B4213D264238C
:101B900053430A490B600A4B1B78002B05D0094BB5
:101BA0001B78FF2B01D0FFF757FF00212000FFF724
:101BB000CFFF002010BD8021F8E7C0461853FC0776
:101BC0000064FC071053FC07F8B50C000021160058
:101BD00005005FF7A9FF08270200C12021020923A1
:101BE0003943000159F788F81223040003702420B8
:101BF0005FF784FF002805D1C822124B1A80124BD0
:101C00001F80FEE7831CDB7F0022B34207D901213E
:101C1000078B0130D3B2B3420BD30237BAB20123E0
:101C2000AD19E380AB7E2000A280237259F77FF8C4
:101C3000F8BDC37F13410B400433FF18BFB201321C
:101C4000E8E7C0460031005002330050F8B51B20D1
:101C50000D0017001E005FF751FF002806D1C822B3
:101C6000154B1A80154BC03A1A80FEE72988FEF7FB
:101C7000C5FF062304003A003100114859F73CF82B
:101C80002A8803000280E01E082812D802F0E0FE35
:101C90000D111111110D11050D0000225A801800AF
:101CA0001A7159F744F80020F8BD02225A80002228
:101CB000F5E70622F3E7C04600310050023300503A
:101CC000180C0000F0B51B2085B01F000091019298
:101CD0005FF714FF041E06D1C8222B4B1A802B4B32
:101CE000C03A1A80FEE7009B3D0A1988FEF786FF7E
:101CF000033803AE092843D802F0AAFE28423D4229
:101D000042314205390AA38900243380022505E0C7
:101D1000E38904253380238A002473803900019AE3
:101D2000AB1D1B4858F7E8FF0700ABB22A00310093
:101D30004380053002F076FE009B38001B883C7122
:101D40003B8058F7F4FF002005B0F0BD6419E37C38
:101D50005B00022500242B4033707470DEE76419A9
:101D6000E37C00249B07DB0F33707470CEE76519AA
:101D7000EB7C5B10EDE7A37C012500243370CDE7FD
:101D800006240025CAE7C046003100500233005047
:101D9000140C00001FB500221A4B1A701A4B197848
:101DA000914207D019490978914203D018490C781B
:101DB000FF2C02D100221A701FBD1A70154B1B2078
:101DC00000229B5EFE221B0212061B0A1343009395
:101DD00080236A469B0093815FF790FE21005FF7A6
:101DE000A3FE1423010004220B4858F785FF0123AA
:101DF000040010226946037402F014FE200058F714
:101E000096FFD9E73164FC071064FC070064FC0707
:101E10001053FC071264FC07021B0000F0B504001D
:101E200085B02420150001915FF768FE002806D1D7
:101E3000C8221D4B1A801D4BC03A1A80FEE7831C36
:101E4000028B0293431C0393012300269C46019BB3
:101E50001E70029BDF7FB74201D9944201D28020DD
:101E600005E0931C9C4204DCA21A2A70002005B0F5
:101E7000F0BD0399C87F61463041084206D0033265
:101E800093B29C4203D103232B70EFE79BB2012F47
:101E900005D001339BB29C4201D10423F4E7013306
:101EA00001369AB2F6B2D2E7003100500233005048
:101EB000F7B51E006B460D001700D91D6A460023BA
:101EC0000632288813700B70FFF7A8FF0623040062
:101ED0003A0031000A4858F70FFF2B880380002C86
:101EE00005D16B469B79032B06D1013B43800471DE
:101EF00058F71DFF0020FEBD44800324F7E7C046CD
:101F0000180C0000F7B5050008781C0A02380528EF
:101F100000D971E002F09CFD0328703948587A23FB
:101F2000634337488A783C30C518290078310A70F5
:101F300034490191D2070ED50C270E006743713347
:101F40007036791DC01871180622F61902F06AFD64
:101F5000337977352B700C226243019B70339B18C9
:101F60000022DA720020FEBD0C226243254B0021C4
:101F700070339B187A226243D972214BE0B29B18CE
:101F8000B433197060F766FEECE77A2565431C4BA5
:101F900017221C0058197630023102F043FD042349
:101FA0003C342A5D13430DE07A25154B654310261A
:101FB0001C00581932009D3002313C3402F032FDD1
:101FC0002B5D33432B55CDE77A235C434A8A0C4D76
:101FD00002312819002A07D11C323E303C3502F06C
:101FE00021FD0123625DDDE71C225A303C3502F001
:101FF00019FD0223625DD5E72800FFF7F9F8B1E784
:1020000028CBFC0728CCFC0710B5054B1B78012B0F
:1020100005D1044B1878FF2801D060F71BFE10BDD6
:102020003564FC071053FC0770B55DF7BAFB264A10
:1020300013881B051CD50520244B198801408142BB
:1020400016D1042219880A4301211A801A888A436A
:102050001A801F4B5B6D002B09D01E4A10881E4A48
:1020600000B211881D4A09B2128812B2984770BD99
:102070001388DB0613D501241948038823420ED0A8
:102080008021184B1D880D4209D004801A888A438C
:102090001A800F4B9B6D002BE9D09847E7E7138818
:1020A000DB06E4D502210E4A13880B42DFD00D4B2C
:1020B0001888C005DBD511801A880B490A401A80A0
:1020C000034BDB6DE7E7C046040000500002005000
:1020D000A8CCFC0702020050040200500A02005083
:1020E0000401005000010050FFFEFFFF10B5034B3C
:1020F0000348196860305DF78BF810BD1453FC0776
:10210000A8CCFC0710B5074C2078002803D0FFF7B7
:1021100019FC0023237009205DF72EFC0022024BDE
:102120001A7010BD0164FC070264FC0710B5FFF7CC
:10213000E9FF09205DF728FC0122044B0520044932
:102140001A70FFF75FFA034B187010BD0264FC07AA
:102150007516FC070164FC0710B5FFF71BFCFEF7C2
:102160007FFFFEF753FE054B64331870FEF736FF12
:102170000022034B1A70FFF7D9FF10BD28CCFC07D3
:102180003564FC070C2270B5214E42433300703396
:102190009B189B780500FF2B37D0330051331878FC
:1021A000002801D0FFF7CEFB0024330074650C2615
:1021B00051331C7032006243164BD15CFF291BD196
:1021C0000124154B1D70154B1C70FFF79BFF092058
:1021D0005DF7DAFB124B28001C70FFF79FFC28000C
:1021E000FEF75EFF0F4B61331B78002B03D10E4BC4
:1021F0001C700E4BDC7070BD9B189B680134E4B200
:10220000002BD7D028009847D4E7FFF7C3FBD7E7C8
:1022100028CCFC07484FFC071053FC073564FC072B
:102220000264FC07A8CCFC0778FAFC0718FAFC0744
:1022300010B50024FFF724FCFF22084B09201C7076
:10224000074B1A705DF798FB064B1C70064B1C7011
:10225000FFF76CFFFFF79EFB10BDC0460064FC0754
:102260001053FC070264FC073564FC071FB500BA75
:10227000009068465DF758F805B000BD0C4B10B5EE
:102280001A0050321278002A11D00A4A00280BD0C6
:10229000042110880842FCD100220748503338300E
:1022A0001A705CF777FF02E012885207F4D510BD70
:1022B00028CCFC0700160050A8CBFC07F8B5164B3D
:1022C000164F84331E88164B16499C6B20007043B2
:1022D000C0195AF7F3FF144B050062331880300021
:1022E0003C3060430F49C0195AF7E8FF0F4B0430E8
:1022F00018600F4B4019C21D1A600E4A1278022A4C
:1023000001D1183018601868FEF74CF80A4BC01855
:1023100080B259F75FFAF8BDA4CDFC0720A10700F1
:10232000A8CBFC0740420F00A8CCFC074C64FC077C
:102330005064FC0778FAFC07E20400000022054B19
:1023400010B51A60FFF7BAFF034A13685B005B0819
:10235000136010BD9CF9FC073000004010B55CF71D
:10236000FBFF10BD10B5074C002248342378064906
:102370000133DBB2054823705DF796F92378013B02
:10238000237010BDA8CBFC075464FC07A4CDFC0748
:1023900010B5084C08494834237800220133DBB2D9
:1023A0000648096823705DF7B3F92378013B237071
:1023B00010BDC046A8CBFC075464FC07A4CDFC07A5
:1023C000264B00B54362264B00228362254B8BB01F
:1023D0004361030030331A70234BC362234B036005
:1023E000234B0362234B4360234BC3612348244B9D
:1023F0000168194080239B020B43224903600B684C
:10240000214803400B606B46D2540132282AFAD18E
:102410001E4B69461868403002F004FB08221C4B32
:1024200048331A701B4A64321278002A01D0012204
:102430001A705FF7CFF8FFF795FFFFF7A9FFFEF7D8
:102440007BF85FF705F95FF717F95FF789F812482E
:102450005FF750F95FF7D4F80BB000BDB104FC078B
:10246000B504FC07ED04FC073516F207B704FC07BA
:10247000E904FC07EB04FC07B904FC077400004006
:10248000FFFFE0FF00020040FFFFF7FF4CF9FC07F1
:10249000A8CBFC07A8CCFC0770E0FC071749184B39
:1024A0000A6810B51A4080239B02134380220B60F8
:1024B0000721D20513688B4313600823114A118842
:1024C0000B431380104B64331B78002B03D0012285
:1024D0000E4B48331A705FF77DF8FFF743FFFFF7A5
:1024E00057FFFEF729F85FF7B3F85FF7C5F808481C
:1024F0005FF7F0F85FF784F810BDC0467400004045
:10250000FFFFE0FF08000050A8CCFC07A8CBFC07A9
:1025100070E0FC0710B5174C2300623319882300C4
:10252000663318885EF7FAFD5DF73BF90321124B1D
:102530001A880A4202D01A888A431A8080230F4AD6
:1025400011880B43042113800D4A13888B43138099
:1025500002230C490A881A42FCD03FF7E2FEA26E21
:10256000094B1A60094B1A68042219681142FCD001
:1025700010BDC046A8CCFC070A000050080000505F
:1025800010000050140000500802004010000040ED
:102590000121084A10B513888B43138059F7F0F8CE
:1025A00040F74EF8FEF71AFC0022034B6C331A700A
:1025B00010BDC04608330050A8CCFC0710B549F741
:1025C00070FDFEF70BFC10BD10B559F7F5F849F793
:1025D00068FD0122014B6C331A7010BDA8CCFC07BA
:1025E00010B546F779FF10BD10B5002046F728FF5B
:1025F0000422034B6C331A705FF702F810BDC0461B
:10260000A8CCFC0710B5012046F71AFF10BD00004A
:102610000A4B10B51A68D20703D5022219680A437B
:102620001A6080221968D203114202D019680A4345
:102630001A6003485EF79CFD10BDC04600020040D2
:10264000D04CFC077FB501AB1900074A203270CA95
:1026500070C1064A11007C310988090919710449C1
:102660005EF712FC7FBDC046CC4AFC07A4CDFC0738
:10267000FA63FC0730B5174C87B0210008223431CB
:1026800001A802F0CFF903AB22001900203231CAB1
:1026900031C1114C114922007C32128801201209EB
:1026A0001A7122005EF74AFC01A8FFF7CBFF5EF724
:1026B00037FC062221005EF7AFFC04005EF720FC29
:1026C000E1200001604306495AF70EFE80B207B0D0
:1026D00030BDC046CC4AFC07A4CDFC07FA63FC071A
:1026E000FF07000010B504005DF762FA2200084BF6
:1026F0000A3A92009B181B6F002B01D0984710BD1F
:102700000123C022A340034952008B50F7E7C04683
:10271000A8CCFC0700E100E010B50A20FFF7E2FFBB
:1027200010BD10B50B20FFF7DDFF10BD10B50C205C
:10273000FFF7D8FF10BD10B50D20FFF7D3FF10BD78
:1027400010B50E20FFF7CEFF10BD70B5056904006F
:102750006869002801D058F73CFA0023280023615B
:1027600058F737FA70BD0000F8B524205FF7C6F9B6
:10277000041E06D1C822314B1A80314BC03A1A8050
:10278000FEE79021436989011A898A4227D10122F3
:1027900094461E7CC51C8719EA7F012A09D95A89EB
:1027A00099892848022358F7A7FA00230670437036
:1027B00025E0797F6046114101420DD09818A1189B
:1027C000807C897E884207D031002000FFF7FCF929
:1027D000EB7F0133EB77F8BD0132EA77DCE71A498A
:1027E0008A4224D10126C51CE97F022916D95A89BB
:1027F00099891648012358F77FFA002303700025B2
:1028000058F795FA606958F7E4F9290020006561E6
:102810005FF78AF9290058F7A0FCDCE760181A7CFA
:10282000407F10413042D0D10131E977DCE7C82246
:10283000024B1A80024BC03A1A80FEE7003100506A
:102840000233005001240000022400000324000091
:102850000B7810B5122B01D1FFF786FF002010BDB9
:1028600070B5056904006868002801D058F7B1F90F
:1028700000232800236158F7ACF970BD70B51B2008
:102880005FF73CF9041E2ED043685D78022D31D9E4
:10289000002120009D885FF747F9854216D06368C4
:1028A00000211D782000043D6A4255412A4A6D00EE
:1028B0009E88AD185FF738F9012302003100280027
:1028C00058F71AFA0023037058F731FA00256068A8
:1028D00058F77FF92900200065605FF725F9290086
:1028E00058F73BFC34E0C8221C4B1A801C4BC03A02
:1028F0001A80FEE76219D27C1978114229D0DA7960
:10290000AA4226D0002120005FF70EF9082102001C
:10291000C12063682D029B7929430833000158F7D1
:10292000EBF9616805000B78023B5A1E93411233A4
:1029300003708A79C2804B8808318380083002F0A6
:1029400071F8280058F7F3F962685378013353702F
:1029500070BD01355D7098E7031B00000031005029
:102960000233005010B5FFF789FF002010BD0000B2
:10297000F0B58BB00693109B06001B788125013BB8
:1029800004910792012B00D993E00121242058F7EC
:10299000A5F8002704003D002422002102F016F8CB
:1029A000109AA31C1278DA77109B1B78BB4266D969
:1029B000002D03D0200058F70CF97AE0132504AB62
:1029C000ED1807232B70109BDB195B780593059995
:1029D000631CB940DA7F0A43DA77109BF90060186C
:1029E000591808220430043102F01CF8059B012B11
:1029F00001D10E332B70A31CDB7F012B03D91023D5
:102A00002A7813432B7014227B000593049B04A99E
:102A10001B88891878000B5209AB18181E230699D9
:102A20006C320B4013430393234B13210293B38A5D
:102A300004AA0193002389180A0000931F49053353
:102A40004CF770FF051E17D1142204AB9B187900B8
:102A5000585A109BDB195978431D9C464A1E531E39
:102A60009A4163469B1A049A1380012904D10230CB
:102A7000134980B24CF715FE0137FFB294E7002DE1
:102A800098D109AB1B88049A346113802383069B79
:102A9000079ADB031A4324232280B08A290060802E
:102AA000F382233BF381074B1C34B460736058F707
:102AB00054FB28000BB0F0BD4C4CFC070F18000075
:102AC00001020000884CFC07F0B589B004930E9B0E
:102AD00005921A7805000F000F23D10700D5303377
:102AE000910702D5E02149000B4351070AD5110790
:102AF00000D569E0C021C9000B43D20602D580226F
:102B000052011343162202A9521813801E2304995E
:102B100038000B4080210B4303932D4B2D4902932A
:102B2000AB8A0193002300930D334CF7FBFE061E86
:102B300047D10121182057F7D1FF04001822310096
:102B400001F044FF3B882C612381049B059ADB0341
:102B50001A432280AB8A012763801B23EB82230068
:102B600020001633AB601C4BEF816B600E9B032281
:102B70001B78310063810E9B1330DB88A3810E9B91
:102B80005B88E3810E9B9B8823820E9B5B7866604B
:102B9000A37401F01BFF0E9B1B785A070DD51A0773
:102BA00000D54037DB0601D50C4B1F430A2120001E
:102BB000FEF708F839004CF774FD0021A88A58F791
:102BC000CCFA300009B0F0BDE021090194E7C0461D
:102BD0003C4EFC0709180000D84EFC070800020014
:102BE000F7B510000D001600019358F7CBFA070057
:102BF0000220002F20D122305EF780FF041E06D174
:102C0000C822144B1A80144BC03A1A80FEE7821C6B
:102C10002B78D27F9A4210D96A78642A0DD8C318CB
:102C2000012130009A76103D58F797FA6561033418
:102C3000E777FFF799FD0120FEBD012332000199DE
:102C4000064858F759F88123037058F770F80020A8
:102C5000F2E7C04600310050023300500324000068
:102C6000F7B510000C00150058F78CFA01282FD189
:102C700013305EF743FF061E06D1C8221C4B1A8094
:102C80001C4BC03A1A80FEE7077F3900FDF77AFF38
:102C900023780190727FBB421CD108216378120215
:102CA000114306332A00144858F726F8019B060002
:102CB0000380002303716278A11C4280053001F07B
:102CC000B1FE300058F733F80021280058F745FAD4
:102CD0000020FEBD0821130219432A0006230648DE
:102CE00058F70AF8019B038080230371EAE7C04686
:102CF0000031005002330050140C0000F7B51000F2
:102D00001F001600019158F73DFA0090009B022029
:102D1000002B1FD119305EF7F1FE051E06D1C82227
:102D2000244B1A80244BC03A1A80FEE70424042264
:102D3000019B1B88838143891C4013420BD10123D3
:102D4000320039001D4857F7D7FF8C23037057F71F
:102D5000EEFF2000FEBD08221C001440134207D1E4
:102D6000012332003900154857F7C6FF0470EEE71B
:102D700001210A2057F7B2FE0A220099686001F08B
:102D800025FE0A212800FDF71DFF04236C680121A0
:102D90002380033BFF3BE380019B60801B88300066
:102DA00023721B0A6372A78058F7D7F9FFF766FDF5
:102DB0000098CFE70031005002330050051B00009F
:102DC000F8B51B200E0015005EF798FE041E06D114
:102DD000C8221A4B1A801A4BC03A1A80FEE7280004
:102DE00058F7D0F9012827D1082163682A00DF7934
:102DF00014483B021943042357F77EFF0A210500BC
:102E00002000FDF7DFFE327880232880BA4200D10F
:102E100073782800AB7057F78AFFA978002909D189
:102E20006268537A107A1B020343A38163891B07EC
:102E300000D55170FFF722FD0020F8BD0031005091
:102E400002330050160C0000F7B510000C001600FD
:102E5000019358F797F907000220002F1ED1223066
:102E60005EF74CFE051E06D1C822174B1A80174B81
:102E7000C03A1A80FEE72078032810D902233200D6
:102E80000199134857F738FF227840230270032A2C
:102E900000D84933437057F74AFF0020FEBD51F771
:102EA00083F80C4B9842E9D03000012158F755F9CE
:102EB00023786278EB18103C5A776C610335EF7712
:102EC000FFF752FC0120E9E70031005002330050C7
:102ED00001240000FFFF0000F8B508781D000C0079
:102EE000160051F761F8114B98421DD01B205EF778
:102EF00005FE002806D1C8220D4B1A800D4BC03AA2
:102F00001A80FEE700272378C0186378C374320064
:102F100029000223084857F7EFFE23784770037013
:102F200057F705FF0020F8BD8927F0E7FFFF0000F5
:102F30000031005002330050011B0000F0B587B093
:102F400002930023170004AAD37193711300088819
:102F50000D000632D91DFEF761FF041E3BD124206F
:102F60005EF7CCFD002806D1C822234B1A80234BE4
:102F7000C03A1A80FEE704AB9B79032B39D1EB7979
:102F8000AA791B0213430193012B32D80121029B22
:102F90001E0A83195A7F039304ABDB79994013000F
:102FA0008B439C46019B012B02D10A43D3B29C4622
:102FB0006246039BF6B25A7731005EF7BDFD0223ED
:102FC00001003A000E4857F797FE039B06705B7F9F
:102FD000437057F7ACFE3A0002990423094857F7AB
:102FE0008BFE2B888470038057F7A1FE002007B06A
:102FF000F0BD8024EFE7C04600310050023300509E
:1030000004240000160C0000F7B510000F00160095
:103010001D0058F7B7F8041E4AD114205EF76EFD64
:10302000002806D1C822314B1A80314BC03A1A8091
:10303000FEE73B880193428B038B944601339BB29E
:10304000E1B20091614601222141114205D0991857
:10305000019A914247D002339BB20134092CEFD13F
:10306000062332002900234857F746FE3B88038099
:103070008023037134E02379009A93421DD02468A1
:10308000002CF8D1009B290A037741775EF754FDA5
:10309000012301003200184857F72EFE009B0370F1
:1030A00057F745FE0121300058F757F8002003E09C
:1030B000013C63425C416000FEBD6379320029003F
:1030C00006330C4857F718FE002605003B880671AA
:1030D00003806279A11D4280053001F0A3FC280025
:1030E00057F725FEE2E74468CAE7C04600310050C2
:1030F00002330050140C000002140000F7B5050064
:103100001B200E001F0001925EF7F8FC041E06D182
:10311000C822164B1A80164BC03A1A80FEE7019B54
:103120009F4203D08020002F1BD0FEBD4219D37CCC
:103130003343D374290020005EF7FEFC290006000B
:1031400020005EF7F1FC022302003100094857F726
:10315000D3FD64190570E37C437057F7E8FD002048
:10316000E3E76219D37CB343E3E7C0460031005084
:1031700002330050081B0000F0B51B2085B00C0086
:103180001F0002925EF7BAFC061E06D1C822444B0D
:103190001A80444BC03A1A80FEE72188FDF72EFDC5
:1031A000A3888D25022B5CD103383D0A082800D95D
:1031B00071E001F04DFC4C70707070627005690038
:1031C000E379A2791B0213430193F389019A934295
:1031D00002D8338A934202D2019B002B5DD1029820
:1031E00057F7D0FF0227039000282DD12900300087
:1031F0005EF7A2FC029A010004232B4857F77CFDDE
:10320000019B0570438057F792FD01210A2057F773
:1032100065FC0A220399706001F0D8FB0A21300096
:10322000FDF7D0FC7468029B6080A380FC235B42A6
:103230002380019B012123721B0A0298E571A7716B
:10324000637257F78AFF0027380005B0F0BDE379B5
:10325000A2791B021343012102222800FFF74EFF2F
:10326000050004233900029A104857F745FD2388CA
:103270008570038057F75BFDE5E7E379A2791B02D0
:10328000134302210122E8E7E379A2791B021343E9
:1032900004210222E1E70625E3E78025E1E7C046B5
:1032A0000031005002330050061B0000160C0000D5
:1032B000F0B5002585B00091019302ABD91D9D7139
:1032C000009B1400188802AB9A1D0D70FEF7A6FD36
:1032D000070024205EF712FC0600A84206D1C8228F
:1032E000284B1A80284BC03A1A80FEE7002F08D1DD
:1032F00002AB9B79022B23D0032B23D0042B23D0AA
:1033000080372200AB1D0199204857F7F5FC009B40
:1033100004001B88077103804580002F0AD102AB8F
:1033200006331B78022B11D102AB07331B78F3183D
:103330009B7E4371200057F7FAFC002005B0F0BDDA
:103340000125DEE70225DCE70725DAE7032B0CD1B0
:10335000019B02AA1B0AF31807325B7F1278877160
:103360001341012213404371E4E7042BE2D102AB85
:1033700007331B780530DB00191D71185EF756FC0A
:10338000D8E7C0460031005002330050140C000052
:10339000F0B589B00592012204930E9B05001E88AA
:1033A0000F00002394460324310060461941014276
:1033B00004D0200059000131884002430133092B19
:1033C000F2D10792049A15331340802213430393DA
:1033D0001B4B38000293AB8A1A490193002307AABA
:1033E000009313334CF79EFA061E25D101212020AD
:1033F00057F774FB04003100202201F0E7FA3B8804
:103400002C6123830E9B059A1B88201D6383049BDC
:10341000DB031A432280AB8A63801423EB82133BC5
:10342000EB8123001E33AB60074B6B603FF72EFB35
:103430003100A88A57F791FE300009B0F0BDC046B0
:10344000284DFC070A1800000C4EFC0770B504005C
:1034500005696B68002B04D12800236157F7B9FB7D
:1034600070BD281D3FF71AFB57F7B3FBF1E70000CB
:10347000F7B514200C00009201935EF73FFB051E88
:1034800006D1C8222C4B1A802C4BC03A1A80FEE77A
:1034900027788126082F3BD83900FDF773FB0136CA
:1034A000002835D063780B36802B31D8072F2CD0ED
:1034B000082F3AD0062F01D1082B29D16E68002E93
:1034C0000AD03379BB4234D100223100281D3FF7A6
:1034D00055FB300057F77DFB60780121083057F726
:1034E000FDFA060062780021083201F06FFA2378B5
:1034F000B01D33716278A11C727101F093FA310032
:10350000281D3FF7E7FA002602E08D26052BD5D8C7
:10351000009A019902230A4857F7EEFB2378467078
:10352000037057F704FC0020FEBD8D26072BEFD15A
:10353000C4E73668C3E7C04600310050023300508C
:1035400001140000F0B5100087B00F0016000093C2
:1035500057F718FE022400281FD11B305EF7CEFA61
:10356000051E06D1C8223A4B1A803A4BC03A1A803F
:10357000FEE73B7C002B13D143891A0022400192C5
:1035800023420DD1012332000099334857F7B4FB91
:103590008C23037057F7CBFB0024200007B0F0BD4D
:1035A0000121152057F79AFA15220021686001F0D1
:1035B0000DFA00236C686370009BA380FF23E37106
:1035C0003B7C002B3CD0012323702889023080B241
:1035D000230002AD083300932A003B00608083CBB8
:1035E00083C21B6805271360029ADBB2110A62725C
:1035F000A172110C120E2372E17222739B0706D581
:10360000200003A90D305EF720FBC019C7B22B7B49
:103610005B0704D56B7B009AD3550137FFB20C2FA3
:1036200006D80D22009B0021D21BD81901F0CEF93B
:1036300001213000A77157F790FDFFF71FF9ABE7A5
:103640000223072128002370FDF7BCFAC0E7C0461B
:103650000031005002330050031B00001FB500244E
:10366000164B1C70164B1B78FF2B25D0154B1B7867
:10367000A34221D0144B154A68461A60144B00939C
:10368000144B0193144B0293144B03935DF7CAF848
:10369000134B144A9C679A660722DA661A00543262
:1036A0009483114ADC675A67104A04331288104A1F
:1036B000DA6754220F4B1A861FBDC046F863FC0719
:1036C0001053FC070064FC071464FC07E517FC07B3
:1036D00048004F00080017000100010038000101F8
:1036E000A8CBFC071864FC07A137FC075413005053
:1036F000E109FC07001300501FB5134B134A68463D
:103700001A60134B0093134B0193134B0293134B0B
:1037100003935DF787F8124B124A19009A6601224B
:10372000DA66002254319A67DA678A830E490F4AB3
:1037300059671100543109880D490433D96754235E
:10374000138605B000BDC0462C64FC07A117FC071A
:1037500048004F0008001700010001003800010177
:10376000A8CBFC072864FC076138FC070013005055
:10377000E109FC07002210B5064B1A70064B1B78B6
:10378000FF2B05D0054B1B78934201D0FFF7B4FF08
:1037900010BDC0463064FC071053FC070064FC07F2
:1037A000F8B515000C005DF7A3F8002D22D0072C0A
:1037B00020D1244803787F2B1CD80021FF22082623
:1037C0003125435C5A40330057B25400E2B2002F17
:1037D00001DA6C40E2B2013BDBB2002BF4D10131E3
:1037E0000629EED1184B81791B68914202D1002B3A
:1037F00009D1F8BD144B1B68002BFAD00022110030
:1038000010009847F5E7C17884780A092401144329
:1038100042780904120314430C4A05796243F024E8
:1038200024030C4041790A480902294349BA89B264
:103830000C430849120D6143C90B091809B2012054
:10384000DFE7C0461864FC071464FC07102700007B
:1038500078ECFFFF7102000010B55DF749F810BD6C
:1038600010B5002A01D0012908D05DF741F8104BAE
:103870001B68002B01D00020984710BD0D4B08227B
:1038800019780D4B08001040114208D1BE21197063
:103890000A495A7098700320FDF77CFAEDE7AC22D4
:1038A0001A70793A5A70002205499A70F3E7C046B7
:1038B0002C64FC072864FC070C64FC07C538FC0773
:1038C000DD38FC0710B55DF713F8034B1B68002BC0
:1038D00001D00020984710BD2C64FC0770B50C0087
:1038E00015005DF705F8064B1B68002B06D000207D
:1038F000854202D0033C60426041984770BDC0469B
:103900002C64FC07002330B53F4C85B023703F4B3F
:103910001B78FF2B6ED03E4B1B78002B6AD03D4BA3
:103920003D491868FDF788FE3C4D20702878042832
:1039300062D933235B424343DBB2332B5CD80A2189
:1039400059F7BCFCCCB2002C3DD1C0212200012390
:10395000072089005CF720F82300220021000620C0
:103960005CF71AF8093406205CF734F800280ED109
:1039700007305CF701F805205BF7F8FE07205CF7DD
:1039800003F8013C05205BF7F1FE002CEBD100238E
:10399000C0211A00890006205BF7FEFF05205BF7B7
:1039A000E5FE06205BF7F0FF05205BF7DFFE002356
:1039B0000922190007205BF7EFFF00230A221900F4
:1039C00006205BF7E9FF164B68460093154B019301
:1039D000154B0293154B03935CF724FFBA22144B4B
:1039E00001201A701349FDF7D5F92B78FF2B01D070
:1039F00001332B7005B030BD00220F4B1A700F4BF6
:103A00001A70FFF779FEF5E73464FC071053FC07E2
:103A10000064FC071853FC070539FC070F64FC071A
:103A200048004F00080017000100010038000101A4
:103A30000C64FC075938FC072064FC071F64FC0772
:103A4000164970B58B88002B1DD1154A14002834F7
:103A500098000559002D11D1121812489062124A8F
:103A60009B189BB28B808021104B114A09019A65EB
:103A70000800282301225CF735F970BD0133052BBE
:103A8000E6D10C4BEEE70C4A9B18042BEBD8044A0A
:103A90009B00D218034B9362E5E7C04628CDFC0794
:103AA00028CBFC070920FC070E040000A8CCFC076B
:103AB000B93CFC07FFFF0000F2FBFFFF70B5442894
:103AC00000D074E0FEF71EFBFFF7BAFF08223E4B62
:103AD0001A8072B6042180243C4803880B4303807B
:103AE0003B4B1A88A2431A8040221C8822431A802A
:103AF000384B394A1980138838490B40138001210B
:103B0000C023374A5B004942D150713B3549FF3BE6
:103B10000A881A42FCD1344A3449138804250B40E0
:103B20001380012232490C260B88324C93430B80C0
:103B300031490B692B430B61032123888B431343CA
:103B400023802388B3431D432580038813430380C8
:103B50002A480388934313430380F020284B8001B5
:103B60001C882043188080201C88C00120431880B6
:103B7000244804882448240A144219D004885F3257
:103B80009443403A224302804022188802431A801C
:103B90001A880A431A80082219880A4304211A80C5
:103BA0001A888A431A80C046C046C04630BF70BDDE
:103BB000164C25882A43228060240288A243028072
:103BC0001A8811431980E6E70033005010000050B6
:103BD000080000500002005004000050FFF7FFFFF3
:103BE00000E100E014000050120000507FFEFFFFD3
:103BF000100300501800005000ED00E00C030050CE
:103C0000200300502A00005052000050560000507F
:103C10000122224B10B51A80214B22499A791B2090
:103C200000245BF753FE80211F4B22000B201C60F9
:103C3000490023005BF7B0FEC021230022000920C9
:103C400089005BF7A9FE23000922210007205BF70A
:103C5000A3FE23000A22210006205BF79DFEFFF74A
:103C6000EFFE124B1A0065321278A24208D01A00F9
:103C70006A331B7867321078012B0CD15BF784FE16
:103C800008220B4B0B4948331A7001230A889A43C8
:103C900013430B8010BD5BF76FFEF1E7000300508C
:103CA00028CDFC073264FC070000084028CCFC0744
:103CB000A8CBFC070C03005010B5FFF7A9FF0D4C73
:103CC000E379002B0DD00C4B61331B78002B04D112
:103CD00001220A4B1A700A4BDA70FDF79DF8002397
:103CE000E371A088002803D00022042157F735F89B
:103CF00010BDC04628CDFC07A8CCFC0778FAFC070D
:103D000018FAFC07C822034B1A80034BC03A1A80EA
:103D1000FEE7C046003100500233005004230B4A36
:103D200011880B4313804023094A11880B431380E9
:103D3000C0230121074A5B00D150074A0749138875
:103D40000B4004310B4313807047C04610000050F5
:103D50000800005000E100E012000050FC7F00006D
:103D6000C823F0B50026E64AE64D1380E64BE74A45
:103D70001E80082313802B8899B006AA9BB253801B
:103D80005088941C80B200E000BF04222388934333
:103D9000B34200D08EE30121DD4A13888B431380A8
:103DA00008249620DB4F40003B88DB4E23433B80BA
:103DB0005BF7DCFC8023D94A11880B43F021138088
:103DC000D74B890118880143198006213088884320
:103DD000308080201D88C001284318803888D14D4C
:103DE00028400E2538801088A84301431180CE4911
:103DF0000988C90500D45FE33188CC4A114080228C
:103E0000D2000A4380213280328809021205120D45
:103E10000A43042132801A8822431A801A888A436E
:103E20001A80328803398A433280402219880A4333
:103E30001A8003241A88012522431A80602302264F
:103E4000B449BB4F0A88B81D9A43403B13430B80CB
:103E5000B84BB94A019360331D701388B749334397
:103E600013800422B64B1A80B64A13880B40138085
:103E70008021C023B44A5B004902D150B34B1900E2
:103E800002935CF753FE30005CF718FEB04B1A68E3
:103E90002300D2B2AA2A00D02B00A0220C21D205E6
:103EA00014889B008C431C43148000E000BF380042
:103EB0000622A849083000F0B5FD012000E000BF4F
:103EC00000239C46624608AD2900A34BA34C1A80F0
:103ED000A34B03933C3345CB45C145CB45C145CBB3
:103EE00045C12B00624620009E495BF7BFFA9A4B02
:103EF000994A1B785B0813702200893213785B089B
:103F00001370230084331A88002A02D1FA22920007
:103F10001A80220086321388002B0BD1FF218C4B94
:103F200009021B680B40D42189018B4200D0EBE2CF
:103F300090231380019B86342088663318805BF7BA
:103F40007FF97F23BB73884BB81D1A68874B029992
:103F50001A605CF797FE864B864F1A680023BA42B8
:103F600009D0854C854A86495818006819190433C8
:103F700008609342F7D1834E00213000824A00F05E
:103F800025FDE0220021D200804800F01FFD00F056
:103F9000FDFC7F4B7F4A80491A608048302200F048
:103FA00041FD00243F227E4B03991A705C709C7087
:103FB000DC701C715C719C71DC7128006031013215
:103FC00000F030FD29004022764800F02BFDFF2252
:103FD000754B01211A705A709A70DA701A71FC3A96
:103FE0005A719C71DC71714B714A1C70714B1A6073
:103FF000714B724A1A60724B724A1A600A22724BF3
:104000001A70724B053A1C70714B1A60714B196033
:10401000714B1A60714B52181A60714B52181A602A
:10402000704B52181A60704BFE321A606F4D704B15
:104030002E601A60FFF7ECFD5BF730F85BF774F861
:104040006C493A4B0A881A40E0231B0113430B804A
:104050005BF786F8464E3368BB4233D02A68664B1E
:1040600066491A60414B1B681A0A0B704A701A0C99
:104070001B0ECB70404B8A705A000392C022FF3255
:1040800094461A78039802926246D21A125C0298F9
:104090000134424003200492029A0240885C049A50
:1040A00042401A70E022013352009442E9D1544C4C
:1040B000A53A3149FF3A20005BF7F6FE20005BF796
:1040C00033F9376028683EF7C5F8002380224D4C4D
:1040D000D20523711168E3700133FF330B43136082
:1040E000FCF77CFE0120FEF7C9F8019B61331B78C9
:1040F000002B00D08AE0444AE370137086E0C0468B
:1041000000310050040300500231005002330050CF
:104110001003005052000050800000505400005026
:1041200020030050FFBFFFFF2A000050FFF0FFFFF9
:1041300028CDFC07A8CCFC0738000050FFF7FFFF94
:10414000000200500400005000E100E03264FC076F
:10415000D02FF807D42FF8072CCEFC07A4CDFC07EE
:10416000CC4AFC07A000FC07E82FF8070464FC0712
:10417000D863FC076587341230CEFC07040A0000C0
:1041800000F0FC0700E0FC07AC14000000F9FC079D
:1041900024FAFC07304FFC075CDEF107C8F9FC0786
:1041A000A4F9FC073CFCFC07ACF9FC07C5F9FC07CB
:1041B000E036F20750F9FC0754F9FC07C050FC0741
:1041C00058F9FC07B84FFC07A1F9FC07A2F9FC0756
:1041D0005CF9FC0760F9FC0764F9FC0768F9FC0767
:1041E0006CF9FC0770F9FC0748F9FC074CF9FC076F
:1041F00044F9FC072600005008020040FC63FC075D
:104200003864FC0718FAFC0778FAFC07D44F0C2234
:104210003E0070360021300000F0D8FB0822002557
:10422000D048D1498270033000F0FCFBCF4BD0491D
:1042300004205D8456F75FFFFF232900B37004203C
:1042400056F78BFFFCF7E2FD3B00643318705EF716
:1042500087FD019B61331B78AB4203D10122C54B23
:10426000E2701A70FF22C44BFA211A700023C34A6D
:1042700049001370C24A1370C24A1370C24A1370C5
:10428000C24A1370C24A1370C24A1370C24A116004
:10429000C24A1370C24A1380C24A1370C24A1370D2
:1042A000C24A1370FEF74AF8C823C14A1380C14AB4
:1042B000C03B1380C04BC14A9B189B08013B059330
:1042C000FCF746F8002800D18BE057F7F2F9002000
:1042D000FDF7D4FFBA4B6C331C78042C00D080E07F
:1042E0000120FDF7CBFF0023210007A8079348F723
:1042F0002FF8002800D174E00122B24B1A601A682E
:10430000002AFCD1B04BB14D1B6829698B4200D209
:104310002A61C8212A6909019A1A8A4261D30024B4
:104320002B61AB4B08A81B88AA4F9BB20193AA4BE9
:10433000AA4E1B889BB20293A94B1B889BB2039386
:10434000A84B1B8809949BB20493A74B0893FEF7D4
:1043500079F980223B8892009B059B0DAB823388C4
:104360009B059B0DEB823B889B0A9B0213433B8082
:1043700033889B0A9B021A4332805CF779FE9B4B81
:1043800002001988FA23401A9B004343A34200DC31
:10439000C2E0974A9818974958F7A6FF3B888B4D7B
:1043A0009B0AA98A9B020B433B803388E98A9B0ABC
:1043B0009B020B4333800E238411EB561934E2B277
:1043C00064B27F2B00D0ADE0AC73029A824B1A80AE
:1043D000039A834B1A80049A824B1A807C4B019A71
:1043E0001A8072B60023844E07AC32682370926A3A
:1043F0000892764A0192D2799A4203D17F4A127981
:10440000022A00D108937E4D210028007D4A5CF7E6
:10441000C7FE002800D058E1019BDB79002B06D1B4
:10442000794B9B6A002B02D033689B6A0893FDF797
:1044300045FF280008A95CF7E9FE002800D044E108
:1044400001305BF7B9F9089B002B07D06F4A12685F
:10445000393AFF3ADA2A01D8013B08936C4B584E9F
:104460001868330062331B886A496B4A1B180B605B
:1044700013686A4D9B0A9B020343136010682B6804
:10448000674F9B0238400343136010680B68C102FA
:104490005B05C90A0B431360042308982370614B22
:1044A000984200D8D2E0C823414A1380414AC03B19
:1044B0001380FEE72E8073E45B4D5C49288808403A
:1044C000C021C9000143F02029802988000201434E
:1044D00029801988A143198004211888544C8843E5
:1044E0001880108820401080148852480440C02052
:1044F0004001204310800122288802432A804E4A2E
:1045000012880A42FBD094E44C495B184C490B4298
:1045100000D00FE594230CE520008A4200D13AE751
:10452000484A37E7DBB2D11A48B2090601D59B1ACF
:1045300058B2072800DC48E7AB690133AB615DF78F
:1045400049F8FDF725FFFBF7F7FF5DF781F85DF709
:1045500007F83D485DF7AEF85DF752F834E7C0461E
:1045600028CCFC0728CBFC07824AFC072ACBFC0797
:10457000A44BFC0778FAFC071053FC070064FC0707
:104580003464FC07F863FC073164FC070164FC0732
:104590003064FC073564FC071853FC071064FC0703
:1045A0001264FC072064FC071F64FC070F64FC070F
:1045B00000310050023300502453FC07030004F87C
:1045C000A8CCFC07FC0000401C00004028CDFC07E4
:1045D0000015005008150050021500500A15005033
:1045E000041500500615005001040000FA63FC0792
:1045F0007E040000FC08000058F9FC0718FAFC07CC
:104600000864FC07ED20FC0700FEFC0720000040CA
:104610004C64FC074864FC073C0000405064FC0705
:10462000FF03E0FF3F420F0080000050FFF0FFFF5C
:10463000FFF9FFFFFFC7FFFF2A00005000CDFFFF7B
:10464000FFFEFFFF82FBFFFF70E0FC07694F0021C8
:104650003A6C7B6C58F75CFE2B680903000D08432D
:1046600001385A1C904200D11800634B19794B1E37
:104670009941C9B245F7A0F8604BDB6A984780239F
:104680005F491B020A681A42FCD080235D4D5B0023
:104690002A681A42FCD080222B6893435A4A2B6026
:1046A00011888BB2452903D84621CB1AFB641180AF
:1046B0003DF70BFE8021554B1B68B3662B680B4200
:1046C000FCD0534A13888B4313802378042B05D1E5
:1046D000504B1B78013B5A1E934102339A1E012A0C
:1046E00000D983E0042201264B484C4D01884C4CF4
:1046F0001143018029694B48114329610188B14365
:104700000180022B42D123880C3293432380002264
:10471000454B1A80454B1B88DB0509D40123444ACD
:1047200011880B431380602242490B8893430B800E
:104730000124414A0D201388A34313805BF716F828
:1047400003213E4A13888B431C433D4B14801A8837
:10475000D20602D53B4A0531118030BF1B88DB06EB
:1047600002D50823384A1380602332490A889A43C5
:10477000403B13430B80FFF74BFA04222B69934312
:104780002B6162B6C823314A138099E523883049EA
:1047900093432380019B981D5CF7C8F9102322885E
:1047A00013432380059A2B4B1A60EFF3108286F394
:1047B0001088A0218020C9050B8883430B80002A24
:1047C00011D182F31088194B1B88DB059FD500237C
:1047D000019A0B2093715BF721F801231E490A8887
:1047E00013430B8093E786F31088ECE7012BC8D1C5
:1047F00030BFC6E7A8CBFC0718FAFC07E4FEFC07AD
:1048000030000040000200400A330050080200401F
:104810000800005078FAFC071000005000ED00E09E
:10482000120000500C030050180000502A000050E5
:104830005600005052000050240000500A00005062
:10484000140000500033005002330050003100507B
:104850003264FC072000F40780000050F0B50546E4
:10486000007985B007073F0F28463EF7F6F802901B
:1048700028794006C00F039028463EF7EEF84448DA
:10488000806A8079012825D001264148403000798E
:10489000800775D5002E73D000222B2311463D488A
:1048A00056F72AFA0227077001263B49467004464C
:1048B000C969A87988472A21085528790021000765
:1048C000000FA070030058F7C7FD0737393B423F80
:1048D000423D4200029801902D481430009000267D
:1048E00004680BE0611D01983EF7CDF9002804D063
:1048F0002079B84201D101261BE02468002CF1D1B7
:1049000000983EF7B6F925490978884202D1244833
:1049100006780EE000210C2056F7E0F80446062247
:10492000401D019958F744FD2771214600983EF734
:10493000D1F801204640A8E7A1700AE0A67021E066
:10494000032002E0A77004E00420A07001E0012829
:1049500018D0A888000A801FA07228463EF77DF86C
:10496000811D2046A27A0B3058F722FD0622201D19
:10497000029958F71DFD0398E070204649F73EFA6A
:1049800005B0F0BDA172F1E77047704770470000B5
:1049900074FBFC0704080000E4FEFC07A1F9FC0717
:1049A000A2F9FC07074B10B50400002B02D0002130
:1049B00000E000BF044B1B68002B00D0984720008C
:1049C00000F03AF8000000005864FC070300821869
:1049D000934200D1704719700133F9E770B5002692
:1049E0000C4C0D4D641BA410A64209D1002600F00A
:1049F00039F80A4C0A4D641BA410A64205D170BDBB
:104A0000B300EB5898470136EEE7B300EB589847F0
:104A10000136F2E71C53FC071C53FC072053FC072C
:104A20001C53FC07002310B59A4200D110BDCC5C8A
:104A3000C4540133F8E70000FEE7C04602B47146F3
:104A400049084900095649008E4402BC7047C046D7
:104A500002B4714649084900095C49008E4402BC11
:104A60007047C046F8B5C046F8BC08BC9E467047C3
:104A7000F8B5C046F8BC08BC9E467047E60303097B
:104A80001800444C475F5448524D0052656E6573A0
:104A90006173004441313435333500312E302E30CE
:104AA0002E302D4C4500765F362E302E32342E318E
:104AB00034363400312E312E3000123456FFFE9A37
:104AC000BCDE00FFEEDDCCBBAA000000000102034B
:104AD0000405060708090A0B0C0D0E0F0BFF00D288
:104AE000444C472D5448524D000000005BB0050275
:104AF000000000003200000001060200000000017A
:104B000001050200000300015D04FC070513FC071A
:104B10003113FC07000000007904FC071504FC07B2
:104B200000000000D02EF807C02FF80720008000FA
:104B300000C0000000000400000028220000000067
:104B40000000040000F7FFFF7F00000030F00708BE
:104B50000000000000040000000000000000000051
:104B600000000000000000000000000001D20080F2
:104B70000500010007070A070D05080607000000E9
:104B80008B4AFC07934AFC079B4AFC07934AFC07A5
:104B9000A64AFC07B44AFC07BA4AFC07C34AFC070A
:104BA0006C4BFC0700000000983BF207A0CDFC070F
:104BB0000400010001240000D902FC0703240000C6
:104BC000DD02FC0704240000E102FC0713040000DE
:104BD0000511FC07140400008911FC0702140000F1
:104BE0005D12FC07011B00004703FC07031B0000CC
:104BF0004B03FC07061B00007D1BFC07081B000085
:104C0000F91AFC07FD31F2070518FC071503FC072C
:104C10003D12FC07FD11FC07D111FC071D12FC071A
:104C2000F8000000130E00005915FC07150E0000D7
:104C3000051FFC07170E00008503FC07190E000076
:104C40008903FC07150D0000A103FC0700280000E4
:104C50000100000000000000032800000100000027
:104C600000000000192A0000010000000080000080
:104C70000229000009800200000000000429000051
:104C80000100000000800000904CFC0706000000BE
:104C900000240000492EFC0702240000E12BFC0741
:104CA000170C0000B11EFC07150C00003D2FFC077F
:104CB000130C0000B132FC07000C00005128FC0767
:104CC0007129FC074B27FC07290BFC074D0BFC0740
:104CD00080000000BD25FC0702000000E125FC0764
:104CE00008000000E925FC07000100000526FC077C
:104CF0000002000075C1F007400000003794F00783
:104D000010000000C97BF007040000009125FC079B
:104D100001000000C925FC07200000006908FC070D
:104D2000000000000000000000280000010000005A
:104D30000000000003280000010000000200000045
:104D4000292A0000010000008080000003280000E4
:104D50000100000004000000242A000001000000FF
:104D60008080000003280000010000000600000011
:104D7000252A0000010000008080000003280000B8
:104D80000100000008000000272A000001000000C8
:104D90008080000003280000010000000A000000DD
:104DA000262A000001000000808000000328000087
:104DB000010000000C000000282A00000100000093
:104DC0008080000003280000010000000E000000A9
:104DD000232A0000010000000880000003280000D2
:104DE00001000000100000002A2A0000010000005D
:104DF00008800000032800000100000012000000ED
:104E0000502A00000100000007800000144EFC073B
:104E100003000000001400007134FC07130C0000B4
:104E20000930FC0703140000612CFC079133FC07D8
:104E30004D34FC07790BFC077B0BFC0700280000B6
:104E40000100000000000000032800000100000035
:104E5000000000001C2A000040000000008000004C
:104E600002290000090002000000000003280000E1
:104E700001000000000000001D2A000001000000E9
:104E80000080000003280000010000000000000076
:104E90001E2A00000002000000800000022900001D
:104EA00009000200000000000328000001000000CB
:104EB00000000000212A0000010000000280000024
:104EC000022900000900020000000000062900007D
:104ED0000100000000800000E04EFC070800000018
:104EE000001B0000D92EFC07170C00004D1CFC070E
:104EF000150C00007931FC07130C0000C51CFC07E1
:104F0000000C00006529FC07021B00004535FC076A
:104F1000041B0000FD2CFC07071B0000C12DFC0733
:104F2000C92AFC076128FC07B30BFC075514FC07D2
:104F30000000000000000000F4011000F4352348D8
:104F4000F40108C4140A000024000000DD0FFC076F
:104F5000A110FC07140000002910FC07000000004D
:104F60001B0000006110FC071D1BFC07FF00000078
:104F700000000000000000001B000000BD0BFC074B
:104F8000140000007D0BFC0724000000710BFC07DF
:104F9000FF00000000000000D90EFC076D02FC07B6
:104FA0005452FC07F111FC07044CFC0798CCFC0799
:104FB00064CBFC0744CDFC0705000000505AFC07F9
:104FC000000400009457FC07B00200008853FC075F
:104FD000000400005C5EFC07700500002003000078
:104FE00000A60E0004000000D20000003200000005
:104FF0003C00000001000000010000000200000071
:105000000200000004000000030000000600000091
:10501000000000000200000002000000000000008C
:105020000000000003000000030000000500000075
:1050300005000000060000000A0000000A00000051
:10504000C8000000B80B000002000000B80B000010
:10505000B80B000010000000D4010000CC010000DB
:10506000700200006A00000004000000010000005F
:10507000200000000C00000001000000E20400001D
:105080008A020000DC050000AF0000004052FC076F
:10509000B050FC07000000004852FC07984FFC0786
:1050A0000000000000000000000000005E010000A1
:1050B0003053FC072853FC074053FC078053FC0780
:1050C000C123FC079D24FC07A7C6F00703C7F00710
:1050D0000BC7F0075FC7F00777C7F0078DC7F0076A
:1050E000AFC7F00731CBF007D5CDF00715CCF007EF
:1050F00035CCF00755CCF00793CCF007A3CCF007E4
:105100000DE2F007C9DFF007E7DFF00703E0F00783
:105110001DE0F00731E0F007AFE0F007C7E0F0076F
:10512000E3B0F1076BB3F10707A9F007B5EFF1079B
:1051300099F0F10795F0F10791F0F1078D21F00753
:10514000FD03FC071108FC073D23FC07CD03FC070A
:10515000ED03FC07057DF007D37BF007737CF007B8
:10516000AD82F1074134F1075D19F207DD19F2074D
:10517000811AF207BD1AF2074D1BF207851BF207D1
:1051800000000000F703FC07F903FC077DB3F007FC
:10519000D976F107617DF107B181F1079780F107B9
:1051A000C549F1079759F107F10AF107A1ECF0079A
:1051B000F503FC075D48FC07DDBAF00725AAF007F8
:1051C00099AAF00749ABF007E72DF007A32EF007E7
:1051D000657FF0072F7EF0070136F0070000000022
:1051E0005D23FC076D22FC079F14FC0701A7F10754
:1051F00083A7F10707A8F1076113FC07B5B7F0070C
:10520000000000000000000000000000000000009E
:10521000000000000000000000000000000000008E
:10522000000000000000000000000000000000007E
:10523000000000000000000000000000000000006E
:10524000384FFC0730CDFC07784FFC0758CDFC07E2
:10525000030000008521FC073122FC07000000004C
:1052600000000000491AFC0700000000BD3AFC07DE
:10527000000000005921FC070000000000000000B1
:1052800000000000B912FC07E902FC07F502FC0768
:10529000D112FC07000000000703FC076D14FC0797
:1052A000000000000000000000000000D50FFC0717
:1052B0001114FC070000000000000000B914FC07F6
:1052C00000000000000000000000000000000000DE
:1052D0000000000000000000FF00000000000000CF
:0B52E0000000000003000010000100AF
:0852EC00BCAEFF7F01000000D1
:0C52F4001053FC071053FC0714000000CE
:10530000DC63FC078000000028CBFC0708030000DA
:10531000FF000000E0010000F40100008501FC072F
:045320005901FC072C
:105328000000000000000000000000000000000075
:105338000000000000000000000000000000000065
:105348000000000000000000000000000000000055
:105358000000000000000000000000000000000045
:0463D80000000000C1
:0400000507FC0E4D99
:00000001FF
