:0200000407FCF7
:10000000C46BFC073123FC075903FC073903FC07C9
:100010003503FC073503FC073503FC073503FC07F4
:100020000000000000000000000000003503FC0795
:1000300000000000000000003503FC073503FC074A
:100040009D23FC079524FC07A526F007010AFC0761
:10005000E902FC073503FC07A102FC073503FC0796
:100060003503FC073503FC071920FC072320FC0798
:100070002D20FC073720FC074120FC073503FC0737
:100080006922FC073503FC073503FC073503FC0731
:100090003503FC073503FC073503FC073503FC0774
:1000A0000000000090070E000000000000000000AB
:1000B0000000000000000000000000000000000040
:1000C0000000000000000000000000000000000030
:1000D0000000000000000000000000000000000020
:1000E0000000000000000000000000000000000010
:1000F0000000000000000000000000000000000000
:1001000000000000000000000000000000000000EF
:100110000448054B10B5834203D0044B002B00D09C
:10012000984710BDB053FC07B053FC070000000017
:1001300006480749091A8B10C90FC91810B549108C
:1001400003D0044B002B00D0984710BDB053FC07E0
:10015000B053FC070000000010B5074C2378002BBB
:1001600009D1FFF7D5FF054B002B02D0044800E072
:1001700000BF0123237010BD6464FC070000000071
:100180008053FC07054B10B5002B03D004490548EC
:1001900000E000BFFFF7CCFF10BDC046000000002C
:1001A0006864FC078053FC07402292029A1A924628
:1001B0007047C046174B002B00D1134B9D46FFF7ED
:1001C000F3FF00218B460F461348144A121A04F01D
:1001D000A9FB0E4B002B00D098470D4B002B00D0F5
:1001E00098470020002104000D000D48002802D08F
:1001F0000C4800E000BF04F09DFB2000290003F044
:100200004BFC04F07BFBC04600000800000000002F
:1002100000000000C46BFC076464FC07C464FC07B6
:1002200000000000000000000369022900D900BEA0
:1002300000225B185A7770470369022900D900BE73
:1002400000225B185A777047004870477C4DFC07C6
:100250007047704700487047E84EFC0730B50022F1
:100260000124038B408B01339BB2050015412542CD
:1002700006D08A4202D1013398B230BD02339BB21C
:100280000132092AF1D10020F7E7002203695B1847
:100290009A73704700487047C04FFC0770470000D2
:1002A0000122044B10B51A80034B1B68002B00D0B1
:1002B000984710BD0E15005028CBFC07FA2203000A
:1002C00010B50020D200934209D3054A643093420E
:1002D00005D8044A0A2198185DF706F8C0B210BD87
:1002E000B80B000030F8FFFF10B5074B988D074B97
:1002F00080B21B6B002B01D0984710BDC02310218A
:10030000034A5B00D150F8E70013005028CBFC07EC
:1003100000E100E02021054A13888B431380044B41
:1003200034331B781B075B0F938470470012005017
:1003300028CBFC07FEE7000004207146084203D0EA
:10034000EFF3098003490847EFF3088001490847A4
:10035000704700003138FC0704207146084203D082
:10036000EFF3098003490847EFF308800149084784
:10037000704700004939FC070020704770470000B3
:1003800010B5031CE6280CD9084B1B78EC20FA2189
:10039000DBB2FF30584389005CF7A6FF7E38C0B25D
:1003A00010BDC2B2282AF1D22823EFE7244AFC0765
:1003B000704770474B1E012B00D900BE431EDBB2B5
:1003C000FD2B04D800BE0C20022902D17047FF2863
:1003D000F9D1024B44331878F8E7C04628CBFC0724
:1003E0007149724B0A6870B51A40B0231B01134360
:1003F0000B606F496F4B0A68FF2492B213436E4A39
:100400000B6013686D496E4D0B40C02113606D4A3F
:10041000890013686C4E0B43136010236B4A1088DD
:100420000343138001236A4802881A430280694A01
:1004300069481060694A108803436948138002883C
:10044000684B1A40BC239B00134303806648674AED
:1004500003685B0D5B05134303606548654B0268E9
:100460001A4090235B01134303606348634B0268A7
:100470001A40634B134303606248634B02681A409F
:10048000624B134303606248624B02681A40624B3E
:10049000134303606148624B02681A40614B134387
:1004A0000360614B614844331A78C12312065B0133
:1004B00013435F4A1360A0225E4B52011A805E4BC9
:1004C0005E4A1A8034230288A243134303805523D3
:1004D0005B480288A24313438D220380594B92004C
:1004E0001A80594B594A5A481A805A4B5A4A6C2416
:1004F0001A805A4B5A4AFF341A805A4B5A4A1A8069
:100500005A4B5B4A1A8002685A4B1A405A4B1343A3
:100510000360B020594B80001C802A88584B1A4039
:1005200002432A809022358892001D402A4332805F
:10053000A822544E920035881D402A43524D3280E5
:100540002A881A4010432880C620504A4000108054
:100550004F4802881340194301801F2017234D493B
:100560000A88824313430B8019234B490A8882432C
:1005700013430B80494B4A491C800A88494B1A4057
:1005800080239B0113430B80072347490A689A4342
:10059000043B13430B604549454B0A681A40454BE1
:1005A00013430B6070BDC04634300040FF80FFFF36
:1005B000203000400000666638300040FF00FEFF3B
:1005C0003812004050300040441200405C3000407F
:1005D000243000408000004059055C074010004076
:1005E000202000400FFCFFFF1820004009581A008F
:1005F0001C200040FEE1FFFF04200040E0E000007E
:10060000080929490820004000000303696A686C52
:100610000C200040031FFFFF70600000102000400E
:10062000E0E0E0E00B0A0A0828CBFC07401300409A
:1006300000100040281300402C1300400514000057
:10064000481300405013004054130040340A000087
:100650003C200040581300404E0800005C1300404E
:10066000260A000060130040580800002C200040BB
:100670000A1400002304E0FE181A060100120040CC
:100680001FFCFFFF481200404C12004004120040C3
:1006900088120040981200409C120040A8120040AE
:1006A0003C100040FF9FFFFF80100040641000409E
:1006B00000FE00FE5001500100BE7047094B0122B0
:1006C0001B88DB0918001040134208D0064B00209D
:1006D0001B681B0403D4054B1B889A43100001239D
:1006E00018407047080000503000004018FAFC071E
:1006F000084B10B5DA6C80231B02984207D3002305
:1007000019005CF705FE8905800A084310BD5043B7
:10071000800AFBE728CBFC0710B5FFF7E9FF10BD07
:100720000F4B10B51868FFF7E3FF00220D4B0E4981
:100730009C6D9A65041920005CF7C0FD0B4B0A49BB
:10074000186020005CF7BAFD002901D0064B591A49
:10075000074B084A1960082113680B43136010BD4A
:100760003800004028CBFC07710200004400004024
:100770004000004030000040044B10B59B6C044921
:100780005843044BC0185CF799FD10BD28CBFC07FB
:1007900040420F0020A107007047704770470000DB
:1007A000064B984200D000BE0321054A13888B43B4
:1007B000802109020B4313807047C04611111111AB
:1007C00012000050F0B51E2805D10E4B4908D21872
:1007D000CBB2002B00D1F0BD0B48002106001468FD
:1007E00055680832076BBC4206D10631C900711842
:1007F0004D60013BDBB2ECE7013108300629F1D155
:10080000F7E7C046D42EF80730D0FC07044B890028
:10081000D2188918034B0A687C331A807047C04687
:10082000D02EF80730D0FC070B4B10B5D21810684B
:10083000116880B2090C0B1A084A9BB29C0801335C
:10084000E31814007E342380092343435B1A1BB250
:10085000DB108032138010BDD42EF80730D0FC0797
:10086000F8B51C4B00201A000C2501265C321278CA
:10087000194C290051430F5DFF2F16D1002802D0DB
:1008800019005C310A701A000C255D321278134889
:10089000290051430C5CFF2C13D1190000225C315C
:1008A0005D3301200A701A700AE06118496801324C
:1008B0003000D2B20029DCD05C331A7088470020A7
:1008C000F8BD411849680132D2B20029E0D05D3349
:1008D000F3E7C04628CBFC076C53FC07104FFC071E
:1008E000002070470020704700207047024B5E33A5
:1008F0005B8C03807047C04628CBFC07082303802D
:10090000DB184380002383807D33C380704701233D
:100910000B7000234B808B8070470000094B10B593
:10092000C21893B20120042B0BD80024064B92006E
:1009300098184368A34201D0446098470020029B66
:100940001C7010BDF2FBFFFFA8CBFC07704770477F
:1009500000207047180A7A234343034A0020D21824
:100960000B78903213707047A8CBFC0700207047BB
:100970001E22074B1A80074B1B3A19880A431A801C
:10098000042219880A431A800122034B9A74704783
:10099000021600500016005028CCFC07F7B50024C2
:1009A0000126154B15499A1CD78F1A1DD08FDA6B6B
:1009B000121887420CD8002C01D01A1DD0870124B0
:1009C0008A88A2438A80DB6C002B0DD098470BE00D
:1009D0008D8AAC46451CADB201956546354204D1C1
:1009E000002C01D00433D887F7BD0888340010707C
:1009F00001980132DDE7C04628CCFC070011005009
:100A0000F7B5304C0F232089184001380B28F9D84E
:100A100003F0E8FF5614F843F84650F8F8F8F806E3
:100A2000FFF7BCFF0122A3889343A380264BDA6C17
:100A3000002AE6D00433D88F9047E2E7224B188F84
:100A40005A8F82421CD25A6B20260192022294466F
:100A50001E4F598F8842D4D93F252289AA43D2B24A
:100A6000C02A09D165463A882A42CAD04A1C5A8708
:100A7000019A525C2280ECE7A28A3242F6D1C0E7AA
:100A80000221A2888A43A280A2887E318A43A28062
:100A90009B6C002BB5D09847B3E7FFF77FFFB0E71B
:100AA000094B5B6C002BACD09E22A18A11400548FB
:100AB0009847A6E7044B5B6C002BA2D00121F6E718
:100AC000F7BDC0460011005028CCFC077C11005037
:100AD00010B501F04FFAFFF7F1FB10BDEFF31082F4
:100AE000012383F3108808490988090603D40749BC
:100AF000088803430B80002A02D182F310887047D4
:100B0000012383F31088FAE70800005008330050EF
:100B10006A4B0F21DB6DF0B51A0004008BB00A4060
:100B2000C27194466A461D090D408571180B084034
:100B300001902070180A08400490127C180D1E0CB9
:100B4000079262701A0F1B0E0B40059363710C2302
:100B50006B435B4F63449B00DB5908400E4002909F
:100B6000A070E670012006922271002B00D09CE05C
:100B70000C236B4363449B00F850C1173A6B7B6BAB
:100B80000892099362465CF757FC2A015CF754FC13
:100B9000089D054309982A00084303003A637B63D4
:100BA0000C23029A012053439B199B00FB58002BF6
:100BB00000D07CE00C25029B414F6B439B199B00AE
:100BC000D851C1173A6B7B6B0892099332005CF7DE
:100BD00033FC029B1A015CF72FFC089E0643099820
:100BE0003200084303003A637B63069B059A6B431C
:100BF0009B189B00DB590120002B5AD1069B059ABC
:100C00006B439B189B00F850C1173A6B7B6B0292A9
:100C10000393059A5CF710FC069B1A015CF70CFC29
:100C2000029E064303983200084303003A637B6345
:100C3000019B01205D43049BED18AD007B59002B07
:100C400039D10C23019A1E4D53432E6B6F6B049ABE
:100C5000C1179B189B0058515CF7EEFB019B1A01D2
:100C60005CF7EAFB3043394302000B00C0212A63E2
:100C70006B63079801231D2289005EF78DFEC0215A
:100C8000E07900231C2289005EF786FEC021E0780F
:100C900000231B2289005EF77FFE00231A22190021
:100CA00060795EF779FE0BB0F0BD404260E74042EC
:100CB00080E74042A2E74042C3E7C04628CCFC0799
:100CC000A8CCFC07F8B50E4C0500402220000D49C9
:100CD00003F054FE0C490D4B0A00C1CBC1C243CBFB
:100CE00043C243CB43C243CB43C2094B0948ADB2D5
:100CF0005B1B401B9BB280B223816081F8BDC04664
:100D000070E0FC077C37F207B0E0FC07C437F2075D
:100D1000B8E0FFFFCCE0FFFF0A4B70B51C000D00F0
:100D2000110088342078AA00C000C018064BC918EA
:100D300003F024FE21784919C9B221700C2900D989
:100D400000BE70BD30D0FC07D42EF8070B4B70B539
:100D50001D000C00110089352878A2000630C00063
:100D6000C018074BC91803F009FE2B781B19DBB21A
:100D70002B700C2B00D900BE70BDC04630D0FC07D4
:100D8000D42EF807054910B50B005E331A785F3191
:100D90000270013003F0F2FD10BDC04628CBFC0705
:100DA00070B5047803000D00002C04D0012C0CD089
:100DB00048242C7070BD8278074801005E310A70AB
:100DC0005F30191D03F0DAFDF3E7034A43885E3212
:100DD00000245384EDE7C04628CBFC07184970B5C2
:100DE0000B8F002B20D1174A141D98000559002D98
:100DF00015D1121814485060144A9B189BB20B87E7
:100E0000134B0B20CB635EF7E5FD002806D0802155
:100E100009010023012208005EF764FF70BD013361
:100E2000052BE2D10B4BEAE70B4A9B18042B01D9A7
:100E300000BEE5E7034A9B00D218034B5360DFE78F
:100E4000A8CCFC07A8CBFC07FD2EFC070E04000075
:100E50008D0FFC07FFFF0000F2FBFFFFF8B5012636
:100E6000374D384B00241E802B0040331A7836490A
:100E70001B205EF72BFD354B354A1C60354B83CA72
:100E800083C30F22344B35483433197891430D3ADC
:100E90000A431A705FF77AFA8021230022000B20A0
:100EA00049005EF779FDC021230022000920890056
:100EB0005EF772FDC02133001D22300089005EF70D
:100EC0006BFDC02123001C22042089005EF764FD15
:100ED000C02123001B22200089005EF75DFD230056
:100EE0001A22032021005EF757FD2B0090220E33BB
:100EF0001201DA872B0044331B790920B34218D141
:100F00005EF742FDFFF76AFF2B0050331B78002B82
:100F100008D02B005235513318782B78012B0BD188
:100F20005EF732FD01230E490A889A4313430B8072
:100F3000F8BD5EF721FDE5E75EF71EFDF2E7C0466E
:100F4000A8CCFC07000300509C64FC07000008408C
:100F5000DC52FC079064FC0728CBFC07D452FC074A
:100F60000C030050074B0022190010B50A315A64D7
:100F7000CA874433587A5EF7FFFC042102485AF7C7
:100F800044FA10BDA8CCFC071304000010B5134CA4
:100F9000230044335B79002B01D0FFF7E3FF2300EC
:100FA00053331B78002B15D0230054331B78002BB0
:100FB00004D101220A4B1A700A4BDA70FFF78EFD3A
:100FC00023000022208F53331A70904202D0042154
:100FD00059F7C3FEFFF702FF10BDC046A8CCFC07BF
:100FE00078FAFC0718FAFC0710B5041E01D0442853
:100FF00013D1FFF7B7FF442C0FD10122074B533316
:101000001A700223064A11880B43138004230549F2
:101010000A881A42FCD0FFF7E1FE10BDA8CCFC07FD
:10102000100000501400005070B50A4C850066197D
:10103000B36D002B0BD10A21000201431E330422A1
:10104000054859F759FE0823FF330380B06564193A
:10105000A06D70BDA8CCFC07140E000010B50C00EC
:101060001900064B984207D10223054859F744FE60
:10107000A388038059F75BFE10BDC0460D0C00002D
:101080000E0C0000F8B50E0030781900082818D8AA
:101090000E4B1D5C0E4B8000C758AB1C0D4859F71A
:1010A0002BFE3378040003704570002D04D02A0015
:1010B0003900023003F062FC200059F738FE0020AE
:1010C000F8BD00BE00273D00E7E7C0461C4CFC070A
:1010D000284CFC0703140000431EDAB270B505006B
:1010E000092A18D80D4C9B00E418E36D002B12D090
:1010F0000B4EB3420FD00B4B0421C0185AF785F9A1
:101100000422082311000848E66559F7F5FD05702B
:1011100059F70DFE70BD00BEFCE7C046A8CCFC0729
:101120004D09FC070304000002040000F8B50F4C51
:10113000850066197368002B11D10A210002014352
:101140001E3304220A4859F7D7FD072207007060B2
:101150000849023003F012FC0223FF333B8064197C
:10116000606859F7E4FD00236360F8BD28CDFC07F3
:10117000140E00007853FC0710B5FFF7D7FF10BD21
:1011800070B5056904006869002801D059F721FD90
:1011900000232800236159F71CFD70BD03000022C5
:1011A00010B500691A6159F714FD10BD70B5194EDC
:1011B000B568002D28D12C2304220921164859F79F
:1011C0009BFD164B0400038010222900B06045806F
:1011D0000A3003F0A7FB80239B016383F72323845A
:1011E0000F4BA5831A00E5837E32658411880A1CA3
:1011F000FB2900D9FB22E28480331988094A0B1CA1
:10120000914200D9131C2385B06859F790FD002343
:10121000B36070BD28CDFC07040D0000030A000078
:1012200074FBFC0748080000F7B5144C8700E5196B
:10123000EB6816000191002B0AD10A21000201433C
:101240001E3304220E4859F757FD04230370E8604B
:10125000E419E5681022AF1C3800002103F062FB9E
:1012600032003800019903F089FB012328006B70DC
:1012700059F75DFD0023E360F7BDC04628CDFC07AC
:10128000140E00001FB54B780400002B0AD1102269
:1012900068460B4903F072FB102269462000FFF7F5
:1012A000C3FF1FBD012B03D1064B04220093F4E7BB
:1012B000022BF9D0032BF4D110220231EEE7C04605
:1012C000884AFC0740E20100F0B58BB00693109B02
:1012D00006001B788125013B04910792012B00D960
:1012E00093E00121242059F7F9FB002704003D0079
:1012F0002422002103F016FB109AA31C1278DA773F
:10130000109B1B78BB4266D9002D03D0200059F7F3
:1013100060FC7AE0132504ABED1807232B70109BBB
:10132000DB195B7805930599631CB940DA7F0A43A2
:10133000DA77109BF900601859180822043004313C
:1013400003F01CFB059B012B01D10E332B70A31C5A
:10135000DB7F012B03D910232A7813432B7014222F
:101360007B000593049B04A91B88891878000B5205
:1013700009AB18181E2306996C320B4013430393D4
:10138000234B13210293B38A04AA019300238918E3
:101390000A0000931F4905334EF7C4FA051E17D102
:1013A000142204AB9B187900585A109BDB1959780A
:1013B000431D9C464A1E531E9A4163469B1A049A3B
:1013C0001380012904D10230134980B24EF769F924
:1013D0000137FFB294E7002D98D109AB1B88049A1E
:1013E000346113802383069B079ADB031A4324236B
:1013F0002280B08A29006080F382233BF381074B6F
:101400001C34B460736059F7A8FE28000BB0F0BD1F
:10141000084DFC070F18000001020000444DFC07B6
:10142000F0B58BB0059307230E00050001211020B5
:101430000993079259F752FB10220021070003F08D
:1014400071FA1E23059A300013408022134304933F
:1014500003932E4B2E490293AB8A2F6101930023F5
:1014600009AA009303334EF75DFA33880400FB802A
:1014700003333380002845D1109B1B880693012B32
:1014800040D106330993049B00900393214B300015
:101490000293AB8A2049019309AA03234EF742FA2B
:1014A00033880400BB800333338000282AD107230C
:1014B0000993049B00900393184B30000293AB8A6E
:1014C0001749019309AA03234EF72CFA3388041E07
:1014D0003B8117D1BB88079A3380109B21001B8862
:1014E0007B81059BDB031A4317233A80A88A788007
:1014F000EB82069BEB813B000D33AB60094B6B60CD
:1015000059F72BFE20000BB0F0BDC046D04FFC07B2
:10151000031800009C4FFC0702180000F44FFC0762
:1015200004180000744FFC07F8B50C0000211600E9
:10153000050060F7F9FA08210200C12024020923FE
:101540002143000159F7D8FB122304000370242023
:1015500060F7D4FA002800D100BE831CDB7F002294
:10156000B34207D90121078B0130D3B2B3420BD369
:101570000237BAB20123AD19E380AB7E2000A2800E
:10158000237259F7D4FBF8BDC37F13410B400433DA
:10159000FF18BFB20132E8E7F8B5242060F7AEFAD1
:1015A000041E00D100BE9021636989011A898A4214
:1015B0003BD1012294461D7CE61C6719F27F012A6B
:1015C0001DD99021636989011A898A4249D15A89B2
:1015D00099892A48022359F78FFB0023057043702D
:1015E00059F7A5FB0025606959F7F3FA2900200097
:1015F000656160F799FA290059F7AFFD11E0797F2D
:101600006046114101420DD09818A118807C897E56
:10161000884207D029002000FFF786FFF37F0133BF
:10162000F377F8BD0132F277C8E715498A4216D13F
:101630000126E51CE97F022901D9FF25C1E76018D1
:101640001A7C407F1041304206D02000FFF76CFF2B
:10165000EB7F0133EB77E4E70131E977EAE700BE9E
:10166000EBE707498A42BDD15A8999890548012388
:1016700059F742FB00230370B2E7C0460124000083
:1016800002240000032400000B7810B5122B01D1B6
:10169000FFF782FF002010BDF8B510001F000D00FD
:1016A000160059F76FFD022300281BD1243060F784
:1016B00025FA041E00D100BEA21C2B78D27F9A42CC
:1016C00012D96A78642A0FD8E3189A76012130007B
:1016D00059F743FD0023103D65610334E377FFF7BD
:1016E0005BFF01231800F8BD0123320039000448D4
:1016F00059F702FB8123037059F719FB0023F1E727
:1017000003240000F7B510000C00150059F73AFD4E
:1017100001282AD1133060F7F1F9061E00D100BE6E
:10172000377F30003900FEF799FD23780190727FF2
:10173000BB421CD1082163781202114306332A00F0
:10174000114859F7D9FA019B060003800023037161
:101750006278A11C4280053003F010F9300059F77F
:10176000E6FA0021280059F7F8FC0020FEBD082108
:10177000130219432A000623034859F7BDFA019BB7
:10178000038080230371EAE7140C0000F0B5100019
:1017900085B015001F00029159F7F4FC061E3CD1DC
:1017A000172060F7ABF9041E00D100BE3B0A03937B
:1017B000029B1A88E38802339A4215D13B0AE41847
:1017C0000023A67B019307232A003900174859F705
:1017D00093FA01234380029B46711B880380019B7F
:1017E000037159F7A4FA15E0062123890191023308
:1017F0009A42E8D1033101232A000D4859F77CFAB7
:101800000723037059F793FA039B012128002373E0
:1018100059F7A3FC002005B0F0BD280059F7B2FC31
:101820000138434258414000F5E7C046140C00001F
:10183000060D0000F0B5172085B0160060F75EF9C0
:10184000051E00D100BE300059F79CFC070001289E
:1018500026D108212B7B32001B0219431248072393
:1018600059F74AFA114904000C224780103101A8A7
:1018700003F084F80E4B3900287B5B69984701AB75
:10188000181801380378200063712B890025023372
:101890002380257159F74BFA2900300059F75DFC78
:1018A000002005B0F0BDC046140C0000884AFC07BB
:1018B000E4FEFC07F8B517200F00140060F71EF9CE
:1018C000051E00D100BE200059F75CFC060001286F
:1018D00017D17B78002B14D008212B7B22001B0210
:1018E00019430948062359F707FA46802B89023322
:1018F00003808023037159F71AFA0021200059F759
:101900002CFC0020F8BDC046140C0000F0B504000B
:1019100085B024200191150060F7F0F8011E00D178
:1019200000BE8B1C0A8B02934B1C039301230026E1
:101930009C46019B1E70029BDF7FB74201D99442F7
:1019400001D2802005E0931C9C4204DCA21A2A707C
:10195000002005B0F0BD0399C87F614630410842C0
:1019600006D0033293B29C4203D103232B70EFE7DE
:101970009BB2012F05D001339BB29C4201D10423BD
:10198000F4E7013301369AB2F6B2D2E7F7B51E009A
:101990006B460D001700D91D6A46002306322888C1
:1019A00013700B70FFF7B2FF062304003A003100FA
:1019B0000A4859F7A1F92B880380002C05D16B4602
:1019C0009B79032B06D1013B4380047159F7AFF992
:1019D0000020FEBD44800324F7E7C046180C000039
:1019E000F8B510001F000C00160059F7CBFB0223BE
:1019F000002818D1243060F781F8051E00D100BE00
:101A00002078032811D9022332003900124859F7EF
:101A100073F9227840230270032A00D849334370B7
:101A200059F785F900231800F8BD52F7BDFA0B4BA2
:101A30009842E8D00121300059F78FFB2378627873
:101A4000EB185A770023103C6C610335EB77FFF7F6
:101A5000A3FD0123E7E7C04601240000FFFF0000CB
:101A6000F0B587B0029304AB0D00D91D0023170019
:101A700004AA9371288806320B70FFF747FF041EF3
:101A800035D1242060F73AF8002800D100BE04AB1D
:101A90009B79032B39D1EB79AA791B02134301936C
:101AA000012B32D80121029B1E0A83195A7F03930E
:101AB00004ABDB79994013008B439C46019B012BBF
:101AC00002D10A43D3B29C466246039BF6B25A77D0
:101AD000310060F731F8022301003A000C4859F751
:101AE0000BF9039B06705B7F437059F720F93A00AE
:101AF00002990423074859F7FFF82B888470038064
:101B000059F715F9002007B0F0BD8024EFE7C04673
:101B100004240000160C0000F7B510000F0016009A
:101B20001D0059F72FFB002845D114305FF7E6FF61
:101B3000002800D100BE3B880193428B038B944662
:101B4000002201339BB2D4B20094644601211441B7
:101B50000C4205D05C1801998C4247D002339BB2ED
:101B60000132092AEFD1062332002900204859F713
:101B7000C3F83B8803808023037134E02379009A03
:101B800093421DD02468002CF8D1009B290A0377CA
:101B900041775FF7D1FF012301003200154859F763
:101BA000ABF8009B037059F7C2F80121300059F7D8
:101BB000D4FA002003E00138434258414000FEBD02
:101BC0006379320029000633094859F795F8002651
:101BD00005003B88067103806279A11D42800530B3
:101BE00002F0CCFE280059F7A2F8E2E74468CAE701
:101BF000140C000002140000F7B505690C006E8992
:101C0000012E1AD1A32A18D06F18BB7B002B14D039
:101C100028005FF791FF2100019028005FF784FF03
:101C20000200B82003230199400159F765F8BB7BF6
:101C300086704370047059F77AF8F7BDF8B5100054
:101C40000F0016001C0059F79DFA002839D1042313
:101C5000320021001F4859F74FF8050017205FF7A1
:101C60004DFF002800D100BE80233A88AB702A8047
:101C7000BF79022F08D8C388240A02339A4208D1B8
:101C80000419A7730023AB70280059F750F80020FF
:101C9000F8BD838802339A4211D1E4B221005FF784
:101CA0004BFF0100B82003233200400159F724F80C
:101CB000022347708370047059F739F8E2E706236E
:101CC000E1E7300059F75EFA0138434258414000DD
:101CD000DEE7C046160C0000F0B587B0029304ABF7
:101CE0000191D91D0023039204AA93710B70019BEB
:101CF00006321888FFF70AFE0600050024205FF769
:101D0000FDFE071E00D100BE0024A64208D104AB90
:101D10009B79022B23D0032B23D0042B23D08025A7
:101D2000A31D039A02991E4858F7E6FF019B06007F
:101D30001B88057103804480002D0AD104AB063353
:101D40001B78022B11D104AB07331B78FB189B7E49
:101D50004371300058F7EBFF002007B0F0BD0124BD
:101D6000DEE70224DCE70724DAE7032B0CD1029B31
:101D700004AA1B0AFB1807325B7F12788571134196
:101D8000012213404371E4E7042BE2D104AB073393
:101D90001B780530DB00191D79185FF747FFD8E77E
:101DA000140C0000F0B589B00592012204930E9B3B
:101DB00005001E880F00002394460324310060466E
:101DC0001941014204D020005900013188400243EA
:101DD0000133092BF2D10792049A15331340802264
:101DE000134303931B4B38000293AB8A1A490193A8
:101DF000002307AA009313334DF794FD061E25D147
:101E00000121202058F76AFE04003100202202F050
:101E100089FD3B882C6123830E9B059A1B88201D1E
:101E20006383049BDB031A432280AB8A6380142301
:101E3000EB82133BEB8123001E33AB60074B6B60DF
:101E400040F724FE3100A88A59F787F9300009B01D
:101E5000F0BDC046E44DFC070A180000C84EFC0760
:101E600070B5040005696B68002B04D1280023615C
:101E700058F7AFFE70BD281D40F710FE58F7A9FEB9
:101E8000F1E70000F7B514200C00009201935FF712
:101E900035FE051E00D100BE27788126082F3CD8CC
:101EA00039002800FEF7DAF90136002835D06378CA
:101EB0000B36802B31D8072F2CD0082F3AD0062F85
:101EC00001D1082B29D16E68002E0AD03379BB428C
:101ED00034D100223100281D40F750FE300058F761
:101EE00078FE60780121083058F7F8FD0600627826
:101EF0000021083202F016FD2378B01D337162789C
:101F0000A11C727102F03AFD3100281D40F7E2FD7C
:101F1000002602E08D26052BD5D8009A01990223D0
:101F2000074858F7E9FE23784670037058F7FFFE1C
:101F30000020FEBD8D26072BEFD1C4E73668C3E72E
:101F4000011400007FB501AB1900074A1C3270CAAA
:101F500070C1064A11007C310988090919710449C8
:101F60005EF792FF7FBDC046884AFC0730D0FC0771
:101F70008064FC0730B5174C87B02100082230314F
:101F800001A802F0FBFC03AB220019001C3231CA8D
:101F900031C1114C114922007C32128801201209F2
:101FA0001A7122005EF7CAFF01A8FFF7CBFF5EF7A8
:101FB000B7FF062221005FF72FF804005EF7A0FFAD
:101FC000E1200001604306495BF78EF980B207B05B
:101FD00030BDC046884AFC0730D0FC078064FC074F
:101FE000FF07000010B504005DF7E2FD2200084B7A
:101FF0000A3A92009B181B69002B01D0984710BD2C
:102000000123C022A340034952008B50F7E7C0468A
:1020100028CDFC0700E100E010B50A20FFF7E2FF41
:1020200010BD10B50B20FFF7DDFF10BD10B50C2063
:10203000FFF7D8FF10BD10B50D20FFF7D3FF10BD7F
:1020400010B50E20FFF7CEFF10BD10B50400FEF74F
:1020500061F920005EF7DCF904005EF7CBF920009F
:1020600010BD10B501205EF77BF9A020C000FFF77E
:10207000ECFF80B210BD10B5FFF7F3FF01220300A3
:102080001340104201D1180010BD0E204042FBE762
:1020900070B50125074CFFF7E4FF03002B402842F1
:1020A00005D0013C002CF6D10120404270BD180043
:1020B000FCE7C04680841E00F8B5174B050054337A
:1020C0001B780F001400132B23D1FFF7D4FF061E3B
:1020D00017D1124B3A199B689A4200D9DC1B022097
:1020E0005EF73EF9FEF716F9C020800438435EF72C
:1020F0008FF900205EF734F92C19A54203D15EF761
:1021000079F93000F8BD00205EF782F928700135BA
:10211000F3E701204042F5E728CCFC079064FC0778
:1021200010B5FFF7A8FF041E0DD15EF719F90620C0
:10213000FFF78BFFFFF7ACFF041E04D1FFF791FF01
:10214000800700D40C3C200010BD000010B5FFF744
:1021500092FF00281DD1FFF7E3FF002819D1FFF7F8
:1021600080FF0D4B04001B78142B13D1083B1C423D
:102170000FD0FFF780FF00280BD101305EF7F0F899
:10218000832380201C4040002043FFF75EFFFFF7C1
:102190007FFF10BD7C23EAE79064FC07F0B5BDB07B
:1021A00003AF0190E4223800214902F0E7FB214E01
:1021B0003378002B34D1FFF75EFF041E30D15EF779
:1021C000CFF8FEF7A7F89F205EF722F920005EF710
:1021D0001FF9050020005EF71BF9009020005EF754
:1021E00017F9FF232D041B041D40009BC0B21B06E2
:1021F0001B0C1D4305435EF7FDF86B1E03330FD820
:102200003B005A68AA420DD10C235C43DC3302AA7E
:10221000E3189B18E43B23CB23C63B5D019A137064
:102220003DB0F0BD01340C33132CEAD1F8E7C046C1
:10223000C04AFC079064FC0710B5FFF71CFF00289C
:1022400004D15EF78DF8B920FFF7FFFE10BD10B581
:10225000FEF760F85EF7CEF800205EF781F8AB205D
:10226000FFF7F3FE10BD000070B55DF79AFA264A3D
:1022700013881B051CD50520244B19880140814279
:1022800016D1042219880A4301211A801A888A4328
:102290001A801F4B5B6A002B09D01E4A10881E4A09
:1022A00000B211881D4A09B2128812B2984770BD57
:1022B0001388DB0613D501241948038823420ED066
:1022C0008021184B1D880D4209D004801A888A434A
:1022D0001A80154BDB6B002BE9D09847E7E7138892
:1022E000DB06E4D502210E4A13880B42DFD00D4BEA
:1022F0001888C005DBD511801A880C490A401A805D
:10230000034B9B6AE7E7C046040000500002005000
:1023100028CDFC0702020050040200500A020050BF
:102320000401005000010050A8CCFC07FFFEFFFF95
:1023300070B5144B83F3098813485CF7CDFB134B3E
:102340001348834211D30020124B13498B4217D3F9
:10235000FDF730FF1C68910065585C6801326550DC
:1023600099688A42F6D30C33EBE70022F8E71C6841
:102370009500285101325C68A242F8D30833E5E7A2
:102380000022F8E7C46BFC07A000FC078853FC0799
:102390009453FC079453FC07A453FC0710B5164C48
:1023A000A18DE08D5EF7BAFE5DF7FBF90321134BBB
:1023B0001A880A4202D01A888A431A808023104A57
:1023C00011880B43042113800E4A13888B4313801A
:1023D00002230D490A881A42FCD03FF7A2FF226B64
:1023E0000A4B1A600A4B1A68520700D500BE042235
:1023F00019681142FCD010BD28CDFC070A0000501E
:102400000800005010000050140000500802004066
:10241000100000400121084A10B513888B43138037
:1024200059F7AEF940F70CF9FEF7A2FA0022034B78
:1024300034331A7010BDC0460833005028CDFC0755
:1024400010B549F72EFEFEF793FA10BD10B559F7F7
:10245000B3F949F726FE0122014B34331A7010BD3F
:1024600028CDFC0710B547F737F810BD10B5002090
:1024700046F7E6FF0422034B34331A705FF7C0F8C7
:1024800010BDC04628CDFC0710B5012046F7D8FF87
:1024900010BD00000A4B10B51A68D20703D50222FE
:1024A00019680A431A6080221968D203114202D0C7
:1024B00019680A431A6003485EF75AFE10BDC04609
:1024C000000200408C4DFC0710B5034B034819680F
:1024D00035305CF79DFE10BDA453FC0728CDFC07EA
:1024E000F7B5000B03030D0B090501934B1E994132
:1024F0006D18002D00D101350026019B3703FF1810
:10250000FFF7B9FD041E14D1FFF70AFE041E10D117
:1025100002205DF725FF802080053843FFF795FDF9
:102520002700FFF79EFD0123184204D1F618B5429B
:10253000E3D12000FEBD8022084B1B881342F0D05F
:10254000074B1B681B04ECD4064B01379F4202D893
:1025500059F7AFF8E5E701246442EAE708000050C4
:102560003000004080841E00F0B50C0085B0230BC5
:10257000039016008918180384421AD11100200014
:10258000FFF7AEFF00205DF7EBFE2E4B250A9B68A0
:1025900001351B1B2D020093B34200D90096002386
:1025A000009F0193009B019A93420AD8002005B036
:1025B000F0BD0A0B9A42E5D080235B01C018091ACE
:1025C000DEE7E3196A1E934200D92F1BFFF753FD84
:1025D0000028ECD1FFF7A4FD0028E8D1019A039B65
:1025E0009446802263440293BBB23E1C5200934245
:1025F00000D9161C02205DF7B3FEFDF78BFE80208C
:10260000800420435DF704FF00205DF7A9FE029CD3
:10261000B6B2002E0FD15DF7EDFEFFF739FD0028B1
:10262000C5D1019B2C00DB190193019A009B013558
:102630009F1AFF35B6E72078013E5DF7E9FEB6B296
:102640000134E6E79064FC071FB500BA00906846C5
:102650005CF76AFE05B000BD10B50B4B9A7C002AF2
:1026600010D00A4A00280AD0042110880842FCD160
:10267000002207489A7448305CF78CFD02E012880B
:102680005207F5D510BDC04628CCFC0700160050F7
:1026900028CBFC07F8B5164B164F84331E88164B13
:1026A00016499C6C20007043C0195AF707FE144B62
:1026B0000500988530003C3060431049C0195AF736
:1026C000FDFD104B043018600F4B4019C21D1A60FD
:1026D0000E4A1278022A01D1183018601868FEF7E5
:1026E00007F80B4BC01880B259F774F8F8BDC04614
:1026F00030D0FC0720A1070028CBFC0740420F0088
:1027000028CDFC07B464FC07B864FC0778FAFC0722
:10271000E20400000022054B10B51A60FFF7BAFF73
:10272000034A13685B005B08136010BD9CF9FC074B
:102730003000004070B50D000C00203540F7DFF888
:1027400020700134AC42F9D1002070BD3F2210B599
:1027500043790400934311D140F7D1F8030A207064
:102760006370030C000EA370E07040F7C8F84023BC
:10277000207180B2000A5B420343637110BD10B543
:102780005CF7EAFD10BD000010B5074C0022443490
:10279000237806490133DBB2054823705CF784FFD8
:1027A0002378013B237010BD28CBFC07BC64FC07D9
:1027B00030D0FC0710B5084C084944342378002277
:1027C0000133DBB20648096823705CF7A1FF237868
:1027D000013B237010BDC04628CBFC07BC64FC073E
:1027E00030D0FC07264B00B54362264B00228362A3
:1027F000254B8BB04361030030331A70234BC36207
:10280000234B0360234B0362234B4360234BC36181
:102810002348244B0168194080239B020B43224923
:1028200003600B68214803400B606B46D2540132B1
:10283000282AFAD11E4B69461868403002F09EF8EB
:1028400008221C4B44331A701B4A36321278002A75
:1028500001D001221A705EF7BDFEFFF795FFFFF76A
:10286000A9FFFDF7BDFD5EF7F3FE5EF705FF5EF71E
:1028700077FE12485EF73EFF5EF7C2FE0BB000BD6A
:102880007903FC077D03FC07B503FC073516F20747
:102890009D02FC07B103FC07B303FC078103FC079F
:1028A00074000040FFFFE0FF00020040FFFFF7FF61
:1028B0004CF9FC0728CBFC0728CDFC0770E0FC078F
:1028C0001749184B0A6810B51A4080239B0213431E
:1028D00080220B600721D20513688B431360082305
:1028E000114A11880B431380104B36331B78002B91
:1028F00003D001220E4B44331A705EF76BFEFFF7D4
:1029000043FFFFF757FFFDF76BFD5EF7A1FE5EF794
:10291000B3FE08485EF7DEFE5EF772FE10BDC046ED
:1029200074000040FFFFE0FF0800005028CDFC07C6
:1029300028CBFC0770E0FC0710B560F7A9F9054B40
:1029400000211A00373211709A6B8A4201D09963C4
:10295000904710BD28CDFC0710B5042209211C2387
:102960000E4858F7C9F91B2304000370242060F7B0
:10297000CBF904220A4B2282626001210222A38148
:102980000023A174FF3223316070E3812000618055
:102990002281A37258F7CBF910BDC0461B0D000071
:1029A000AD27000010B5042209210A230A4858F770
:1029B000A3F91B2304000370142060F7A5F9142366
:1029C0006380103B63607423FF33607023812000B9
:1029D00058F7ADF910BDC0461B0D000010B504221C
:1029E00009210A23094858F787F91B2304000370BB
:1029F000172060F789F917236380133B6360033B5B
:102A000060702381200058F792F910BD1B0D000063
:102A1000092310B519000422094858F76DF91B2342
:102A200004000370FC2060F76FF9FC236380F83B1F
:102A30006360002360702372200058F778F910BD9E
:102A40001B0D000010B50400FC203FF7BCFE042362
:102A500001001A00034858F74FF9847058F767F9D6
:102A600010BDC04605FC000010B5054B7D331C7839
:102A7000002C02D01920FFF7E5FF200010BDC04652
:102A800028CCFC0710B50C00FFF7EEFF002814D18E
:102A9000A378002B11D0A3880530002B10D00A4951
:102AA0000A0054321278132A07D8D20607D580229A
:102AB00007209200934203D80B66002010BD082027
:102AC000FFF7C0FFF9E7C04628CCFC0710B50400AB
:102AD000FC203FF778FE042301001A00034858F752
:102AE0000BF9046058F723F910BDC04604FC000040
:102AF00010B50C00FFF7B8FF00280CD1A378002B0D
:102B000009D0094B626854339A601B789A1E012AD7
:102B100003D8FFF7DBFF002010BD123B012BFAD9D1
:102B20000820FFF78FFFF6E728CCFC0770B50400FC
:102B300024203FF748FE0423010090201A00800162
:102B400058F7DAF80E4D04702E0000243C36337826
:102B500044708370C47058F7EAF80A4B04211A00D5
:102B6000503214702A003D321470082251331A700A
:102B7000054B064802323470EB8760F797F870BD5A
:102B800028CDFC07A8CCFC07701700001404000037
:102B9000F8B51600FDF79CFF194F04003B003C33CD
:102BA0001B7883420DD024203FF70DFE0223010045
:102BB0000422144858F7A0F800234470037058F713
:102BC000B6F83B00104D3C331C702B0050331B7883
:102BD000002B0ED0042C0CD82B00513318785CF746
:102BE000D3FE01235235C822042108482B7060F718
:102BF0005DF83100FA8F064860F758F80020F8BDFC
:102C000028CDFC0702240000A8CCFC071504000016
:102C10001404000070B50F4C1500230050331B78CE
:102C2000002B0FD023005234513318782378002B17
:102C30000AD05CF7A1FE0023142223702900064865
:102C400060F734F8002070BD5CF79EFE012305227A
:102C50002370F3E7A8CCFC07150400001FB514008F
:102C60001A0005230293044B0193069B0093230053
:102C700060F7F6FA04B010BD5C4CFC071FB51400F9
:102C80001A0001230293044B0193069B0093230037
:102C900060F7E6FA04B010BD844CFC071FB51400C1
:102CA0001A0002230293044B0193069B0093230016
:102CB00060F7D6FA04B010BDB04CFC071FB5140085
:102CC0001A0005230293044B0193069B00932300F3
:102CD00060F7C6FA04B010BDC04CFC071FB5140065
:102CE0001A0004230293044B0193069B00932300D4
:102CF00060F7B6FA04B010BDE84CFC07F0B57A26D0
:102D00004643214B85B09F193A0018334D78039301
:102D10003300343202921570039A1433D318082208
:102D2000040011001800019360F7D9FA039B0236E2
:102D30009E1929001022300060F7D1FA3FF7DFFD1D
:102D400001233A7E788513433B762000FEF76CF929
:102D50000500029B01991B78082203777B8D438233
:102D6000143001F00BFE10223100A81C01F006FE09
:102D70002000FEF759F957F7DAFF0022034BA400B1
:102D80001B199A6505B0F0BDA8CBFC07A8CCFC07C1
:102D900008781B0A10B5DCB207281FD801F02CFEFA
:102DA000041E1E1E1614141A0C2159430C4A20002E
:102DB000403252180121D17279314B43094AD2185D
:102DC00000231376FEF7B2F9002010BD2000FEF7B5
:102DD00059FAF9E72000FFF791FFF5E700BEF3E7A6
:102DE00028CDFC07A8CBFC0770B504000D00FDF74B
:102DF00065FC002806D00A4B2A000421E01858F789
:102E0000BAFA70BDFDF76AFE0422082311000548D6
:102E100057F772FF4560047057F789FFF1E7C04626
:102E2000030400000104000070B52B4D2B00373364
:102E30001878002801D0FEF74FF9284B0020190020
:102E40005C31820054580130002C40D19B18244A38
:102E5000C4B220002349DA65FFF7C6FF2B003733E1
:102E60001C70EB6C002B28D10422092152331E4820
:102E700057F742FF0D2303801C4B04008380C3805F
:102E80000823FF330381D8235B0143811B221849A8
:102E9000E86426000C3001F071FD0B22200015497A
:102EA0002B3632701C312C3001F068FD22000921D4
:102EB0003000114B37325FF767FEE86C57F737FF8A
:102EC000002302210420EB6458F747F970BD0A285B
:102ED000B7D10024C2E7C04628CDFC07A8CCFC0728
:102EE0003929FC07504600000D0D00004C0400007D
:102EF000254AFC07884BFC07414AFC0710B5042013
:102F000058F740F9022801D1FFF78EFF10BD0000ED
:102F100010B5FFF789FF0421074858F776FA074BE9
:102F20007C331A78002A04D0002205481A703FF733
:102F30001DFCFEF717F810BD1404000028CCFC0798
:102F4000111111110C2270B5144E4243330040335D
:102F50009B189B780500FF2B1CD033003733187863
:102F6000002801D0FEF7B8F800243300B4630C2623
:102F700037331C7032006243094BD15CFF2900D10A
:102F800070BD9B189B680134E4B2002BF2D028007E
:102F90009847EFE7FFF748FFF2E7C04628CDFC0768
:102FA000104FFC0710B55FF7C5FD002801D0FFF7F3
:102FB0003BFF10BD10B5FFF737FF10BD394A70B5A4
:102FC00003000D00049C904216D0374A904239D03D
:102FD000364A90424AD14B68002B00D100BE344B98
:102FE0006A689A4200D900BE28782F4B04216A688B
:102FF000C01858F7C0F910E00B78013BDAB2092A83
:103000001ED82C4A9B00D218D16D2B48814207D183
:103010000021D165294AD31819650020207070BDA0
:10302000274B9942F9D10422082311001E4857F773
:1030300063FE2B7803706B68436057F778FEECE70C
:1030400000BEEAE70878411ECBB2092BF8D8194B2D
:1030500089005B181A4ADE6D9642DED1174A521873
:10306000126D6968DA65FFF7BFFED6E7154A0120E1
:103070009A18092AD3D8033BD8B2411E0D4B8900B8
:103080005B18DA6D002AC8D00D4DAA42C5D00A4D92
:10309000AA42C2D00025DD65084B5B181D6590472C
:1030A000BBE7C04602040000030400000104000066
:1030B000FCFF3F00A8CCFC074D09FC0728CDFC070E
:1030C0004F09FC07FCFBFFFF70B50C4D14002B00F3
:1030D0004433587A1B79002B0CD05CF74DFC00234D
:1030E0002A004432137121006A6C054858F743F9ED
:1030F000002070BD5CF748FC0123F1E7A8CCFC0779
:103100001304000010B54B78002B16D00C4C220095
:10311000443253719622012B00D0643A230062643A
:1031200001224433587A1A715CF72EFC0421626C38
:10313000044858F720F9002010BDFDF713FFFAE707
:10314000A8CCFC0713040000F7B5050008781C0A9A
:103150000238052800D96FE001F04EFC03286E39D3
:1031600047567A226243364B89789D182800903062
:10317000017034480190C9070FD50C272B00674315
:10318000019E89334036791D180071180622F61900
:1031900001F0F4FB33798F352B700C226243019BD5
:1031A00040339B180022DA720020FEBD0C226243DD
:1031B000244B002140339B187A226243D972204B62
:1031C000E0B29B18903319705FF744FDECE77A2367
:1031D00063431B4A0231D41820001722523001F0F9
:1031E000CDFB0423227E13430CE07A236343144A6D
:1031F0001025D41820002A007930023101F0BEFBDE
:10320000237E2B432376CFE77A235C43488A0C4AFC
:1032100002311419002807D120001C221A3001F0B5
:10322000ADFB0123227EDEE720001C22363001F0B8
:10323000A5FB0223227ED6E72800FDF70FFFB3E7A8
:10324000A8CBFC0728CDFC0713B50B4C2300543347
:103250001B78032B01D15DF767F8142354342370D6
:10326000FEF7F5FF6B46D81DFEF798FFFEF76EFFE1
:10327000FEF7E2FF13BDC04628CCFC0730B54B6813
:103280000C0085B01B0EFD2B19D1A378002B1AD092
:103290006268130E132B29D85048D9B2040092B299
:1032A000543421708265012B10D84D4B8365082062
:1032B000FFF7C8FB1422494B54331A7034E0FFF770
:1032C000D3FB0028E1D0002005B030BD1239012920
:1032D00002D8022A06D86274112B0AD808200F2BB4
:1032E00001D8E4E71120FFF7ADFB1DE0FD2B64D012
:1032F0001ED8123B012BDAD8FEF7A9FF02A8FEF771
:103300004DFFFEF723FF354C1020230054331B786C
:10331000034238D0FFF796FB220000235432137487
:10332000A366E366236613770020FFF7CFFBCAE7A7
:103330002A4CFE2B29D1230054331A7F0420002A63
:1033400030D16A46951DAA221B7806202A70132BBD
:1033500028D102A8FDF7DCFBFEF779FF6B46D81DEC
:10336000FEF71CFFFEF7F2FEA16D012228000231DC
:10337000FFF7FAF840B2002811D1023023000122F1
:103380007D331A700EE00820C4E7FFF75DFF2200CE
:103390000023543203201374A3662366A3E7C0B24C
:1033A0000228EBD0FFF74EFBFFF74EFF2200002371
:1033B00054321374A3662366B6E70A4B40339878F9
:1033C000FF2803D108483FF7D1F9ADE70122034BAD
:1033D0007C331A705FF73EFCA6E7C04628CCFC079A
:1033E0002CD0FC0728CDFC0711111111F8B50400F1
:1033F0000E00002800D10C680023E3561D1E13D0D8
:103400000C4F2000390001F0D3FA23562518002B69
:103410000DD03900280001F0BAFA2B562C18002BD9
:1034200002D000232370013428003460F8BD2C0042
:103430001D00F9E74B4AFC07F0B50024060087B0F1
:103440000D220D0002A82100019401F06BFA30005A
:1034500001F0BFFA3100020001A801F08FFA6946BD
:1034600001A8FFF7C3FF082207002100280001F090
:1034700059FA0A26002F05D1201F43425841C0B2F5
:1034800007B0F0BD042C17D039000023CB56002B19
:103490000DD100200137791E085600280ED1620098
:1034A0006946AB52FFF7A2FF01340700E2E7303B69
:1034B000DBB20131092BE8D90020E1E77343303852
:1034C000C318E6E7F0B59FB00C00FFF7CDFA039004
:1034D000002800D064E1C14BC14D1B780193132B30
:1034E00000D9A1E1A378002B00D159E12B6E029302
:1034F000002B00D151E1019BDB0600D494E1802335
:10350000AF6EE2789B00B918994200D98AE1B54EB6
:10351000211DB81901F032FAE278029BD219AA668D
:10352000934200D034E1AD4B197F039BF05C013333
:1035300041409A42FAD8A94B08241977019BA84D1B
:10354000132B00D021E106A80EACFDF7E1FAFEF73F
:103550007EFE2000FEF722FEFEF7F8FDAB6E029322
:10356000002B00D131E1EF6E002F00D02DE19B4BFD
:103570005B7C039304AB1F8005AB1F80029B3F2B3A
:1035800000D81AE1984B328812209A4200D0F5E018
:103590007668E02133000C224033200089026B67FB
:1035A000FEF78AFD002800DA40E1904B22889A421B
:1035B00000D004E10F9A109B08920993002E00D1CD
:1035C000FFE0403B9B1A9E4200D9FAE0002504AC84
:1035D00005AEAB0008A9402259580EA8FEF76CFDB5
:1035E000002800DA22E12B2204AB9B181B78804ACA
:1035F00033700E9B13407F4A934206D1292204ABBD
:103600009B181B78512B00D198E0012323700023D5
:10361000337001340136012D00D08DE004AB1A78EF
:103620000023012A11D004AB5B78012B0DD005AA31
:1036300013785278FF2B00D091E0013AD2B2FD3BD3
:10364000FD2A00D92B00013BDBB20125039A5D4026
:10365000013A012A02D90133DBB203934022FF2150
:103660000EA801F05FF9039C04AB013CE4B21B5DC2
:10367000022B00D1A7E0AD0008AB4022E9580EA80C
:10368000FEF71AFD002800DAD0E00AAD290011A8E3
:103690000CAEFFF7D1FE31005748FFF7CDFE0028F2
:1036A0006BD008223100280059F7A6FE002800D16F
:1036B00089E0EA5BF35B9A425BD000D973E01021AA
:1036C00004AAA3005218D058012304AA5C40165D36
:1036D0000222434D9643A86567D01E002C00543447
:1036E0002378132B26D10121FEF7FAFE002821D1E1
:1036F00040223C490EA801F041F92B2204AB9B1853
:103700002A211E70FF2304AA521813702378132B4A
:1037100010D14022A96D0EA8FEF726FF002809DB74
:10372000029AA96D3548403A4031FEF71DFF002846
:1037300000DB71E0062021E001254AE710222E4837
:1037400011A959F759FE002800D062E7254BDA6924
:10375000159B9A4200D05CE70223237059E7FF2AA9
:1037600003D15A42534101336DE79A429B415B4278
:10377000F9E70237082F9CD1A1E7172084B2002275
:10378000174BD86E9A66FFF7A1F9E0B2FFF75AF926
:10379000134B9A6E1B6E9A4202D90520FFF752F91D
:1037A00000201FB0F0BD1820E8E705AB1B5DFF2B24
:1037B00000D193E70133DEB290E71220DEE7142058
:1037C000DCE71320DAE71520D8E76A6FE96E029B81
:1037D000501C5B18984213D20624D0E77CCCFC071F
:1037E00028CCFC0730CEFC0770510000705200005E
:1037F000FF00FF007000AA003CCEFC0770CEFC0763
:103800009A4201D2521AAA66AB6D3000AA6EC9184C
:10381000FEF7AAFE0028DFDBEB6EAA6E02249B18DF
:10382000EB66ACE70720B9E70820B7E71620A5E765
:103830002A4B10B51B880400DB0507D51B205BF75E
:10384000EDFF0123264A11880B431380A023DB05DB
:103850001B88244924480A881B079B0F0240DB0170
:1038600013430B802268214B1A606268204B1A6058
:10387000A268204B1A60E2681F4B1A6022691F4B36
:103880001A6062691E4B1A60A2691E4B1A60E269D7
:103890001D4B1A601D4B1C601D4B1A681D4B1A6096
:1038A0001D4B1A681D4B1A601D4B1A681D4B1A6080
:1038B0001D4B1A681D4B1A601D4B1A681D4B1A6070
:1038C0001D4B1A681D4B1A6008221D4B1A801D4B98
:1038D0001B88DB0601D500BE10BDFEE72A000050A4
:1038E00080000050120000507FFEFFFF00F8FC0730
:1038F00004F8FC0708F8FC070CF8FC0710F8FC07B4
:1039000014F8FC0718F8FC071CF8FC0720F8FC0763
:1039100028ED00E024F8FC072CED00E028F8FC0777
:1039200030ED00E02CF8FC073CED00E030F8FC073F
:1039300034ED00E034F8FC0738ED00E038F8FC071F
:1039400000330050140000500423344A70B511882D
:1039500001250B4313804023314A040011880B4397
:103960001380C0232F4A5B00D55008222E4B1A80AB
:103970002E4B1B88DB0506D51B205BF74FFF2C4B1E
:103980001A8815431D80A023DB051B88294A2A4875
:1039900011881B079B0F0140DB010B43138021683B
:1039A000264B19606168264B1960A168254B196088
:1039B000E168254B19602169244B19606169244B2A
:1039C0001960A169234B1960E169234B1960234BEE
:1039D0001C60234B1968234B1960234B1968234B38
:1039E0001960234B1968234B1960234B1968234B2B
:1039F0001960234B1968234B1960234B1968234B1B
:103A00001960234B1B88DB0607D500BE13882149AC
:103A10000B4004310B43138070BDFEE710000050D3
:103A20000800005000E100E0003300502A00005080
:103A300080000050120000507FFEFFFF50F8FC078E
:103A400054F8FC0758F8FC075CF8FC0760F8FC0722
:103A500064F8FC0768F8FC076CF8FC0770F8FC07D2
:103A600028ED00E074F8FC072CED00E078F8FC0786
:103A700030ED00E07CF8FC073CED00E080F8FC074E
:103A800034ED00E084F8FC0738ED00E088F8FC072E
:103A900014000050FC7F0000C823E64AF0B51380F4
:103AA0000023E54A0C2013800822E4499DB00A80D7
:103AB000E3490993099B002B01DC00F01EFDE04F58
:103AC0000124FB6A002B01D000F02BFD386B796BD1
:103AD000E517630DED021D43FC62E40204430D4350
:103AE00022002B003A637B637B6A0124002B01D008
:103AF00000F01AFD386B796BE517E30D6D021D437D
:103B00007C6264020D4304432B0022003A637B6312
:103B10007B680121002B01D000F009FD3C6B7D6B1F
:103B20000A00CB1792185B4116002B432643300046
:103B3000796019003B69012438637963002B01D057
:103B400000F0F8FC386B796BE517230F2D011D434E
:103B50003C61240104430D4322002B003A637B6344
:103B60003B680124002B01D000F0E7FC386B796B37
:103B7000E5173C600D43044322002B003A637B634E
:103B8000FB680124002B01D000F0DAFC386B796B64
:103B9000E517630FED001D43FC60E4000D43044393
:103BA0002B0022003A637B63002300223A637B638D
:103BB000002301260C250993099B002B01DC00F052
:103BC000C2FCA04D08AA2B88941C9BB2538050883D
:103BD00080B200E000BF04222388934301D000F0AC
:103BE000F7FC0121984A13888B4313800824962000
:103BF000964A40001388964E234313805BF7B6FD28
:103C00008023944A11880B43F0211380924B890141
:103C1000188801431980062130888843308080202D
:103C20001D88C0012843188088488C4D0088284092
:103C3000864D28800E251088A843014311808849AD
:103C40000988C90501D400F0C7FC3188854A1140B4
:103C50008022D2000A438021328032880902120574
:103C6000120D0A43042132801A8822431A801A88CE
:103C70008A431A80328803398A4332804022198865
:103C80000A431A8003241A88012522431A806023DC
:103C900002266E490A889A43403B13430B80724BBD
:103CA000724A009335331D70138871493343138072
:103CB0000422704B1A80704A13880B4013808021B5
:103CC000C0236E4A5B004902D1506D4B05935C4B9B
:103CD00005991800403002935CF728FF30005CF72C
:103CE000EDFE684B1A682300D2B2AA2A00D02B003E
:103CF000A0220C21D20514889B008C431C43148005
:103D000000E000BF009806225F49783000F036FEE0
:103D1000012000E000BF5D4C0023250088352B808A
:103D20009C460CAB18005A490695283164C964C0FA
:103D300064C964C064C964C06246200055495BF729
:103D400095FB069B1B78DB0700D500BE220088325E
:103D500013785B081370230089331B78DB0700D5C9
:103D600000BE2200893213785B081370230084336D
:103D70001A88002A02D1FA2292001A802200863282
:103D80001388002B0CD1FF213E4B09021B680B400E
:103D9000D42189018B4201D000F047FC902313808D
:103DA00086342088009BD8855BF74AFA7F22009BE7
:103DB00002987E331A70384B05991A68374B403099
:103DC0001A605CF75FFF364B36491A6800238A4257
:103DD00009D0354C354A364958180068191904334A
:103DE00008609342F7D1334D0021334A280000F098
:103DF00099FDE0220021D200304800F093FD00F050
:103E000071FD2F4B2F4A30491A603048302200F0A4
:103E1000B5FD00243F222E4B1D491A705C709C702A
:103E2000DC701C715C719C71DC714C3101320CA82E
:103E300050E0C046003100500231005002330050C3
:103E4000A8CCFC070403005010030050520000509F
:103E5000800000505400005020030050FFBFFFFFBF
:103E60002A000050FFF0FFFF28CDFC07380000506B
:103E7000FFF7FFFF000200500400005000E100E0E7
:103E80009C64FC07D02FF807D42FF80730D0FC072C
:103E9000884BFC07A000FC07E82FF8078864FC07A4
:103EA0006064FC0765873412BCD0FC07040A00007C
:103EB00000F0FC0700E0FC07AC14000000F9FC0770
:103EC00024FAFC07F84EFC075CDEF107C8F9FC0792
:103ED000A4F9FC0700F052FD40220CA9DE4800F0D6
:103EE0004DFDFF22DD4B01211A705A709A70DA7075
:103EF0001A71FC3A5A719C71DC71D94BD94A1C7009
:103F0000D94B1A60D94BDA4A1A60DA4BDA4A1A608E
:103F10000A22DA4B1A70DA4B053A1C70D94B1A6038
:103F2000D94B1960D94B1A60D94B52181A60D94B2A
:103F300052181A60D84B52181A60D84BFE321A60C9
:103F4000D74ED84B35601A60FCF788FF5BF7A6F8B0
:103F50005BF7EAF8D449D54B0A881A40E0231B01E5
:103F600013430B805BF7FCF8D14BD24A1B6893429A
:103F700031D03268D04BD1491A60D14B1B681A0A34
:103F80000B704A701A0C1B0ECB70CE4B8A705A0005
:103F90009446C0226546FF32D21A525D0325187836
:103FA000013442402840085C42401A70E02201334C
:103FB00052009442EDD1C44CA53A2000C149FF3AC9
:103FC0005BF772FF002800D000BE20005BF7ACF961
:103FD000B74BB84A1A6030683EF73CF9002380229C
:103FE000BA4CD20523711168E3700133FF330B43E0
:103FF0001360FCF7BDFC0120FEF72EFB029B54333F
:104000001B78002B02D1B24AE3701370009D0C2282
:1040100040350021280000F085FCAE48092206004A
:104020000024AD495E365F30327000F0A7FCAB492A
:104030000420748457F75FF8FF232100AB7004203D
:1040400057F78BF8FEF703F90CA8FEF7A7F8FEF771
:104050007DF8FEF7F1F83B0002220C33DA873B00D3
:1040600090220E331201DA87FCF732FD009B3C33BD
:1040700018709B4B1A0019009C66DC661C667E3328
:104080001C70984B54321C6014237D3113701474CF
:1040900014770C705EF764FE3B0054331B78A34228
:1040A00004D101228A4B1A70884BDA70FEF732FB7A
:1040B000C8238D4A13808D4AC03B13808C4B8D4A98
:1040C0009B189B08013B0793FCF7F8FA002800D1E6
:1040D00098E057F7EEFA0020FEF7BEFA864B34332D
:1040E0001C78042C00D08DE00120FEF7B5FA0023E7
:1040F00021000BA80B9348F72BF9002800D181E091
:1041000001227E4B1A601A68002AFCD17C4B7D4D3F
:104110001B6829688B4200D22A60C8212A680901DD
:104120009A1A8A426ED300242B60774B0CA81B8806
:10413000764F9BB20093764B764E1B889BB20293D0
:10414000754B1B889BB20593744B1B880D949BB2D7
:104150000693734B0C93FDF7F5FE80223B8892008B
:104160009B059B0DAB8033889B059B0DEB803B88AB
:104170009B0A9B0213433B8033889B0A9B021A4392
:1041800032805CF775FF674B02001988FA23401AEA
:104190009B004343A34200DC51E2634A9818634901
:1041A00059F7A2F8574B84119A8880231934E1B249
:1041B000DB0064B29A4200D300BE3B8851489B0AA0
:1041C0009B021A433A808022C388D200934200D3D4
:1041D00000BE3288920A9202134333800023464A7B
:1041E0007E32D3567F2B00D02FE21470029A484BB8
:1041F0001A80059A484B1A80069A484B1A80424BFF
:10420000009A1A8072B600231A4E0BAC32682370E3
:10421000926A0C92464A0092533212789A4203D123
:104220002A4A1279022A00D10C93424D210028001B
:10423000414A5CF7B5FF002800D0FCE0009B5333F7
:104240001B78002B7CD13D4B9B6A002B78D03368C8
:104250009B6A0C9374E0C0463CFCFC07ACF9FC077D
:10426000C5F9FC07E036F20750F9FC0754F9FC07E2
:104270004051FC0758F9FC073850FC07A1F9FC072E
:10428000A2F9FC075CF9FC0760F9FC0764F9FC077C
:1042900068F9FC076CF9FC0770F9FC0748F9FC07A2
:1042A0004CF9FC0744F9FC0726000050FFF0FFFF23
:1042B0006064FC0765873412080200408264FC07D2
:1042C0008864FC07BCD0FC07A064FC0718FAFC0754
:1042D00078FAFC0728CBFC07414AFC074C4CFC074A
:1042E00028CCFC0730CEFC070031005002330050D0
:1042F000B053FC07030004F828CDFC07FC00004085
:104300001C000040A8CDFC07001500500815005007
:10431000021500500A1500500415005006150050F3
:10432000010400008064FC077E040000FC0800001B
:10433000A8CCFC078C64FC07C924FC0700FEFC0722
:10434000FEF7A8F928000CA95CF760FF002872D1DD
:1043500001305BF731FA0C9B002B07D0CB4A126877
:10436000393AFF3ADA2A01D8013B0C93C84BC94EBF
:104370001868B38DC849C94A1B180B601368C84D2B
:104380009B0A9B020343136010682B68C54F9B0276
:1043900038400343136010680B68C1025B05C90A0B
:1043A0000B43136004230C982370BF4B984200D931
:1043B00000BEBE4F00213A6D7B6D58F7A9FF2A68F9
:1043C0000903000D0843BA4B0138511CD8608842DC
:1043D00000D1DA60B74AD86811794A1E9141C9B252
:1043E00045F7EAF9B44BDB6A98478023B3491B02CF
:1043F0000A681A42FCD08023B14D5B002A681A4239
:10440000FCD080222B689343AE4A2B6011888BB27C
:10441000452903D84621CB1ABB6511803DF755FFCE
:104420008021A94B1B6833632B680B42FCD0A74A41
:1044300013888B4313802378042B05D1A44B1B785E
:10444000013B5A1E934102339A1E012A00D9A3E16F
:10445000042201279F48A04E0188102511430180A6
:1044600031699E481143316101889D4CB9430180F7
:10447000022B00D05CE12388AB4323800022994BC0
:104480001A80994B1B88DB0509D40123974A1188B0
:104490000B431380602296490B8893430B800124C1
:1044A000944A0D201388A34313805BF75FF903211F
:1044B000914A13888B431C43904B14801A88D20670
:1044C00002D58F4A0531118030BF1B88DB0602D52B
:1044D00008228C4B1A80602385490A889A43403B06
:1044E00013430B80FCF7BAFC042233699343336116
:1044F00062B6C823844A1380E6E500220A920A9B2A
:104500000B2B04DD099B01330993FFF7D3FA099BB9
:104510000A9C43431B199B005A500A9B01330A9380
:10452000EDE76442FFF7D2FA6442FFF7E3FA49424B
:10453000FFF7F4FA6442FFF705FB6442FFF716FB4E
:104540006442FFF723FB0023704C0A930A9B0B2B5A
:1045500004DD099B01330993FFF72EFB0A9B099A9F
:1045600032009A401305F4D0099B0A9A6B439B18BA
:104570009B001B59013300D100BE099B0A9A6B4373
:104580009B189B00E358002B1ED0099B0A9A6B4393
:1045900094460A9A634409999B000591206B616BCC
:1045A00000900191E058C11758F746FF059B1A018A
:1045B00058F742FF009B03430293019B0B43039375
:1045C000029A039B226363630A9B01330A93BDE74C
:1045D00000232B80FFF70AFB4D4D4E4928880840E9
:1045E000C021C9000143F02029802988000201432D
:1045F00029801988A143198004211888464C8843D2
:104600001880108820401080148844480440C0203E
:104610004001204310800122288802432A80324A28
:1046200012880A42FBD0FFF72DFB3D495B183D493C
:104630000B4201D0FFF7B4FB9423FFF7B0FB20003F
:104640008A4200D1ABE5384AA8E5DBB2CA1A55B2B6
:10465000120601D55B1A5DB2072D00DCC6E5836842
:10466000013383605CF7B6FFFEF7A4F8FBF7B8FEF2
:104670005CF7EEFF5CF774FF2C485DF71BF85CF706
:10468000BFFF044B7E331C70B0E5C04620000040E5
:10469000B464FC0728CDFC07B064FC073C00004074
:1046A000B864FC07FF03E0FF3F420F0028CBFC0784
:1046B000A8CDFC0718FAFC07E4FEFC073000004018
:1046C000000200400A330050080200400800005079
:1046D00078FAFC071000005000ED00E00C030050D9
:1046E00012000050180000502A00005056000050E0
:1046F00052000050240000500A00005014000050E6
:10470000003300500233005000310050A8CCFC07A9
:1047100080000050FFF0FFFFFFF9FFFFFFC7FFFF22
:1047200000CDFFFFFFFEFFFF82FBFFFF70E0FC07F5
:10473000238800982B43238023881A49134323801E
:1047400040305CF7F3F92388079A1D43164B258008
:104750001A60EFF3108287F31088A0218020C9052A
:104760000B8883430B80002A13D182F310880F4BF0
:104770001B88DB0500D481E60022009B0B20403320
:104780001A705BF74BF8012309490A8813430B8021
:1047900074E687F31088EAE7012B00D0A8E630BF63
:1047A000A6E6C0469C64FC072000F4072A000050DF
:1047B00080000050F0B50546007985B007073F0F2F
:1047C00028463EF74AF9029028794006C00F039028
:1047D00028463EF742F94448806A8079012825D06E
:1047E0000126414840300079800775D5002E73D0EE
:1047F00000222B2311463D4856F77EFA0227077008
:1048000001263B4946700446C969A87988472A2190
:104810000855287900210007000FA070030058F701
:104820001BFE0737393B423F423D42000298019050
:104830002D4814300090002604680BE0611D01989B
:104840003EF721FA002804D02079B84201D1012690
:104850001BE02468002CF1D100983EF70AFA2549A4
:104860000978884202D1244806780EE000210C2005
:1048700056F734F904460622401D019958F798FD71
:104880002771214600983EF725F901204640A8E708
:10489000A1700AE0A67021E0032002E0A77004E006
:1048A0000420A07001E0012818D0A888000A801F09
:1048B000A07228463EF7D1F8811D2046A27A0B301F
:1048C00058F776FD0622201D029958F771FD0398CE
:1048D000E070204649F792FA05B0F0BDA172F1E709
:1048E000704770477047000074FBFC070408000025
:1048F000E4FEFC07A1F9FC07A2F9FC07074B10B581
:104900000400002B02D0002100E000BF044B1B6814
:10491000002B00D09847200000F062F80000000053
:10492000C064FC0703008218934200D170471970DD
:104930000133F9E770B500260C4C0D4D641BA41033
:10494000A64209D1002600F061F80A4C0A4D641B0A
:10495000A410A64205D170BDB300EB5898470136AC
:10496000EEE7B300EB5898470136F2E7A853FC078F
:10497000A853FC07AC53FC07A853FC07002310B551
:104980009A4200D110BDCC5CC4540133F8E7030057
:1049900030B51C78002C09D1181A30BDA542FBD0C7
:1049A00001321578002DF9D10133F2E70A00F8E75A
:1049B000030030B51C78002C07D00A0002E0A542A5
:1049C00005D001321578002DF9D1181A30BD013308
:1049D000F0E70023C25C0133002AFBD1581E704768
:1049E000FEE7C04602B4714649084900095649002D
:1049F0008E4402BC7047C04602B471464908490063
:104A0000095C49008E4402BC7047C046F8B5C046F8
:104A1000F8BC08BC9E467047F8B5C046F8BC08BC58
:104A20009E467047E60903031802180418F5FE10A5
:104A300024162F2F7777772E69616E612E6F72673C
:104A400000444C472D50524F5852002E0052656E74
:104A500065736173004441313435333500312E3094
:104A60002E302E302D4C4500765F362E302E3234CF
:104A70002E3134363400123456FFFE9ABCDE00FF6D
:104A8000EEDDCCBBAA00000000010203040506070E
:104A900008090A0B0C0D0E0FEEF4F7FAFCFEFF00EE
:104AA000010203045BB005020000000032000000B8
:104AB00001060200000000010105020000030001E0
:104AC000010000001130EF000000020002000000B1
:104AD0001230EF00000004000300000000421F003D
:104AE00000000200040000001120C20000000200CB
:104AF000050000001128C2000000020006000000AE
:104B00001228C200000004000F00000011608500A0
:104B100000000200100000001140850000000200AB
:104B2000130000001264C80000000400140000001C
:104B300001431F00000004001500000001111F00C8
:104B4000000004001600000002441F0000000800DE
:104B50001700000008441F000000080018000000B3
:104B600001841F0000000800190000000C441F0011
:104B7000000008001B0000000C451F000000100092
:104B80001C00000001651F00000001001D00000066
:104B900001101F00000002001E00000008451F0059
:104BA000000010000AFF00D2444C472D424C450043
:104BB0000D08FC07190DFC074D0DFC070000000057
:104BC0002908FC07C507FC0700000000D02EF807E5
:104BD000C02FF8072000800000C000000000040083
:104BE00000002822000000000000040000F7FFFF82
:104BF0007F00000030F00708000000000004000003
:104C000000000000000000000000000000000000A4
:104C10000000000001D200800500010007070A071C
:104C20000D0D0806070000004D4AFC07554AFC0719
:104C30005D4AFC07554AFC07684AFC07684AFC07BE
:104C4000764AFC077F4AFC07144CFC070000000072
:104C5000983BF2072CCEFC07040001000124000061
:104C6000E108FC0703240000E508FC070424000019
:104C7000E908FC0714040000912BFC071504000050
:104C8000152CFC07021400008510FC07FD31F2070B
:104C9000BD2FFC071D09FC07BD2CFC077D2CFC0764
:104CA0009D2CFC075D2CFC07DD2CFC07F8000000A8
:104CB00013040000C930FC07001700000531FC0791
:104CC000130E0000912DFC07150E00004931FC0762
:104CD000170E00005109FC07190E00005509FC07CA
:104CE000150D00006D09FC0700FC00007D32FC077B
:104CF00001FC0000F12AFC0702FC0000852AFC07E9
:104D000003FC0000C534FC0700280000010000007F
:104D10000000000003280000010000000000000067
:104D2000192A000001000000008000000229000094
:104D300009800200000000000429000001000000BA
:104D4000008000004C4DFC0706000000002400001D
:104D5000E119FC07022400009916FC07170C00005B
:104D60008D19FC07150C0000611AFC07130C0000DC
:104D7000D91CFC07000C00008916FC07C912FC07AF
:104D80008111FC072902FC073902FC0780000000A2
:104D90004124FC07020000006524FC070800000015
:104DA0006D24FC07000100008924FC0700020000BC
:104DB00075C1F007400000003794F00710000000B4
:104DC000C97BF007040000001524FC070100000067
:104DD0004D24FC0720000000B906FC07000000007D
:104DE000000000000028000001000000000000009A
:104DF000032800000100000002000000292A000032
:104E00000100000080800000032800000100000075
:104E100004000000242A000001000000808000003F
:104E2000032800000100000006000000252A000001
:104E30000100000080800000032800000100000045
:104E400008000000272A0000010000008080000008
:104E500003280000010000000A000000262A0000CC
:104E60000100000080800000032800000100000015
:104E70000C000000282A00000100000080800000D3
:104E800003280000010000000E000000232A00009B
:104E9000010000000880000003280000010000005D
:104EA000100000002A2A0000010000000880000015
:104EB000032800000100000012000000502A00003A
:104EC0000100000007800000D04EFC070300000036
:104ED00000140000851EFC07130C0000191BFC07C2
:104EE000031400000517FC07A51DFC07611EFC0745
:104EF0005102FC075302FC07000000000000000004
:104F0000F4011000F4352348F40108C4140A000029
:104F100017000000DD29FC0700000000240000004D
:104F20005929FC072D2BFC0714000000A529FC07BC
:104F300000000000FC000000112AFC070000000037
:104F4000FF0000000000000000000000140000004E
:104F50005502FC07170000009502FC072400000022
:104F60004902FC07FC0000004528F207FF00000092
:104F7000000000007C4FFC0704000000150C00003E
:104F80003D1CFC07130C00008D17FC07090D0000E9
:104F90003518FC07000D0000B518FC0700280000BC
:104FA00001000000000000000328000001000000D4
:104FB00002000000062A00000880000001800000B6
:104FC0002114FC079D11FC078B02FC07F91BFC0751
:104FD000002800000100000000000000032800007D
:104FE0000100000002000000062A00000900020083
:104FF0000180000000280000010000000000000007
:10500000032800000100000002000000072A000041
:105010000100000001800000AD11FC076108FC07E1
:10502000E852FC075D10FC078C4CFC0768CDFC07C0
:10503000C0CBFC07B8CDFC0705000000D85AFC0720
:10504000000400001C58FC07B00200001054FC07CC
:1050500000040000E45EFC0770050000200300006F
:1050600000A60E0004000000D20000003200000084
:105070003C000000010000000100000002000000F0
:105080000200000004000000030000000600000011
:10509000000000000200000002000000000000000C
:1050A00000000000030000000300000005000000F5
:1050B00005000000060000000A0000000A000000D1
:1050C000C8000000B80B000002000000B80B000090
:1050D000B80B000010000000D4010000CC0100005B
:1050E000700200006A0000000400000001000000DF
:1050F000200000000C00000001000000E20400009D
:105100008A020000DC050000AF000000C052FC076E
:105110003051FC0700000000C852FC071850FC0783
:105120000000000000000000000000005E01000020
:10513000B853FC07B053FC07C853FC070854FC07DE
:10514000E527FC07C128FC07A7C6F00703C7F0073F
:105150000BC7F0075FC7F00777C7F0078DC7F007E9
:10516000AFC7F00731CBF007D5CDF00715CCF0076E
:1051700035CCF00755CCF00793CCF007A3CCF00763
:105180000DE2F007C9DFF007E7DFF00703E0F00703
:105190001DE0F00731E0F007AFE0F007C7E0F007EF
:1051A000E3B0F1076BB3F10707A9F007B5EFF1071B
:1051B00099F0F10795F0F10791F0F1078D21F007D3
:1051C000A107FC072107FC071527FC077907FC0747
:1051D0001907FC07057DF007D37BF007737CF00708
:1051E000AD82F1074134F1075D19F207DD19F207CD
:1051F000811AF207BD1AF2074D1BF207851BF20751
:10520000000000009B07FC079D07FC077DB3F0072B
:10521000D976F107617DF107B181F1079780F10738
:10522000C549F1079759F107F10AF107A1ECF00719
:105230009907FC07B547FC07DDBAF00725AAF00778
:1052400099AAF00749ABF007E72DF007A32EF00766
:10525000657FF0072F7EF0070136F00700000000A1
:105260007F27FC074926FC073527FC0701A7F10724
:1052700083A7F10707A8F107C50CFC07B5B7F0072E
:10528000000000000000000000000000000000001E
:10529000000000000000000000000000000000000E
:1052A00000000000000000000000000000000000FE
:1052B00000000000000000000000000000000000EE
:1052C000004FFC07A0CDFC074C4FFC07CCCDFC07E2
:1052D000040000000000A00F080001000000000012
:1052E0000000000000000400452FFC07112FFC0700
:1052F0000000000000000000A52FFC0700000000D7
:10530000E90FFC0700000000B52FFC0700000000BB
:105310000000000000000000850DFC07ED08FC0700
:10532000FD08FC07A10DFC07000000000F09FC07A9
:105330004D27FC07000000000000000000000000F6
:105340007911FC078512FC07000000000000000036
:10535000FD2CFC0700000000000000000000000021
:10536000000000000000000000000000FF0000003E
:0F5370000000000000000000030000100001001A
:0853800028AEFF7F01000000D0
:0C538800A453FC07A453FC070C00000019
:105394006464FC076000000028CBFC07940500004F
:0C53A400E00100008501FC075901FC0736
:1053B00000000000000000000000000000000000ED
:1053C00000000000000000000000000000000000DD
:1053D00000000000000000000000000000000000CD
:1053E00000000000000000000000000000000000BD
:046460000000000038
:0400000507FC2331A0
:00000001FF
