:0200000407FCF7
:10000000B088FC071524FC076907FC074907FC07B3
:100010004507FC074507FC074507FC074507FC07A4
:100020000000000000000000000000004507FC0781
:1000300000000000000000004507FC074507FC0722
:10004000A126FC076127FC07A526F0079111FC07F4
:10005000E104FC074507FC076902FC074507FC07AC
:10006000610BFC074507FC07AD04FC07B704FC0760
:10007000C104FC07CB04FC07D504FC074507FC07BB
:100080008106FC074507FC074507FC074507FC07F9
:100090004507FC074507FC074507FC074507FC0724
:1000A000000000008E070E000000000000000000AD
:1000B0000000000000000000000000000000000040
:1000C0000000000000000000000000000000000030
:1000D0000000000000000000000000000000000020
:1000E0000000000000000000000000000000000010
:1000F0000000000000000000000000000000000000
:1001000000000000000000000000000000000000EF
:100110000448054B10B5834203D0044B002B00D09C
:10012000984710BD646BFC07646BFC07000000007F
:1001300006480749091A8B10C90FC91810B549108C
:1001400003D0044B002B00D0984710BD646BFC0714
:10015000646BFC070000000010B5074C2378002BEF
:1001600009D1FFF7D5FF054B002B02D0044800E072
:1001700000BF0123237010BD187CFC0700000000A5
:10018000346BFC07054B10B5002B03D00449054820
:1001900000E000BFFFF7CCFF10BDC046000000002C
:1001A0001C7CFC07346BFC07402292029A1A924690
:1001B0007047C046174B002B00D1134B9D46FFF7ED
:1001C000F3FF00218B460F461348144A121A05F01C
:1001D000D7FF0E4B002B00D098470D4B002B00D0C3
:1001E00098470020002104000D000D48002802D08F
:1001F0000C4800E000BF05F0CBFF2000290003F011
:1002000077FF05F0A9FFC0460000080000000000CD
:1002100000000000B088FC07187CFC07B081FC07D8
:100220000000000000000000002203695B189A73C0
:1002300070470000004870478067FC070223074AA8
:1002400011880B430121138013885B080B42FBD1FB
:10025000034B1980034B188880B27047001500507B
:100260000E150050101500500122044B10B51A80D5
:10027000034B1B68002B00D0984710BD0E15005093
:10028000288BFC07F8B5234C01212288224B12074A
:100290002CD51A0062320026965F64330027DF5F98
:1002A0001E4BF6180304181A31005EF7ABFE05006A
:1002B00038043100C01B5EF7BBFE194A0023281A20
:1002C000904204D880235B02984220D283B2072058
:1002D0002288002192090240824204D022880631FD
:1002E00092090240891A0B4198B2F8BD0D4A128852
:1002F00092090A4205D01A0058320026965F5A33F6
:10030000CCE71A005C320026965F5E33C6E7034BEB
:10031000DDE7C04602150050288BFC07FFFF0000F8
:10032000FEFF010000150050FA22030010B5002066
:10033000D200934209D3054A6430934205D8044A57
:100340000A2198185EF774FEC0B210BDB80B000009
:1003500030F8FFFFF8B504000C4B0A001E6F5F6F0A
:100360000D00012000215EF70BFF22015EF708FF60
:1003700030403940084300D100BE054B6401E41809
:100380000123AB409BB22380F8BDC046288BFC07FD
:1003900002300050F8B504000C4B0A001E6F5F6F6E
:1003A0000D00012000215EF7EBFE22015EF7E8FE62
:1003B00030403940084300D100BE054B6401E418C9
:1003C0000123AB409BB22380F8BDC046288BFC07BD
:1003D00004300050F0B5040085B002930AAB1B78DE
:1003E00001920D000A000120002103935EF7C8FE70
:1003F00022015EF7C5FE060033000091124F009AFD
:10040000386F796F03400A40134300D100BE039B4D
:1004100029002000002B14D0FFF79CFF3A6F7B6F60
:100420000099164019400E4300D100BE074B6401ED
:10043000029AE418019B6D0064191343238005B0F0
:10044000F0BDFFF7A7FFE9E7288BFC070630005057
:10045000020070B501240A3A9440002610490B8826
:10046000A3431DB2631E63405B109BB2002B0DD1F2
:1004700001242300B3402B439BB20B80094B920015
:100480009B189B6F002B05D0984770BD01365B0809
:10049000B6B2EBE7C0238440034A5B00D450F4E7D4
:1004A0000E140050288BFC0700E100E010B50A2074
:1004B000FFF7CEFF10BD10B50B20FFF7C9FF10BD31
:1004C00010B50C20FFF7C4FF10BD10B50D20FFF7CD
:1004D000BFFF10BD10B50E20FFF7BAFF10BD000022
:1004E00010B5074B988D074B80B29B6B002B01D04A
:1004F000984710BDC0231021034A5B00D150F8E794
:1005000000130050A88BFC0700E100E0094B012814
:1005100008D002280BD07C22998891431C220A43E0
:100520009A8070477C2299889143403AF7E77C2271
:100530009988F4E7001200502021054A13888B4364
:100540001380044B3C331B781B075B0F938470476D
:1005500000120050A88BFC070023044A93841188E2
:10056000203399430B4313807047C046001200505C
:10057000A0233022DB0519880A431A800322198838
:100580000A431A807047A0233021DB051A888A436A
:100590001A801A882D398A431A807047044A1388B2
:1005A00010885B059B0F8004DB00400FC01870476C
:1005B0005400005070B5EFF31084012585F31088C6
:1005C000184B1B88DB050AD5174B4C331D70FFF702
:1005D000E5FF164A164B10701B882B405370A02362
:1005E00080220720DB0519880A4312491A800A680D
:1005F00082430A600422104801681142FCD01B8823
:100600001B0600D400BE0D4B0D4A1A600D4B0E4A5E
:100610001A60002C02D184F3108870BD012383F38B
:100620001088FAE72A000050A88BFC07787CFC07AA
:10063000800000500000F4070400F4071000F407E5
:100640000F0099091400F407090404A4094A10B51D
:100650001188094CC30821405B020B43E021138041
:100660008901C0021388084004490B4018431080D8
:1006700010BDC04654000050FFF9FFFFFFC7FFFF49
:1006800070B5FFF780FF264A13881B051CD505208F
:10069000244B19880140814216D1042219880A434B
:1006A00001211A801A888A431A801F4B1B6D002B68
:1006B00009D01E4A10881E4A00B211881D4A09B28C
:1006C000128812B2984770BD1388DB0613D5012437
:1006D0001948038823420ED08021184B1D880D42F3
:1006E00009D004801A888A431A800F4B5B6D002B57
:1006F000E9D09847E7E71388DB06E4D502210E4AE4
:1007000013880B42DFD00D4B1888C005DBD5118054
:100710001A880B490A401A80034B9B6DE7E7C046D5
:100720000400005000020050A88BFC070202005099
:10073000040200500A020050040100500001005061
:10074000FFFEFFFFFEE7000004207146084203D0D1
:10075000EFF3098003490847EFF308800149084790
:1007600070470000813EFC0704207146084203D018
:10077000EFF3098003490847EFF308800149084770
:1007800070470000993FFC07002070477047704792
:1007900010B5031CE6280CD9084B1B78F920FA2168
:1007A000DBB24000584389005EF742FC7F38C0B29C
:1007B00010BDC2B2282AF1D22823EFE7D062FC078D
:1007C000704770474B1E012B00D900BE431EDBB2A1
:1007D000FD2B04D800BE0C20022902D17047FF284F
:1007E000F9D1024B5C331878F8E7C046A88BFC07B8
:1007F0000723054A11680B431360044A0449136830
:100800000B4013607047C0463000004000020040BB
:10081000FFFFFBFFFF22074910B50868064C030CD9
:10082000134002400A3320400A3202431B041343A0
:100830000B6010BD8000004000FF00FF0F49104B0F
:100840000A881A4080239B0013430E4A0B801368CA
:100850000D490B40136000220C4B1A6019680C4ABA
:100860001140802292020A4380211A60F023C905B8
:100870000A689A43103B13430B60704738300050AE
:10088000FFFCFFFF00020040FFFFDFFF740000409D
:10089000FFFFE0FF70B50400074D702228000749F4
:1008A00005F09AFC064BA4B21B1B9BB22B81054B97
:1008B0001B1B9BB26B8170BD70A0FC071466FC070C
:1008C000B8A0FFFFCCA0FFFF6649674B0A6870B570
:1008D0001A40B0231B0113430B606449644B0A6840
:1008E000C02092B21343634A0B60136862498000D0
:1008F0000B40802189010B431360604A604D1368EF
:10090000604E0343136010235F4A1488234313800F
:1009100001235E4A1488234313805D4B5D4A5E4C7D
:100920001A6022885D4B1A40BC239B00134323802E
:100930005B4C5C4A23685B0D5B05134323605A4C98
:100940005A4B22681A4090235B0113432360584C92
:10095000584B22681A40584B13432360574C584B4E
:1009600022681A40574B13432360574C574B226859
:100970001A40574B13432360564C574B22681A407A
:10098000564B13432360564B564C5C331A78C123A5
:1009900012065B011343544A1360A022534B5201C9
:1009A0001A80534B534A1A80FF2322889A43AA3B4A
:1009B00013438D222380504B92001A804F4B504A94
:1009C000504C1A80504B514A1A80514B514A1A8050
:1009D000514B524A1A80524B524A1A802268524B4B
:1009E0001A40524B13436C222360B024504BFF3209
:1009F0001A802A884F4BA4001A4022432A80902252
:100A0000358892001D402A433280A8224A4E920027
:100A100035881D402A43494D32802A881A401443A4
:100A20002C80C624464A64001480464C2288134019
:100A300018431F232080444802889A43063B1343EF
:100A4000424A038013884248034019430723118018
:100A500040490A689A43043B13430B603E4A3F4BAC
:100A60001A6070BD34300040FF80FFFF203000402E
:100A70000000888838300040FF00FEFF5030004002
:100A800038120040441200405C30004024300040E6
:100A90008000004059055C07202000400FFCFFFF4C
:100AA0001820004009581A001C200040FEE1FFFFFA
:100AB00004200040E0E00000080929490820004027
:100AC00000000303696A686C0C200040031FFFFFED
:100AD0007060000010200040E0E0E0E00B0A0A082F
:100AE000A88BFC074813004000100040281300406A
:100AF0002C13004005140000501300405413004014
:100B0000340A00003C200040581300405108000007
:100B10005C130040260A00006013004058080000E3
:100B20002C200040070F00002F64E0FE101A060181
:100B3000001200401FFCFFFF481200404C12004012
:100B400004120040881200409C1200403C100040FB
:100B5000FF9FFFFF801000405001500164100040D3
:100B60000C4B1B8899B2DB0708D507230A4802887B
:100B70009A430A4B5D331B7813430380490708D51A
:100B8000072305490A889A43044B5E331B781343B5
:100B90000B807047B4100040B8100040A88BFC07D1
:100BA000094B01221B88DB0918001040134208D0B2
:100BB000064B00201B681B0403D4054B1B889A437B
:100BC000100001231840704708000050300000401A
:100BD00054BAFC0710B5174C23005F331B78002B69
:100BE00026D0154B002820D0042219881142FCD1B0
:100BF00022000023F8205F321370104A1049128837
:100C00000988120452180F4980055143890B01319C
:100C100049086166492162F723FC0300A06664204D
:100C20005843000CE166206602E01B885B07DFD5B5
:100C300010BDC046A88BFC070016005006160050D9
:100C40000416005011110100084B10B55A6E802394
:100C50001B02984207D3002319005EF7FDF98905AE
:100C6000800A084310BD5043800AFBE7A88BFC07AD
:100C700010B5FFF7E9FF10BD0F4B10B51868FFF76F
:100C8000E3FF00220D4B0E491C6F1A670419200068
:100C90005EF7B8F90B4B0A49186020005EF7B2F90D
:100CA000002901D0064B591A074B084A1960082140
:100CB00013680B43136010BD38000040A88BFC077D
:100CC000710200004400004040000040300000403D
:100CD000044B10B51B6E04495843044BC0185EF713
:100CE00091F910BDA88BFC0740420F0020A107001E
:100CF0007047704770470000064B984200D000BE16
:100D00000321054A13888B43802109020B4313807A
:100D10007047C0461111111112000050154BF7B564
:100D20001A00C02600203F27134C6C3212785C3426
:100D3000009204330194B600009A824200DCF7BDB1
:100D40001D680E495A688D4212D1910A4C040FD089
:100D5000019C2478092C0BD9394032400A432A607F
:100D60005A680749D201D20D0A6001300833E3E71F
:100D70002A60FAE7288BFC07A88BFC074C10004080
:100D8000987CFC07124BF7B51A00002111486D3210
:100D90005C30114D114F1678043301908E4200DC07
:100DA000F7BD58691A698446AA420DD101980478A2
:100DB000092C09D960463A68094C52042040024384
:100DC0002A6001310833E9E760461060F9E7C04660
:100DD000288BFC07A88BFC0738300040987CFC0768
:100DE000FFFF01FCF8B51C4B00201A000C25012662
:100DF00074321278194C290051430F5DFF2F16D120
:100E0000002802D0190074310A701A000C257532BE
:100E100012781348290051430C5CFF2C13D11900A0
:100E200000227431753301200A701A700AE06118CB
:100E3000496801323000D2B20029DCD074331A7014
:100E400088470020F8BD411849680132D2B2002914
:100E5000E0D07533F3E7C046A88BFC07206BFC0796
:100E6000D066FC07002070470020704700207047C4
:100E7000024B76335B8C03807047C046A88BFC071F
:100E800008230380DB184380002383807D33C380E5
:100E9000704701230B7000234B808B80704700004C
:100EA000094B10B5C21893B20120042B0BD80024B3
:100EB000064B92009818C369A34201D0C4619847B9
:100EC0000020029B1C7010BDF2FBFFFF288CFC076A
:100ED0007047704700207047180A7A234343034A3B
:100EE0000020D2180B78A83213707047288CFC07AA
:100EF000002070470020704700207047F0B5774E03
:100F00000F21736B8FB01A000A40C27194466A4673
:100F100004001D090D408571180B08400390127BD9
:100F2000180A0A9222706A4608400690127E180D2E
:100F300008400B92627004901A0FA070180C1B0EE0
:100F40000B40089363710C236B4363449B00F318BD
:100F50009B6D08400790E070099201202271002BE0
:100F600000D0B3E00C236B4363445D4F9B00F31848
:100F70009865C1173A6F7B6F0C920D9362465EF7CE
:100F8000FFF82A015EF7FCF80C9D05430D982A0036
:100F9000084303003A677B670C23049A01205343FC
:100FA000079A9B189B00F618B36D002B00D08FE0BA
:100FB0000C22049B494F5343079A494E9B189B00B0
:100FC000FB189865C117326F736F0C920D93079AD7
:100FD0005EF7D6F8049B1A015EF7D2F80C9D054324
:100FE0000D982A0008430300326773670C22099B9F
:100FF00001205343089A9B189B00FB189B6D002B04
:1010000068D10C22099B364E5343089AC1179B188E
:101010009B00FB189865326F736F04920593089AD2
:101020005EF7AEF8099B1A015EF7AAF8049D054326
:1010300005982A00084303000C2532677367039B59
:1010400001205D43069BED18AD007F19BB6D002BA1
:1010500042D10C230399214A4B430699204D5B183A
:101060009B00D2189065C117069A5EF789F82E6F1B
:101070006F6F039B1A015EF783F830433943020018
:101080000B002A676B670123C0220B990A98009313
:1010900092001C33FFF79EF90025C022E179A07968
:1010A0001C2300959200FFF795F9C022E178A07803
:1010B0001B2300959200FFF78DF91A232A0061790E
:1010C00020790095FFF786F90FB0F0BD404249E75F
:1010D00040426DE7404294E74042BAE7A88CFC07E3
:1010E000288BFC0770B50D78092D09D04C78012D9F
:1010F00001D1432C02D0002C00D000BE00F0F0FA49
:10110000002070BD1E22084B1A80084B1B3A19881C
:101110000A431A80042219880A431A800122044BC8
:101120005F331A707047C046021600500016005018
:10113000A88BFC07F7B500240126134B1349D88E62
:101140001A6B9F8E121887420BD8002C00D0D886BD
:1011500001248A88A2438A801B6C002B0CD09847FC
:101160000AE08D8AAC46451CADB201956546354214
:1011700003D1002C00D0D886F7BD08883400107049
:1011800001980132DFE7C046288DFC0700110050AE
:10119000F7B52F4C0F232089184001380B28F9D8B8
:1011A00005F04EF85413F841F8444EF8F8F8F806F4
:1011B000FFF7C0FF0122A3889343264AA380136C44
:1011C000002BE6D0D08E9847E3E7224B988DDA8D3E
:1011D00082421CD29A6A20260192022294461E4F15
:1011E000D98D8842D5D93F252289AA43D2B2C02AB7
:1011F00009D165463A882A42CBD04A1CDA85019A41
:10120000525C2280ECE7A28A3242F6D1C1E7022189
:10121000A2888A43A280A2887E318A43A280DB6BA7
:10122000002BD0D1B5E7FFF785FFB2E7094B9B6BE9
:10123000002BAED09E22A18A114005489847A8E70E
:10124000044B9B6B002BA4D00121F6E7F7BDC046F1
:1012500000110050288DFC077C11005010B500F0E3
:1012600091FEFFF761F810BDEFF31082012383F3C5
:10127000108808490988090603D4074908880343E8
:101280000B80002A02D182F310887047012383F378
:101290001088FAE70800005008330050054910B5DF
:1012A0000B0076331A7877310270013004F094FF26
:1012B00010BDC046A88BFC0770B5047803000D0074
:1012C000002C04D0012C0CD048242C7070BD8278E6
:1012D0000748010076310A707730191D04F07CFF51
:1012E000F3E7034A4388763200245384EDE7C0468F
:1012F000A88BFC072D4A30B5130048331B88002B00
:1013000048D12B490C001C3498000559002D3CD1C4
:1013100009182848C86128495B189BB248321380D5
:10132000264B274A5A65274B196F5A6F80231B019A
:101330000B4200D100BE244B1B881B0524D5102373
:10134000224A8020118800010B43138004223F2190
:101350001F4BFF241A801F4A13888B4300211380E0
:101360001D4B18801D4B1980802311881943118053
:101370001B4A1080C4201B4A80001158A1430B4314
:10138000135080235B02136030BD0133052BBBD1AA
:10139000154BC3E7154A9B18042B01D900BEBFE7C4
:1013A000034A9B00D218034BD361B9E7288DFC0791
:1013B000288CFC07D130FC070E040000A88BFC072A
:1013C0001116FC07288BFC07003000500400005069
:1013D00004010050000100500C01005002010050B7
:1013E0000801005000E100E0FFFF0000F2FBFFFFFA
:1013F000F7B50122694B6A4D1A802B88694CDB05D1
:1014000023D46949694B0A0061CB61C223CB23C253
:10141000674B684A61CB61C204F041FC664B674A86
:101420001A60674B674A61CA61C3EFF310810122FA
:1014300082F3108880236448DB0005882B430380F7
:10144000002922D082F3108821E023004C331B783E
:10145000002B12D15D4B1B88DB0413D51B2001260A
:101460005B4B18705E70FFF7F1F85A4A13883343EC
:1014700013802B885B07FCD5C3E7FFF78FF81B2889
:10148000E8D9BEE7544B1B88E8E781F31088202396
:101490000326524D00202B80FFF738F8AB88012738
:1014A000B343AB8080233C34AA8821789A43B94364
:1014B000AA80217022000024AC81298920000B43DE
:1014C0002B810E23117899430C3B0B4313707F2221
:1014D0002B890B21934333432B812B883F3A934332
:1014E0002B802B88203A93432B80E03223000094FA
:1014F000FEF770FFC0222300092120009200009413
:10150000FEF768FFC0221D233900200092000097DB
:10151000FEF760FFC0221C230421200092000094EB
:10152000FEF758FFC0221B232100200092000094E8
:10153000FEF750FF1A232200310020000094FEF72E
:1015400049FF274D90222B0012014C331A811B7941
:1015500009212000BB421BD1FEF7FCFEFFF7CAFEAB
:101560002B0058331B78002B0BD02B0059331878E5
:101570002B005B355A3319782B78012B0BD1FEF7F2
:10158000E9FE012317490A889A4313430B80F7BDEC
:10159000FEF700FFE2E7FEF7FDFEF2E70003005072
:1015A0002A000050A88BFC0720000840B866FC0702
:1015B000AC66FC07C000FC070000084007001000F4
:1015C0006C7CFC07846AFC07040000505200005049
:1015D000787CFC078000005020030050001200506F
:1015E000288DFC070C030050002210B5064BDA646E
:1015F0004C33597A187A9A80FEF7CCFE04210348BE
:101600005BF781FD10BDC046288DFC071304000068
:1016100010B5134C23004C335B79002B01D0FFF73E
:10162000E3FF23005C331B78002B16D023005D33CF
:101630001B78002B04D101220A4B1A700A4BDA7076
:10164000FFF712FE23000022483420885C331A7012
:10165000904202D004215BF7FEF9FFF74BFE10BD6C
:10166000288DFC07B4BAFC0754BAFC0710B5041E59
:1016700001D0442813D1FFF7B7FF442C0FD101222A
:10168000074B5C331A700223064A11880B43138000
:10169000042305490A881A42FCD0FFF72BFE10BD2F
:1016A000288DFC07100000501400005070B50A4C43
:1016B00085006619336E002B0BD10A21000201430D
:1016C0001E33042205485BF795F90823FF33038096
:1016D00030666419206E70BD288DFC07140E000062
:1016E00010B50C001900064B984207D1022305489B
:1016F0005BF780F9A38803805BF797F910BDC046BC
:101700000D0C00000E0C0000F8B50E00307819002A
:10171000082818D80E4B1D5C0E4B8000C758AB1C18
:101720000D485BF767F93378040003704570002DAE
:1017300004D02A003900023004F04EFD20005BF78F
:1017400074F90020F8BD00BE00273D00E7E7C04661
:101750009864FC07A464FC0703140000431EDAB27B
:1017600070B50500092A18D80D4C9B00E418636E6B
:10177000002B12D00B4EB3420FD00B4B0421C018DC
:101780005BF7C1FC042208231100084866665BF77A
:1017900031F905705BF749F970BD00BEFCE7C04642
:1017A000288DFC07D10EFC07030400000204000092
:1017B00010B510005BF764FB00280BD10123042255
:1017C000092105485BF716F9012303705BF72DF932
:1017D000002010BD00BEFBE7020D0000F0B50C7844
:1017E00016001D008BB0012C24D0022C2DD0002C13
:1017F0001DD101AF21222100380004F0C1FC3800C6
:10180000FFF74CFD3F7829003B0032000A331648B1
:101810005BF7F0F8BBB243806B46050004703A00FA
:101820000430591D04F0D8FC28005BF7FEF80020B6
:101830000BB0F0BD0D4B290076335F8C0A480A23AC
:101840005BF7D8F804704780EFE70A2329000648C1
:101850005BF7D0F808234380DB1883800023C38024
:101860007D3304700381E0E70B0E0000A88BFC07BA
:10187000F8B50F4C85006619F368002B11D10A21C9
:10188000000201431E3304220A485BF7B3F8072223
:101890000700F0600849023004F09EFC0223FF3389
:1018A0003B806419E0685BF7C0F80023E360F8BD93
:1018B000A88DFC07140E00002C6BFC0710B5FFF779
:1018C000D7FF10BD70B5094E050034001034E08A12
:1018D0005FF714FD002803D0836829002000984793
:1018E0003300183470339C42F1D170BDA88DFC07D1
:1018F00070B5194C002815D11025FF266419002356
:10190000A582E8B2013521002361E6826360A3600D
:10191000E381A3812360ADB25BF76BFA1834142D19
:10192000EDD170BD2500FF261035E88A5FF7E6FC93
:10193000002802D04368280098470023A88A6B60DB
:10194000AB60EB81EE8230405BF7ADFA23001835D7
:1019500070339D42E9D1E4E7A88DFC0770B5194EBC
:10196000356F002D28D12C230422092116485BF75E
:1019700041F8164B0400038010222900306745808F
:101980000A3004F0FDFB80239B016383F72323844B
:101990000F4BA5831A00E5837E32658411880A1CEB
:1019A000FB2900D9FB22E28480331988094A0B1CE9
:1019B000914200D9131C2385306F5BF736F8002362
:1019C000336770BDA88DFC07040D0000030A0000FA
:1019D000B0BBFC0748080000F7B5144C8700E519B8
:1019E0006B6F16000191002B0AD10A2100020143FE
:1019F0001E3304220E485AF7FDFF04230370686764
:101A0000E419656F1022AF1C3800002104F0B8FB08
:101A100032003800019904F0DFFB012328006B70CD
:101A20005BF703F800236367F7BDC046A88DFC078A
:101A3000140E00001FB54B780400002B0AD11022B1
:101A400068460B4904F0C8FB102269462000FFF7E6
:101A5000C3FF1FBD012B03D1064B04220093F4E703
:101A6000022BF9D0032BF4D110220231EEE7C0464D
:101A70003463FC0740E20100F0B58BB00593072307
:101A80000E00050001211020099307925AF7A4FEC9
:101A900010220021070004F073FB1E23059A30007A
:101AA000134080221343049303932E4B2E49029339
:101AB000AB8A2F610193002309AA009303334FF7E8
:101AC00015FB33880400FB8003333380002845D1A5
:101AD000109B1B880693012B40D106330993049B6E
:101AE00000900393214B30000293AB8A204901936D
:101AF00009AA03234FF7FAFA33880400BB800333A3
:101B0000338000282AD107230993049B0090039374
:101B1000184B30000293AB8A1749019309AA03239B
:101B20004FF7E4FA3388041E3B8117D1BB88079A2C
:101B30003380109B21001B887B81059BDB031A43AC
:101B400017233A80A88A7880EB82069BEB813B00C2
:101B50000D33AB60094B6B605BF77DF920000BB078
:101B6000F0BDC0469067FC07031800005C67FC07E7
:101B700002180000B467FC07041800003467FC0773
:101B80000300002210B500691A615AF7A0FE10BDCB
:101B9000F7B505690C006E89012E1AD1A32A18D059
:101BA0006F18BB7B002B14D028005FF73FFB210090
:101BB000019028005FF732FB0200B820032301994F
:101BC00040015AF717FFBB7B8670437004705AF7C9
:101BD0002CFFF7BDF8B510000F0016001C005BF7D6
:101BE0004FF9002839D10423320021001F485AF749
:101BF00001FF050017205FF7FBFA002800D100BEA7
:101C000080233A88AB702A80BF79022F08D8C38816
:101C1000240A02339A4208D10419A7730023AB7037
:101C200028005AF702FF0020F8BD838802339A4249
:101C300011D1E4B221005FF7F9FA0100B8200323C3
:101C4000320040015AF7D6FE0223477083700470B9
:101C50005AF7EBFEE2E70623E1E730005BF710F905
:101C60000138434258414000DEE7C046160C0000F0
:101C7000F0B5100085B015001F0002915BF700F968
:101C8000061E3CD117205FF7B3FA041E00D100BE38
:101C90003B0A0393029B1A88E38802339A4215D1C8
:101CA0003B0AE4180023A67B019307232A0039008E
:101CB00017485AF79FFE01234380029B46711B88F9
:101CC0000380019B03715AF7B0FE15E006212389BA
:101CD000019102339A42E8D1033101232A000D48D1
:101CE0005AF788FE072303705AF79FFE039B0121D2
:101CF000280023735BF7AFF8002005B0F0BD280083
:101D00005BF7BEF80138434258414000F5E7C04652
:101D1000140C0000060D0000F0B5172085B0160069
:101D20005FF766FA051E00D100BE30005BF7A8F829
:101D30000700012826D108212B7B32001B02194302
:101D4000124807235AF756FE114904000C22478017
:101D5000103101A804F040FA0E4B3900287B5B6972
:101D6000984701AB181801380378200063712B895C
:101D700000250233238025715AF757FE29003000D1
:101D80005BF769F8002005B0F0BDC046140C0000F8
:101D90003463FC0758BFFC07F8B517200F00140088
:101DA0005FF726FA051E00D100BE20005BF768F839
:101DB0000600012817D17B78002B14D008212B7B3B
:101DC00022001B021943094806235AF713FE4680D6
:101DD0002B8902330380802303715AF726FE0021EA
:101DE00020005BF738F80020F8BDC046140C000056
:101DF0000023F7B5564C4022238084237027554D8D
:101E00009B002B80544E554B3280019360331B88CE
:101E10005349BC460B800B88BB4313430B80514B8B
:101E2000DA67BFF34F8FBFF36F8F00285DD0238831
:101E300007789343BA011343238043784A4A0093B7
:101E4000634611889943009B1B0119431180002FA1
:101E500006D11188009B0737B9431B090B43138038
:101E6000C3780421002B45D023880B43238031887D
:101E70000379C9B21B020B43338013883B4F5B06C7
:101E80003B4E5B0F042B3AD1019B66331A88394BCA
:101E9000002A32D01A80802322885B0113432380DA
:101EA000192004F049F9802322889B0013432380E2
:101EB000402322889A431343238004232A88134310
:101EC0002B802B88DB04DB0C2B80F0232A885B0122
:101ED0003A4013432B80C0232A885B0032401343CF
:101EE00003222B802B8893432B80012322881343CA
:101EF0002380F7BD23888B43B8E71F4ACAE72388AE
:101F00001E4A1340238082780F2A00D900BE2B88F6
:101F100052023B4013439BB22B8003232A889A43EF
:101F2000437913432B808379002B0DD080232288A3
:101F30009B0013432380C279072A00D900BE2B8857
:101F4000920133401343CFE723880D4A1340F1E752
:101F5000001500500215005004150050288BFC0796
:101F60000C15005004E100E006150050FFE1FFFFF2
:101F70003FFEFFFF347CFC0740760000FFEFFFFFD1
:101F8000FFFDFFFFF0B508244F4987B04F4D2200F9
:101F90001C3104A804F020F92B88234200D000BE95
:101FA0004B4C002023884B4F9BB201932B884A4E09
:101FB0009BB20293FFF71CFF04232A88474913436F
:101FC0002B802B88464A13408022920013432B809B
:101FD00023880B4023802988424B1940E0235B0073
:101FE0000B432B804023218899430B4323803B885C
:101FF0009B0A9B0213433B8033889B0A9B021A4334
:10200000802332802288134323802388364A13405A
:102010002380FEF713F98022238852001343039094
:102020002380FEF70BF98022039B30499B095B1844
:1020300052009BB2D31A802280095B0040189BB2E9
:1020400080B2D200934200D300BE3A88920A920234
:1020500013433B80802380225B001B1A5B009BB2F2
:10206000D200934200D300BE3288920A92021343F8
:10207000338023881C4A13402380FEF7DFF8802238
:10208000800980B29200131A904201D9174BC318ED
:10209000072B00D900BE019B04A82380029B2B8044
:1020A000FFF7A6FEFEF7CAF8FEF7ECF80122238838
:1020B0000F4993432380E1231B0158435CF7B8FF8A
:1020C00080B207B0F0BDC0463463FC070215005073
:1020D00000150050081500500A150050FFFDFFFFC5
:1020E000FFE1FFFF3FFEFFFFFFFEFFFF00FEFFFFE0
:1020F000FF0700000822054B10B511201A7004F0EC
:102100001BF80322024B1A7010BDC0460410004099
:102110000510004070B5204C0500A0882021400625
:10212000C00E02D004F0AAF8C1B20A001F201D3A66
:10213000D317DBB29A1853402288DBB28243228045
:102140000222208890430243228004222088904368
:102150000243228001222088904302432280012BE7
:1021600001D92A0C22858020ADB225844001258B1F
:102170002A0002400542FAD1012B01D9228D120416
:10218000A08B1D2905D1C0B2238BDB0B012BFBD00B
:1021900070BD8018F8E7C0460012005010B504006A
:1021A000FEF7CAF92000FFF7B5FF0400FEF7D4F9E7
:1021B000200010BD10B50120FEF7A8F9A020C00036
:1021C000FFF7ECFF80B210BD10B5FFF7F3FF01225F
:1021D00003001340104201D1180010BD0E204042F0
:1021E000FBE7000070B50125074CFFF7E3FF030094
:1021F0002B40284205D0013C002CF6D10120404262
:1022000070BD1800FCE7C04680841E0010B5FFF7C3
:10221000DBFF041E0DD1FEF779F90620FFF7BEFFA4
:10222000FFF7E0FF041E04D1FFF7C4FF800700D4CE
:102230000C3C200010BD000010B5FFF7C5FF0028C2
:102240001DD1FFF7E3FF002819D1FFF7B3FF0D4BB6
:1022500004001B78142B13D1083B1C420FD0FFF74E
:10226000B3FF00280BD10130FEF750F98323802003
:102270001C4040002043FFF791FFFFF7B3FF10BD64
:102280007C23EAE76C7CFC0710B5FFF79DFF002874
:1022900004D1FEF73BF9B920FFF780FF10BD10B560
:1022A000FEF74AF9FEF758F90020FEF72FF9AB20A8
:1022B000FFF774FF10BD0000F8B5174B05002C3375
:1022C0001B780F001400132B23D1FFF77DFF061E90
:1022D00017D1124B3A199B689A4200D9DC1B022095
:1022E000FEF714F9FEF728F9C02080043843FFF701
:1022F00011FF0020FEF70AF92C19A54203D1FEF7C1
:102300002BF93000F8BD0020FFF704FF28700135DD
:10231000F3E701204042F5E7A88CFC076C7CFC0742
:10232000F0B5BDB003AF0190E4223800214903F0BD
:1023300053FF214E3378002B34D1FFF745FF041EA5
:1023400030D1FEF7E3F8FEF7F7F89F20FFF7E2FE43
:102350002000FFF7DFFE05002000FFF7DBFE009006
:102360002000FFF7D7FEFF232D041B041D40009B18
:10237000C0B21B061B0C1D430543FEF7EDF86B1E98
:1023800003330FD83B005A68AA420DD10C235C439B
:10239000DC3302AAE3189B18E43B23CB23C63B5D46
:1023A000019A13703DB0F0BD01340C33132CEAD107
:1023B000F8E7C0466063FC076C7CFC07124B37B53E
:1023C0001A002C321278032A0DD1EFF3108001216C
:1023D00081F310880D4C0E4D22882A40228000285F
:1023E0000FD180F3108814222C331A70FFF757FF97
:1023F0006B46D81DFFF794FFFFF71EFFFFF744FF62
:1024000037BD81F31088EEE7A88CFC07040000506C
:10241000FFFBFFFF70B5334B83F309880721324A76
:1024200013888B431380314B1B88DB0716D5304B49
:102430001B88002B12D12F4B2F4A59882F4811800F
:1024400099882F4A1180D9882E4A11802E491B88DD
:102450000A88DB01024013439BB20B8006222B4B00
:102460001A8080222A4B1202DA67BFF34F8FBFF324
:102470006F8F0222DA67BFF34F8FBFF36F8F013A7E
:10248000DA67BFF34F8FBFF36F8F0421214A1388A0
:102490008B431380A0230022DB051A8062B61E4BFB
:1024A0001E48834211D300201D4B1E498B4217D377
:1024B000FDF780FE1C68910065585C68013265502C
:1024C00099688A42F6D30C33EBE70022F8E71C68E0
:1024D0009500285101325C68A242F8D30833E5E741
:1024E0000022F8E7B088FC070803005010030050F2
:1024F00004030050A000FC07280000507FFEFFFFEF
:102500002400005020000050120000500034005001
:1025100004E100E00A0000503C6BFC07486BFC073C
:10252000486BFC07586BFC0710B5FFF7E3FDFEF79F
:1025300029FCFEF7C9F9FEF76DF903F081FD0B4A9E
:102540000B4B1988D3691B0C1B040B43D361094B3C
:102550001988136A1B0C1B040B4313620222064BDF
:102560001A700022054B1A8010BDC04670A0FC07EF
:10257000183000401A30004006100040041000409F
:102580002049214B0A6810B51A4080239B0213434F
:1025900080220B600721D20513688B431360082348
:1025A0001A4A11880B431380194B78331B78002B80
:1025B00003D00122174B5C331A70FFF79BFDFEF727
:1025C000ADFBFEF7DFFBFEF77FF9FEF723F9FEF721
:1025D00035F9114A114B05201988936A1B0C1B040D
:1025E0000B4393620E4B1988D36A1B0C1B040B43DD
:1025F000D36202220B4B1A7000220B4B1A8003F09D
:1026000047FD10BD74000040FFFFE0FF08000050D0
:10261000A88DFC07A88BFC0770A0FC073830004091
:102620003A30004006100040041000400022084BE1
:1026300010B51A6003F06CFD064B07491A781F238A
:1026400006481A400B885201034013430B8010BD0B
:10265000AC100040586BFC074C1200401FFCFFFF01
:102660000A4A10B513680A499B05DB0E0B701388E4
:1026700008490B4013800122074B1A700323074AB5
:1026800011780B43137003F043FD10BD4C12004052
:10269000586BFC071FFCFFFF06100040AC10004009
:1026A00010B5FDF765FF042321490A881A42FCD1C1
:1026B000FDF769FF1F4B204C1A007A3211881F4A20
:1026C0007C3311801B881E4A023B9BB21380072378
:1026D0002380FDF74DFF042322881A42FCD1FDF729
:1026E00052FF0321174B1A880A4202D01A888A43E4
:1026F0001A808023144A11880B4304211380134A43
:1027000013888B431380022311490A881A42FCD094
:102710003FF707FE0F4B1A680F4B1A600F4B1A68F2
:10272000520700D500BE042219681142FCD010BD2A
:1027300008330050A88DFC0700160050020000501E
:10274000021600500A00005008000050100000500F
:1027500014000050288EFC070802004010000040C2
:10276000F8B53D4B1A68D20703D5022219680A430F
:102770001A6080221968D203114202D019680A43F4
:102780001A6080270225354B1C68002C63D03C4220
:1027900005D0334B1F604BF77AF8FEF7B3FC2C42A1
:1027A00003D02F4B1D6046F770FF08231C420ED04C
:1027B0002B4A136003F036FA002046F71FFF04226D
:1027C000284B1A710022284B1D70284B1A80802339
:1027D0005B001C4204D0224A0120136046F70EFF22
:1027E00080239B001C4203D01D4A13604BF7B8F8AE
:1027F00040231C4203D01A4A136046F7FAFE102306
:102800001C4203D0164A136045F7B6FA04231C4253
:102810000FD00121124A1360154A13888B4313808D
:102820005AF752FE3FF70CFFFEF76CFC00220D4BEF
:102830001A710126344207D0094B1E605AF760FE18
:102840004BF725F8074B1E7120231C429BD0044AEE
:10285000136000BE97E7F8BD000200401000004082
:1028600018000040288EFC070610004004100040AD
:1028700008330050F7B5000B03030D0B0905019356
:102880004B1E99416D18002D00D101350026019B8A
:102890003703FF18FFF798FC041E14D1FFF7B6FCAE
:1028A000041E10D10220FDF731FE80208005384340
:1028B000FFF774FC2700FFF77DFC0123184204D1C9
:1028C000F618B542E3D12000FEBD8022084B1B88DC
:1028D0001342F0D0074B1B681B04ECD4064B0137A6
:1028E0009F4202D85AF789FDE5E701246442EAE7EE
:1028F000080000503000004080841E00F0B50C003D
:1029000085B0230B039016008918180384421AD14E
:1029100011002000FFF7AEFF0020FDF7F7FD2E4B62
:10292000250A9B6801351B1B2D020093B34200D979
:1029300000960023009F0193009B019A93420AD8BE
:10294000002005B0F0BD0A0B9A42E5D080235B0160
:10295000C018091ADEE7E3196A1E934200D92F1B3B
:10296000FFF732FC0028ECD1FFF750FC0028E8D13B
:10297000019A039B9446802263440293BBB23E1C9F
:102980005200934200D9161C0220FDF7BFFDFDF74F
:10299000D3FD802080042043FFF7BCFB0020FDF71F
:1029A000B5FD029CB6B2002E0FD1FDF7D5FDFFF7A5
:1029B00019FC0028C5D1019B2C00DB190193019A59
:1029C000009B01359F1AFF35B6E72078013EFFF7DF
:1029D000A1FBB6B20134E6E76C7CFC071FB500BA78
:1029E000009068465EF7B0FA05B000BDF8B5164B2A
:1029F000164F68331E88164B16491C6E2000704314
:102A0000C0195CF7FFFA144B05007C3318803000C6
:102A10003C3060430F49C0195CF7F4FA0F4B0430A7
:102A200018600F4B4019C21D1A600E4A1278022A14
:102A300001D1183018601868FEF706F90A4BC01863
:102A400080B25AF76BFDF8BD288BFC0720A1070068
:102A5000A88BFC0740420F00A88DFC07907CFC0768
:102A6000947CFC07B4BAFC07E20400000022054B8A
:102A700010B51A60FFF7BAFF034A13685B005B08E2
:102A8000136010BDA8B9FC073000004070B50D0000
:102A90000C0020353FF733FF20700134AC42F9D1F0
:102AA000002070BD3F2210B543790400934311D13B
:102AB0003FF725FF030A20706370030C000EA3701C
:102AC000E0703FF71CFF4023207180B2000A5B4298
:102AD0000343637110BD10B55EF74EFA10BD0000E0
:102AE00010B560F76BFD0021034B9A6859718A425B
:102AF00001D09960904710BD288EFC0710B50422C4
:102B000009211C230E4859F775FF1B23040003708D
:102B1000242060F7C1FD04220A4B22826260012159
:102B20000222A3810023A174FF3223316070E3816C
:102B3000200061802281A37259F777FF10BDC04643
:102B40001B0D0000AD27000010B5042209210A2347
:102B50000A4859F74FFF1B2304000370142060F745
:102B60009BFD14236380103B63607423FF3360700C
:102B70002381200059F759FF10BDC0461B0D0000EE
:102B800010B5042209210A23094859F733FF1B23F2
:102B900004000370172060F77FFD17236380133B49
:102BA0006360033B60702381200059F73EFF10BD36
:102BB0001B0D0000092310B519000422094859F71C
:102BC00019FF1B2304000370FC2060F765FDFC2344
:102BD0006380F83B6360002360702372200059F724
:102BE00024FF10BD1B0D000010B50400FC203FF7B2
:102BF000EAFD042301001A00034859F7FBFE847024
:102C000059F713FF10BDC04605FC000010B5054B79
:102C100055331C78002C02D01920FFF7E5FF200067
:102C200010BDC046A88CFC0710B50C00FFF7EEFFE6
:102C3000002814D1A378002B11D0A3880530002BD5
:102C400010D00A490A002C321278132A07D8D2066B
:102C500007D5802207209200934203D88B6300207F
:102C600010BD0820FFF7C0FFF9E7C046A88CFC079D
:102C700010B50400FC203FF7A6FD042301001A0054
:102C8000034859F7B7FE046059F7CFFE10BDC046A0
:102C900004FC000010B50C00FFF7B8FF00280CD1B1
:102CA000A378002B09D0094B62682C339A601B78FB
:102CB0009A1E012A03D8FFF7DBFF002010BD123B4C
:102CC000012BFAD90820FFF78FFFF6E7A88CFC0745
:102CD00070B5040024203FF776FD04230100902006
:102CE0001A00800159F786FE047000240C4D4470D0
:102CF0002B7BC470837059F798FE0A4B04211A008D
:102D0000583214701A005932147008225A331A704B
:102D1000054B064802322C73EB8160F791FC70BDC5
:102D2000288EFC07288DFC07701700001404000093
:102D3000F8B51500FEF792FA194E0700337B83426F
:102D40000DD024203FF73FFD022301000422154847
:102D500059F750FE00234770037059F766FE124C76
:102D60003773230058331B78002B11D0042F0FD852
:102D700023005A331978230059331878FDF7EAFAFB
:102D800001235B34C82204210848237060F758FCF3
:102D90002900F289064860F753FC0020F8BDC046C0
:102DA000288EFC0702240000288DFC071504000073
:102DB0001404000070B5114C15002200583212782E
:102DC000002A12D022005932107822005B34237876
:102DD0005A321178002B0AD0FDF7DCFA00231422B6
:102DE00023702900064860F72BFC002070BDFDF71A
:102DF000B1FA012305222370F3E7C046288DFC07B2
:102E0000150400001FB514001A0005230293044B9B
:102E10000193069B0093230060F76AFA04B010BD8B
:102E2000D864FC071FB514001A0001230293044B59
:102E30000193069B0093230060F75AFA04B010BD7B
:102E40001065FC071FB514001A0002230293044BFF
:102E50000193069B0093230060F74AFA04B010BD6B
:102E6000AC65FC071FB514001A0007230293044B3E
:102E70000193069B0093230060F73AFA04B010BD5B
:102E8000BC65FC071FB514001A0004230293044B11
:102E90000193069B0093230060F72AFA04B010BD4B
:102EA000F465FC071FB514001A000E230293044BAF
:102EB0000193069B0093230060F71AFA04B010BD3B
:102EC0001865FC07F0B57A24264B44431E0085B0F4
:102ED00000904D783036019333191D772300082276
:102EE0001433F3181100180002340293341960F7F8
:102EF00037FA102D04D810222900200060F730FA8C
:102F00007A273FF7FCFC009B019D5F43019B303516
:102F1000DB190433D887039301237A5D00981343A8
:102F20007B55FEF7C3FB0600ED192B7F0299037753
:102F3000039B0822DB8F4382143003F04DF91022EB
:102F40002100B01C03F048F90098FEF7AFFB59F7D9
:102F50006CFD009B044A9B00D2180023136605B049
:102F6000F0BDC046288CFC07288DFC0708781B0A9A
:102F700010B5DCB207281ED803F06CF9041D1D1D26
:102F8000151313190C2159430C4A20005218012122
:102F9000D17679314B430021094A30329954FEF7FA
:102FA00067FC002010BD2000FEF744FDF9E720007B
:102FB000FFF788FFF5E700BEF3E7C046288EFC0761
:102FC000288CFC0770B504000D00FDF7E9FD002812
:102FD00006D00A4B2A000421E0185AF74AF870BDBF
:102FE000FEF742F9042208231100054859F702FDB3
:102FF0004560047059F719FDF1E7C046030400006D
:103000000104000070B5294D6879002801D0FEF751
:10301000A5FB274B00201900643182005458013071
:10302000002C3ED19B18234AC4B2200022495A6684
:10303000FFF7C8FFEB696C71002B28D1042209212E
:1030400052331E4859F7D6FC0D2303801C4B040055
:103050008380C3800823FF330381D8235B0143812E
:103060001B221849E86126000C3003F0B5F80B224A
:10307000200015492B36327010312C3003F0ACF89B
:10308000220009213000114B373260F743FAE8691A
:1030900059F7CBFC002302210420EB6159F7DBFE3A
:1030A00070BD0A28B9D10024C4E7C046288EFC07A9
:1030B000288DFC07E12AFC07504600000D0D00009A
:1030C0004C040000D162FC073464FC07ED62FC078D
:1030D00010B5042059F7D4FE022801D1FFF792FF62
:1030E00010BD000010B5FFF78DFF042107485AF707
:1030F0000AF8074B54331A78002A04D000220548F6
:103100001A703FF733FBFEF76FFA10BD140400008E
:10311000A88CFC071111111170B510000C001D00D6
:1031200059F7AEFE03280BD12B0A0C255D43FF2374
:10313000044A200052195382FFF7D4FF002070BDCB
:1031400000BEFBE7288EFC070C23434370B5114EED
:103150000500F3189B7CFF2B18D07079002801D054
:10316000FEF7FCFA00247471B4600C26320062434E
:10317000094BD15CFF2900D170BD9B189B680134BD
:10318000E4B2002BF2D028009847EFE7FFF73AFFB0
:10319000F2E7C046288EFC07D066FC0710B560F742
:1031A0008FF9002801D0FFF72DFF10BD70B50C7806
:1031B000012C11D0E51E142D1BD80125A5400E4E63
:1031C000354210D10D2C10D0032C12D14B78002B8E
:1031D00005D1FFF7E3FF06E04B78002B01D000BEDE
:1031E00001E0FEF7BBFB002070BD4878FEF73EFA19
:1031F000F9E7FEF775FAF6E700D08E0010B5FFF795
:1032000001FF10BD394A70B503000D00049C9042C7
:1032100016D0374A904239D0364A90424AD14B684C
:10322000002B00D100BE344B6A689A4200D900BE20
:1032300028782F4B04216A68C01859F71AFF10E04C
:103240000B78013BDAB2092A1ED82C4A9B00D2180F
:10325000516E2B48814207D100215166294AD3186B
:1032600019620020207070BD274B9942F9D10422C9
:10327000082311001E4859F7BDFB2B7803706B68BB
:10328000436059F7D2FBECE700BEEAE70878411E3D
:10329000CBB2092BF8D8194B89005B181A4A5E6E1D
:1032A0009642DED1174A5218126A69685A66FFF7C9
:1032B00089FED6E7154A01209A18092AD3D8033B7C
:1032C000D8B2411E0D4B89005B185A6E002AC8D037
:1032D0000D4DAA42C5D00A4DAA42C2D000255D6656
:1032E000084B5B181D629047BBE7C0460204000014
:1032F0000304000001040000FCFF3F00288DFC07D0
:10330000D10EFC07288EFC07D30EFC07FCFBFFFF49
:1033100070B50D4D14002B004C33187A597A1B7977
:10332000002B0CD0FDF736F800232A004C32137125
:103330002100EA6C054859F79CFE002070BDFDF79E
:1033400009F80123F1E7C046288DFC0713040000AB
:1033500010B54A78002A16D00C4B962419004C312F
:103360004A71012A00D0643C0122DC644C33597A52
:10337000187A1A71FCF7EEFF22000421044859F76D
:1033800078FE002010BDFEF72FF9FAE7288DFC0724
:1033900013040000F8B5050008781C0A0238052857
:1033A00000D96BE002F056FF03236A3342527A23BE
:1033B000634334488A783030C61831007831324D52
:1033C0000A70D2070CD50C2767437133E919C0186E
:1033D00006221531EF1902F0FFFE3B7D7736337080
:1033E0000C236343ED180023EB760020F8BD0C227C
:1033F0006243254B00219B187A226243D976214BE8
:10340000E0B29B18A833197060F7BAF8EDE77A2597
:1034100065431C4B17221C0058196A30023102F018
:10342000DBFE042330342A5D13430DE07A25154B6F
:10343000654310261C005819320091300231303497
:1034400002F0CAFE2B5D33432B55CEE77A235C4353
:103450004A8A0C4D02312819002A07D11C32323019
:10346000303502F0B9FE0123625DDDE71C224E30EB
:10347000303502F0B1FE0223625DD5E72800FEF789
:103480002FF9B2E7288CFC07288EFC0730B54B6873
:103490000C0085B01B0EFD2B19D1A378002B1AD080
:1034A0006268130E132B29D84F48D9B2040092B288
:1034B0002C3421700263012B10D84C4B036308207D
:1034C000FFF792FB1422484B2C331A7034E0FFF7BD
:1034D0009DFB0028E1D0002005B030BD1239012944
:1034E00002D8022A06D86274112B0AD808200F2BA2
:1034F00001D8E4E71120FFF777FB1DE0FD2B64D036
:103500001ED8123B012BDAD8FEF7C9FE02A8FEF73F
:1035100007FFFEF791FE344C102023002C331B785C
:10352000034238D0FFF760FB220000232C321374D3
:1035300023646364A36313770020FFF799FBCAE752
:10354000294CFE2B29D123002C331A7F0420002A7A
:1035500030D16A46951DAA221B7806202A70132BAB
:1035600028D102A8FDF7CAFCFEF799FE6B46D81DCC
:10357000FEF7D6FEFEF760FE216B01222800023125
:10358000FFF7BCF940B2002811D10230230001221C
:1035900055331A700EE00820C4E7FEF70FFF220033
:1035A00000232C32032013742364A363A3E7C0B267
:1035B0000228EBD0FFF718FBFEF700FF22000023E4
:1035C0002C3213742364A363B6E7094B987CFF285D
:1035D00003D108483FF7CAF8AEE70122024B543343
:1035E0001A705FF7CDFFA7E7A88CFC079C90FC073B
:1035F000288EFC0711111111F7B510000D001C00E9
:1036000059F73EFC022832D1240A00D000BE194BE3
:10361000E7B200930C2363430193019A009B9E1829
:10362000B774FF2C1DD0012303210420F37459F734
:1036300012FC2B88290033826B7A00983375019B2A
:1036400006229C4660440A31153002F0C5FD7A22FC
:103650006243094B38009B18A833012219785FF7A1
:1036600043FF29003800FFF76FFD0020FEBD00BEBC
:10367000FBE7C046288EFC07288CFC0710B55FF7D7
:1036800001FD10BD10B55FF70AFD10BD10B55FF765
:1036900079FD10BD10B55FF796FD10BD10B55FF751
:1036A000ABFD10BD10B55FF7C7FD10BD10B55FF7DE
:1036B000D0FD10BD10B55FF7DAFD10BDF8B5040000
:1036C0000E00002800D10C680023E3561D1E13D005
:1036D0000C4F2000390002F099FD23562518002BCD
:1036E0000DD03900280002F080FD2B562C18002B3D
:1036F00002D000232370013428003460F8BD2C0070
:103700001D00F9E7F762FC07F0B50024060087B05A
:103710000D220D0002A82100019402F031FD3000BD
:1037200002F085FD3100020001A802F055FD694656
:1037300001A8FFF7C3FF082207002100280002F0BC
:103740001FFD0A26002F05D1201F43425841C0B259
:1037500007B0F0BD042C17D039000023CB56002B46
:103760000DD100200137791E085600280ED16200C5
:103770006946AB52FFF7A2FF01340700E2E7303B96
:10378000DBB20131092BE8D90020E1E7734330387F
:10379000C318E6E7F0B59FB00C00FFF737FA0390C7
:1037A000002800D034E1C44BC44D1B780193132B87
:1037B00000D993E1A378002B00D129E1AB6B0293F0
:1037C000002B00D121E1019BDB0600D486E18023A0
:1037D0002F6CE2789B00B918994200D96AE1B84E83
:1037E000211DB81902F0F8FCE378DB1900932B6473
:1037F000009A029B934200D002E1AF4B1A7F039BD9
:10380000F15C01334A4000999942F9D8AA4B082447
:103810001A77019BA94D132B00D0EEE006A80EAC41
:10382000FDF76CFBFEF73BFD2000FEF779FDFEF790
:1038300003FD6F6C002F00D027E19F4B5B7C029350
:1038400004AB1F809F80009B3F2B00D815E19D4B50
:10385000328812209A4200D0C8E07668E021330016
:103860000C22403320008902EB64FEF725FD00287E
:1038700000DA35E1944B22889A4200D0FFE00F9A9B
:10388000109B08920993002E00D1FAE0403B9B1A4E
:103890009E4200D9F5E03D0004AC05AEAB0008A99E
:1038A000402259580EA8FEF707FD002800DA17E15C
:1038B0002B2204AB9B181B78844A33700E9B134059
:1038C000834A934205D1292204AB9B181B78512BC4
:1038D0006ED0012323700023337001340136012D93
:1038E00064D104AB1A780023012A10D004AB5B78B2
:1038F000012B0CD005AA13785278FF2B67D1013A1F
:10390000D2B2FD3BFD2A00D92B00013BDBB20125E1
:10391000029A5D40013A012A02D90133DBB20293D7
:103920004022FF210EA802F02BFC029C04AB013CBC
:10393000E4B21B5D022B00D1A5E0AD0008AB402234
:10394000E9580EA8FEF7B8FC002800DAC8E00AAD76
:10395000290011A80CAEFFF7D7FE31005D48FFF734
:10396000D3FE002841D00822310028005BF7E8FB95
:10397000002800D187E0EA5BF35B9A4231D04AD855
:10398000102104AAA3005218D058012304AA5C40B5
:10399000165D0222494D964328633ED01E00012148
:1039A000FEF768FF00283FD006201FE0012575E7DD
:1039B0001022484811A95BF7C3FB00288DD1404B6A
:1039C000DA69159B9A4288D10223237085E7FF2A82
:1039D00003D15A425341013397E79A429B415B42DC
:1039E000F9E70237082FC6D1CAE7172084B20022B0
:1039F000324B586C1A64FFF73BF9E0B2FFF7F4F86A
:103A00002E4B1A6C9B6B9A4202D90520FFF7ECF8FB
:103A100000201FB0F0BD1820E8E705AB1B5DFF2BB1
:103A2000BDD00133DEB2BAE7402225490EA802F02C
:103A3000D3FB2B2204AB9B182A211E70FF2304AA60
:103A4000521813702B002C331B78132BACD140224F
:103A5000296B0EA8FEF752FF0028A5DB009A296B00
:103A60001D48403A4031FEF749FF00289CDB6B6C53
:103A70002A6C02249B186B64B9E71220B6E7142065
:103A8000B4E70198B2E71520B0E7EA6C009B511C3F
:103A9000DB19994201D20624A9E79A4201D2D21B2E
:103AA0002A64296B30002A6C7918FEF727FF00285A
:103AB000DDDAF0E70720A9E7D48CFC07A88CFC0727
:103AC000A08EFC077051000070520000FF00FF0044
:103AD0007000AA00AC8EFC07E08EFC07082095E77A
:103AE000162083E70323F7B56B4F6C493B700A68D8
:103AF0007C339A436B3B1343694A0B6013686949F3
:103B000080260B60012301913F21674C5B421360CB
:103B1000236866488B4323602368654D0340236018
:103B20002B886448F600034033432B8070232A8897
:103B3000614E9A43303B13432B8032685F4B1A40EF
:103B4000B0235B051343336032685D4B1A40C023DA
:103B5000DB0013433360182332688A431343336016
:103B6000432302222B70574B1A7002F0C7FAFEF75C
:103B700077FD02F0D2FA03233B70534F3F68FEF704
:103B800055FD02F0C0FA2368FF05FF0D5B02FA0540
:103B90005B0A1343236027684C49520C0F401743BC
:103BA000412227602A702B8842483F3A03408020F8
:103BB000C00003432B80434B374F1A7002F09EFA2C
:103BC000FEF74EFD02F0A9FA03233B703E4F3F681B
:103BD000FEF72CFD02F097FA2368FF05FF0D5B024C
:103BE000FA055B0A1343236027683849520C0F40DB
:103BF00041211743276029702B882E480222034059
:103C00008020C00003432F482B80027002F076FA18
:103C1000FEF726FD02F081FA03231F4F2B483B706D
:103C2000294F3B682268DB055202520A1A43226080
:103C30002268DF0D1040590C030001220B43236062
:103C40002B883F2193432B80019D154A2B681748F1
:103C500013601C2322688A431343236023680340B4
:103C600023603268154B1A40E0235B051343336031
:103C70003268134B1A40F023DB00134333601E23DA
:103C800032688A4313433360FEF7D0FC02F03BFAFC
:103C90000F4B5F81F7BDC046051000400430004067
:103CA00040300040647CFC0718300040FF7FFFFF7D
:103CB0001C300040FFF9FFFF30300040FFFFFFC025
:103CC0003FF0FFFF06100040883000403F80FFFFBC
:103CD000367CFC074D4B10B543624D4B002283628E
:103CE0004C4B8AB04361030030331A704A4BC362B5
:103CF0004A4B03604A4B03624A4B43604A4BC361E1
:103D00004A484B4B0168194080239B020B434949A9
:103D100003600B68484803400B606B46D254013285
:103D2000282AFAD1454B69461868403002F054FA07
:103D3000434C092322005C321370424B78331B78CA
:103D4000002B01D001231370FEF7D4F9FCF7E6FF36
:103D5000FDF718F8FCF7B8FDFCF75CFDFCF76EFD0D
:103D6000FFF7C0FE0122384B5E3448331A70374BE0
:103D700006321B881340237002F062F9344B198815
:103D8000344BDA69120C12040A43DA61324A1188A0
:103D90001A6A120C12040A431A62304A11889A6A8B
:103DA000120C12040A439A622D4A1188DA6A120C24
:103DB00012040A43DA622B4A11889A69120C12041F
:103DC0000A439A61284A11881A6B120C12040A439A
:103DD0001A63264A11885A6B120C12040A435A635A
:103DE000234A11889A6B120C12040A439A63214ADF
:103DF0001188DA6B120C12040A43DA6302221E4B9A
:103E00001A7000221D4B1A800AB010BD8907FC07EA
:103E10008D07FC07C507FC07F107FC078F07FC07A8
:103E2000C107FC07C307FC079107FC0774000040AB
:103E3000FFFFE0FF00020040FFFFF7FF4CB9FC0767
:103E4000A88BFC07A88DFC07288EFC07B810004043
:103E50001830004070A0FC071A3000403830004095
:103E60003A3000401030004064300040663000407E
:103E70002230004024300040061000400410004072
:103E80002A4B10B51B880400DB0507D51B20FCF767
:103E9000DDFB0123264A11880B431380A023DB0599
:103EA0001B88244924480A881B079B0F0240DB011A
:103EB00013430B802268214B1A606268204B1A6002
:103EC000A268204B1A60E2681F4B1A6022691F4BE0
:103ED0001A6062691E4B1A60A2691E4B1A60E26981
:103EE0001D4B1A601D4B1C601D4B1A681D4B1A6040
:103EF0001D4B1A681D4B1A601D4B1A681D4B1A602A
:103F00001D4B1A681D4B1A601D4B1A681D4B1A6019
:103F10001D4B1A681D4B1A6008221D4B1A801D4B41
:103F20001B88DB0601D500BE10BDFEE72A0000504D
:103F300080000050120000507FFEFFFF0090FC0741
:103F40000490FC070890FC070C90FC071090FC07FD
:103F50001490FC071890FC071C90FC072090FC07AD
:103F600028ED00E02490FC072CED00E02890FC07F1
:103F700030ED00E02C90FC073CED00E03090FC07B9
:103F800034ED00E03490FC0738ED00E03890FC0799
:103F900000330050140000500423344A70B51188D7
:103FA00001250B4313804023314A040011880B4341
:103FB0001380C0232F4A5B00D55008222E4B1A8055
:103FC0002E4B1B88DB0506D51B20FCF73FFB2C4B3B
:103FD0001A8815431D80A023DB051B88294A2A481F
:103FE00011881B079B0F0140DB010B4313802168E5
:103FF000264B19606168264B1960A168254B196032
:10400000E168254B19602169244B19606169244BD3
:104010001960A169234B1960E169234B1960234B97
:104020001C60234B1968234B1960234B1968234BE1
:104030001960234B1968234B1960234B1968234BD4
:104040001960234B1968234B1960234B1968234BC4
:104050001960234B1B88DB0607D500BE1388214956
:104060000B4004310B43138070BDFEE7100000507D
:104070000800005000E100E0003300502A0000502A
:1040800080000050120000507FFEFFFF5090FC07A0
:104090005490FC075890FC075C90FC076090FC076C
:1040A0006490FC076890FC076C90FC077090FC071C
:1040B00028ED00E07490FC072CED00E07890FC0700
:1040C00030ED00E07C90FC073CED00E08090FC07C8
:1040D00034ED00E08490FC0738ED00E08890FC07A8
:1040E00014000050FC7F000010B5FFF7FBFC10BD72
:1040F000C823D54AF0B513800023D44A0C2013807E
:104100000822D349A1B00A80D2490C930C9B002B02
:1041100000DC7FE1CF4F01243B000833DB6F002B35
:1041200000D08BE13B00E6170833CB4DDC67F6028D
:10413000630D1E43E402286F696F04430E4322009F
:1041400033002A676B67FB6F0124002B00D077E1F7
:10415000286F696FBF4EE717E30D7F021F43F467B7
:1041600064020F4304433B0022002A676B67F36D30
:104170000121002B00D065E10A00B74BF1651C6FEF
:104180005D6F0193CB1792185B4117002B432743B8
:1041900019003800019B012518675967B36E002B81
:1041A00000D08DE1019BAB4CEE17186F596F3601B3
:1041B0002B0F1E43A5662D0105430E432A00330035
:1041C000019901250A674B67A36D002B00D079E1A7
:1041D000A14EEF17306F716FA5650F4305433B008C
:1041E0002A0032677367636E0124002B00D06BE1F5
:1041F000984BE5175C66019BED00186F596F630FD4
:104200001D43E4000D43044322002B0001990A677B
:104210004B67002300220A674B6700230C930C9B1B
:10422000002B00DC52E18D4D0AAA2B88941D9BB215
:10423000D380D08880B200E000BF0422238893435B
:1042400000D087E10121864A13888B431380854B78
:10425000854A198808201140E02292010A4306216C
:10426000824D1A802A88824F02432A803A888A43E4
:104270003A8080221C88D20122431A802A887D4CF1
:1042800022402A800E257C4A1488AC4321431180A9
:104290007A490988C90500D45FE13988784A114014
:1042A0008022D2000A4380213A803A88090212050E
:1042B000120D0A4304213A801A8802431A801A8890
:1042C0008A431A803A8803398A433A801A883F31F0
:1042D0008A431A800322198864480A4360211A809D
:1042E00020220388674E8B4313430380664803886C
:1042F0008B4313430380C02364490A889A43403B9D
:1043000013430B80FF21624A13888B431380614A59
:10431000E33913888B4318390B431380E02310884B
:104320009843403B034313805B4B5C4A19801388DE
:104330005B490B4013808021C0235A4A5B0049022D
:10434000D150FCF737F90722336813400AAA53719A
:104350005379022B00D020E1534B03221B68DBB2C0
:10436000AA2B00D03CE1A0210C20C9050B889200AB
:10437000834313430B8000E000BF4C4B0024180024
:1043800006224B494930049301F026FF324B0120AD
:1043900007936C331C8000E000BF464B1A68464B05
:1043A0009A4200D072E205940434424B434AE31827
:1043B000934200D928E290221B6812060E930E9BAE
:1043C0001B0F1B07934200D0B6E1FF220E9B0E99F4
:1043D0001340090A0691581E11400291162800D96F
:1043E00085E101F041FF28012801840128018401B1
:1043F000FF0014018401840184018401840184018B
:104400008401840184012E0145015B016D01840159
:1044100074017A0100220D920D9B0B2B03DD0C9B86
:1044200001330C9372E60C9B0D9C43431B199B00BC
:10443000CB189A650D9B01330D93EDE7644271E64D
:10444000644285E6494297E600310050023100504F
:1044500002330050A88CFC07288BFC070403005093
:104460001003005020030050FFC3FFFF5200005014
:1044700080000050FFBFFFFF540000502A00005092
:10448000FFF0FFFF0000F407240300501600005067
:10449000300000503800005000020050040000506E
:1044A000FFF7FFFF00E100E0D07FF807288EFC0750
:1044B000D47FF807D07EF807A5A5A5A5BF7FF8078C
:1044C0006D426FE66D4283E6644291E60023B94C8B
:1044D0000D930D9B0B2B02DD0C9B01339EE60D9B78
:1044E0000C9A01229A401305F6D00C210C9B0D9AD0
:1044F0004B439B189B00E3189B6D013300D100BE1A
:104500000C200C9B0D9A43439B189B00E3189B6D5A
:10451000002B1BD00C9B0D9943435B189B00E318A9
:10452000986D0D9A0C9DC11704955AF729FE049BAE
:10453000A14D1A015AF724FE2E6F6F6F3043394395
:1045400002900391029A039B2A676B670D9B0133CC
:104550000D93BEE700232B8079E63C8897490C40F9
:10456000C021C9002143F024398039882402214325
:1045700039801988924C8143198004211888884316
:1045800018801088204010800122388802433A8029
:104590008C4A12880A42FBD09CE68A4B1B88DB05BA
:1045A0000BD40723326888499A43053B1343336091
:1045B00004230A681A42FCD0CEE6FBF7EFFF0A2874
:1045C00002D80B20FCF742F801233A881A42E8D1BE
:1045D0003A8813433B807B4B1B885B07FBD5E0E7A6
:1045E0000122C0E6744D281D6C352B78DB00C01805
:1045F000029B9A00754BE11801F0EEFD2B78069AAC
:104600009B18DBB22B70042B15D900BE13E06A4D4A
:10461000281D6D352B780233DB00C018029B9A00F1
:104620006A4BE11801F0D8FD2B78069A9B18DBB293
:104630002B700C2BE9D8029B01339B001B191C002B
:10464000B3E6624B5C4AE3181868196880B2090C3B
:104650000B1A9BB25D1C9B08EB18150058352B807C
:10466000092343435B1A1BB2DB105A321380E2E783
:10467000564B514AE3181868196880B2090C0B1A96
:104680009BB29D080133EB1815005C352B80092384
:1046900043435B1A1BB2DB105E32E7E7059B9800D1
:1046A00010AB1818029B9A00484BE11801F094FDDA
:1046B000029A059B944663440593022BBBD9A4E759
:1046C000424BE3181A683C4B66331A80B3E73F4B02
:1046D000E3181A68384B5A65ADE73C4B364AE31885
:1046E0001B6868329BB21380002BA4D18DE71E2B70
:1046F000A1D1364BE118029B5A082F4B0693002A92
:1047000099D00B6808934B6808310993069B181DD4
:1047100000230569AC46089D654508D1069802331B
:10472000DB00C31809989860013AD2B2E7E7013379
:104730000830062BEDD1F7E780220E9BD20593427D
:104740002FD30E9A224B9A422BD823000E99214A3E
:104750000833914205D11D4AA41821681E4A518090
:104760006DE70E991D4A914206D1184AA418124AC3
:1047700021686A32118062E70E99194A914205D187
:10478000124AA4182168144A918058E70E99154AD4
:10479000914200D053E70D4AA41821680E4AD180F7
:1047A0004DE70E9B1B0F072B1ED1002000E000BF22
:1047B000231D44E7A88CFC07288BFC07FFF0FFFFB4
:1047C000FFF9FFFF2A0000500400F407D47EF80729
:1047D0004C42005028000050A000FC07020000508E
:1047E00024000050200000500E9B1B0F082BDFD030
:1047F0000E9B1B0F0A2BDBD00E9B1B0F062BD7D05B
:104800000E9B013300D09FE3019B109A60331A8006
:10481000119A91B2120C531A9BB298080133C31823
:1048200001986230038009234B439B1A019A1BB203
:10483000DB1064321380019B6C331B78DB0700D5DF
:1048400086E3E04B19006C310A7852080A701A00AE
:104850006D321278D20700D500BE19006D310A788A
:1048600052080A701A0068321188002902D1FA2110
:10487000890011806A331A88002A07D1D24A126847
:10488000D2B2AA2A00D065E32A3A1A800124079BF3
:10489000CE4A6A331D88CE4B0D207A331D80138893
:1048A000A343138001F048FC0322CA490B889343B9
:1048B0001C4340230C80C74A12881A42FBD0FA20BE
:1048C000C54B80001D8001F037FC0322C1490B88D5
:1048D00093430B808023BF4A12881A42FBD07F216A
:1048E000049A4F321170BD4A1168BD4A1160EFF34E
:1048F0001084012282F31088A022D20511880B4374
:10490000138007223368B7499343336004230A684E
:104910001A42FCD0B44BB54A80211A60B44BB54A58
:104920001A60A022D20513888B431380B24B1B88D8
:10493000DB050ED50022B14DB14B28784C331A70EF
:10494000FBF784FE6B78002B03D101223B88934355
:104950003B80002C00D0FFE284F31088A94BAA49C9
:104960001A6800238A4209D0A84CA94AA9495818B4
:1049700000681919043308609342F7D10021A64A50
:10498000A64801F0FDFBE0220021D200A44801F07E
:10499000F7FB01F08BF9A34BA34AA4491A60A44882
:1049A000302201F019FC002540243F22A14BA249EE
:1049B0001A705D709D70DD701D715D719D71DD718E
:1049C00022001C3110A801F007FC220010A99B480E
:1049D00001F002FC9A4B9B4A1D709B4B01211A600F
:1049E0009A4B9B4A1A609B4B9B4A1A600A229B4B2C
:1049F0001A709B4B28321D709A4B08351A709A4BCF
:104A00002D3A1A60994B1960994B1A60994B5218BC
:104A10001A60994B52181A60984BFF321D60984BE0
:104A20001A60984B1A607D4B974E3360FCF7E0FCA0
:104A30003022964901200B8893430B8080230A88FB
:104A400013430B800B88924A1D430D8013888343C8
:104A5000138018225F480388934303800B88143A1D
:104A60001C430C808B490B8893430B8002238A4A9A
:104A700012881A42FBD0894B894A1988554811403F
:104A8000B02212010A431A800122198811431980A9
:104A9000182301889943103B0B43824903800B88FC
:104AA00093430B8079493F320B88934380220B80DC
:104AB000D20513687C490B407C4913600A687C4B23
:104AC0001A4080239B0113430B6080230A689B03D9
:104AD00013430B604B4B4C4A1B68934234D03268F3
:104AE000744B75491A603E4B00241B681A0A0B7000
:104AF0004A701A0C1B0ECB70444B8A705A000192FC
:104B0000C022FF3294466246019DD21A525D0325AF
:104B10001878013442402840085C42401A70E02274
:104B2000013352009442EED1644CA53A200037493B
:104B3000FF3A5CF775FA002800D000BE20005CF751
:104B400003FA304B304A1A6030683DF783FB00238C
:104B500080225B4ED20533711168F3700133FF334D
:104B60000B431360FCF7CEFA0120FCF733F8554DE8
:104B70002B005D331B78002B02D1534AF370137066
:104B800004980C220021103001F0FAFA09220024C6
:104B90001B484E4B4E4977301A7001F01DFB4B4BB2
:104BA0004C4904205C8458F724F9FF23049A21001F
:104BB0009374042058F74FF9FDF771FB10A8FDF727
:104BC000AFFB89E0288BFC07D07FF807240000505A
:104BD000A88DFC070A00005002000050E87FF8078B
:104BE000687CFC070400F4071000F4070F00990923
:104BF0001400F407090404A42A000050787CFC0780
:104C0000A88BFC07147CFC0765873412A090FC0776
:104C1000040A000000B0FC07AC14000000A0FC0770
:104C200000B9FC0760BAFC078466FC077CFCF1074E
:104C300000BAFC07DAB9FC073464FC07B0BCFC0717
:104C4000FDB9FC07603FF20750B9FC0754B9FC07F7
:104C5000F468FC0758B9FC07F867FC07B0B9FC0713
:104C6000B1B9FC07D9B9FC075CB9FC0760B9FC070E
:104C700064B9FC0768B9FC076CB9FC0770B9FC079C
:104C800048B9FC0744B9FC074CB9FC0708000050C0
:104C9000200000501000005014000050260000506A
:104CA000FFF0FFFF22000050FFFEFFFF0002004068
:104CB000FF81FFFF08020040607CFC077C7CFC0752
:104CC00054BAFC07288DFC07B4BAFC071E8CFC07FD
:104CD000ED62FC07C864FC07FDF7AEFAFDF7D4FAF5
:104CE0002B0002224C33DA80902212011A81FCF749
:104CF000B5FA049B5D3518739D4B1A0019001C64AE
:104D00005C649C6356331C709A4B2C321C601423D9
:104D100055311370147414770C705EF7E9FC2B781E
:104D2000A34203D10122944BF2701A70FDF79EFE4C
:104D3000052001F0ADF9C823904A1380904AC03B8A
:104D40001380904B904A9B189B08013B0693FBF7FE
:104D500027FF00282CD058F750FB0020FBF73AFF24
:104D60008A4C2579042D23D10120FBF733FF002342
:104D700029000FA80F9348F7E1FE002818D001235F
:104D8000834A13601368002BFCD1824A216D12689C
:104D90008A4200D223652300C820216D48331B7846
:104DA000511A0001814200D3DAE0002B00D0D9E093
:104DB00072B6794E794D33689B6A10932B005C3341
:104DC0001B78002B03D1764B1B79022B01D10023DA
:104DD00010930122734B1B88134200D00BE257F74C
:104DE000D8FB002800D106E26D4CE378002B00D1FF
:104DF00097E101226C4B1B88134200D09DE0238871
:104E0000002B00D08DE15C352B78002B06D1674B51
:104E10009B6A002B02D033689B6A1093FDF7E6FD76
:104E2000A17810A858F7ADF9002800D179E1604BBE
:104E30001B685B0600D574E1A17810A848F77EFED8
:104E4000002800D16DE15B495B4B0A881A40802342
:104E50005B0013430B80109B002B07D0574A12684E
:104E6000393AFF3ADA2A01D8013B1093544B55499D
:104E70001868554B554A7C331B88554D1B180B60E1
:104E800013689B0A9B0203431360524B1068019303
:104E90001B6828409B020343136010680B68C10223
:104EA0005B05C90A0B43136010984B4B984200D91D
:104EB00000BE4A4E0021B26EF36E5AF7CDF8019B48
:104EC00009031B68000D314D084301385A1CE86581
:104ED000904200D1EB652179E86D4B1E9941C9B232
:104EE00044F742FD3E4BDB6A984780233D491B0255
:104EF0000A681A42FCD080235B003B4A12681A42BF
:104F0000FBD0802238490B689343384A0B601188E4
:104F10008BB2452903D84621CB1A336711803DF760
:104F2000D4F98022324B1B682B602F4B1B68134235
:104F3000FBD030490B8893430B800F4B1B78013B10
:104F40005A1E93410233EDE000BE2300FFF777FBCA
:104F500000BE76E46E2298E4012383F31088FDE41A
:104F6000002B49D0636D01336365FDF7DDFA1FE760
:104F7000A88CFC07A08EFC07B4BAFC0700310050D7
:104F800002330050646BFC07030004F8288EFC0712
:104F9000FC0000401C00004058B9FC07288DFC07AD
:104FA00054BAFC07083300501400005074BEFC07CC
:104FB0001000004038300050FFFCFFFF2000004090
:104FC000907CFC078C7CFC07A88DFC073C00004013
:104FD000FF03E0FF947CFC073F420F00A88BFC0717
:104FE00058BFFC0730000040000200400A33005068
:104FF00008020040080000509B4D22652A8810A836
:1050000092B20192994A9A4E128892B20292994AA9
:10501000128892B20492984A1288119392B2059221
:10502000964A1092FCF7E4FE2200954958320B880C
:105030005A349B059B0D13808022338892009B0578
:105040009B0D23800B889B0A9B0213430B803388A4
:105050009B0A9B021A43022332802A8813432B8027
:10506000012001222B885B0818401342F8D1854BA0
:105070001A80854B854A1C88FA231288A1B29B00AE
:10508000A41A6343002B37DD814A9818814959F7E8
:10509000CFFF814B84115833198880231934E2B231
:1050A000DB0064B2994200D300BE754803889B0AB6
:1050B0009B021943784B01805A3319888023DB0007
:1050C000994200D300BE33889B0A9B02194331806A
:1050D000714E002331004F31CB567F2B10D10C7015
:1050E000029A624B1A80049A624B1A80624B059AAC
:1050F0001A80019B2B805BE69142C7D0674AC4E7C8
:10510000DBB2D11A48B2090601D59B1A58B204285D
:10511000E6DD736D013373654F36FDF705FA3470C4
:10512000DEE701239A1E012A00D998E00422012417
:105130005B485C4E018810251143018031695A4853
:10514000114331610188A1430180584C022B54D195
:105150002388AB4323800022554B1A80554B1B8874
:10516000DB0506D4602354490A889A43203B134345
:105170000B8060224024012550490D200B88934369
:1051800023434F4A0B801388AB43138000F0D4FFB6
:1051900003224C490B8893432B430B80494B1B88BC
:1051A0002342FBD03223484A1380484B1B88DB063E
:1051B00002D50822464B1A8030BF444B1B88DB06C1
:1051C00002D50822434B1A80602120223A480388E6
:1051D0008B4313430380394803888B431A4302806F
:1051E000FCF706F9042233699343336162B6C8229F
:1051F000394B1A80ABE5002394E723882B432380A7
:10520000238813432380FBF7D5F92388069A1D438F
:10521000324B25801A60EFF31082012383F310884C
:10522000A0218020C9050B8883430B80002A12D15E
:1052300082F310881F4B1B88DB0500D48BE700220C
:10524000274B0B204C331A70FBF700FA01223B88E6
:1052500013433B807FE7012383F31088EAE7012BA8
:10526000C4D130BFC2E7C04600150050021500503F
:105270000A150050041500500615005001040000E6
:10528000081500500E15005010150050347CFC0716
:10529000D5020000AA050000288EFC072BFDFFFFA9
:1052A0001000005000ED00E00C0300501200005010
:1052B000180000502A0000505200005024030050F3
:1052C000240000500A00005002000050140000505A
:1052D0000033005002330050003100502000F4072A
:1052E000A88BFC07F8B50746012000230246009072
:1052F0001946032044F786F80446022180300170E5
:10530000FF4DFE482A6843881146FF31F7310B866E
:1053100080884886FB48066A0123DB069E431E43BD
:105320000662FF320020FF32383250829082D082F3
:105330001D200882F4484884F448C882F448088351
:1053400000204882384644F79DFB01462868FF301C
:10535000F730C28B920992010A43C283ED4841683B
:1053600000208847002C02D0204643F734FC20461A
:10537000F8BDFFB58BB0064616980027022821D04D
:105380000D9801881498814278D371880846403876
:105390003F2802D8159850F731FC0C98361D00882C
:1053A000149A80190E9959F7A7FE0C980188149841
:1053B00008180C9908800D9801881498081A0D99FE
:1053C00008805CE100200E9D079069782C78090226
:1053D00021433180E978AC780902214371808C4601
:1053E000403904242D1D024603468E46402900D331
:1053F0002878614604291FD0052914D0062918D021
:1054000070463F283DD8159850F7F8FB0006000E6F
:1054100004D0C148008D0006C00F30D00223012007
:10542000BE4A002712E0697800290FD0BC4A172332
:105430000CE0BC4A0F2309E0522802D0D22802D047
:1054400002E0142000E01520B74A1F23002A1AD0DA
:10545000984218D2800010580490002813D00020E1
:105460000890059070884038402803D32878052498
:1054700030716D1C701D00900498B5E0FEE030277F
:10548000F0E03327EEE07088042872D10627E9E0C7
:10549000522862D00CDC4B283FD004DC41286AD073
:1054A000422858D111E04C2820D0502853D140E058
:1054B000632830D004DC572818D061284BD19BE0FA
:1054C0006C2864D0772846D109E0009829780170CB
:1054D0000098641C401CA4B26D1C009081E00498EC
:1054E000401C04900178089881427AD10098A41C4D
:1054F000401C41084900881C009068782A78000206
:10550000104308800599AD1CA4B2002969D0089009
:105510000020059065E00120FBE710222946009855
:1055200059F7EAFD009810341030A4B210350090FD
:1055300057E0204640301499039088420BD840220F
:105540002946009859F7D8FD0098403000900398FC
:10555000403584B245E0342743E0082229460098CC
:1055600059F7CAFD009808340830A4B208350090F5
:1055700037E068E0FFE706222946009859F7BCFDAE
:105580000098A41D801DA4B2AD1D009029E01498C0
:10559000001B80B203903088001B001D81B20120E7
:1055A00007900498401C04900098401C400840005C
:1055B00000900498007857281CD04228CBD100983E
:1055C0000170090A417000982946801C0090039AD6
:1055D00059F792FD03980399201884B20098401857
:1055E00000900498401C0490007800281ED0002FE2
:1055F00017D01BE04908E2E71498001B81B200981D
:105600000391401C40084000009001200A4607908A
:105610002946009859F770FD0399601884B20098E4
:10562000DDE70D990988A14200D331E70D98008884
:10563000A04208D304990978002904D107990029C8
:1056400003D1A04201D034270CE00D99001B088043
:105650000C9801880098801B001F08180C99002FD7
:1056600008800CD07088042809D0062807D040385C
:10567000402804D30E984079707100E034273846F2
:105680000FB0F0BDFFB581B01F4616460C46104660
:1056900057F7F6FB00257F2802D02189062909D07B
:1056A0003B4632462146019850F73BFE05462846C8
:1056B00005B0F0BDC00601D50225F8E72078002826
:1056C000F5D1300AA11D3CF7C4FFF0E7F1B598B061
:1056D00018983DF7BCF90446189805210079134A3B
:1056E0004006C00F099068460184618B08460A385D
:1056F000904276D2E08A062873D319E030BCFC07CA
:105700004CB9FC07C0000040108000002941000097
:105710007671000058BFFC0748BEFC073803F2074B
:105720004003F2079C03F207D803F207770C00004E
:105730001922D201904254D8228BFF23F5339A428A
:105740004FD8521C9300D2184243521C0A235210C5
:1057500059438A4245DC217F00290CD1617F002911
:1057600009D1A17F002906D1E17F002903D12021A1
:10577000095DC90635D0274620377978C906C90E94
:10578000491F0C292DD2A18A81422AD8E17C002907
:1057900027D0421E082A01D9082000E0401E81427D
:1057A0001FD8684641F714FA00281AD1FE4D062288
:1057B000286221460AA859F79FFCA8792E46803E08
:1057C00000287DD06079800901280BD00AA80999AA
:1057D00047F7CDFC010003D03820405C002870D092
:1057E0009BE008E1F06A807A012808D0042806D0FE
:1057F0000AA847F729FD286200284ED054E0686ABD
:1058000006220AA9323059F79BFC002806D00AA8C4
:1058100047F71AFD2862002802D012E0686AF9E70B
:1058200000210AA847F726FD2862F16A897A012932
:1058300005D18B071A6849068A430A431A60002873
:1058400011D0F16A286A06222530103159F778FC08
:10585000002808D1286AF16A2030C07AC97B8842C2
:1058600001D1286A1EE0D148D1490088C96880B2B8
:105870000622504308183DF7EFF8014614A8062207
:10588000023059F739FC13AA00213C203DF7B1FB47
:105890000121B06D42F7D8FDA9E011A90AA847F788
:1058A000E9FC2862002838D00146253106220FA8DD
:1058B00059F722FC286A08AA2030C17A0FA801E013
:1058C00041E024E047F736FB002812D0286A203058
:1058D000C07A002809D16846B649008C46F79DFA7F
:1058E00008AA0121B34847F725FB68460AA9008C9E
:1058F0000AE008AA012111A847F71CFB00280CD0D8
:10590000296A6846008C323146F79DFA05E00A188C
:10591000527D002A08D010286DDBF06A407A0228F8
:1059200006D0032804D00EE0401C1028EFDBF4E77B
:105930006846008C052806D308AA0AA8099947F7E3
:10594000F9FA002857D000226946204647F79BFB0A
:10595000002850D1F06A407A02280BD0032809D0E1
:105960000023684602880AA8099947F7ADFB00287A
:1059700002D02FE00123F4E7E18A68460181218B00
:105980004181618B81817878062241096846817561
:105990007878C106C90E6846417521460E3059F720
:1059A000ABFB189800794006C10F68460175038863
:1059B000214602A8B26D42F7EDF80146B06502A893
:1059C0003DF765FB0020B065214668461C31008824
:1059D00041F751F944F7D0F9734C2034207A00286C
:1059E00005D00021092057F78EFB002020720021EE
:1059F000084657F730FA19B0F0BDF8B56E4C0646B8
:105A000085000F4660594C21095C24290ED140695C
:105A10001022791D2E3059F76FFB61592520403136
:105A200008730022114630464FF73BFA60594C216B
:105A3000095C0C291FD140691022791D2E3059F7BD
:105A40005BFB60595F214069095C09072DD4014661
:105A50002E3110221E3059F773FB00280CD06059EC
:105A600009214030017330464FF738FF01460022CC
:105A700030464EF795FDF8BD0421684601706A4630
:105A8000052130464EF736FF684601786020014315
:105A90006846017030464FF721FF0146684602789C
:105AA000012330464EF791FEF8BD30464FF716FF02
:105AB000012809D0605907214030017300221146A6
:105AC00030464FF7EEF9F8BD615900204969C03101
:105AD000887160590421426930461E324EF70AFF30
