:0200000407FCF7
:100510000448054B10B5834203D0044B002B00D098
:10052000984710BDE405FC07E405FC070000000047
:1005300006480749091A8B10C90FC91810B5491088
:1005400003D0044B002B00D0984710BDE405FC07F6
:10055000E405FC070000000010B5074C2378002BD1
:1005600009D1FFF7D5FF054B002B02D0044800E06E
:1005700000BF0123237010BDE405FC07000000004C
:10058000C005FC07054B10B5002B03D004490548F6
:1005900000E000BFFFF7CCFF10BDC0460000000028
:1005A000E805FC07C005FC07F8B5C046F8BC08BC68
:1005B0009E467047F8B5C046F8BC08BC9E467047DA
:0C05C000DC05FC07DC05FC07080000005F
:1005CC00E405FC071C0000006C47FD070000000060
:0805DC008505FC075905FC0729
:00000001FF
